:020000040800F2
:100000000000022095AF0008F1950008F395000864
:10001000F5950008F7950008F99500080000000024
:10002000000000000000000000000000FB95000838
:10003000FD95000800000000FF95000801960008EB
:10004000E5AF0008E5AF0008E5AF0008E5AF000840
:10005000E5AF0008E5AF0008E5AF0008E5AF000830
:10006000E5AF0008E5AF0008E5AF00080996000815
:100070001996000829960008399600084996000844
:10008000E5AF0008E5AF0008E5AF0008E5AF000800
:10009000E5AF0008E5AF0008E5AF0008E5AF0008F0
:1000A000E5AF0008E5AF0008E5AF0008E5AF0008E0
:1000B000E5AF0008E5AF0008E5AF0008E5AF0008D0
:1000C000E5AF0008E5AF0008E5AF0008E5AF0008C0
:1000D00059960008E5AF0008E5AF0008E5AF000855
:1000E000E5AF0008E5AF000800000000E5AF00083C
:1000F000E5AF0008E5AF0008E5AF0008E5AF000890
:10010000E5AF000869960008E5AF0008E5AF000814
:10011000E5AF0008E5AF0008E5AF0008E5AF00086F
:10012000E5AF0008E5AF0008E5AF0008E5AF00085F
:10013000E5AF0008E5AF0008E5AF0008E5AF00084F
:1001400000000000000000000000000000000000AF
:10015000E5AF0008E5AF0008E5AF0008E5AF00082F
:10016000E5AF0008E5AF0008E5AF0008E5AF00081F
:10017000E5AF0008E5AF0008E5AF000800000000AB
:10018000E5AF0008E5AF0008E5AF0008E5AF0008FF
:10019000E5AF0008E5AF0008E5AF0008E5AF0008EF
:1001A000E5AF0008E5AF0008E5AF0008E5AF0008DF
:1001B000E5AF0008E5AF0008E5AF0008E5AF0008CF
:1001C000E5AF0008E5AF0008E5AF0008E5AF0008BF
:1001D000E5AF0008E5AF0008E5AF0008E5AF0008AF
:1001E000E5AF0008E5AF0008E5AF0008E5AF00089F
:1001F000E5AF0008E5AF0008E5AF0008E5AF00088F
:10020000E5AF0008E5AF0008E5AF0008E5AF00087E
:10021000E5AF0008E5AF0008E5AF0008E5AF00086E
:10022000E5AF0008E5AF0008E5AF000800000000FA
:10023000E5AF0008E5AF000800000000E5AF0008EA
:10024000E5AF0008E5AF0008E5AF0008E5AF00083E
:10025000E5AF0008E5AF0008E5AF0008E5AF00082E
:10026000E5AF0008E5AF0008E5AF0008E5AF00081E
:10027000E5AF0008E5AF0008E5AF000800000000AA
:10028000E5AF0008E5AF0008E5AF0008000000009A
:0802900000000000E5AF0008CA
:1002980010B5054C237833B9044B13B10448AFF3B8
:1002A80000800123237010BDE8000020000000003A
:1002B800CCD2000808B5034B1BB103490348AFF380
:1002C800008008BD00000000EC000020CCD200082F
:1002D80080F0004002E000BF81F0004142001FBFF3
:1002E8005FEA410392EA030F7FEA226C7FEA236CFC
:1002F8006AD04FEA1262D2EB1363C1BFD2184140F1
:1003080048404140B8BF5B42192B88BF704710F086
:10031800004F40F4000020F07F4018BF404211F029
:10032800004F41F4000121F07F4118BF494292EA91
:10033800030F3FD0A2F1010241FA03FC10EB0C00BD
:10034800C3F1200301FA03F100F0004302D549424A
:1003580060EB4000B0F5000F13D3B0F1807F06D3F7
:1003680040084FEA310102F10102FE2A51D2B1F1EF
:10037800004F40EBC25008BF20F0010040EA0300E4
:100388007047490040EB000010F4000FA2F1010291
:10039800EDD1B0FA80FCACF1080CB2EB0C0200FA1B
:1003A8000CF0AABF00EBC25052421843BCBFD04069
:1003B8001843704792F0000F81F4000106BF80F4E3
:1003C80000000132013BB5E74FEA41037FEA226CA6
:1003D80018BF7FEA236C21D092EA030F04D092F071
:1003E800000F08BF0846704790EA010F1CBF0020A5
:1003F800704712F07F4F04D1400028BF40F0004002
:10040800704712F100723CBF00F50000704700F021
:10041800004343F0FE4040F4000070477FEA226248
:1004280016BF08467FEA23630146420206BF5FEA19
:10043800412390EA010F40F4800070474FF0000319
:1004480004E000BF10F0004348BF40425FEA000CE0
:1004580008BF704743F0964301464FF000001CE088
:1004680050EA010208BF70474FF000030AE000BFDE
:1004780050EA010208BF704711F0004302D540421C
:1004880061EB41015FEA010C02BF8446014600208E
:1004980043F0B64308BFA3F18053A3F50003BCFAA9
:1004A8008CF2083AA3EBC25310DB01FA02FC634456
:1004B80000FA02FCC2F12002BCF1004F20FA02F25D
:1004C80043EB020008BF20F00100704702F1200250
:1004D80001FA02FCC2F1200250EA4C0021FA02F2B1
:1004E80043EB020008BF20EADC707047104B1B7812
:1004F8000BB90120704710B504464FF47A70B0FB71
:10050800F3F30C4A1068B0FBF3F000F027FF68B96A
:100518000F2C01D901200AE0002221464FF0FF30BC
:1005280000F0DCFE044B1C60002000E0012010BD40
:1005380000000020780000200400002010B50320EF
:1005480000F0BAFE03F004F80F498B69C3F30323E4
:100558000E4AD35C03F01F03D8408B6903F00F03E6
:10056800D35C03F01F0320FA03F3094A1360094B15
:1005780018600020FFF7BAFF10B10124204610BD13
:10058800044609F01FF8F9E70044025804D30008AC
:100598007C00002078000020034B1B78034A116878
:1005A8000B441360704700BF000000205C0100206E
:1005B800014B1868704700BF5C01002038B504463D
:1005C800FFF7F6FF0546B4F1FF3F02D0044B1B7856
:1005D8001C44FFF7EDFF401BA042FAD338BD00BF13
:1005E80000000020014B1868000C70470010005CE8
:1005F800034A136823F0407318431060704700BF24
:100608000040005208B5806B07F0A3FF08BD704793
:1006180008B5836B5A6D12F0500F31D15A6D42F400
:1006280000725A651A68116811F0080F14D0D16861
:1006380011F4406F20D1D26812F4005F1CD15A6DBA
:1006480022F480725A655A6D12F4805F14D15A6D83
:1006580042F001025A650FE0D26812F0030F0BD185
:100668005A6D22F480725A655A6D12F4805F03D174
:100678005A6D42F001025A65184607F065FF08BD39
:100688005A6D12F0100F03D1DB6CDB6C9847F6E75C
:100698001846FFF7BCFFF2E708B5806B436D43F0DF
:1006A80040034365836D43F004038365FFF7AFFFA1
:1006B80008BD0000F0B482B00022019290F85020EA
:1006C800012A00F03B820346012280F8502004688A
:1006D800A26812F004020AD0426D42F0200242657C
:1006E8000120002283F8502002B0F0BC704708684F
:1006F800C0F31305002D50D1C0F384600125854057
:10070800E0692843E0611F684E680D683037300A99
:10071800800000F00C003C5806F01F064FF01F0C3C
:100728000CFA06FC24EA0C04C5F38465B5402C4396
:100738003C501868846814F0040F37D00124856889
:1007480015F0080F34D001252C4365D10F688C684B
:1007580000F11405780E800000F004002E58C7F34D
:1007680004574FF0070C0CFA07FC26EA0C06BC40AD
:1007780034432C50A948006800F07040B0F1805F05
:1007880018D01C68E06810F0100F67D14869E46859
:10079800C4F382046400A04013E090FAA0F0B0FA19
:1007A80080F000F01F0001258540A9E70024C6E776
:1007B8000025C9E748691C68E468C4F3820464003A
:1007C800A0400D69042D57D01F680E68603757F890
:1007D800254004F0004406F0F8463043204347F82B
:1007E800250018680E694C7E012C3FD015466030F4
:1007F80050F8264024F000442C4340F826401D6859
:100808000C69087E012834D0286920F4F04004F0EF
:100818001F04A24002432A611868826812F0010F7F
:1008280040F088810A68CD68D0F8C040C2F313064A
:1008380024EA060405F01806794DF5402A40C2F36B
:1008480013022243C0F8C020C868764A904247D0B5
:100858000A68002AC0F2E880002042E74869E46894
:10086800A40804F004046400A040AAE74FF000457F
:10087800BDE74FF40062C7E71868026E02F0F8425D
:100888000C68B2EB846F1CD01868426E02F0F84214
:100898000C68B2EB846F19D01868826E02F0F842C7
:1008A8000C68B2EB846F16D01868C26E02F0F8427A
:1008B8000C68B2EB846FAFD1C26E22F00042C26600
:1008C800AAE7026E22F000420266DDE7426E22F0DD
:1008D80000424266E0E7826E22F000428266E3E769
:1008E8001D680A68C2F3130696BB900E013000F02B
:1008F8001F0009288CBF00200120002852D09EBB71
:10090800940E0134A40604F0F844B6BB900E0130EE
:1009180000F01F070120B8400443C6BB920E013205
:1009280002F01F0202EB4202120522438C681435C2
:10093800500E800000F004002E58C2F3045207271E
:10094800974026EA070604FA02F232432A507FE764
:1009580092FAA2F0B0FA80F0013000F01F000928E6
:100968008CBF00200120C8E792FAA2F4B4FA84F4FC
:100978000134A40604F0F844C7E792FAA2F0B0FAEA
:1009880080F0013000F01F070120B840C4E792FA58
:10099800A2F2B2FA82F2013202F01F0202EB420224
:1009A8001205C2E7CEB9940E0134A40604F0F84447
:1009B800E6B9900E013000F01F070120B84004434B
:1009C800F6B9900E013000F01F0000EB40021E3A0D
:1009D800120542F000722243A8E792FAA2F4B4FA90
:1009E80084F40134A40604F0F844E1E792FAA2F092
:1009F800B0FA80F0013000F01F070120B840DEE7B0
:100A080092FAA2F0B0FA80F0013000F01F0000EB7B
:100A180040021E3A120542F00072DCE70010005C4A
:100A2800FFFF0F000000FF4719684548454CA142E9
:100A380018BF81420CBF0120002021D1424DAC6873
:100A480004F0E07610B33E48806810F0010F19D02A
:100A580001203C4FBF6817F0010F15D0012738431C
:100A68000CBF0120002000285ED03848824218D0F0
:100A78003748824236D03748824244D0002030E698
:100A8800354DDCE70020E4E70027E8E733488068D5
:100A980010F0010F03D0012080F00100E3E70020EF
:100AA800FAE714F4000FE3D12C4A914201D0002058
:100AB80017E646F40002A96821F0E0710A43AA602B
:100AC800274A126892092749A1FB0212920952008B
:100AD800019202E0019A013A0192019A002AF9D1A1
:100AE8000020FEE514F0807FC5D11C4A914201D058
:100AF8000020F6E546F08072A96821F0E0710A430B
:100B0800AA600020EDE514F4800F15D1134A914234
:100B180001D00020E5E546F48002A96821F0E071E3
:100B28000A43AA600020DCE55A6D42F020025A65AB
:100B38000120D6E50020D4E50020D2E50220D3E547
:100B4800002002400021024000230240000084CB24
:100B5800000052C70000B8CF006302580060025876
:100B680078000020632D3E0538B503689A6812F0B6
:100B7800010F52D199682A4A114209D0436D43F0B6
:100B880010034365836D43F001038365012045E04D
:100B980004469968234A0A4042F001029A60FFF726
:100BA80007FD054623682049204A934218BF8B4217
:100BB8000DD102F50072926802F01F021B498B42A8
:100BC80007D0194699420CD05AB1002026E0184A9D
:100BD800F1E7A1F58071F5E7FFF7EAFC401B022871
:100BE8000FD823681A6812F0010F14D19A6812F00E
:100BF800010FF1D199680B4A0A4042F001029A604C
:100C0800EAE7636D43F010036365A36D43F00103E6
:100C1800A365012002E0002000E0002038BD00BFED
:100C28003F000080C0FFFF7F0020024000210240FB
:100C380000630258F8B50468414E424DAC4218BFF3
:100C4800B4421ED105F50075AD6805F01F05A4680E
:100C580014F0040F6ED190F85040012C6DD0012390
:100C680080F85030052D14BF00240124002D08BF42
:100C78001C4644B9092D06D0002380F850300123C2
:100C880059E0314DE0E716460F460446FFF76CFF82
:100C9800034600284AD1626D2C4B134043F48073FD
:100CA80063652368274A93423AD01A46934200D094
:100CB8001DB9636D23F480136365636D13F4805F5E
:100CC80031D0A36D23F00603A365E36C204ADA63F1
:100CD800E36C204A1A64E36C1F4ADA6423681C2216
:100CE8001A60002384F850302268536843F01003D8
:100CF80053602168E36ACA6822F003021343CB6099
:100D0800216833463A464031E06C00F067FF0346FD
:100D180021688868114A024042F004028A600AE0A9
:100D2800A2F58072C2E70023A365CEE7002284F80B
:100D3800502000E002231846F8BD0223FBE700BF5D
:100D4800002002400021024000630258FEF0FFFF2D
:100D5800190600080D060008A1060008C0FFFF7F5D
:100D680038B5054603684F494F4A934218BF8B422E
:100D780023D14E4B9B6813F4403F14BF012300233B
:100D88004BB302F025FE04466B68B3F5003F1CD058
:100D9800B3F5403F1DD0B3F5803F16D0FFF722FCD6
:100DA80041F20303984256D8414B9C424DD92A68D8
:100DB800936843F48073936038BD3E4B9B6813F48B
:100DC800403F14BF01230023DAE71B0CB4FBF3F404
:100DD800E4E78408E2E74FF4002003F0C3FE04468A
:100DE8006B68B3F5C01F16D00BD9B3F5101F28D008
:100DF8001DD8B3F5E01F22D0B3F5001FCED14409AA
:100E0800CCE7B3F5402F06D00AD8B3F5802F02D02F
:100E1800B3F5002FC2D19B0C5B00B4FBF3F4BDE724
:100E2800B3F5801FF7D0B3F5A01FB7D1F3E7B3F53B
:100E3800201F08D0B3F5301FB0D1040AAEE704096B
:100E4800ACE78409AAE7C409A8E72A68936823F4E9
:100E580080739360B0E76408174B9C420BD9174B1B
:100E68009C420ED9164B9C4213D92A68936843F4C6
:100E780040739360A0E72A68936823F440739360F3
:100E88009AE72A68936823F4407343F48073936065
:100E980092E72A68936823F4407343F400739360DD
:100EA8008AE700BF002002400021024000230240E0
:100EB800002D310100630258105E5F0020BCBE00A7
:100EC80040787D0130B583B000230193002800F0FD
:100ED8001C810446436DE3B123689A6812F0005FF1
:100EE80003D099688A4A0A409A6023689A6812F07F
:100EF800805F1BD19968874A0A4042F080529A6005
:100F0800854B1B689B09854AA2FB03239B09019318
:100F180009E006F0A3FE0023A36584F85030DBE760
:100F2800019B013B0193019B002BF9D123689A682F
:100F380012F0805F40F09D80626D42F010026265A1
:100F4800A26D42F00102A26501259A6812F0040F11
:100F580000F091800121626D12F0100F40F0CD80F9
:100F6800002940F0CA80626D22F4817242F00202C8
:100F780062659A6812F0010F21D16949694A934262
:100F880018BF8B420CBF012300237AD18A6812F064
:100F9800010F72D001226349896811F0010F6ED0E8
:100FA80001210A430CBF0122002242B1002B73D059
:100FB8005D4963688A6822F47C1213438B60FFF7EB
:100FC80011FB41F20303984202D9A368102B65D0A4
:100FD800627D236B43EA4233A2681343227F43EACC
:100FE8000243227F012A64D0626A22B102F4787235
:100FF800A16A0A4313432168C8684C4A0240134354
:10100800CB6023689A6812F0040F57D001219A68C0
:1010180012F0080F54D001220A431BD1217DE26A45
:1010280042EA8131D868424A02400A43DA6094F8B9
:101038003830012B46D02268136923F0010313616D
:101048002268136923F07043616B0B4313612046D8
:10105800FFF786FEE368012B46D02268136B23F066
:101068000F031363636D23F0030343F00103636508
:1010780048E0002569E700216DE700228BE70021A1
:101088008FE72C4A926812F0010F03D0012282F0F8
:1010980001028AE70022FAE727498AE7617D226B85
:1010A80042EA41321343227F43EA024343F00C03EE
:1010B80097E7226A013A43EA424395E70021A6E707
:1010C8000022A9E7206802691C4B1340E26B511EFD
:1010D800226C42EA0142616C0A43A16C0A43134341
:1010E80043F001030361ABE721680B6B23F00F03A7
:1010F800A269013A13430B63B4E7636D43F010032D
:1011080063650125284603B030BD0125FAE700BF15
:10111800C0FFFF5FC0FFFF6F78000020632D3E0512
:1011280000200240002102400023024003C0F0FFDB
:10113800FCBFFFFF00600258006302581EF800FC65
:1011480090F85020012A00F0AA8030B49AB00346E3
:10115800012280F8502002685248824243D0002081
:1011680001900198002842D0806810F0040F47D001
:101178000124906810F0040F40F08280002C7FD189
:10118800484C4948824218BFA2423BD100F5007042
:101198000A68002A47D0826822F440424C682243F9
:1011A80082601A683F4D404CA24218BFAA422FD114
:1011B800AA6812F0010F27D001243B4A926812F066
:1011C800010F23D0012222430CBF01220022002A52
:1011D80061D08468354A22400C68896821430A43F3
:1011E8008260002051E000F580700190B9E75A6DE7
:1011F80042F020025A65002283F85020012047E07F
:101208000024B6E72A48C3E70024D6E70022DAE735
:10121800284A926812F0010F03D0012282F00102DD
:10122800D5E70022FAE7816821F440418160196816
:101238001C4D1D4CA14218BFA94217D1A96811F035
:10124800010F11D001241849896811F0010F00D04D
:10125800012222430CBF01220022F2B18168134A05
:101268000A408260002010E01446ECE711498968C2
:1012780011F0010F00D00122B2FA82F25209ECE714
:101288005A6D42F020025A650120002283F850204E
:101298001AB030BC70470020F7E70020F5E70220BD
:1012A800704700BF0020024000210240E0F0FFFF2D
:1012B80000630258006002580649CB6823F4E063D3
:1012C8001B041B0C000200F4E0600343024A1A43AB
:1012D800CA60704700ED00E00000FA0530B4154B15
:1012E800DB68C3F30223C3F10704042C28BF0424DA
:1012F8001D1D062D14D9033B4FF0FF3505FA04F4E4
:1013080021EA0401994005FA03F322EA0303194389
:10131800002807DB0901C9B2074B195430BC7047D4
:101328000023E9E700F00F000901C9B2034B195483
:10133800F4E700BF00ED00E000E400E014ED00E099
:10134800002807DB00F01F02400901239340024AEE
:1013580042F82030704700BF00E100E00138B0F1EA
:10136800807F0AD2064B5860064AF02182F8231083
:101378000020986007221A6070470120704700BF5C
:1013880010E000E000ED00E0BFF35F8F044A536A0D
:1013980023F480335362034B00225A60704700BF26
:1013A80000ED00E090ED00E040F00100054B5860D2
:1013B800054A536A43F480335362BFF34F8FBFF338
:1013C8006F8F704790ED00E000ED00E04278134B1E
:1013D8009A60037823B9114B0022DA601A617047CA
:1013E80043680E4AD360017BC37A1B0643EA017344
:1013F800817A43EAC143417B43EA8143817B43EAE3
:101408004143C17B43EA0143417A43EA0123017A1C
:1014180043EA410301780B431361704790ED00E004
:10142800F0B4876D0468654E654DAC4218BFB44290
:1014380042D01835AC423FD01835AC423CD01835B4
:10144800AC4239D01835AC4236D01835AC4233D01E
:101458001835AC4230D005F55675AC422CD018354D
:10146800AC4229D01835AC4226D01835AC4223D02E
:101478001835AC4220D01835AC421DD01835AC42D6
:101488001AD01835AC4217D04E4DAC4214D0143592
:10149800AC4211D01435AC420ED01435AC420BD04E
:1014A8001435AC4208D01435AC4205D01435AC42E2
:1014B80002D01435AC4207D1446E856E6560C46EA7
:1014C80014B1046F456F656004683C4E3C4DAC42F6
:1014D80018BFB44252D01835AC424FD01835AC4280
:1014E8004CD01835AC4249D01835AC4246D01835E6
:1014F800AC4243D01835AC4240D005F55675AC42E5
:101508003CD01835AC4239D01835AC4236D01835F5
:10151800AC4233D01835AC4230D01835AC422DD05F
:101528001835AC422AD01835AC4227D0254E264D66
:10153800AC4218BFB44211D0244DAC420ED0143581
:10154800AC420BD01435AC4208D01435AC4205D0AF
:101558001435AC4202D01435AC4223D1C46D04F02A
:101568001F050124AC407C60046863608368402BDD
:101578001FD0036899600368DA6013E0C46D04F053
:101588001F053F24AC40BC6005682C6824F4802407
:101598002C60046863608368402B05D003689960F9
:1015A8000368DA60F0BC704703689A600368D96022
:1015B800F8E703689A600368D960F3E7100002400F
:1015C80028000240085402581C540258305402584B
:1015D80002682849284B9A4218BF8A422FD01833EC
:1015E8009A422CD018339A4229D018339A4226D0DE
:1015F80018339A4223D018339A4220D018339A428B
:101608001DD003F556739A4219D018339A4216D052
:1016180018339A4213D018339A4210D018339A428A
:101628000DD018339A420AD018339A4207D018338B
:101638009A4204D022F0FF028265806D704710B490
:10164800D3B2103B0D49A1FB03131B0903F007019B
:101658000B4C615CC165032B06D80A4B13408365AC
:10166800806D5DF8044B7047064B13400433836567
:10167800F6E700BF1000024028000240ABAAAAAA61
:10168800E8D2000800FCFFFF83699BB9836A012B3D
:101698000AD01BB1022B01D000207047C36A13F097
:1016A800807F2ED100207047C36AB3F1C07F2AD053
:1016B80000207047B3F5005F06D0836A022B2AD951
:1016C800032B16D000207047836A032B03D8DFE86A
:1016D80003F01C041C0A00207047C36A13F0807FC3
:1016E80015D100207047C36AB3F1C07F11D0002024
:1016F8007047C36A13F0807F01D001207047002033
:101708007047012070470120704701207047012071
:101718007047012070470120704700000368224984
:10172800224A934218BF8B4228D01432934225D0C4
:101738001432934222D0143293421FD0143293426F
:101748001CD01432934219D01432934216D0DAB214
:10175800103A1749A1FB0212120916491944A8297F
:101768001FD9154B13449B000366144B436602F0C4
:101778001F02012303FA02F282667047DBB2083BBC
:101788000F4AA2FB03231B090E4A1A449200026661
:101798000D4A426603F01F03012202FA03F383662F
:1017A80070470832DDE700BF085402581C5402583D
:1017B800ABAAAAAAF0FBFDBF008200108008024075
:1017C800CDCCCCCC009600168058025801794A1E20
:1017D800072A2CD830B40368154D164CA34218BFFD
:1017E800AB4218D01434A34215D01434A34212D0FB
:1017F8001434A3420FD01434A3420CD01434A3429F
:1018080009D01434A34206D00B4B0B449B00C3668B
:101818000A4B036705E00A4B0B449B00C366094B60
:101828000367012303FA02F2426730BC704770472E
:10183800085402581C5402583F82001040090240C4
:101848003F9600164059025870B50446FEF7B0FEA0
:10185800002C00F0BD8105462368B749B74A93427A
:1018680018BF8B420CBF0122002250D030318B426E
:101878004DD018318B424AD018318B4247D018319D
:101888008B4244D018318B4241D018318B423ED024
:1018980001F556718B423AD018318B4237D0183146
:1018A8008B4234D018318B4231D018318B422ED034
:1018B80018318B422BD018318B4228D018318B42EB
:1018C80025D09F499F4A934218BF8B4200F024813C
:1018D8009D4A934200F020811432934200F01C810B
:1018E8001432934200F018811432934200F01481AC
:1018F8001432934200F010811432934200F00C81AC
:1019080040236365032384F8353001204AE0002131
:1019180084F83410022184F835107ABB8B4A93423C
:101928002CD01832934229D01832934226D018323C
:10193800934223D01832934220D0183293421DD0BC
:1019480002F55672934219D01832934216D01832C3
:10195800934213D01832934210D0183293420DD0CC
:10196800183293420AD01832934207D01832934261
:1019780004D01A6822F001021A6003E01A6822F003
:1019880001021A6023681A6812F0010F0BD0FEF7E3
:101998000FFE401B0528F5D920236365032384F82F
:1019A8003530012070BD1A6869481040A168E268A6
:1019B8000A4321690A4361690A43A1690A43E16943
:1019C8000A43216A0A430243616A042900F09980A4
:1019D8006049086860490140B1F1005F11D361684E
:1019E800A1F12905A1F13F00032888BF052D06D9DB
:1019F800A1F14700012802D94F39032901D842F43F
:101A080080121A602668756925F00705636A1D4308
:101A1800042B08D1A36A1D43E36A23B12046FFF7CC
:101A280033FE002872D175612046FFF7D1FDE36DC2
:101A380003F01F023F239340836023683E493F4AD7
:101A4800934218BF8B4242D0183293423FD018328B
:101A580093423CD01832934239D01832934236D050
:101A68001832934233D01832934230D002F556726E
:101A780093422CD01832934229D01832934226D060
:101A88001832934223D01832934220D0183293420E
:101A98001DD0183293421AD01832934217D0284AD0
:101AA800934214D01432934211D0143293420ED080
:101AB800143293420BD01432934208D0143293421A
:101AC80005D01432934202D01432934213D12046E7
:101AD800FFF724FEA368802B6DD0236E22791A604D
:101AE800636EA26E5A606368013B072B66D90023B8
:101AF800E3662367636700206065012384F8353057
:101B080050E7E16A206B01430A4361E740236365BC
:101B1800012084F8350045E7002284F834200222A9
:101B280084F835201A680D491140A268402A1AD055
:101B3800802A15D0002217E0100002402800024039
:101B4800085402581C5402583054025840000240AD
:101B58003F8010FE0010005C0000FFFF0F00FEFF3A
:101B68004FF4804200E01022E06842EAD002206987
:101B780042EAD002606942EAD002A06942EAD00291
:101B8800E06942EAD002206A42EA10120A431A6067
:101B98002268104B1344104AA2FB03231B099B0025
:101BA800E3652046FFF714FDE36D03F01F020123F0
:101BB8009340436041E7002363608EE72046FFF7C8
:101BC80005FEE36E00221A60236F626F5A6092E787
:101BD8000120E7E6F8ABFDA7CDCCCCCC002800F07F
:101BE8003E8170B5044690F83400012800F0398130
:101BF800012084F8340094F83500C0B2012807D0D9
:101C0800002384F834304FF400636365012070BD0D
:101C1800022084F83500002060652068924E934DBC
:101C2800A84218BFB0422FD01835A8422CD018357A
:101C3800A84229D01835A84226D01835A84223D062
:101C48001835A84220D01835A8421DD005F556757C
:101C5800A84219D01835A84216D01835A84213D072
:101C68001835A84210D01835A8420DD01835A8420A
:101C78000AD01835A84207D01835A84204D00568FC
:101C880025F00105056003E0056825F001050560FC
:101C98002046FFF7C5FB23687349744A934218BF6F
:101CA8008B4238D01832934235D01832934232D012
:101CB800183293422FD0183293422CD018329342C4
:101CC80029D01832934226D002F55672934222D078
:101CD800183293421FD0183293421CD018329342C4
:101CE80019D01832934216D01832934213D01832B2
:101CF800934210D0183293420DD01A6822F00E0287
:101D080042F00A021A60236C93B12268136843F008
:101D1800040313600CE01A6822F01E0242F0160257
:101D28001A60236C23B12268136843F00803136018
:101D380023684D494D4A934218BF8B4242D018320E
:101D480093423FD0183293423CD01832934239D054
:101D58001832934236D01832934233D01832934215
:101D680030D002F5567293422CD01832934229D0C3
:101D78001832934226D01832934223D01832934215
:101D880020D0183293421DD0183293421AD01832FC
:101D9800934217D0364A934214D01432934211D04A
:101DA800143293420ED0143293420BD01432934221
:101DB80008D01432934205D01432934202D0143220
:101DC80093420ED1236E1A6812F4803F03D01A682A
:101DD80042F480721A60E36E1BB11A6842F4807292
:101DE8001A6023682049214A934218BF8B4230D099
:101DF800183293422DD0183293422AD01832934287
:101E080027D01832934224D01832934221D0183266
:101E180093421ED002F5567293421AD0183293425A
:101E280017D01832934214D01832934211D0183276
:101E380093420ED0183293420BD01832934208D0F6
:101E48001832934205D01A6842F001021A60002045
:101E5800DDE61A6842F001021A600020D7E6012088
:101E680070470220D3E600BF10000240280002405D
:101E780008540258002800F03A8108B5024690F844
:101E88003530DBB2022B03D080234365012008BD27
:101E98000368994899498B4218BF83420CBF0121B6
:101EA800002100F0E4803030834200F0E0801830F8
:101EB800834200F0DC801830834200F0D88018306C
:101EC800834200F0D4801830834200F0D08018306C
:101ED800834200F0CC8000F55670834200F0C78042
:101EE8001830834200F0C3801830834200F0BF806E
:101EF8001830834200F0BB801830834200F0B7806E
:101F08001830834200F0B3801830834200F0AF806D
:101F18001830834200F0AB80196821F00E01196077
:101F28001368A0F5956075498B4218BF83422BD082
:101F380073498B4228D018318B4225D018318B42F7
:101F480022D018318B421FD018318B421CD0183147
:101F58008B4219D001F556718B4215D018318B423E
:101F680012D018318B420FD018318B420CD0183157
:101F78008B4209D018318B4206D018318B4203D0DE
:101F880018318B4240F0AE80196821F001011960C8
:101F98001368594859498B4218BF834242D01831B7
:101FA8008B423FD018318B423CD018318B4239D00C
:101FB80018318B4236D018318B4233D018318B42CE
:101FC80030D001F556718B422CD018318B4229D074
:101FD80018318B4226D018318B4223D018318B42CE
:101FE80020D018318B421DD018318B421AD01831AD
:101FF8008B4217D043498B4214D014318B4211D0F5
:1020080014318B420ED014318B420BD014318B42D9
:1020180008D014318B4205D014318B4202D01431D0
:102028008B4217D1116E0B6823F480730B60906D8F
:10203800D36D03F01F0101238B404360536E916EF3
:102048005960D36E33B1196821F480711960136F28
:10205800516F5960002382F83430012382F83530FB
:10206800136D002B45D01046984700200FE7042039
:1020780082F8350081BB224A93422DD01832934210
:102088002AD01832934227D01832934224D01832DB
:10209800934221D0183293421ED002F556729342D1
:1020A8001AD01832934217D01832934214D01832EB
:1020B800934211D0183293420ED0183293420BD06B
:1020C8001832934208D01832934205D01A6822F089
:1020D80001021A600020DAE61A6822F001021A608A
:1020E8000020D4E6196821F00101196050E70120A9
:1020F80070470020CBE600BF1000024028000240D5
:102108004000024008540258F0B583B0044600234A
:102118000193A24B1D68A24BA3FB0535AD0A876D41
:102128003E68D7F800C003689E499F48834218BF9D
:102138008B420CBF0120002061D09C4A93425ED0A4
:10214800183293425BD01832934258D018329342D7
:1021580055D01832934252D0183293424FD002F5DC
:10216800567293424BD01832934248D01832934259
:1021780045D01832934242D0183293423FD0183299
:1021880093423CD01832934239D01832934236D019
:102198008749884A934218BF8B4212D0864A934295
:1021A8000FD0143293420CD01432934209D0143217
:1021B800934206D01432934203D01432934240F033
:1021C80062821A68E16D01F01F010420884010EA5C
:1021D8000C0F00F0A88212F0040F00F0A4827860BF
:1021E80012F4004F00F05B8212F4803F40F05182FD
:1021F800A36C002B00F047822046984743E2E26D2B
:1022080002F01F0108228A40324241D070BB674A5F
:1022180093422BD01832934228D01832934225D0BB
:102228001832934222D0183293421FD01832934268
:102238001CD002F55672934218D01832934215D02A
:102248001832934212D0183293420FD01832934268
:102258000CD01832934209D01832934206D0183263
:10226800934203D01A68C2F3C00202E01A68C2F3AC
:1022780080026AB11A6822F004021A60E36D03F062
:102288001F0208239340BB60636D43F0010363653D
:10229800E26D02F01F0226FA02F313F0010F37D0A5
:1022A8002368404840498B4218BF83422CD01831DC
:1022B8008B4229D018318B4226D018318B4223D03B
:1022C80018318B4220D018318B421DD018318B42E7
:1022D8001AD001F556718B4216D018318B4213D0A3
:1022E80018318B4210D018318B420DD018318B42E7
:1022F8000AD018318B4207D018318B4204D01831DC
:102308008B4201D01B6803E05B6913F0800F3BD15F
:10231800E36D03F01F03042202FA03F3334251D0A2
:102328002268204820498A4218BF824246D0183184
:102338008A4243D018318A4240D018318A423DD06F
:1023480018318A423AD018318A4237D018318A4235
:1023580034D001F556718A4230D018318A422DD0D6
:1023680018318A422AD018318A4227D018318A4235
:1023780024D018318A4221D018318A421ED018310F
:102388008A421BD013681DE0012303FA02F2BA60E7
:10239800636D43F002036365BAE700BF780000206D
:1023A800B5814E1B10000240280002404000024048
:1023B800085402581C54025830540258126812F03B
:1023C800020F3DD1E36D03F01F03102202FA03F35D
:1023D80033425FD022689B489B498A4218BF824299
:1023E80034D018318A4231D018318A422ED018316F
:1023F8008A422BD018318A4228D018318A4225D0F7
:1024080018318A4222D001F556718A421ED01831FD
:102418008A421BD018318A4218D018318A4215D006
:1024280018318A4212D018318A420FD018318A42A4
:102438000CD018318A4209D01268C2F3800208E031
:10244800BB60636D43F004036365BBE71268C2F3C6
:10245800C002FAB1BB6023681A6812F4802F0DD04D
:102468001B6813F4002F04D1236C9BB120469847B6
:1024780010E0A36C73B1204698470BE01A6812F479
:10248800807F03D11A6822F008021A60236C0BB10E
:1024980020469847E36D03F01F03202202FA03F356
:1024A800334200F08E802268664867498A4218BF26
:1024B80082422ED018318A422BD018318A4228D035
:1024C80018318A4225D018318A4222D018318A42DE
:1024D8001FD018318A421CD001F556718A4218D093
:1024E80018318A4215D018318A4212D018318A42DE
:1024F8000FD018318A420CD018318A4209D01831CD
:102508008A4206D018318A4203D01268C2F34002C8
:1025180002E01268C2F30012002A52D0BB6094F89D
:102528003530DBB2042B0ED023681A6812F4802FE2
:1025380035D01B6813F4002F2CD1636C002B40D0CE
:10254800204698473DE02268136823F0160313607D
:102558002268536923F080035361236CB3B1226866
:10256800136823F008031360E36D03F01F023F2391
:102578009340BB60002384F83430012384F835305D
:10258800236D002B7FD0204698477CE0A36C002B5E
:10259800E5D1E9E7E36BA3B12046984711E01A6853
:1025A80012F4807F09D11A6822F010021A60002301
:1025B80084F83430012384F83530E36B0BB12046BE
:1025C8009847636D002B5ED0636D13F0010F56D0F2
:1025D800042384F8353023681A491B4A934218BFEC
:1025E8008B4233D01832934230D0183293422DD0D8
:1025F800183293422AD01832934227D01832934285
:1026080024D01832934221D002F5567293421DD03D
:10261800183293421AD01832934217D01832934284
:1026280014D01832934211D0183293420ED0183277
:1026380093420BD01832934208D01A6822F0010254
:102648001A6007E010000240280002401A6822F0D1
:1026580001021A60019B01330193AB4204D823683D
:102668001B6813F0010FF5D1002384F83430236878
:102678001B6813F0010F08D0032384F83530E36C8E
:102688000BB12046984703B0F0BD012384F83530DC
:10269800F5E7236C002BF6D020469847F3E712F0B5
:1026A800200F35D123686449644A934218BF8B428E
:1026B8002AD01832934227D01832934224D01832A5
:1026C800934221D0183293421ED0183293421BD025
:1026D8001832934218D002F55672934214D0183229
:1026E800934211D0183293420ED0183293420BD035
:1026F8001832934208D01832934205D018329342C8
:1027080002D01832934209D11A6822F008021A60DE
:10271800236C002BB7D020469847B4E71A6822F0FC
:1027280004021A60F4E70220884010EA0C0F60D017
:1027380012F0020F5DD0786012F4004F0ED012F440
:10274800803F05D1636C002B9DD0204698479AE7BF
:10275800E36B002B97D02046984794E712F0200FA0
:102768003BD123683449354A934218BF8B422AD05B
:102778001832934227D01832934224D01832934209
:1027880021D0183293421ED0183293421BD01832EF
:10279800934218D002F55672934214D018329342DD
:1027A80011D0183293420ED0183293420BD01832FF
:1027B800934208D01832934205D01832934202D07F
:1027C8001832934210D11A6822F014021A600023BA
:1027D80084F83430012384F83530E36B002B3FF460
:1027E80052AF204698474EE71A6822F00A021A604C
:1027F800EDE7082000FA01F111EA0C0F3FF443AFAE
:1028080012F0080F3FF43FAF1A6822F00E021A6068
:10281800E36D03F01F03012202FA03F37B60626594
:10282800002384F8343084F83520E36C002B3FF41F
:102838002AAF2046984726E71000024028000240A9
:10284800406D7047F0B583B000233AE0092400E0FA
:102858000024B4403C4302356E4E46F825406E4C89
:102868002568D44304EA05064F6817F4803F01D071
:1028780042EA0506684D2E606E6804EA06054F6850
:1028880017F4003F01D042EA0605634E75604FF029
:10289800B0452D6804EA05064F6817F4801F01D07B
:1028A80042EA05064FF0B0452E606D682C404E6830
:1028B80016F4001F01D042EA05044FF0B0425460FC
:1028C80001330A6832FA03F400F0A28001249C4024
:1028D8002240F5D04D686E1E112D18BF012E01D96A
:1028E800122D12D186685F000325BD4026EA050631
:1028F800CD68BD4035438560466826EA04064D68C4
:10290800C5F300149C4034434460C6685F00032547
:10291800BD40EC4326408D68BD403543C5604D68D9
:10292800122D18BF022D13D1DE08083650F826E004
:1029380003F007054FEA850C0F2505FA0CF52EEA7A
:10294800050E0D6905FA0CF545EA0E0540F8265006
:10295800056825404C6804F00304BC402C4304601F
:102968004C6814F0805FABD02C4CD4F8F45045F090
:102978000205C4F8F450D4F8F44004F002040194B9
:10298800019C9D08AE1C234C54F8267003F00304E8
:10299800A6000F24B44027EA0407214CA0423FF4C4
:1029A80057AF04F58064A04222D004F58064A042A9
:1029B80020D004F58064A0421ED004F58064A042B3
:1029C8001CD004F58064A0421AD004F58064A042AB
:1029D80018D004F58064A04216D004F58064A042A3
:1029E80014D004F58064A0423FF430AF0A2430E7E5
:1029F80001242EE702242CE703242AE7042428E7ED
:102A0800052426E7062424E7072422E7082420E7EC
:102A180003B0F0BD0004005880000058004402587C
:102A2800000002580369194201D1002070470120B3
:102A3800704712B909048161704781617047036862
:102A48009A6912F0020F01D000229A6203689A690B
:102A580012F0010F03D19A6942F001029A6170479E
:102A680070B4039E05686868740D04F4806444F0CB
:102A78007F7444F4583444F47F7444F0030420EA27
:102A88000400C1F3090141EA0241194331430143FA
:102A9800696070BC704770B504460D4616460368F9
:102AA8009B6913F0100F1CD023689A6912F0200F4D
:102AB80019D1B5F1FF3FF7D0FDF77AFD801BA84289
:102AC80001D8002DF0D1636C43F020036364202308
:102AD80084F84130002384F8423084F840300120E3
:102AE80020E000201EE01022DA6123682025DD6145
:102AF8002046FFF7A4FF2268536823F0FF7323F4EE
:102B08008B3323F4FF7323F001035360636C43F0AA
:102B18000403636484F84150002384F8423084F845
:102B28004030012070BD70B504460D461646236836
:102B38009B6913F0020F1DD1324629462046FFF744
:102B4800AAFFC8B9B5F1FF3FF1D0FDF731FD801BF1
:102B5800A84201D8002DEAD1636C43F020036364D6
:102B6800202384F84130002384F8423084F8403030
:102B7800012000E0002070BD0120FCE7F8B5054603
:102B88000F4616461C462B689B6937EA03030CBFA1
:102B980001230023B34218D1B4F1FF3FF3D0FDF76E
:102BA80007FD069BC01AA04201D8002CEBD16B6C24
:102BB80043F020036B64202385F84130002385F817
:102BC800423085F84030012000E00020F8BD70B5A3
:102BD80005460C4616462B689B6913F0200F1AD140
:102BE800324621462846FFF756FFB0B9FDF7E0FC0C
:102BF800801BA04201D8002CEDD16B6C43F0200360
:102C08006B64202385F84130002385F8423085F82D
:102C18004030012070BD0020FCE70120FAE70000E9
:102C2800002857D010B5044690F84130002B41D009
:102C3800242384F841302268136823F001031360C9
:102C48006368226823F0706313612268936823F431
:102C580000439360E368012B31D0A368226843F4F2
:102C680004439360E368022B2FD0226851681A4B03
:102C78000B4353602268D36823F40043D36023696D
:102C880062691343A169226843EA0123D360E369B7
:102C9800216A22680B4313602268136843F001031A
:102CA800136000206064202384F84130206384F896
:102CB800420010BD80F8403005F084FFB8E7A368F3
:102CC800226843F400439360CCE723684FF4006222
:102CD8005A60CAE701207047008000022DE9F043DE
:102CE80083B090F84150EDB2202D40F0A48090F8C8
:102CF8004040012C00F0A480984617460E46044632
:102D08004FF0010980F84090FDF752FC054600900D
:102D180019234A464FF400412046FFF72FFF0028A9
:102D280040F09080212384F84130102384F8423009
:102D3800002363646762A4F82A806363638D9BB28F
:102D4800FF2B0AD9FF222285424B00934FF0807354
:102D580031462046FFF784FE18E0628D92B2228544
:102D68003C4B00934FF00073D2B231462046FFF738
:102D780077FE0BE0628D92B22285002300934FF01C
:102D88000073D2B231462046FFF76AFE638D9BB2CC
:102D9800002B33D02A460A992046FFF7C4FE0028A4
:102DA80052D1626A236812789A62636A0133636255
:102DB800638D013B9BB26385238D013B9BB22385C9
:102DC800628D92B2002AE1D0002BDFD100950A9BD8
:102DD800002280212046FFF7D1FE002836D1638DDE
:102DE8009BB2FF2BC6D9FF222285002300934FF008
:102DF800807331462046FFF733FEC7E72A460A9913
:102E08002046FFF7E4FE034610BB22682021D1616B
:102E18002068426822F0FF7222F48B3222F4FF729B
:102E280022F00102426084F84110002284F8422016
:102E380084F8402000E00223184603B0BDE8F08380
:102E48000223F9E70123F7E70123F5E70123F3E775
:102E58000123F1E70020008090F84130DBB2202BFD
:102E680024D190F84030012B22D0012380F8403043
:102E7800242380F841300268136823F001031360AB
:102E88000268136823F480531360026813681943B7
:102E980011600268136843F001031360202380F86F
:102EA8004130002380F840301846704702207047B0
:102EB8000220704790F84130DBB2202B22D190F8E5
:102EC8004030012B20D0012380F84030242380F8A3
:102ED80041300268136823F0010313600268136825
:102EE80023F4706343EA012111600268136843F018
:102EF80001031360202380F84130002380F840301C
:102F0800184670470220704702207047134BDB6851
:102F180013F0040F07D1114BDB6803F0070383425A
:102F28001AD00120704710B50C4AD36823F0070364
:102F38001843D060FDF73CFB0446084B5B6813F46C
:102F4800005F07D1FDF734FB001BB0F57A7FF4D999
:102F5800012000E0002010BD002070470048025802
:102F6800002800F0E68238B50446036813F0010F24
:102F780025D0AA4A136903F03803926A102B15D09A
:102F8800182B0FD06368B3F5803F3ED0002B52D189
:102F9800A24B1A6822F480321A601A6822F480223E
:102FA8001A6037E002F00302022AEBD19B4B1B6840
:102FB80013F4003F03D06368002B00F0BC82236841
:102FC80013F0020F77D0954A1369926A13F0380309
:102FD8005AD0182B55D0E368002B00F0B2808F49E7
:102FE8000A6822F0190213430B60FDF7E1FA05465F
:102FF8008A4B1B6813F0040F40F08B80FDF7D8FA5A
:10300800401B0228F4D903209AE2844A136843F447
:103018008033136063682BB3FDF7CAFA05467F4B0C
:103028001B6813F4003FCAD1FDF7C2FA401B64289D
:10303800F5D9032084E2B3F5A02F09D0774B1A689D
:1030480022F480321A601A6822F480221A60E1E7BA
:10305800724B1A6842F480221A601A6842F480326D
:103068001A60D7E7FDF7A4FA05466C4B1B6813F402
:10307800003FA4D0FDF79CFA401B6428F5D9032033
:103088005EE212F0030FA6D1644B1B6813F0040F25
:1030980003D0E368002B00F05082FDF7A3FA41F259
:1030A800030398422CD85D4A536823F47C33216982
:1030B80043EA01335360236813F0100F71D0574A65
:1030C800136903F03803926A082B52D0182B4CD09E
:1030D800E369002B00F0A480504A136843F0800392
:1030E8001360FDF765FA05464C4B1B6813F4807FA7
:1030F8007BD1FDF75DFA401B0228F5D903201FE2BA
:10310800464A536823F0FE43216943EA016353604A
:10311800D1E7FDF767FA41F20303984208D83F4A1E
:10312800536823F47C33216943EA01335360C2E7CF
:103138003A4A536823F0FE43216943EA0163536026
:10314800B9E7364A136823F001031360FDF730FA34
:103158000546324B1B6813F0040FACD0FDF728FA74
:10316800401B0228F5D90320EAE102F00302012AF4
:10317800AED12A4B1B6813F4807F04D0E369802BFF
:1031880001D00120DCE1FDF72DFA41F2030398425A
:1031980022D8224A536823F0F843216A43EA81631C
:1031A8005360236813F0080F62D06369002B4BD07B
:1031B8001A4A536F43F001035367FDF7F9F90546BF
:1031C800164B5B6F13F0020F52D1FDF7F1F9401B5C
:1031D8000228F5D90320B3E1104AD36823F07C53C1
:1031E800216A43EA0163D360DBE7FDF7FBF941F2AB
:1031F8000303984208D8094A536823F0F843216A20
:1032080043EA81635360CCE7044AD36823F07C53D4
:10321800216A43EA0163D360C3E700BF0044025850
:10322800AD4A136823F080031360FDF7C1F9054622
:10323800A94B1B6813F4807FB3D0FDF7B9F9401B85
:103248000228F5D903207BE1A34A536F23F0010339
:103258005367FDF7ADF905469F4B5B6F13F0020FFF
:1032680006D0FDF7A5F9401B0228F5D9032067E130
:10327800236813F0200F29D0A3699BB1964A1368DD
:1032880043F480531360FDF793F90546924B1B688E
:1032980013F4005F1AD1FDF78BF9401B0228F5D90A
:1032A80003204DE18C4A136823F480531360FDF723
:1032B8007FF90546884B1B6813F4005F06D0FDF7BD
:1032C80077F9401B0228F5D9032039E1236813F068
:1032D800040F21D1636A002B00F031817E4A126904
:1032E80002F03802182A00F0EA80022B75D07A4AD8
:1032F800136823F080731360FDF75AF90446764B80
:103308001B6813F0007F00F0D880FDF751F9001B0F
:103318000228F4D9032013E1704A136843F4807338
:103328001360FDF745F905466C4B1B6813F4807F65
:1033380006D1FDF73DF9401B6428F5D90320FFE0CD
:10334800A368012B0AD00BBB634B1A6F22F0010252
:103358001A671A6F22F004021A6704E05E4A136FB4
:1033680043F001031367A36833B3FDF721F905465A
:10337800594B1B6F13F0020FACD1FDF719F9401B25
:1033880041F288339842F3D90320D9E0052B09D0BC
:10339800514B1A6F22F001021A671A6F22F00402C9
:1033A8001A67E0E74C4B1A6F42F004021A671A6F6B
:1033B80042F001021A67D6E7FDF7FAF80546464BD0
:1033C8001B6F13F0020F85D0FDF7F2F8401B41F296
:1033D80088339842F3D90320B2E03F4A136823F0B8
:1033E80080731360FDF7E4F805463B4B1B6813F048
:1033F800007F06D0FDF7DCF8401B0228F5D9032032
:103408009EE0354B996A364A0A40A16AE06A41EA69
:1034180000110A439A62226B013AC2F30802616BF7
:103428000139490289B20A43A16B0139090401F43F
:10343800FE010A43E16B0139090601F0FE410A4326
:103448001A63DA6A22F00102DA62596B254A0A40E5
:10345800A16C42EAC1025A63DA6A22F00C02216CBA
:103468000A43DA62DA6A22F00202616C0A43DA621B
:10347800DA6A42F48032DA62DA6A42F40032DA62F4
:10348800DA6A42F48022DA62DA6A42F00102DA6227
:103498001A6842F080721A60FDF78AF804460E4BEB
:1034A8001B6813F0007F06D1FDF782F8001B022885
:1034B800F5D9032044E0002042E0002040E0064A1D
:1034C800916A106B012B3CD001F00303A26A93426E
:1034D8000AD0012034E000BF0044025800480258D6
:1034E8000CFCFFFF0700FFFFC1F30511E36A9942D7
:1034F80001D0012024E0C0F30802236B013B9A426B
:1035080001D001201CE0C0F34622636B013B9A42C4
:1035180001D0012014E0C0F30642A36B013B9A429C
:1035280011D1C0F30660E36B013B98420DD0012036
:1035380006E001207047012002E0012000E00020A1
:1035480038BD0120FCE70120FAE70020F8E700BFBA
:10355800724B1B6903F03803102B00F0DB80182B2B
:1035680010D00BB16E4870476C4B1B6813F0200FDE
:1035780000F0D280694B1868C0F3C100694B23FA88
:1035880000F07047654A916A01F00301906AC0F340
:103598000510D36A03F00103526BC2F3CC0203FB9C
:1035A80002F307EE903AF8EE677A002800F0B5804B
:1035B800012966D0F9B1022900F08F8007EE100AC0
:1035C800F8EE476A9FED586A86EE267A534B1B6BD6
:1035D800C3F3080306EE903AF8EE666A9FED536A65
:1035E80067EE867A76EEA77AF7EE006A77EEA67A25
:1035F80027EE277A61E0494B1B6813F0200F23D090
:1036080046490A68C2F3C102464BD34007EE103A56
:10361800F8EE476A07EE100AB8EE476A86EE867A31
:103628000B6BC3F3080306EE903AF8EE666A9FED5B
:103638003F6A67EE867A76EEA77AF7EE006A77EE4B
:10364800A67A27EE277A38E007EE100AF8EE476ADE
:103658009FED376A86EE267A304B1B6BC3F308035F
:1036680006EE903AF8EE666A9FED306A67EE867A63
:1036780076EEA77AF7EE006A77EEA67A27EE277A33
:103688001BE007EE100AF8EE476A9FED276A86EE00
:10369800267A224B1B6BC3F3080306EE903AF8EE2A
:1036A800666A9FED226A67EE867A76EEA77AF7EE6B
:1036B800006A77EEA67A27EE277A184B1B6BC3F3BE
:1036C8004623013307EE903AF8EE677AC7EE276A89
:1036D800FCEEE67A17EE900A704707EE100AF8EE4D
:1036E800476A9FED146A86EE267A0C4B1B6BC3F370
:1036F800080306EE903AF8EE666A9FED0C6A67EEEC
:10370800867A76EEA77AF7EE006A77EEA67A27EE43
:10371800277AD2E7084870470248704700440258A1
:1037280000093D000090D0030024744A00000039CD
:103738000024744C20BCBE4B40787D01002800F06A
:10374800368103469C4A126802F00F028A420CD264
:103758009948026822F00F020A430260026802F0E8
:103768000F028A4201D00120704770B51A6812F022
:10377800040F0CD01869914A926902F070029042C5
:1037880005D98E4CA26922F070021043A0611A6814
:1037980012F0080F0CD05869884AD26902F07002FA
:1037A800904205D9854CE26922F070021043E0612D
:1037B8001A6812F0100F0CD09869804AD26902F486
:1037C800E062904205D97D4CE26922F4E062104340
:1037D800E0611A6812F0200F0CD0D869774A126A93
:1037E80002F07002904205D9744C226A22F07002ED
:1037F800104320621A6812F0020F0CD0D8686F4A82
:10380800926902F00F02904205D96C4CA26922F02D
:103818000F021043A0611C460D461B6813F0010FF0
:1038280041D0664A936923F47063A1680B4393619E
:103838006368022B0AD0032B27D0012B2CD05F4AB8
:10384800126812F0040F06D10120AFE0126812F4DA
:10385800003F00F0AE8059490A6922F0070213437D
:103868000B61FCF7A5FE0646544B1B6903F03803B1
:103878006268B3EBC20F16D0FCF79AFE801B41F2C8
:1038880088339842F0D9032090E04C4A126812F02D
:10389800007FE0D1012089E0484A126812F4807F55
:1038A800D9D1012082E0236813F0020F0CD0E2681E
:1038B800424B9B6903F00F039A4205D23F498B693B
:1038C80023F00F031A438A613B4B1B6803F00F0375
:1038D800AB420CD9384A136823F00F032B4313600B
:1038E800136803F00F03AB4201D001205EE02368A8
:1038F80013F0040F0CD02269304B9B6903F070035E
:103908009A4205D22D498B6923F070031A438A61C4
:10391800236813F0080F0CD06269284BDB6903F0A9
:1039280070039A4205D22549CB6923F070031A43E4
:10393800CA61236813F0100F0CD0A2691F4BDB6912
:1039480003F4E0639A4205D21C49CB6923F4E0638F
:103958001A43CA61236813F0200F0CD0E269174B91
:103968001B6A03F070039A4205D214490B6A23F0CC
:1039780070031A430A62FFF7EBFD10498B69C3F322
:1039880003230F4AD35C03F01F03D8408B6903F06D
:103998000F03D35C03F01F0320FA03F3094A1360F3
:1039A800094B1860094B1868FCF7A0FD70BD012091
:1039B80070470120FAE700BF002000520044025877
:1039C80004D300087C0000207800002004000020B8
:1039D80008B5FFF7BDFD0B4A9369C3F303230A49F2
:1039E800CB5C03F01F0320FA03F3926902F00F0285
:1039F800885C00F01F0023FA00F0044A1060044AB3
:103A0800136008BD0044025804D300087C0000205D
:103A180078000020404B9B6A03F00303032B79D006
:103A280070B50E4604463C4A136823F08063136061
:103A3800FCF7BEFD0546384B1B6813F0006F06D037
:103A4800FCF7B6FD401B0228F5D9032070BD324BA8
:103A58009A6A22F47C32216842EA01329A626268E8
:103A6800013AC2F30802A1680139490289B20A433E
:103A7800E1680139090401F4FE010A4321690139A9
:103A8800090601F0FE410A439A63DA6A22F0C0028D
:103A980061690A43DA62DA6A22F02002A1690A43FC
:103AA800DA62DA6A22F01002DA62D96B1B4A0A403B
:103AB800E16942EAC102DA63DA6A42F01002DA62C4
:103AC800C6B91A46DB6A43F40023D362124A136864
:103AD80043F080631360FCF76BFD04460E4B1B68D4
:103AE80013F0006F14D1FCF763FD001B0228F5D911
:103AF8000320ABE7012E05D0074AD36A43F400132D
:103B0800D362E3E7044AD36A43F48013D362DDE760
:103B180000209BE701207047004402580700FFFF80
:103B2800404B9B6A03F00303032B79D070B50E4614
:103B380004463C4A136823F080531360FCF738FDB1
:103B48000546384B1B6813F0005F06D0FCF730FDC4
:103B5800401B0228F5D9032070BD324B9A6A22F027
:103B68007C72216842EA01529A626268013AC2F3A1
:103B78000802A1680139490289B20A43E16801399A
:103B8800090401F4FE010A4321690139090601F01B
:103B9800FE410A431A64DA6A22F4406261690A4300
:103BA800DA62DA6A22F40072A1690A43DA62DA6A2E
:103BB80022F48072DA62596C1B4A0A40E16942EACF
:103BC800C1025A64DA6A42F48072DA62C6B91A46E5
:103BD800DB6A43F48003D362124A136843F08053CC
:103BE8001360FCF7E5FC04460E4B1B6813F0005FFE
:103BF80014D1FCF7DDFC001B0228F5D90320ABE744
:103C0800012E05D0074AD36A43F08073D362E3E7F5
:103C1800044AD36A43F40003D362DDE700209BE73C
:103C280001207047004402580700FFFFF8B504461A
:103C3800036813F0006F2BD0436EB3F5801F18D0C4
:103C480007D9B3F5001F1DD0B3F5401F2ED10025AD
:103C580006E05BBB934AD36A43F40033D362002582
:103C6800904A136D23F44013616E0B4313650026CD
:103C780010E002210430FFF7CDFE0546002DEFD0FD
:103C88002E4607E002212430FFF74AFF0546F5E7F4
:103C980000263546236813F4807F17D0636D042B04
:103CA80032D8DFE803F006242A0B0B00012635463C
:103CB800F0E77C4AD36A43F40033D3623DBB794AC8
:103CC800136D23F00703616D0B431365236813F429
:103CD800007F33D0A36D802B44D01AD80BB3402B70
:103CE8001CD10021201DFFF795FE05461EE000218E
:103CF800201DFFF78FFE0546E0E7002104F12400B0
:103D0800FFF70EFF0546D9E701263546DEE72E46C2
:103D1800DCE7C02B0AD0B3F5807F07D001263546F3
:103D28000CE0604AD36A43F40033D3620DBB5D4AAA
:103D3800136D23F4E073A16D0B431365236813F42B
:103D4800806F2FD0D4F8A430B3F5800F3ED012D8AE
:103D5800D3B1B3F5001F14D10021201DFFF75AFE7F
:103D6800054616E0002104F12400FFF7D9FE0546B8
:103D7800DCE72E46E2E7B3F5C00F0AD0B3F5000F33
:103D880007D0012635460DE0464AD36A43F400338E
:103D9800D36215BB434A936D23F46003D4F8A4108F
:103DA8000B439365236813F4006F2FD0D4F8A83021
:103DB800B3F1007F37D012D8D3B1B3F1807F14D1DB
:103DC8000021201DFFF726FE054616E0002104F11C
:103DD8002400FFF7A5FE0546DBE72E46E2E7B3F130
:103DE800407F0AD0B3F1806F07D0012635460DE039
:103DF8002C4AD36A43F40033D362DDB9294A936D60
:103E080023F0E063D4F8A8100B439365236813F0FC
:103E1800007F2AD0A36C102B12D00DD9202B1DD0D7
:103E2800302B12D009E0002104F12400FFF778FEBE
:103E38000546E2E72E46E9E73BB10126354614E0A0
:103E4800184AD36A43F40033D3626DB9154AD36C68
:103E580023F03003A16C0B43D36406E00221201D3C
:103E6800FFF7D8FD0546F0E72E46236813F4805F78
:103E780027D0E36DB3F5005F3ED009D8A3B1B3F501
:103E8800805F0BD10021201DFFF7C4FD054610E01F
:103E9800B3F5405F0DD0B3F5804F0AD00126354603
:103EA8000FE000BF00440258934AD36A43F400333A
:103EB800D36245BB904A136D23F4E043E16D0B4395
:103EC8001365236813F4005F33D0236EB3F5003F06
:103ED80027D01AD83BB1B3F5803F1FD10121201D4F
:103EE800FFF798FD05461DBB834A136D23F4E023B5
:103EF800216E0B4313651CE0002104F12400FFF739
:103F08000FFE0546D5E72E46DBE7B3F5802FEAD04E
:103F1800B3F5A02FE7D0B3F5403FE4D001263546EE
:103F280007E0012104F12400FFF7FAFD0546DAE76E
:103F38002E46236813F4804F2CD0D4F8AC30B3F15C
:103F4800005F1FD012D83BB1B3F1805F17D10121B8
:103F5800201DFFF75FFD0546DDB9674A936D23F025
:103F6800E043D4F8AC100B43936513E0B3F1804FF2
:103F7800F2D0B3F1A04FEFD0B3F1405FECD00126FF
:103F8800354607E0012104F12400FFF7C9FD054685
:103F9800E2E72E46236813F4004F1FD0E36EB3F117
:103FA800805F06D0B3F1005F11D03BB101263546E2
:103FB80014E0514AD36A43F40033D3626DB94E4AD0
:103FC800136D23F04053E16E0B43136506E00121A6
:103FD800201DFFF71FFD0546F0E72E46236813F066
:103FE800807F1ED0636C032B17D8DFE803F007022D
:103FF8001007414AD36A43F40033D36285B93E4A75
:10400800D36C23F00303616C0B43D36409E00221F2
:10401800201DFFF7FFFC0546F0E70126354600E0C6
:104028002E46236813F4800F1FD1236813F0010F65
:1040380000F09E80A36F282B00F29680DFE803F043
:1040480084949494949494947F949494949494944D
:104058008D9494949494949484949494949494942F
:1040680084949494949494948400244A136843F414
:1040780080731360FCF79CFA0746204B1B6813F407
:10408800807F05D1FCF794FAC01B6428F5D9032575
:10409800002D50D1184B1B6FD4F8B020534013F4A7
:1040A800407F0CD0144B1A6F22F44072196F41F400
:1040B80080311967196F21F4803119671A67D4F8AC
:1040C800B030B3F5807F1BD0002D36D1D4F8B03096
:1040D80003F44072B2F5407F23D0074A136923F4F2
:1040E8007C53136104490B6FD4F8B020C2F30B0260
:1040F80013430B6799E700BF004402580048025871
:10410800FCF756FA0746AC4B1B6F13F0020FDBD1D6
:10411800FCF74EFAC01B41F288339842F3D90325C5
:10412800D2E7A548026922F47C52A44901EA131394
:1041380013430361D6E72E4677E72E4675E701213C
:10414800201DFFF767FC05468DB99B4A536D23F088
:104158003803A16F0B4353650AE0012104F12400E1
:10416800FFF7DEFC0546EFE70126354600E02E4660
:10417800236813F0020F20D0636F052B19D8DFE8EE
:1041880003F00803110808080121201DFFF742FC6D
:1041980005468DB9884A536D23F00703616F0B43B9
:1041A80053650AE0012104F12400FFF7B9FC054634
:1041B800EFE70126354600E02E46236813F0040F8A
:1041C80022D0D4F89030052B1AD8DFE803F0080382
:1041D800120808080121201DFFF71CFC054695B9A7
:1041E800754A936D23F00703D4F890100B43936539
:1041F8000AE0012104F12400FFF792FC0546EEE7EE
:104208000126354600E02E46236813F0200F2CD0F7
:10421800D4F88C30B3F1005F1FD012D83BB1B3F1A2
:10422800805F17D10021201DFFF7F4FB0546DDB99B
:10423800614A536D23F0E043D4F88C100B43536567
:1042480013E0B3F1804FF2D0B3F1A04FEFD0B3F148
:10425800405FECD00126354607E0022104F1240036
:10426800FFF75EFC0546E2E72E46236813F0400F91
:104278002CD0D4F89830B3F5006F1FD012D83BB1CA
:10428800B3F5806F17D10021201DFFF7C3FB05464A
:10429800DDB9494A936D23F4E053D4F898100B43E1
:1042A800936513E0B3F5805FF2D0B3F5A05FEFD06C
:1042B800B3F5406FECD00126354607E0022104F142
:1042C8002400FFF72DFC0546E2E72E46236813F08D
:1042D800800F2CD0D4F89C30B3F5804F1FD012D863
:1042E8003BB1B3F5005F17D10021201DFFF792FB0A
:1042F8000546DDB9304A936D23F46043D4F89C1029
:104308000B43936513E0B3F5004FF2D0B3F5204F9C
:10431800EFD0B3F5C04FECD00126354607E00221B7
:1043280004F12400FFF7FCFB0546E2E72E4623686C
:1043380013F0080F0CD0D4F88030B3F5805F28D084
:104348001D4A536D23F44053D4F880100B43536532
:10435800236813F0100F0CD0D4F89430B3F5807F95
:1043680020D0154A936D23F44073D4F894100B436E
:104378009365236813F4002F39D0D4F8A030B3F52F
:10438800803F2CD0B3F5003F1FD0CBB10126354676
:104398002DE0022104F12400FFF7C2FB0028CFD052
:1043A8000126CDE7022104F12400FFF7B9FB00281C
:1043B800D7D00126D5E700BF00440258CFFFFF0041
:1043C8000021201DFFF726FB05467DB95E4A936D47
:1043D80023F44033D4F8A0100B43936507E002217F
:1043E80004F12400FFF79CFB0546EEE72E46236800
:1043F80013F4802F24D0D4F88430B3F5001F17D0DD
:10440800B3F5401F0AD0B3F5801F02D00126354608
:1044180016E04D4AD36A43F40033D3627DB94A4A61
:10442800536D23F44013D4F884100B43536507E00D
:10443800012104F12400FFF773FB0546EEE72E4641
:10444800236813F4803F14D0E36C2BB1B3F5803F9D
:1044580023D0012635460CE03B4AD36A43F40033A7
:10446800D36205BB384AD36C23F48033E16C0B4329
:10447800D364236813F0005F17D1236813F4003F57
:104488002DD0E36FB3F5807F1BD017D9B3F5007F2C
:104498001CD0B3F5407F12D118E00221201DFFF790
:1044A800B9FA0546DDE72E46E3E7022104F12400C8
:1044B800FFF736FB0028E0D00126DEE733B10126FE
:1044C8000DE0214AD36A43F40033D362002D31D181
:1044D8001D4A536D23F44073E16F0B435365236802
:1044E80013F4801F06D0184A136D23F00043216F80
:1044F8000B431365236813F4001F06D0124A136D8B
:1045080023F08073A16E0B431365236813F0804F6B
:1045180009D00D4B1A6922F400421A611A69D4F8BD
:10452800B8100A431A612368002B05DB06B101267F
:104538003046F8BD2E46D2E7034AD36C23F04053E9
:10454800216D0B43D364F1E70044025808B5FFF727
:104558003FFA054B1B6AC3F30213044AD35C03F00A
:104568001F03D84008BD00BF0044025804D3000808
:1045780010B478498C6A8A6AC2F30532CB6AC3F3ED
:104588000013C96BC1F3CC0103FB01F3002A00F04F
:10459800DB8004F0030407EE903AF8EE677A012C0A
:1045A80066D0FCB1022C00F0B28007EE102AB8EEFB
:1045B800477A9FED696AC6EE076A664B9B6BC3F341
:1045C800080307EE103AB8EE477A9FED646A67EE83
:1045D800867A77EE277AB7EE007A77EE877A66EEF4
:1045E800A76A61E05B4B1B6813F0200F23D0594C7E
:1045F8002168C1F3C1015A4BCB4007EE103AB8EE1F
:10460800477A06EE902AB8EE666AC7EE066AA36B8A
:10461800C3F3080307EE103AB8EE477A9FED4F6AE6
:1046280067EE867A77EE277AB7EE007A77EE877AA2
:1046380066EEA76A38E007EE102AB8EE477A9FEDD3
:10464800496AC6EE076A434B9B6BC3F3080307EE40
:10465800103AB8EE477A9FED416A67EE867A77EEB0
:10466800277AB7EE007A77EE877A66EEA76A1BE0BC
:1046780007EE102AB8EE477A9FED376AC6EE076A4A
:10468800344B9B6BC3F3080307EE103AB8EE477A36
:104698009FED326A67EE867A77EE277AB7EE007A70
:1046A80077EE877A66EEA76A2A4A936BC3F34623A6
:1046B80007EE103AB8EE477AB7EE006A37EE067A98
:1046C800C6EE877AFCEEE77AC0ED007A936BC3F307
:1046D800064307EE103AB8EE477A37EE067AC6EE8A
:1046E800877AFCEEE77AC0ED017A936BC3F3066331
:1046F80007EE903AF8EE677A77EE867A86EEA77A32
:10470800BCEEC77A80ED027A5DF8044B704707EE7D
:10471800102AB8EE477A9FED146AC6EE076A0D4B69
:104728009B6BC3F3080307EE103AB8EE477A9FED88
:104738000B6A67EE867A77EE277AB7EE007A77EE1D
:10474800877A66EEA76AAFE7002303604360836059
:10475800DAE700BF004402580024744A0000003918
:104768000090D0030024744C20BCBE4B10B4784990
:104778008C6A8A6AC2F30552CB6AC3F30023496C78
:10478800C1F3CC0103FB01F3002A00F0DB8004F045
:10479800030407EE903AF8EE677A012C66D0FCB174
:1047A800022C00F0B28007EE102AB8EE477A9FED8F
:1047B800696AC6EE076A664B1B6CC3F3080307EE0B
:1047C800103AB8EE477A9FED646A67EE867A77EE1C
:1047D800277AB7EE007A77EE877A66EEA76A61E005
:1047E8005B4B1B6813F0200F23D0594C2168C1F391
:1047F800C1015A4BCB4007EE103AB8EE477A06EEA5
:10480800902AB8EE666AC7EE066A236CC3F30803FB
:1048180007EE103AB8EE477A9FED4F6A67EE867A50
:1048280077EE277AB7EE007A77EE877A66EEA76A90
:1048380038E007EE102AB8EE477A9FED496AC6EECF
:10484800076A434B1B6CC3F3080307EE103AB8EE34
:10485800477A9FED416A67EE867A77EE277AB7EE58
:10486800007A77EE877A66EEA76A1BE007EE102AD1
:10487800B8EE477A9FED376AC6EE076A344B1B6C71
:10488800C3F3080307EE103AB8EE477A9FED326A91
:1048980067EE867A77EE277AB7EE007A77EE877A30
:1048A80066EEA76A2A4A136CC3F3462307EE103A4A
:1048B800B8EE477AB7EE006A37EE067AC6EE877A20
:1048C800FCEEE77AC0ED007A136CC3F3064307EEFB
:1048D800103AB8EE477A37EE067AC6EE877AFCEEDB
:1048E800E77AC0ED017A136CC3F3066307EE903ADA
:1048F800F8EE677A77EE867A86EEA77ABCEEC77A04
:1049080080ED027A5DF8044B704707EE102AB8EE86
:10491800477A9FED146AC6EE076A0D4B1B6CC3F30A
:10492800080307EE103AB8EE477A9FED0B6A67EE78
:10493800867A77EE277AB7EE007A77EE877A66EE90
:10494800A76AAFE70023036043608360DAE700BF2C
:10495800004402580024744A000000390090D00333
:104968000024744C20BCBE4B10B478498C6A8A6A07
:10497800C2F30512CB6A03F00103496BC1F3CC0102
:1049880003FB01F3002A00F0DB8004F0030407EEC8
:10499800903AF8EE677A012C66D0FCB1022C00F050
:1049A800B28007EE102AB8EE477A9FED696AC6EE24
:1049B800076A664B1B6BC3F3080307EE103AB8EEA1
:1049C800477A9FED646A67EE867A77EE277AB7EEC4
:1049D800007A77EE877A66EEA76A61E05B4B1B6820
:1049E80013F0200F23D0594C2168C1F3C1015A4B51
:1049F800CB4007EE103AB8EE477A06EE902AB8EEAA
:104A0800666AC7EE066A236BC3F3080307EE103A1B
:104A1800B8EE477A9FED4F6A67EE867A77EE277A87
:104A2800B7EE007A77EE877A66EEA76A38E007EE87
:104A3800102AB8EE477A9FED496AC6EE076A434BDB
:104A48001B6BC3F3080307EE103AB8EE477A9FEDE5
:104A5800416A67EE867A77EE277AB7EE007A77EEC4
:104A6800877A66EEA76A1BE007EE102AB8EE477A47
:104A78009FED376AC6EE076A344B1B6BC3F3080316
:104A880007EE103AB8EE477A9FED326A67EE867AFB
:104A980077EE277AB7EE007A77EE877A66EEA76A1E
:104AA8002A4A136BC3F3462307EE103AB8EE477A47
:104AB800B7EE006A37EE067AC6EE877AFCEEE77A3A
:104AC800C0ED007A136BC3F3064307EE103AB8EE55
:104AD800477A37EE067AC6EE877AFCEEE77AC0EDBB
:104AE800017A136BC3F3066307EE903AF8EE677A20
:104AF80077EE867A86EEA77ABCEEC77A80ED027AE0
:104B08005DF8044B704707EE102AB8EE477A9FED20
:104B1800146AC6EE076A0D4B1B6BC3F3080307EE56
:104B2800103AB8EE477A9FED0B6A67EE867A77EE11
:104B3800277AB7EE007A77EE877A66EEA76AAFE74C
:104B48000023036043608360DAE700BF0044025833
:104B58000024744A000000390090D0030024744CEB
:104B680020BCBE4B00B58BB0B0F5807F1BD0B0F534
:104B7800007F48D0B0F5806F78D0B0F5006F00F0B6
:104B8800AB80B0F5805F00F0DD80B0F5002F00F05D
:104B98000F81B0F5803F00F03181B0F5804F00F013
:104BA800458100200CE09E4B1B6D03F00703042B8E
:104BB80000F26481DFE803F0070C1103160099483E
:104BC8000BB05DF804FB07A8FFF7CEFE0898F7E7DF
:104BD80004A8FFF7CDFC0498F2E701A8FFF7C6FD8B
:104BE8000198EDE78E4BDB6C13F0405300F04881E1
:104BF800B3F1805F00F04681B3F1005F01D000207F
:104C0800DEE78948DCE7864B1B6D03F4E073802BF5
:104C180025D008D8F3B1402B40F0368104A8FFF71F
:104C2800A7FC0498CCE7C02B12D0B3F5807F40F0E6
:104C38002B817B4BDB6C13F0405300F02781B3F1E1
:104C4800805F00F02581B3F1005F0DD00020B7E749
:104C58007448B5E707A8FFF787FE0898B0E701A8EA
:104C6800FFF784FD0198ABE76F48A9E76C4B9B6D94
:104C780003F46003B3F5800F27D009D803B3B3F565
:104C8800001F40F0078104A8FFF772FC049897E71B
:104C9800B3F5C00F12D0B3F5000F40F0FB80604BA6
:104CA800DB6C13F0405300F0F780B3F1805F00F045
:104CB800F580B3F1005F0DD0002081E759487FE708
:104CC80007A8FFF751FE08987AE701A8FFF74EFDFD
:104CD800019875E7544873E7514B9B6D03F0E06307
:104CE800B3F1007F27D009D803B3B3F1807F40F038
:104CF800D78004A8FFF73CFC049861E7B3F1407F34
:104D080012D0B3F1806F40F0CB80454BDB6C13F0D1
:104D1800405300F0C780B3F1805F00F0C580B3F165
:104D2800005F0DD000204BE73E4849E707A8FFF792
:104D38001BFE089844E701A8FFF718FD01983FE714
:104D480039483DE7364B1B6D03F4E043B3F5005F8C
:104D580027D009D803B3B3F5805F40F0A78004A833
:104D6800FFF706FC04982BE7B3F5405F12D0B3F5C4
:104D7800804F40F09B802A4BDB6C13F0405300F0CF
:104D88009780B3F1805F00F09580B3F1005F0DD09C
:104D9800002015E7234813E707A8FFF7E5FD089863
:104DA8000EE701A8FFF7E2FC019809E71E4807E7AC
:104DB8001B4B9B6D03F44033B3F5803F0AD0B3F52A
:104DC800003F0CD00BB10020FAE604A8FFF7D0FB97
:104DD8000498F5E601A8FFF7C9FC0398F0E6104B24
:104DE800DB6C13F0405367D0B3F1805F66D0B3F14A
:104DF800005F01D00020E3E60B48E1E6084BDB6CDE
:104E080013F4803302D033B90020D9E607A8FFF79E
:104E1800ABFD0898D4E604A8FFF7AAFB0698CFE6EE
:104E2800004402580080BB0040787D01254B9B6DF3
:104E380003F0E043B3F1005F19D00AD9B3F1804F12
:104E48003ED0B3F1A04F17D0B3F1405F0AD0002095
:104E5800B6E64BB1B3F1805FF9D104A8FFF788FB40
:104E68000598ADE61848ABE6FFF770FBA8E601A881
:104E7800FFF77CFC0298A3E61448A1E600209FE611
:104E880011489DE612489BE6002099E60E4897E6F1
:104E98000F4895E6002093E60B4891E60C488FE60C
:104EA80000208DE608488BE6094889E6002087E659
:104EB800054885E6064883E6034881E604487FE618
:104EC80003487DE6004402580090D00340787D01F5
:104ED80000093D00002836D038B50446437AB3B1FE
:104EE800022363722268136823F0200361680B436E
:104EF80013602268136843F00403136023685B6837
:104F080013F0400F07D004236372012038BD0372E9
:104F180004F0B0F8E4E7FBF74BFB054623685B6851
:104F280013F0040F0AD0FBF743FB401B0228F5D906
:104F3800042363720223E3600120E7E7012363721D
:104F48000020E060E2E701207047037A012B2BD0B4
:104F580070B50D46044601230372437ADBB2012B78
:104F680005D00423C36001200023237270BD0223EF
:104F78004372FBF71DFB064623685A6812F0010FBF
:104F88000BD1FBF715FB801B0228F5D901206072B5
:104F98000223E36000232372E8E79B6823612B6008
:104FA800012363720020DFE70220704730B4002439
:104FB8004464C4644568022D14BF00240124002DF4
:104FC80008BF0124C4B1002404654FF48034C465CB
:104FD8004FF6FF74446700248466036713F0010FDB
:104FE8004BD161B904664FF480244466032A3FD844
:104FF800DFE802F00B1E283301240465E5E74FF4CF
:105008000034046600244466F0E7802484645B0866
:105018005C0144651B0183654023C36600230229A4
:105028002CD1012A26D0022A28D10822826625E01E
:10503800802484645B089D0145655B018365C466C3
:105048000023ECE7C02484645B089C0144655B0191
:1050580083658023C3660023E1E7E02484645B085A
:105068009C0144655B0183658023C3660023D6E702
:105078000123D4E710218166D5E70123184630BC07
:10508800704730B400244464C4644568022D14BFDA
:1050980000240124002D08BF0124C4B101240465A3
:1050A8000024C4654FF4003505664FF48025456635
:1050B800846603674FF6FF74446704290AD00D21FC
:1050C8008165032A29D8DFE802F008111820002496
:1050D8000465E5E701218165F3E7802282641B010D
:1050E80043654023C366002030BC70478022826439
:1050F8005B014365C2660020F6E7C02282645B015B
:1051080043658023C3660020EEE7E02282645B01EA
:1051180043658023C3660020E6E70120E4E7012910
:105128000AD00123426C082A08D04268023A012AB0
:105138000CD943F0040070470923F3E74268012AB9
:1051480018BF032AF1D143F01003EEE743F06000E3
:10515800704700000E4B1B680E4AA2FB03231B0B73
:105168009B0001680A6822F480320A603BB1013B67
:105178000268126812F4803FF8D100207047D0F816
:10518800943043F04003C0F894300320704700BFC8
:10519800780000201BECCB952DE9F041002800F0A9
:1051A800CD810446FBF71EFA94F83830012B25D040
:1051B8002368B149B14A934218BF8B4230D001F5F8
:1051C800806102F58062934218BF8B4245D001F599
:1051D800806102F58062934218BF8B423FD001F193
:1051E800C051A1F5863102F1C052A2F58632934230
:1051F80018BF8B4240F0A881A14E12E023689E4957
:10520800A04A8B4218BF934240F09C816368012BEF
:1052180001D0012593E1636C002BC9D001258EE1F3
:10522800994E94F89130E3B12046FFF793FF054675
:10523800002840F08B81022384F89130E368012B29
:1052480017D0022B13D00022A368013B042B12D8DD
:10525800DFE803F02513161B20008C4EE1E78C4E87
:10526800DFE784F89030204603F058FFDCE720227F
:10527800EAE71022E8E7002713E04FF4006710E0A0
:1052880042F001024FF400670BE042F002024FF4D3
:10529800006706E042F003024FF4006701E04FF4B4
:1052A80080673260236A002B43D023687249734AAF
:1052B800934218BF8B4200F0C580002023687549CF
:1052C800754A934218BF8B4200F0C1802368734926
:1052D800734A934218BF8B4200F0BE802268694B24
:1052E8009A4200F0BE8022686E4B9A4200F0BE805F
:1052F800A369B3F5002F00F0DF80A36AB3F1806FD4
:1053080000F0E480012300EB80004100226A03FBE7
:1053180002F31B02B1FBF3F1634BA3FB0123DB0890
:10532800636203EB830042008A1A082A01D9013319
:1053380063626268022A14BF00230123002A08BF9F
:105348000123002B00F0C780236D012B00F0C080E3
:105358004FF40078FBF746F9B0F5005FC0F0C48061
:1053680022681168514B0B40136021680A68636812
:10537800606C0343A06C0343E06C034343EA0803F7
:105388003B43E06A034360690343A0690343606ADF
:1053980043EA0053A06A03432069034313430B60A5
:1053A80022685168424B0B40536021684A68E369A0
:1053B800206B0343606B034313434B60226891687F
:1053C8003C4B0B40936020688268636D013B616EC3
:1053D8000B43E16D0B43216E0B43A16D013943EA89
:1053E8000123134383602268D36823F47D6323F089
:1053F8000F031B041B0CD3602068C268A36EE16E08
:105408000B43616F43EA0143216F013943EA0123EA
:105418001343C360236818491A4A934218BF8B4242
:1054280007D1736C23F00103736494F83830012BAF
:1054380079D00023C4F89430012284F8912084F8AC
:1054480090307CE04FF48070FFF78CFB36E74FF428
:105458000070FFF787FB39E74FF40070FFF782FB16
:105468003CE74FF48060FFF77DFB3CE74FF40060BA
:10547800FFF778FB3CE700BF04580140245801407F
:10548800005400580454005800580140005C014082
:1054980000600140045C0140245C0140046001405C
:1054A8002460014024540058CDCCCCCC10C005F069
:1054B800F01FFFFF0080F8FF00EB80004100226A28
:1054C800636D03FB02F3B1FBF3F125E702231AE74F
:1054D8004FF000083EE7236D012B02D04FF0000883
:1054E80038E74FF4007835E722681168184B0B400D
:1054F800136021680A686368606C0343A06C034307
:10550800E06C034343EA08033B43E76A3B436769AC
:105518003B43A0690343606A43EA0053A06A03431C
:1055280013430B603CE7236CE26B013A43EA021336
:105538007364736C43F0010373647AE701252846AA
:10554800BDE8F0810125FAE70125F8E70125F6E72E
:1055580010C005F810B50446042911D8DFE801F099
:105568000303030808002046FFF720FD20B110BD03
:105578002046FFF786FDF9E72046FFF70DFEF6E720
:105588000120F4E7F8B504460E461546FBF710F877
:10559800B5FA85F35B09002E08BF0123002B65D1FE
:1055A800074694F89130DBB2012B62D194F8903021
:1055B800012B60D0012384F89030A667A4F87C50B2
:1055C800A4F87E500023C4F89430122284F8912065
:1055D800D4F8802029491164D4F880202849D1635F
:1055E800D4F880202749D164D4F880201365226834
:1055F800B4F87C301C32A16FD4F88000FCF7EEFAC6
:10560800054610BB00212046FFF789FD2268136973
:10561800184310612268136843F400331360236849
:105628005A6912F4E02F15D1FAF7C2FFC01BB0F582
:105638007A7FF4D9D4F8943043F04003C4F8943016
:10564800002384F89030032511E0002384F890307B
:1056580001250CE01A6812F4803F03D11A6842F45D
:1056680080321A60002384F8903000E00125284633
:10567800F8BD0225FBE70225F9E700BF9F570008A0
:1056880065570008ED57000838B51446B2FA82F29B
:105698005209002908BF0122002A51D190F89130FF
:1056A800DBB2012B4FD190F89030012B4DD023461F
:1056B8000446012280F89020A167A0F87C30A0F869
:1056C8007E300023C0F89430222280F89120D0F850
:1056D80084201F491164D0F884201E49D163D0F872
:1056E80084201D49D164D0F8842013650168B0F87E
:1056F8007C30826F1C31D0F88400FCF76FFA0546C5
:10570800C8B900212046FFF70AFD2268136918432B
:1057180010612268136843F40033136023681A6821
:1057280012F4803F03D11A6842F480321A600023D1
:1057380084F8903005E0002384F89030012500E0DB
:105748000125284638BD0225FBE70225F9E700BFF9
:10575800E3570008A9570008ED57000810B5846BF7
:10576800C369B3F5807F12D00021A4F87E102268A7
:10577800136823F4003313602046FFF7D0FC226837
:10578800136923EA00001061012384F89130204650
:1057980002F007FE10BD08B5806B02F003FE08BDDD
:1057A80010B5846BC369B3F5807F12D02268136883
:1057B80023F4003313600021A4F87E102046FFF77D
:1057C800AEFC2268136923EA00001061012384F803
:1057D8009130204602F0E7FD10BD08B5806B02F05D
:1057E800E8FD08BD10B5846BFDF72AF8022816D02D
:1057F800D4F8943043F08003C4F8943022681368D6
:1058080023F4003313602046FFF7A4FC012384F837
:1058180091300023A4F87E30204602F0C1FD10BD6F
:1058280070B5846AC36A1F2B16D9064600250DE099
:10583800306801F039FE2070C0F307236370C0F3AD
:105848000743A370000EE07004340135072DEFD92B
:10585800B462F36A203BF36270BD70B582B0046A2B
:10586800436A1F2B1DD90646002514E023780193AF
:10587800627843EA02230193A27843EA0243019340
:10588800E27843EA026302A941F8043D043430682F
:1058980001F00DFE0135072DE8D93462736A203B0B
:1058A800736202B070BD00002DE9F04186B0044675
:1058B8000D46FAF77DFE80460021206801F01BFEA8
:1058C80010F0007F67D14021206801F02FFF0646C5
:1058D80010B1A36BA36360E0A16C0904206802F017
:1058E80013F8064610B1A36BA36356E04FF0FF33DD
:1058F8000093402301936023029302230393002320
:105908000493012305936946206801F0FDFE206891
:1059180002F0B9F8064688B1A36BA3633DE020689E
:1059280001F0C2FD45F8040B0137072FF7D9FAF744
:105938003FFEA0EB0800B0F1FF3F32D023685A6B5E
:1059480012F4957F05D15B6B13F4004FEFD0374607
:10595800EBE75A6B12F0080F26D15A6B12F0020FC0
:1059680024D15B6B13F0200F22D12068436B13F412
:10597800805F0DD001F098FD45F8040BFAF718FE8A
:10598800A0EB0800B0F1FF3FEFD14FF0004604E074
:10599800084B836301E04FF40066304606B0BDE86B
:1059A800F0814FF00046F8E70826F6E70226F4E70C
:1059B8002026F2E73A0F00182DE9F04188B0044696
:1059C8000F46FAF7F5FD06460023009301930821D8
:1059D800206801F0ABFE054618B1284608B0BDE8BE
:1059E800F081A16C0904206801F08EFF05460028AB
:1059F800F3D14FF0FF33029308230393302304932A
:105A080002230593002306930123079302A9206824
:105A180001F07AFE206801F0BFFF05460028DCD1BE
:105A2800804605E0FAF7C4FD801BB0F1FF3F48D07F
:105A38002068426B40F22A531A4210D1436B13F488
:105A4800002FEFD1B8F1000FECD101F02DFD00903F
:105A5800206801F029FD019008F10108E2E7436B95
:105A680013F0080F24D1436B13F0020F23D1436BBB
:105A780013F0200F22D1144B8363019A130203F40D
:105A88007F0343EA0263110A01F47F410B4343EAAF
:105A980012633B60009A130203F47F0343EA026334
:105AA800110A01F47F410B4343EA12637B6094E7D8
:105AB8000825856391E7022585638EE720258563A0
:105AC8008BE74FF0004588E73A0F001810B582B011
