:020000040800F2
:100000000000022051A500082D9800083198000832
:1000100035980008399800083D9800080000000055
:1000200000000000000000000000000041980008EF
:100030004598000800000000499800084D98000805
:10004000A1A50008A1A50008A1A50008A1A5000878
:10005000A1A50008A1A50008A1A50008A1A5000868
:10006000A1A50008A1A50008A1A5000851980008B5
:100070005D98000869980008A1A50008A1A50008DE
:10008000A1A50008A1A50008A1A50008A1A5000838
:10009000A1A50008A1A50008A1A50008A1A5000828
:1000A000A1A50008A1A50008A1A50008A1A5000818
:1000B000A1A50008A1A50008A1A50008A1A5000808
:1000C000A1A50008A1A50008A1A50008A1A50008F8
:1000D000A1A50008A1A50008A1A50008A1A50008E8
:1000E000A1A50008A1A5000800000000A1A5000826
:1000F000A1A50008A1A50008A1A50008A1A50008C8
:10010000A1A5000875980008A1A50008A1A50008F0
:10011000A1A50008A1A50008A1A50008A1A50008A7
:10012000A1A50008A1A50008A1A50008A1A5000897
:10013000A1A50008A1A50008A1A50008A1A5000887
:1001400000000000000000000000000000000000AF
:10015000A1A50008A1A50008A1A50008A1A5000867
:10016000A1A50008A1A50008A1A50008A1A5000857
:10017000A1A50008A1A50008A1A500080000000095
:10018000A1A50008A1A50008A1A50008A1A5000837
:10019000A1A50008A1A50008A1A500088198000854
:1001A000A1A50008A1A50008A1A50008A1A5000817
:1001B000A1A50008A1A50008A1A50008A1A5000807
:1001C000A1A50008A1A50008A1A50008A1A50008F7
:1001D000A1A50008A1A50008A1A50008A1A50008E7
:1001E000A1A50008A1A50008A1A50008A1A50008D7
:1001F000A1A50008A1A50008A1A50008A1A50008C7
:10020000A1A50008A1A50008A1A50008A1A50008B6
:10021000A1A50008A1A50008A1A50008A1A50008A6
:10022000A1A50008A1A50008A1A5000800000000E4
:10023000A1A50008A1A5000800000000A1A50008D4
:10024000A1A50008A1A50008A1A50008A1A5000876
:10025000A1A50008A1A50008A1A50008A1A5000866
:10026000A1A50008A1A50008A1A50008A1A5000856
:10027000A1A50008A1A50008A1A500080000000094
:10028000A1A50008A1A50008A1A500080000000084
:0802900000000000A1A5000818
:1002980010B5054C237833B9044B13B10448AFF3B8
:1002A80000800123237010BD080100200000000019
:1002B80048B9000808B5034B1BB103490348AFF31D
:1002C800008008BD000000000C01002048B90008AB
:1002D8000F4B1B780BB9012070474FF47A720D4908
:1002E800B2FBF3F310B504460868B0FBF3F000F076
:1002F8004BFE0F2C00D808B1012010BD002221466A
:100308004FF0FF3000F0FCFD034B00201C6010BDD7
:1003180000000020180000200400002030B5032051
:1003280083B000F0D9FD124C03F0F2FB114A1249D8
:1003380093699269C3F30323104D02F00F02CB5C5B
:100348008A5C03F01F0302F01F0220FA03F3002067
:1003580023FA02F22B602260FFF7BAFF10B10120E6
:1003680003B030BD019009F04BFA019803B030BDDD
:100378001C000020004402587CB900081800002026
:10038800034A044B11681B780B441360704700BF85
:100398005401002000000020014B1868704700BF7E
:1003A8005401002038B50446FFF7F6FF0546631CE4
:1003B80002D0044B1B781C44FFF7EEFF401BA04201
:1003C800FAD338BD00000020014B1868000C7047B4
:1003D8000010005C2DE9F843614C0568A54230D057
:1003E800604B9D422DD0604CA668AC6864072DD444
:1003F80090F85030012B29D006F01F0601239046B3
:100408000F46092E044680F8503005D900230120F4
:1004180084F85030BDE8F88340F22123F340DB072D
:10042800F4D5AB68D80714D4AA68504B1A4255D0F3
:10043800636D43F010036365A36D43F00103A36587
:10044800E4E74B4CA668AC686407D1D50220BDE848
:10045800F883444BED1A18BF0125626D454B1340D4
:1004680043F48073636506B11DB1636D23F4801393
:100478006365636D13F480532ED0A36D23F00603D8
:10048800A365E16C1C253C4843463C4E3A46C8638C
:100498000021E06C06643A4EE06CC6642068056092
:1004A800206884F85010416841F0100141602068CC
:1004B800E56AC16821F003012943C1602168E06C45
:1004C800403101F017F922682E4B91680B4043F038
:1004D80004039360BDE8F883A365D2E7AA68294BB3
:1004E800134043F00103AB60FFF756FF23681C4A33
:1004F8008146934220D002F5807293421CD01A4A5A
:100508009268204D0BE09A682A4042F001029A60F6
:10051800FFF742FFA0EB0900022889D823681A6870
:10052800D20718D49A68D107EDD5FFF735FFA0EBAD
:1005380009000228F2D97BE70D490A4A896811F0B7
:100548001F0F0CBF01250025934218BF45F0010578
:10055800002DD6D181E7034D5D1B18BF01257CE72F
:100568000020024000210240006302583F00008042
:1005780000230240FEF0FFFFA905000899050008C6
:1005880011060008C0FFFF7F704700BF704700BF1B
:1005980008B5806BFFF7FAFF08BD00BF704700BFC2
:1005A80010B5836B5A6D12F0500F5A6D1DD1196832
:1005B80042F400725A650A6812F0080FCA681BD024
:1005C80012F4406F0DD1CA6894040AD45A6D22F40B
:1005D80080725A655A6DD10403D45A6D42F00102F3
:1005E8005A651846FFF7D0FF10BDD20607D4DB6C5A
:1005F800BDE81040DB6C18479007F2D1E6E71846D3
:10060800FFF7CCFF10BD00BF08B5836B5A6D1846C5
:1006180042F040025A659A6D42F004029A65FFF76B
:10062800BDFF08BD03460020F0B493F8502082B007
:10063800012A019000F0308101201C6883F85000E5
:10064800A268570743D40A68C2F31305002D40F087
:10065800A280C2F384629040E2691F271043E061E0
:1006680048681C6885090A683840303405F00C056C
:10067800C2F3846287402E59824026EA070002436B
:100688002A511A689068460700F18380956815F02A
:10069800080526D09068C50717D4CC680E6804F002
:1006A8001805BF48D2F8C040E840C6F313053040EB
:1006B80024EA0504BB4D2043C2F8C000CA68AA4218
:1006C80000F0A380096800296DDB002003E05A6D63
:1006D80042F020025A65002283F8502002B0F0BC94
:1006E80070470C68143207208F68E60DC4F3045471
:1006F80006F0040600FA04FC07FA04F4AA4FB058FE
:1007080020EA0C002043B0503A6802F07042B2F17F
:10071800805F00F0B8801A684869D46814F0100F38
:10072800D46840F0D980C4F38204640000FA04F469
:100738000E690868042E00F0B380603200F0F840BB
:1007480052F82670204307F00044204342F8260060
:1007580018684E7E0C696030012E50F8242014BFB2
:1007680000264FF0004622F00042324340F8242091
:100778000C7E1868012C0A6904D102F01F024FF49C
:1007880000659540026922F4F042154305611A6834
:1007980080E790687EE792FAA2F2B2FA82F202F05B
:1007A8001F02904058E71868804A904200F0C680BF
:1007B80002F58072904200F0C1807D4E7D4DAC689C
:1007C800B26804F0E076D24302F00102002A00F099
:1007D800C380794A914200F0F980784A914200F04A
:1007E8001781774A91427FF470AF62023FF56DAF8F
:1007F8006F4A90427FF469AFA96846F480020020EE
:1008080021F0E0710A43AA6065E708681C68C0F334
:100818001302002A66D090FAA0F2B2FA82F20132EC
:1008280002F01F02092A00F29D8090FAA0F2B2FAA3
:1008380082F290FAA0F50126B5FA85F50132354421
:10084800920605F01F0502F0F84206FA05F52A435C
:1008580090FAA0F0B0FA80F0304400F01F0000EBEE
:10086800400000051043143407278A68C60DC0F3FA
:10087800045006F0040687408240355925EA0700EF
:10088800104330511EE71A684869D468C4F38204DB
:10089800640000FA04F44BE7022002B0F0BC704791
:1008A800146E800604F0F84484423FD0546E04F07D
:1008B800F844844232D0946E04F0F844844225D03F
:1008C800D46E04F0F844A0427FF4E4AED06E20F079
:1008D8000040D0661A68DDE6640804F0080400FAEF
:1008E80004F425E70126800E304400F01F05820637
:1008F800AE4002F0F842092D05EB450042EA060237
:10090800AFD91E38000540F00070ABE7906E20F0BC
:100918000040906608681A688006D1E7506E20F09B
:100928000040506608681A688006C4E7106E20F018
:100938000040106608681A688006B7E7214A224E08
:100948001A4F15469468BF68B26804F0E0763A43D7
:10095800D24302F0010239E75A6D012042F0200229
:100968005A65B8E690FAA0F2B2FA82F290FAA0F5C7
:100978000126B5FA85F501323544920605F01F05C2
:1009880002F0F84206FA05F52A4390FAA0F0B0FA08
:1009980080F0304400F01F0000EB4000B1E700BFDA
:1009A800FFFF0F000000FF470010005C002002401E
:1009B8000060025800630258000084CB000052C750
:1009C8000000B8CF002302400021024024023FF576
:1009D8007CAE174A90427FF478AE164A46F400017E
:1009E800A868126820F0E070134C92090143A4FB38
:1009F8000202A960920952000192019A002A3FF46A
:100A080064AE019A013A0192019A002AF9D15CE692
:100A1800E1013FF55AAE064A90427FF456AEA96806
:100A280046F08072002021F0E0710A43AA6052E685
:100A38000060025818000020632D3E0538B5524A60
:100A480005460368934227D002F58072934223D06B
:100A58004E4B9B6813F4403F14BF0123002323B37C
:100A680003F012FA6B680446B3F5003F62D0B3F5A1
:100A7800403F72D0B3F5803F5CD0FFF7A5FC41F250
:100A88000303984232D8424A2B68944228D99A687C
:100A980042F480729A6038BD3E4B9B6813F4403F25
:100AA80014BF01230023002BDAD14FF4002004F0F7
:100AB800C1FA6B680446B3F5C01F49D03ED9B3F5F7
:100AC800101F4ED027D9B3F5201F48D0B3F5301FDB
:100AD800D3D1FFF779FC41F20303984205D82B687C
:100AE8009A6822F480729A6038BD240A64082A4AF7
:100AF8002B6894420AD9294A944214D9284A944224
:100B08009A6832D942F440729A6038BD9A6822F4E1
:100B180040729A6038BDB3F5E01F24D0B3F5001FCA
:100B2800ABD14409A9E79A6822F4407242F4807272
:100B38009A6038BD1B0CB4FBF3F49EE7B3F5402F65
:100B480006D018D8B3F5802F02D0B3F5002F94D172
:100B58009B0C5B00B4FBF3F48FE784088DE7C409B2
:100B68008BE7840989E7040987E722F4407242F495
:100B780000729A6038BDB3F5801FE9D0B3F5A01FA5
:100B88007FF47BAFE4E700BF002002400063025817
:100B9800002D310100230240105E5F0020BCBE0022
:100BA80040787D0170B5002382B00193002800F0E1
:100BB800AB80456D0446002D00F09B8023689A6841
:100BC800960004D59968784A0A409A6023689A681A
:100BD800D50016D4754A98681268754D92097549FA
:100BE800A5FB02520140920941F08051996001929F
:100BF800019B2BB1019B013B0193019B002BF9D178
:100C080023689A68D00013D4626D012542F010025F
:100C18006265A26D2A43A2659A6851070CD5636D77
:100C2800636D012543F010032846636502B070BD6B
:100C38009A6800255107F2D4626DD206F0D4626D2D
:100C480022F4817242F0020262659A68D60713D4D0
:100C5800594A934200F0878002F58072934200F06F
:100C68008280564B9B68D90706D4554A93686168B9
:100C780023F47C130B439360FFF7A6FB41F20303B5
:100C88009842637D207F61D9A66859030204236BCB
:100C9800102E00F0838013430B433343012803D104
:100CA800226A013A43EA4243626A22B102F4787244
:100CB800A16A0A4313432168424AC86802401343A1
:100CC800CB6023689A6812F0040F9A6801D1120762
:100CD8001ED5E268012A3ED01A6B22F00F021A6371
:100CE800636D284623F0030343F00103636502B0F4
:100CF80070BD07F0B5F82368A56584F850509A6868
:100D080096007FF564AF5DE70125284602B070BD07
:100D1800D9682D4A207D0A40E16A42EA80320A43B6
:100D2800DA6094F83830012B26D02268136923F052
:100D38000103136122682046616B136923F0704335
:100D48000B431361FFF77AFE2368C2E75903A668CD
:100D58000204236B9FE7196BA26921F00F01013A86
:100D68000A431A63BCE7144A184B92689B681343FA
:100D7800D80781D4164A79E7D4E91032206813439A
:100D8800A66C026943F00103124933431140E26B38
:100D98000B43013A43EA02430361CBE743F01C03E8
:100DA8000B4313437AE700BFC0FFFF5F1800002022
:100DB800632D3E05C0FFFF6F00200240006002580F
:100DC8000063025803C0F0FFFCBFFFFF0021024090
:100DD800002302401EF800FC90F85020012A43D05E
:100DE8000346012070B4374C1A6883F85000A242B9
:100DF80008D05A6D002142F0200283F850105A653D
:100E080070BC70473048846864070AD592685A6D88
:100E1800012042F020025A65002283F8502070BC5D
:100E2800704794686507F2D40C68FCB1274D4E688A
:100E3800AC6824F440443443AC601C68944235D018
:100E4800844233D0224A9268D24302F00102002A37
:100E580035D01E4D00200A68AE6889681D4C0A43CB
:100E680034402243AA60D7E702207047174CA16894
:100E780021F44041A160196891420ED081420CD002
:100E8800134A9268D24302F00102C2B10F4900200E
:100E9800104A8C6822408A60BEE70A490A4A896873
:100EA80092680A43D24302F00102EEE70548064A77
:100EB800806892680243D24302F00102C7E700202B
:100EC800AAE700BF002002400021024000230240A0
:100ED80000600258E0F0FFFF07490002074B00F4EA
:100EE800E06010B44FF6FF04CA6822401343184369
:100EF800C8605DF8044B704700ED00E00000FA059B
:100F0800174B30B4DB68C3F30223C3F107051C1D7C
:100F1800042D28BF0425062C18D9033B4FF0FF34B5
:100F28009C4022EA04044FF0FF32002802FA05F23E
:100F380021EA020101FA03F242EA04024FEA02122C
:100F4800D2B206DB074B1A5430BC70470024234644
:100F5800E9E700F00F00044B1A5430BC704700BF9B
:100F680000ED00E000E400E014ED00E0002807DBFD
:100F780000F01F0101234009024A8B4042F820304B
:100F8800704700BF00E100E00138B0F1807F0DD26A
:100F9800074B0022072130B4F025064C5860104654
:100FA80084F823509A60196030BC7047012070475C
:100FB80010E000E000ED00E0BFF35F8F044A00207E
:100FC8000449536A23F4803353624860704700BF72
:100FD80000ED00E090ED00E0064A40F00100064B0D
:100FE8005860536A43F480335362BFF34F8FBFF3A3
:100FF8006F8F704700ED00E090ED00E04378134AF2
:101008009360037813B9D36013617047436870B471
:10101800D360C37A017B1B060578847A43EA01739F
:10102800417B867B2B43C57B43EAC443447A43EA2E
:101038008143017A43EA464343EA054343EA0423EA
:1010480043EA4103136170BC704700BF90ED00E0B4
:10105800354B014630B4354C02683548A24218BFBA
:101068009A42344D04F148040CBF01230023824204
:1010780008BF43F001034830AA4208BF43F0010308
:101088004835A24208BF43F001034834824208BFF2
:1010980043F0010300F56270AA4208BF43F0010360
:1010A80005F56275A24208BF43F0010304F56274B6
:1010B800824208BF43F001034830AA4208BF43F008
:1010C80001034835A24208BF43F001034834824275
:1010D80008BF43F001034830AA4208BF43F00103A8
:1010E800A24208BF43F00103824208BF43F0010354
:1010F80013B9114B9A4212D1D3B2104D1048103B7C
:10110800104C1040A5FB03531B0903F00702032BE7
:10111800A25C88BF0430CA65886530BC704722F07D
:10112800FF008865F9E700BF100002402800024070
:101138004000024058000240B8040240ABAAAAAAE4
:1011480000FCFFFF60B900082DE9F0470446FFF7EF
:1011580023F9002C00F0AB8122680546564B9A42D1
:1011680049D018339A4246D03033544854498242C1
:1011780018BF9A4200F148000CBF012300238A429D
:1011880008BF43F001033031824208BF43F0010336
:1011980030308A4208BF43F0010301F55C71824296
:1011A80008BF43F0010300F55C708A4208BF43F0B2
:1011B80001033031824208BF43F0010330308A42D4
:1011C80008BF43F001033031824208BF43F00103F6
:1011D80030308A4208BF43F001033031824208BFF1
:1011E80043F001038A4208BF43F001031BB9354BA2
:1011F8009A4240F0EB810223002184F8353084F8CC
:101208003410136823F00103136005E0FFF7C4F8F6
:10121800401B052800F2438123681A68D007F5D4DB
:10122800D4E9022021690243D4E905500A43E1695F
:101238002A43256A024318680A4323490140606A21
:101248002A43042842EA010203D1D4E90B100143DE
:101258000A431E481E4900680140B1F1005F0AD3E5
:101268006068A0F129051F2D40F224814F3803281A
:1012780001D842F480121A602168626A4B69042A14
:1012880023F0070343EA02032AD1D4E90A201343CF
:1012980030B3A569F5B1B5F5005F00F0FB81022A0E
:1012A80003D9032A1CD1C2011AD5012340221846AA
:1012B800626584F83530F0E01000024040000240DA
:1012C80070000240B80402403F8010FE0010005C2D
:1012D8000000FFFF012A00F0D881E4D3022AE2D0FF
:1012E8004B612046FFF7B4FEE26D3F2302F01F0278
:1012F8009340836022689D4B9D489E49824218BF57
:101308009A429D4E9D4D00F160000CBF01230023C1
:10131800DFF8A8E28A4208BF43F001036031DFF832
:10132800A0C2B24208BF43F00103954F06F57A7692
:10133800DFF89082AA4208BF43F0010305F57A75E9
:10134800DFF858A2824208BF43F0010300F57A7023
:10135800DFF874928A4208BF43F0010301F57A71FD
:10136800724508BF43F00103DFF828E2624508BF71
:1013780043F00103A2EB0E0EDFF81CC2BA4208BF0D
:1013880043F00103BEFA8EFEA2EB0C070CF1280C09
:10139800B24208BF43F001034FEA5E1EA2EB0A0601
:1013A800B7FA87F7AA4208BF43F001030AF1280AEF
:1013B800A2EB0C057F09824208BF43F00103B6FA8D
:1013C80086F60CF1280CB5FA85F58A4208BF43F079
:1013D80001037609A2EB0A00A2EB0C01424508BF03
:1013E80043F001036D09B0FA80F00CF1140C4A4582
:1013F80008BF43F00103B1FA81F14009A2EB0C0CDC
:101408004EEA03034909DFF89881BCFA8CFC3B4398
:101418004FEA5C1CA2EB08083343B8FA88F82B4360
:101428004FEA581803430B435CEA030302D1B8F1AF
:10143800000F2DD047EA0E07D3B23E433543284369
:1014480001435CEA010102D1B8F1000F76D04D48A2
:10145800083B4D4A0121A0FB03034C481B09606669
:101468001A4403F01F03920001FA03F32266A366ED
:10147800A368802B26D023791360D4E919325A60E7
:101488006068411E072921D90023C4E91B3363671B
:1014980000200123606584F83530BDE8F0872022FC
:1014A80003230120626584F83530BDE8F087012008
:1014B800BDE8F0873649E940C9077FF5D7AE42F461
:1014C8008012D8E600210B466160D5E72268314BCF
:1014D800314E324DB24218BF9A4206F128060CBF6F
:1014E80001230023AA4208BF43F001032835B24272
:1014F80008BF43F001032836AA4208BF43F001039E
:101508002835B24208BF43F00103AA4208BF43F09E
:1015180001031BB9224B9A4240F0CA80214B224D4D
:1015280003449B0001220020256702FA01F1E366CB
:1015380061671860D4E91C325A60A9E71B49103B5F
:101548001B481144A0FB0303A8294FEA131300D832
:101558000833184A03F01F05012117481A44A94007
:1015680060669200A166226682E700BF1000024012
:10157800280002404000024058000240700002402B
:1015880028040240CDCCCCCC0096001680580258D6
:101598003F00C0C3085402581C5402583054025823
:1015A800945402583F96001640590258F0FBFDBF6C
:1015B800ABAAAAAA0082001080080240B800024024
:1015C80010040240A0040240B80402403F4B4049C6
:1015D80040488A4218BF9A4201F128013E4D0CBF8B
:1015E80001230023824208BF43F001033C308A42B2
:1015F80008BF43F001033C31AA4208BF43F001038E
:10160800824208BF43F001038A4208BF43F0010346
:1016180013B9324B9A4252D102230021304F84F839
:101628003530A36884F83410402B116807EA0107A5
:1016380043D0802B14BF00214FF4804123692046FA
:10164800E568DB08666943EAD503A56943EAD6037A
:10165800E66943EAD503256A43EAD603214E43EAFD
:101668001513214D3B430B43136023681E44A5FB10
:1016780006231B099B00E365FFF7EAFCE26D0123E3
:1016880002F01F029340436034E6B0F1C07F7FF45C
:1016980027AE0AE6032A3FF623AE01A555F822F045
:1016A800B3120008AF120008B3120008931600081E
:1016B8000E4B0F4D03449B0034E71021BEE7402238
:1016C80003230120626584F83530E6E608540258A1
:1016D8001C54025830540258585402589454025812
:1016E8000F00FEFFF8ABFDA7CDCCCCCC3F8200109D
:1016F80040090240002800F06882F0B4054690F8DE
:101708003400012800F06882012095F835408442B1
:1017180085F8340007D000224FF4006385F83420A0
:101728006B65F0BC704702272C689E4E85F83570B3
:1017380000276F6520689C4F20F0010020609B48BF
:101748002C68B44218BF844206F130060CBF012051
:101758000020BC4208BF40F001003037B44208BF47
:1017680040F001003036BC4208BF40F0010030377D
:10177800B44208BF40F001003036BC4208BF40F018
:10178800010007F55C77B44208BF40F0010006F598
:101798005C76BC4208BF40F001003037B44208BF55
:1017A80040F001003036BC4208BF40F0010030373D
:1017B800B44208BF40F001003036BC4208BF40F0D8
:1017C80001003037B44208BF40F001003036BC4257
:1017D80008BF40F00100764FB44208BF40F0010056
:1017E800744EBC4208BF40F001002837B44208BF1D
:1017F80040F001002836BC4208BF40F001002837FD
:10180800B44208BF40F001002836BC4208BF40F08F
:1018180001002837B44208BF40F00100AE6DBC4259
:1018280008BF40F0010010B96348844208D1D5E9E7
:1018380019044460E86E10B1D5E91C0444602C68B2
:101848005A48DFF860C1584F644518BF84420CF10C
:10185800300C0CBF01200020BC4208BF40F0010042
:101868003037644508BF40F001000CF1300CBC4231
:1018780008BF40F001003037644508BF40F0010060
:101888000CF1300CBC4208BF40F0010007F55C7752
:10189800644508BF40F001000CF55C7CBC4208BF01
:1018A80040F001003037644508BF40F001000CF1FA
:1018B800300CBC4208BF40F001003037644508BF17
:1018C80040F001000CF1300CBC4208BF40F00100B0
:1018D8003037644508BF40F00100BC4208BF40F003
:1018E800010018B93548844240F07981EC6D3F20F9
:1018F80004F01F04A040B0602C68206820F4802009
:10190800206028684360AB68402B2B6800F05F813B
:1019180099602B68DA602C68244B2249224A8C4251
:1019280018BF9C42264801F148010CBF012300233F
:10193800944208BF43F001034832844208BF43F091
:10194800010348308C4208BF43F0010348319442F8
:1019580008BF43F0010302F56272844208BF43F0F6
:10196800010300F562708C4208BF43F0010301F5E2
:101978006271944208BF43F001034832844208BFB1
:1019880043F0010348308C4208BF43F0010348315B
:10199800944208BF43F001034832844208BF43F031
:1019A80001030FE0280002404000024010000240FE
:1019B800085402581C54025894540258B80402405F
:1019C800580002408C4208BF43F00103944208BF0C
:1019D80043F001031BB99C4B9C4240F049812368AA
:1019E80023F01E0343F0160323602B6C23B12A68EF
:1019F800136843F0080313602C68944B944A954885
:101A0800944218BF9C42944902F148020CBF01233A
:101A18000023844208BF43F0010348308C4208BFCA
:101A280043F001034831944208BF43F001034832B0
:101A3800844208BF43F0010300F562708C4208BF7E
:101A480043F0010301F56271944208BF43F00103BA
:101A580002F56272844208BF43F0010348308C42A9
:101A680008BF43F001034831944208BF43F0010323
:101A78004832844208BF43F0010348308C4208BF13
:101A880043F001034831944208BF43F0010302F1D7
:101A9800C052844208BF43F0010302F59F426F48D9
:101AA8008C4208BF43F001036D49944208BF43F0DC
:101AB80001033C32844208BF43F001033C308C42AE
:101AC80008BF43F001033C31944208BF43F00103CF
:101AD8003C32844208BF43F001038C4208BF43F004
:101AE8000103944208BF43F0010313B95D4B9C42C4
:101AF8000ED12B6E1A68D20303D51A6842F480728D
:101B08001A60EB6E1BB11A6842F480721A602C6876
:101B18004E4B4F494F4A8C4218BF9C424E4D52483B
:101B280001F160010CBF01230023944208BF43F078
:101B380001036032AC4208BF43F0010360358442C0
:101B480008BF43F0010300F568708C4208BF43F0FA
:101B5800010301F56871944208BF43F0010302F5DF
:101B68006872AC4208BF43F0010305F5687584420A
:101B780008BF43F0010360308C4208BF43F0010303
:101B88006031944208BF43F001036032AC4208BFA1
:101B980043F00103844208BF43F001038C4208BFAD
:101BA80043F00103944208BF43F0010333B94830BE
:101BB800201AB0FA80F04009002840D0236800209D
:101BC80043F001032360F0BC7047012070479A601E
:101BD8002B68D9602C689FE60220F0BC7047234828
:101BE800DFF878C01E4F644518BF84420CF1280CFA
:101BF8000CBF01200020BC4208BF40F0010028377C
:101C0800644508BF40F001000CF1280CBC4208BF35
:101C180040F001002837644508BF40F00100BC428D
:101C280008BF40F0010018B90E4884427FF474AE32
:101C3800EC6D012004F01F04A040706061E6236889
:101C480043F0010323606CE5B80402401000024031
:101C58002800024040000240580002401C5402582C
:101C680030540258945402587000024008540258E4
:101C7800236823F00E0343F00A0323602B6C002B28
:101C88003FF4BAAE2A68136843F004031360B3E65E
:101C980070B50646FEF780FB002E00F0EF8196F83F
:101CA8003530022B06D0802200230120726586F889
:101CB800343070BD326804466F4B704870498242B8
:101CC80018BF9A4200F130000CBF012300238A425A
:101CD80008BF43F001033031824208BF43F00103DB
:101CE80030308A4208BF43F001033031824208BFD6
:101CF80043F0010330308A4208BF43F0010301F585
:101D08005C71824208BF43F0010300F55C708A42AF
:101D180008BF43F001033031824208BF43F001039A
:101D280030308A4208BF43F001033031824208BF95
:101D380043F0010330308A4208BF43F001033031D9
:101D4800824208BF43F001038A4208BF43F00103FF
:101D58001BB94C4B9A4240F09D81136823F01E0337
:101D680013603268536923F0800353613268154663
:101D7800414B42484249824218BF9A4200F1300022
:101D88000CBF012300238A4208BF43F0010330310E
:101D9800824208BF43F0010330308A4208BF43F053
:101DA80001033031824208BF43F0010330308A42D8
:101DB80008BF43F0010301F55C71824208BF43F09C
:101DC800010300F55C708A4208BF43F0010330311B
:101DD800824208BF43F0010330308A4208BF43F013
:101DE80001033031824208BF43F0010330308A4298
:101DF80008BF43F001033031824208BF43F00103BA
:101E080030308A4208BF43F001031F49824208BFAD
:101E180043F001031D488A4208BF43F001032831FB
:101E2800824208BF43F0010328308A4208BF43F0CA
:101E380001032831824208BF43F0010328308A4257
:101E480008BF43F001032831824208BF43F0010371
:101E58008A4208BF43F0010313B90D4B9A4205D1DA
:101E6800326E136823F4807313603268136823F0AA
:101E78000103136014E000BF100002402800024074
:101E880040000240B8040240085402581C5402584A
:101E980094540258FEF780FA001B052800F2F080DF
:101EA8002B68DB07F6D43268804B8149814C8A4223
:101EB80018BF9A4201F130017F480CBF012300236B
:101EC800A24208BF43F0010348348A4208BF43F0E6
:101ED80001034831824208BF43F001034830A2425F
:101EE80008BF43F0010304F562748A4208BF43F057
:101EF800010301F56271824208BF43F0010300F556
:101F08006270A24208BF43F0010348348A4208BF06
:101F180043F001034831824208BF43F001034830CF
:101F2800A24208BF43F0010348348A4208BF43F085
:101F38000103F16D824208BF43F0010301F01F0164
:101F4800B06DA24208BF43F001031BB95B4B9A4234
:101F580040F0A7803F2303FA01F181603268534BB8
:101F68005349544C8A4218BF9A42554801F14801D6
:101F78000CBF01230023A24208BF43F001034834E9
:101F8800824208BF43F0010348308A4208BF43F049
:101F980001034831A24208BF43F0010304F562740B
:101FA800824208BF43F0010300F562708A4208BF0D
:101FB80043F0010301F56271A24208BF43F0010337
:101FC8004834824208BF43F0010348308A4208BFC0
:101FD80043F001034831A24208BF43F001034834EB
:101FE800824208BF43F0010348308A4208BF43F0E9
:101FF800010301F1C051A24208BF43F0010301F5FA
:102008009F41304C824208BF43F001032E488A4268
:1020180008BF43F001033C31A24208BF43F001036B
:102028003C34824208BF43F001033C308A4208BF77
:1020380043F001033C31A24208BF43F0010382424E
:1020480008BF43F001038A4208BF43F0010313B9F4
:102058001E4B9A420BD1D6E919325A60F36E33B14E
:102068001A6822F480721A60D6E91C325A6000207D
:10207800012386F8340086F8353070BD012070BD24
:102088002021002203230120716586F8342086F878
:10209800353070BD136823F00E031360326815469F
:1020A80066E6012303FA01F1416057E71000024098
:1020B800280002404000024070000240B80402407C
:1020C800580002401C540258305402589454025884
:1020D80000286AD02DE9F84F90F835200346022AE7
:1020E80004D0802201205A65BDE8F88F026886492D
:1020F8008A4250D0854882424DD0DFF82882DFF8E6
:102108002092DFF830E24A4518BF4245DFF828C27E
:102118007F4F0CBF4FF0010A4FF0000A7D4C72450B
:1021280008BF4AF0010ADFF814B27B4E624508BFC7
:102138004AF0010A794DBA4208BF4AF0010AA242A0
:1021480008BF4AF0010A04F55674A24208BF4AF0D3
:10215800010A1834A24208BF4AF0010A1834A24200
:1021680008BF4AF0010A60345A4508BF4AF0010A1C
:10217800B24208BF4AF0010AAA4208BF4AF0010A5F
:10218800A24208BF4AF0010ABAF1000F03D1DFF8F2
:10219800B0A152450BD10421002083F835101368F3
:1021A80023F001031360BDE8F88F0120704714681D
:1021B800564824F00E045A4D14601A68594C116898
:1021C80021F001011160504A1968814218BF9142FB
:1021D80000F148000CBF01220022A94208BF42F0CA
:1021E80001024835A14208BF42F001024834814249
:1021F80008BF42F001024830A94208BF42F001027C
:1022080005F56275A14208BF42F0010204F5627447
:10221800814208BF42F0010200F56270A94208BF7E
:1022280042F001024835A14208BF42F00102483499
:10223800814208BF42F001024830A94208BF42F07B
:1022480001024835A14208BF42F0010248348142E8
:1022580008BF42F0010200F1C050A94208BF42F095
:10226800010200F59F40304DA14208BF42F0010233
:102278002E4C814208BF42F001023C30A94208BFFF
:1022880042F001023C35A14208BF42F001023C3451
:10229800814208BF42F001023C30A94208BF42F027
:1022A8000102A14208BF42F00102814208BF42F088
:1022B800010212B91E4A914217D1186E0122016813
:1022C80021F480710160D3E9160101F01F018A40F1
:1022D8004260D3E919215160DA6E32B1116821F4F4
:1022E80080711160D3E91C215160002401211A6D0D
:1022F80083F8344083F835101AB1184690472046C1
:10230800F2E61046F0E600BF100002402800024046
:10231800A0000240B8000240700402408804024055
:1023280040000240580002401C54025830540258E1
:102338009454025870000240880002405804024039
:10234800B8040240F0B5A54B83B004680021A44A44
:10235800856D9C42019116682F682A684DD0183304
:102368009C424AD03033DFF884C29E49644518BF86
:102378009C420CF1480C0CBF012300238C4208BF7F
:1023880043F001033031644508BF43F001030CF109
:10239800300C8C4208BF43F0010301F55C716445C1
:1023A80008BF43F001030CF55C7C8C4208BF43F086
:1023B80001033031644508BF43F001030CF1300CD0
:1023C8008C4208BF43F001033031644508BF43F035
:1023D80001030CF1300C8C4208BF43F0010330318B
:1023E800644508BF43F001038C4208BF43F0010372
:1023F8001BB97D4B9C4240F01E82C16D082301F041
:102408001F0293403B4240F0FB8127FA02F3DC07AE
:1024180063D50168714BDFF8D8C1744C614518BFAA
:1024280099420CF1300C0CBF01230023A14208BFD4
:1024380043F001033034614508BF43F001030CF158
:10244800300CA14208BF43F001033034614508BF96
:1024580043F001030CF1300CA14208BF43F0010323
:1024680004F55C74614508BF43F001030CF55C7C1E
:10247800A14208BF43F001033034614508BF43F06F
:1024880001030CF1300CA14208BF43F001033034C2
:10249800614508BF43F001030CF1300CA14208BFAD
:1024A80043F001033034614508BF43F00103A14202
:1024B80008BF43F001031BB94B4B994240F085829A
:1024C8004B69190609D501219140A960436DC16D79
:1024D80043F0020301F01F024365042494403C4288
:1024E80067D001683D4BDFF808E1DFF800C17145AE
:1024F80018BF99420EF1300E0CBF0123002361452D
:1025080008BF43F001030CF1300C714508BF43F0DC
:1025180001030EF1300E614508BF43F001030CF1D1
:10252800300C714508BF43F001030EF1300E6145D0
:1025380008BF43F001030CF55C7C714508BF43F00C
:1025480001030EF55C7E614508BF43F001030CF101
:10255800300C714508BF43F001030EF1300E6145A0
:1025680008BF43F001030CF1300C714508BF43F07C
:1025780001030EF1300E614508BF43F001030CF171
:10258800300C714508BF43F00103614508BF43F0B3
:1025980001031BB9144B994240F015820B689B0745
:1025A80007D5AC60436DC16D43F0040301F01F0211
:1025B8004365044610209040384200F08680216828
:1025C800064BDFF82CE0DFF824C0714518BF9942AC
:1025D8000EF1300E08BF01230CE000BF10000240CE
:1025E8001800002070000240B80402404000024079
:1025F8002800024018BF0023614508BF43F00103CB
:102608000CF1300C714508BF43F001030EF1300E98
:10261800614508BF43F001030CF1300C714508BF58
:1026280043F001030EF1300E614508BF43F001038A
:102638000CF55C7C714508BF43F001030EF55C7E28
:10264800614508BF43F001030CF1300C714508BF28
:1026580043F001030EF1300E614508BF43F001035A
:102668000CF1300C714508BF43F001030EF1300E38
:10267800614508BF43F001030CF1300C714508BFF8
:1026880043F00103614508BF43F001031BB99F4BA9
:10269800994240F094810B68C3F3C003ABB1A860C2
:1026A80023681A68500300F102811A68D20503D41E
:1026B8001A6822F008021A60236C002B00F0FF80D1
:1026C80020469847E16D01F01F02202191403942D0
:1026D80068D022688E4B8F4F8F48BA4218BF9A42F3
:1026E80007F130070CBF01230023824208BF43F0E3
:1026F80001033030BA4208BF43F001033037824249
:1027080008BF43F001033030BA4208BF43F0010369
:102718003037824208BF43F0010300F55C70BA42CB
:1027280008BF43F0010307F55C77824208BF43F016
:1027380001033030BA4208BF43F001033037824208
:1027480008BF43F001033030BA4208BF43F0010329
:102758003037824208BF43F001033030BA4208BF25
:1027680043F00103824208BF43F001031BB9674BE2
:102778009A4240F02C811368C3F3001393B1A96007
:1027880094F83530042B00F09E8023681A685703AC
:1027980040F1CE801B681D0340F1D980E36B0BB17B
:1027A80020469847636D002B7FD0636DD8071FD5EF
:1027B8002268042084F83500136823F001031360AD
:1027C800564B2268A3FB0636B60A02E01368D907FF
:1027D80004D5019B0133B3420193F7D9002384F850
:1027E80034301368DB074CBF0323012384F83530EA
:1027F800E36C002B59D0204603B0BDE8F0401847E1
:1028080023685B077FF501AE2268082322F00402E3
:102818002260C26D02F01F029340AB60436DC16D30
:1028280043F0010301F01F02436527FA02F3DC07B6
:102838007FF553AEEDE53A4B3A4E3B49B44218BFEB
:102848009C4206F128060CBF012300238C4208BFD6
:1028580043F001032831B44208BF43F0010328368E
:102868008C4208BF43F001032831B44208BF43F04B
:1028780001038C4208BF43F0010313B92B4B9C4260
:1028880013D1C16D0426236801F01F018E40164242
:1028980066D05F0764D519046E6040F19C80DA0346
:1028A80000F1F180836C002BA6D103B0F0BD1B684A
:1028B80019037FF501AFA36C002B7FF401AFE26D24
:1028C80002F01F0201E72268136823F01603136061
:1028D8002268536923F080035361236C002B3BD09B
:1028E8002268136823F008031360E26D3F23002079
:1028F800012102F01F029340AB60236D84F834007D
:1029080084F83510002B7FF476AFCEE7B804024088
:10291800100002402800024040000240B5814E1BD2
:10292800085402581C5402583054025894540258FF
:102938001A6812F480727FF431AF1968012021F00F
:102948001001196084F8342084F8350026E7636C98
:10295800002B7FF425AF25E7A36C002BC0D1C4E77B
:1029680002268E4016420DD09F070BD51C046E60C0
:1029780040F18E80D90300F1E980436C002B7FF48D
:102988003BAF92E7082606FA01F111428DD01B07EA
:102998008BD523680122002123F00E032360C36D29
:1029A80003F01F0302FA03F36B60C36C426580F8FF
:1029B800341080F83520002B7FF41EAF75E70B68C4
:1029C800C3F380036AE60B68F3E50B6885E51368D3
:1029D800C3F34003D2E69B0655D40268634B644CAC
:1029E8006449A24218BF9A42634D04F148040CBFDF
:1029F800012300238A4208BF43F001034831AA4259
:102A080008BF43F001034835A24208BF43F0010361
:102A180048348A4208BF43F0010301F56271AA42B3
:102A280008BF43F0010305F56275A24208BF43F0F1
:102A3800010304F562748A4208BF43F00103483178
:102A4800AA4208BF43F001034835A24208BF43F039
:102A5800010348348A4208BF43F001034831AA42BF
:102A680008BF43F00103A24208BF43F001038A42B2
:102A780008BF43F0010313B9404B9A426BD1136866
:102A880023F008031360036C002B7FF4B5AE0CE74A
:102A98009A065BD40268354B354C3649A24218BFBA
:102AA8009A42354D04F148040CBF012300238A42A1
:102AB80008BF43F001034831AA4208BF43F00103AD
:102AC8004835A24208BF43F0010348348A4208BF90
:102AD80043F0010301F56271AA4208BF43F0010304
:102AE80005F56275A24208BF43F0010304F562745C
:102AF8008A4208BF43F001034831AA4208BF43F0A5
:102B080001034835A24208BF43F0010348348A4212
:102B180008BF43F001034831AA4208BF43F001034C
:102B2800A24208BF43F001038A4208BF43F00103F1
:102B380013B9124B9A4213D1136823F0140313608C
:102B48000022012380F8342080F83530C36B002B35
:102B58007FF452AEA9E6136823F00403136092E7EA
:102B6800136823F00A031360EAE700BF100002406D
:102B7800280002404000024058000240B8040240C9
:102B8800406D70470B68002B00F0E880DFF824C226
:102B98002DE9F04F002583B0DFF81CE27F4F0122BA
:102BA800AA4012EA030600F0BF804B684FEA4508C6
:102BB800032423F0100904FA08F409F1FF39E44367
:102BC800B9F1010F14D8836803EA0409CB6803FA42
:102BD80008F343EA090383604B68D0F80490C3F311
:102BE800001329EA020903FA05F242EA09024260DF
:102BF800C2688B68224003FA08F31343C3604B682A
:102C080023F01002022A15D1EA0805F007094FF04F
:102C18000F0B0B6900EB82024FEA8909D2F820A05A
:102C28000BFA09FB03FA09F32AEA0B0A43EA0A0337
:102C380013624B68026803F00303144003FA08F3B5
:102C4800234303604B68DB006DD5DCF8F44025F0C6
:102C5800030905F003030F2244F0020809EB0E04F0
:102C68004FEA83094E4BCCF8F480DCF8F48002FA82
:102C780009F2984208F00208CDF80480DDF80480D3
:102C8800D4F8088028EA020226D003F58063984227
:102C980058D0444B98424FD0434B98425FD0434B57
:102CA800984262D0424B984252D0DFF8108140459A
:102CB80061D0DFF80C81404563D0DFF808814045DA
:102CC80065D0DFF8048140450CBF4FF009084FF08C
:102CD8000A0808FA09F31A43A260F2434C684FF055
:102CE800B0483B68E4034CBF334313403B604C6837
:102CF8007B68A4034CBF334313407B604FF0B04361
:102D08004C681B68E4024CBF33431340C8F80030DA
:102D18004C68D8F80430A40254BF02EA03061E43E4
:102D28004FF0B0435E600B68013533FA05F27FF46B
:102D380036AF03B0BDE8F08F4FF0020808FA09F388
:102D48001A43C9E74FF0010808FA09F31A43C3E721
:102D58004FF0050808FA09F31A43BDE770474FF02A
:102D6800030808FA09F31A43B6E74FF0040808FA0B
:102D780009F31A43B0E74FF0060808FA09F31A43B3
:102D8800AAE74FF0070808FA09F31A43A4E74FF037
:102D9800080808FA09F31A439EE700BF80000058A4
:102DA8000000025800080258000C0258001002588F
:102DB8000014025800440258000400580018025831
:102DC800001C0258002002580024025803691942C6
:102DD80014BF01200020704702B9090481617047BF
:102DE80000285BD00023022110B5826882B080F8E9
:102DF800C110D207C0E93133C0E93333C0E93533F4
:102E08000FD501682E4B99424AD00A680469436974
:102E180022F4704204F4404403F440532243134321
:102E28000B60044605F0A2FFA3689B0708D521683C
:102E3800E3680A6803F4407322F4407213430B609A
:102E480000230122184684F8C12084F8C030A36208
:102E5800C4E90633C4E90833C4E90C33C4E90E33C2
:102E6800C4E91033C4E91333C4E91533C4E917338B
:102E7800C4E91A33C4E91C33C4E91E33C4E9213355
:102E8800C4E92333C4E92533C4E92833C4E92A3320
:102E9800C4E92C33C4F8BC3002B010BD012070471F
:102EA800084BD3F8F02042F00052C3F8F020D3F8D2
:102EB800F030016803F000530193019BA5E700BFC0
:102EC800007401400044025890F8C130DBB2022B74
:102ED80036D00223052970B480F8C13004681ED0AA
:102EE800C9010C44D4F88030D2E9026523F0070305
:102EF800334323F018032B43C4F880300368146865
:102F08000B44C3F89440036852681944C1F89820E8
:102F18000122002380F8C120184670BC704723683E
:102F2800956823F00703D1682B4323F018030B435C
:102F38002360036811685961526803689A61E7E77A
:102F4800184670472DE9F041044690F8C100C0B218
:102F5800022822D094F8C000012800F09E800125A4
:102F68000220102A84F8C05084F8C1002AD016D94B
:102F7800802A06D022D9B2F5807F23D0B2F5007F0F
:102F880014D1206810271D6800EBC110C0F8A450A8
:102F980094F8C100072820D10120BDE8F0818242C1
:102FA800EFD067D9042A0DD0082AEAD000200725D7
:102FB800074684F8C00084F8C1500AE0202AE0D00F
:102FC800402AF3D1206808271D6800EBC110C0F81B
:102FD8009C5094F8C1000728DED0C901D4F800C07D
:102FE8005868102A0CEB01059B6800F0020ED5F812
:102FF800E48003F00803D5F8B80040D022D9802A2D
:1030080027D04DD8202A24D0402A38D06FF0FE008F
:1030180008EA000043EA0E030CEB01020025034313
:1030280001262846C2F8E43023681944D1F88030D4
:1030380043F00063C1F8803084F8C16084F8C05060
:10304800BDE8F081022A04D017D9042A17D0082A2B
:10305800DCD10CEB010204254FEA0E4E6FF47E0022
:10306800C2F8C4701B0422680A44C2F8C850D4F8D5
:1030780000C0CDE7AA4299D1A4E7012AC6D10CEB3A
:10308800010204256FF0FE00C2F8BC7022680A44F1
:10309800C2F8C050D4F800C0BAE70220BDE8F081F9
:1030A800B2F5807FEBD0B2F5007FAFD1D1E700BF9A
:1030B80070B504460D4616466B1C22682ED19369DE
:1030C80098072ED49369D906F9D593699D06FCD53E
:1030D80010232021D3612368D96123689A69910755
:1030E80002D500229A6223689A69D20704D49A69A1
:1030F80042F001029A6123685A6800211B4E20257C
:10310800012032405A60636C84F8401043F0040395
:10311800636484F8415084F8421070BD93699B073A
:1031280001D5002070BD9369DB0607D40AE0FDF7DE
:1031380033F9801B85420CD35DB1226893699806E8
:10314800F5D5C5E7FDF728F9801BA84201D8002D61
:10315800B2D1636C2021002201200B4384F8402067
:10316800636484F8411084F8422070BD00E800FED2
:1031780070B504460D461646226893699B064DD4E1
:103188009369D9062AD56B1C3CD193699D06FCD559
:1031980010232021D3612368D96123689A69910794
:1031A80002D500229A6223689A69D20704D49A69E0
:1031B80042F001029A6123685A680021184E2025BE
:1031C800012032405A60636C84F8401043F00403D5
:1031D800636484F8415084F8421070BDFDF7DCF850
:1031E800801BA84201D8002DC6D1636C2021002283
:1031F80001200B4384F84020636484F8411084F86C
:10320800422070BD93699806C2D4FDF7C5F8801BAB
:103218008542EAD3002DE8D02268B4E7002070BDCB
:1032280000E800FE002856D038B590F84130044632
:1032380003F0FF02002B49D02268242384F8413090
:10324800136823F001031360D4E9002323F07063AB
:1032580013612268936823F400439360E36822684B
:10326800012BA3680CBF43F4004343F40443936069
:10327800E3682568022B24D068680022174B2021B8
:10328800034310466B602568EB6823F40043EB604A
:10329800D4E904352B43A56943EA05232568EB6087
:1032A800D4E907352B4325682B6025682B6843F044
:1032B80001032B60626484F84110226384F8422081
:1032C80038BD4FF400636B602568D5E780F840206F
:1032D80005F0DAFDB0E70120704700BF008000026A
:1032E8002DE9F84390F84140089E202C70D190F8C1
:1032F8004040012C6CD09846012391460F4680F837
:1033080040300446FDF748F8054604E0FDF744F868
:10331800401B192873D82368986910F40040F5D128
:1033280010222121C4F82490C7F3090784F841101A
:1033380084F842206064A4F82A80628D6063FF2AC2
:1033480049D8618D474A89B2DFF81CC13A432185C3
:10335800C9B2586842EA014200EA0C010A435A60BD
:10336800DFF81081DFF8109147EA0808638D2A46D4
:10337800314620469BB2002B60D0FFF799FE00280B
:1033880059D1626A236812789A62618D238D013956
:10339800626A013B89B201329BB26185618D2385E6
:1033A80089B262620029E1D0002BDFD1701C22684B
:1033B8001BD193691906FCD5638DFF2B2DD9FF23EB
:1033C8002385536803EA090343EA08035360CDE7FA
:1033D8000220BDE8F883FF222348244922855A6841
:1033E800394302400A435A60BAE793691B06E3D49B
:1033F800FCF7D2FF401B864201D3002ED6D1636C66
:103408002021002201200B4384F84020636484F8C3
:10341800411084F84220BDE8F883618D47F00073BD
:1034280089B22185C9B2506843EA014300EA09011B
:103438000B4353609AE70120BDE8F883FFF798FE35
:103448000028F8D123682022094DDA6121684B68E9
:103458002B404B6084F8412084F8400084F84200F7
:10346800B7E700BF00200082009800FC0020FF8121
:1034780000E800FE0000FF01009C00FC90F84120DD
:10348800D2B2202A26D1034690F84000012821D044
:10349800242070B401241E6883F84100002583F8B5
:1034A80040403468284624F0010434601E683468BB
:1034B80024F4805434601E683468214331601C68E9
:1034C800216841F00101216083F8412083F84050D0
:1034D80070BC70470220704790F84120D2B2202A71
:1034E80024D1034690F8400001281FD0242070B44E
:1034F80001241E6883F84100002583F840403468A1
:10350800284624F0010434601E68346824F470648A
:1035180044EA012131601C68216841F00101216001
:1035280083F8412083F8405070BC704702207047F0
:1035380038B5114BDA68520706D4DB6803F0070385
:10354800181A18BF012038BDDA681C4622F0070295
:103558001043D860FCF720FF054605E0FCF71CFF88
:10356800401BB0F57A7F04D863689B04F6D5002029
:1035780038BD012038BD00BF00480258002800F0BF
:103588008881F8B503680446D9072ED5B2490A6977
:10359800896A02F03802102A00F00281182A00F025
:1035A800FA806368B3F5803F00F02281002B40F079
:1035B8009881A94B1A6822F480321A601A6822F49A
:1035C80080221A606368002B00F05581FCF7E4FE46
:1035D800A14D064605E0FCF7DFFE801B642800F2DB
:1035E80048812B689F03F6D52368990700F18A80E4
:1035F800D90630D5984A1369926A03F03803082B24
:1036080000F0DE80182B00F0D680E369002B00F074
:103618007681914B1A681D4642F080021A60FCF7C9
:10362800BBFE064605E0FCF7B7FE801B022800F249
:1036380020812B68DB05F6D5FCF7C6FE41F20303B3
:10364800984200F23C826B68226A23F0F84343EA0E
:1036580082636B6023681D0717D56369002B00F030
:103668001A817D4B5A6F1D4642F001025A67FCF7DA
:1036780093FE064605E0FCF78FFE801B022800F249
:10368800F8806B6F9807F6D523689A0617D5A36953
:10369800002B00F01381704B1A681D4642F48052CB
:1036A8001A60FCF779FE064605E0FCF775FE801BFC
:1036B800022800F2DE802B689F04F6D5236859079C
:1036C80000F19C80606AD8B1634B1A6902F0380235
:1036D800182A00F0B58102281A6800F0478122F004
:1036E80080721C461A60FCF757FE054605E0FCF799
:1036F80053FE401B022800F2BC8023689B01F6D4CD
:103708000020F8BD544A1369926A13F038032BD08D
:10371800182B27D0E268002A00F005814E490B6873
:103728000D4623F0190313430B60FCF735FE0646DC
:1037380005E0FCF731FE801B022800F29A802B6816
:103748005F07F6D5FCF740FE41F203032269984271
:103758006B6800F2BD8123F47C3343EA02336B606B
:10376800236845E79207D5D13B4B1B685B0701D51A
:10377800E368F3B1FCF728FE41F20303364A9842A6
:103788002169536800F2E38023F47C3343EA013370
:10379800536023682CE701F0030102297FF401AF8D
:1037A8002D4A126892037FF520AF6268002A7FF4E1
:1037B8001CAF0120F8BD02F00302012A7FF425AFF7
:1037C800254B1B68DA0502D5E369802BF1D1FCF79C
:1037D800FBFD41F20303204A9842216A00F2BE80B1
:1037E800536823F0F84343EA81635360236832E760
:1037F800194A136843F480331360E3E6174B1A68D9
:103808001D4642F480721A60FCF7C6FD064604E0C5
:10381800FCF7C2FD801B64282BD82B68DA05F7D586
:10382800A368012B00F05B81002B40F05E810A4BFE
:103838001A6F22F001021A671A6F22F004021A673F
:10384800A368002B00F02A81FCF7A6FD024D07466D
:1038580041F2883609E000BF004402580048025887
:10386800FCF79AFDC01BB04203D82B6F9B07F7D516
:1038780028E70320F8BDFCF78FFDA24D064604E0BB
:10388800FCF78AFD801B6428F3D82B689803F7D4CB
:10389800AAE6012070479B4B5A6F1D4622F0010291
:1038A8005A67FCF779FD064604E0FCF775FD801BB6
:1038B8000228DED86B6F9907F7D4E5E6914B1A68B2
:1038C8001D4622F480521A60FCF766FD064604E0A5
:1038D800FCF762FD801B0228CBD82B689804F7D42C
:1038E800ECE6B3F5A02F874B1A687FF464AE42F478
:1038F80080221A601A6842F480321A6062E6814BAC
:103908001A681D4622F080021A60FCF745FD06463B
:1039180004E0FCF741FD801B0228AAD82B68DF05CC
:10392800F7D4236897E6774B1A681D4622F0010200
:103938001A60FCF731FD064604E0FCF72DFD801BFC
:10394800022896D82B685807F7D4236850E623F046
:10395800FE4343EA01635360236849E6D36823F0D2
:103968007C5343EA0163D360236874E622F08072D3
:103978001D461A60FCF710FD064605E0FCF70CFD35
:10398800801B02283FF675AF2B689901F6D4AA6A06
:103998005D4BA06A1340E26A5C490343594E43EA0F
:1039A8000213AB62276BD4E90D32013F501E013B75
:1039B800E26BC7F308075B020004013A9BB200F40C
:1039C800FE001206034302F0FE423B4313432B63FF
:1039D800EB6A23F00103EB626A6BA36C114041EAC6
:1039E800C3016963EB6A226C23F00C031343EB6297
:1039F800EB6A626C23F002031343EB62EB6A43F455
:103A08008033EB62EB6A43F40033EB62EB6A43F416
:103A18008023EB62EB6A43F00103EB622B6843F00F
:103A280080732B60FCF7B8FC044605E0FCF7B4FC97
:103A3800001B02283FF61DAF33689A01F6D55FE6F2
:103A480001289A6A1D6B3FF45CAE02F00303A16A79
:103A58008B427FF4AEAEC2F30512E36A9A427FF45A
:103A6800A8AE236BC5F30802013B9A427FF4A1AECE
:103A7800636BC5F34622013B9A427FF49AAEA36B6F
:103A8800C5F30642013B9A427FF493AEE06BC5F35F
:103A980006650138281A18BF012032E6FCF77CFCBD
:103AA800184D074641F2883605E0FCF775FCC01B47
:103AB800B0423FF6DEAE2B6F9807F6D402E6EB680D
:103AC800226A23F07C5343EA0263EB602368C2E571
:103AD80023F0FE4343EA02636B60236888E5094AE2
:103AE800136F43F001031367AAE6052B054B1A6F02
:103AF8007FF49FAE42F004021A671A6F42F0010287
:103B08001A679DE6004402580CFCFFFF0700FFFF00
:103B18003E4A136903F03803102B4FD0182B0BD0F3
:103B28000BB13B4870471368990649D51368394863
:103B3800C3F3C103D840704710B4916A906AD36A3E
:103B4800C0F30510546BB0B3C4F3CC0403F0010305
:103B580001F0030107EE900A03FB04F30129F8EED4
:103B6800E77A07EE103ABAEEE97A02D02DD30229A5
:103B780028D0DFED295AC5EEA76A136BC3F30803F3
:103B880007EE903AB7EE006AF8EEE77A77EE867AB3
:103B980037EE877A27EE267A1C4B1B6BC3F3462336
:103BA800013307EE903AF8EEE76AC7EE267AFCEEA4
:103BB800E77A17EE900A5DF8044B7047174870478C
:103BC80014487047DFED165AD5E713689B061AD5D7
:103BD8001068B7EE005A0F49C0F3C100136BC1401B
:103BE800C3F3080306EE901AF8EEE65A06EE903A8A
:103BF800B8EEE66AC5EEA76A76EE057A37EE877AFA
:103C080026EE877AC8E7DFED075AB4E70044025882
:103C180000093D000090D0030024744A40787D01DB
:103C280020BCBE4B0024744C78B1914A136803F051
:103C38000F038B420BD2136823F00F030B4313605F
:103C4800136803F00F038B4201D0012070472DE960
:103C5800F04103685F070CD5864C0569A26902F03C
:103C68007002954205D9A36923F070032B43A36121
:103C780003681E070CD57F4C4569E26902F07002A3
:103C8800954205D9E36923F070032B43E361036888
:103C9800DD060CD5774C8569E26902F4E06295424D
:103CA80005D9E36923F4E0632B43E36103689C06C9
:103CB8000CD5704CC569226A02F07002954205D98C
:103CC800236A23F070032B43236203689A07044690
:103CD8000D4612D56748E168826902F00F029142E9
:103CE8003DD9836923F00F03194381612368DF07F6
:103CF80005D49F0740D5E16833E0DB073CD55D4A32
:103D0800A168936923F470630B4393616368126835
:103D1800022B00F09E80032B00F0A180012B00F005
:103D2800A280520738D5534941F288380A690E46AD
:103D380022F0070213430B61FCF72EFB074605E050
:103D4800FCF72AFBC01B404500F287803369626894
:103D580003F03803B3EBC20FF2D12368C9E7DA07DF
:103D6800CDD4444A936903F00F038B4204D9936975
:103D780023F00F03194391613D4A136803F00F03C1
:103D8800AB420CD9136823F00F032B43136013685D
:103D980003F00F03AB4202D00120BDE8F081236895
:103DA8005E070CD5334920698A6902F07002904297
:103DB80005D28B6923F0700303438B6123681D07C9
:103DC8000CD52C496069CA6902F07002904205D28C
:103DD800CB6923F070030343CB612368D8060CD565
:103DE8002449A069CA6902F4E062904205D2CB690D
:103DF80023F4E0630343CB61236899060BD51D4A7E
:103E0800E169136A03F07003994204D2136A23F03C
:103E180070030B431362FFF77BFE164A164993693A
:103E28009269C3F30323154D02F00F02144CCB5CC7
:103E38008A5C03F01F03134902F01F0220FA03F300
:103E4800286823FA02F20B602260BDE8F041FCF713
:103E58003FBA96033FF567AF9EE703209DE79001C1
:103E68003FF561AF98E7D1053FF55DAF94E700BF37
:103E780000200052004402587CB9000804000020C9
:103E88001C00002018000020494A30B4136903F0D0
:103E98003803102B64D0182B22D0BBB1454B4449B2
:103EA80045488A698969C2F30322444C01F00F012D
:103EB800434D825C405C02F01F0200F01F00D340BB
:103EC80023FA00F02B60206030BC70471368990615
:103ED80048D513683B4AC3F3C10322FA03F3DEE76C
:103EE800906A936AD16AC3F30513546B002BD6D03A
:103EF800C4F3CC0401F0010107EE903A00F003008E
:103F080001FB04F3F8EEE76A012807EE903AFAEEAF
:103F1800E97A02D02BD3022826D09FED2B7A87EEA0
:103F2800266A136BC3F3080307EE103AF7EE005A3C
:103F3800B8EEC77A37EE257A77EE277A67EE867A73
:103F48001B4B1B6BC3F34623013307EE103AB8EE45
:103F5800C77AC7EE876AFCEEE67A17EE903A9EE7D4
:103F68001A4B9CE7174B9AE79FED197AD7E7136826
:103F78009B061AD51068B7EE005A1249C0F3C10063
:103F8800136BC140C3F3080307EE101AF8EEC75AC3
:103F980007EE103AB8EEC76A85EEA67A76EE056A9D
:103FA80076EEA77A67EE277ACAE79FED0A7AB6E730
:103FB8000044025800093D007CB900081C0000209C
:103FC800180000200090D0030024744A40787D0136
:103FD80020BCBE4B0024744C3B4AF8B5936A03F0EE
:103FE8000303032B67D013680F460546144623F0D6
:103FF80080631360FCF7D0F9064604E0FCF7CCF9BF
:10400800801B022859D823681A01F7D4A36A2A68A2
:1040180023F47C332D4943EA0233A3626E68D5E961
:104028000232013E501E013B2A69C6F308065B02B4
:104038000004013A9BB200F4FE001206034302F0AA
:10404800FE4233431343A363E36A6A6923F0C00360
:104058001343E362E36AAA6923F020031343E3628C
:10406800E36A23F01003E362E26BEB69114041EA73
:10407800C301E163E36A43F01003E362E36AF7B163
:10408800012F0CBF43F4801343F40013E3620E4B7B
:104098001A681C4642F080621A60FCF77DF90546F2
:1040A80004E0FCF779F9401B022806D823681B01B5
:1040B800F7D50020F8BD0120F8BD0320F8BD43F472
:1040C8000023E362E3E700BF004402580700FFFF54
:1040D8003B4AF8B5936A03F00303032B67D01368D0
:1040E8000F460546144623F080531360FCF754F935
:1040F800064604E0FCF750F9801B022859D82368CB
:104108009A00F7D4A36A2A6823F07C732D4943EAFE
:104118000253A3626E68D5E90232013E501E013B8C
:104128002A69C6F308065B020004013A9BB200F450
:10413800FE001206034302F0FE4233431343236496
:10414800E36A6A6923F440631343E362E36AAA6992
:1041580023F400731343E362E36A23F48073E36296
:10416800626CEB69114041EAC3016164E36A43F49C
:104178008073E362E36AF7B1012F0CBF43F40003D5
:1041880043F08073E3620E4B1A681C4642F080527B
:104198001A60FCF701F9054604E0FCF7FDF8401B3E
:1041A800022806D823689B00F7D50020F8BD012017
:1041B800F8BD0320F8BD43F48003E362E3E700BFE2
:1041C800004402580700FFFF2DE9F843036804463E
:1041D80013F0006616D0426EB2F5801F00F04684D8
:1041E80040F21085B2F5001F00F08084B2F5401F40
:1041F80040F02E859D4900260B6D23F440131A4389
:104208000A652368DD050AD5626D042A06D8DFE849
:1042180012F0E003E703CF039C039C030126354615
:10422800980515D5A26D802A00F03F8400F2D3844A
:10423800002A00F04D84402A40F0D4840021201D3B
:10424800FFF7CAFE0546002D00F0388423682E4685
:10425800590518D5D4F8A420B2F5800F00F01184C0
:1042680000F2E584002A00F04784B2F5001F40F010
:10427800E6840021201DFFF7AFFE0546002D00F063
:10428800098423682E461A0518D5D4F8A820B2F157
:10429800007F00F0C38300F2BE84002A00F01F8470
:1042A800B2F1807F40F0BF840021201DFFF794FE0B
:1042B8000546002D00F0BB8323682E469F010DD5CF
:1042C800A26C102A00F02D8340F2BD84202A00F051
:1042D8005F83302A00F02A8301263546D80417D593
:1042E800E26DB2F5005F00F0AC8300F27F84002A33
:1042F80000F00984B2F5805F40F080840021201D21
:10430800FFF76AFE0546002D00F0A48323682E46B9
:1043180099041BD5226EB2F5003F00F0268300F207
:104328004A8442B1B2F5803F40F051840121201DFA
:10433800FFF752FE0546002D40F07D824B4A216E64
:10434800136D23F4E0230B43136523685A041DD52A
:10435800D4F8AC20B2F1005F00F0D98200F2EF830C
:1043680042B1B2F1805F40F0F6830121201DFFF7D2
:1043780033FE0546002D40F05B823C4AD4F8AC1071
:10438800936D23F0E0430B43936523681F040DD519
:10439800E26EB2F1805F00F0F282B2F1005F00F0ED
:1043A800F781002A00F0F98101263546D8010AD59F
:1043B800626C032A05D8DFE812F081016B027C01E8
:1043C800810101263546590200F18681DF072FD584
:1043D800A26F282A2AD8DFE812F0CB012900290089
:1043E800290029002900290029007602290029002E
:1043F80029002900290029002900C50129002900D0
:1044080029002900290029002900CB0129002900B9
:1044180029002900290029002900CB0129002900A9
:1044280029002900290029002900CB010126354649
:1044380098070CD5626F052A07D8DFE812F02E011D
:104448003B0228012E012E012E010126354659076F
:1044580010D5D4F89020052A0AD8DFE812F00B010D
:10446800220205010B010B010B0100BF0044025899
:10447800012635469A061DD5D4F88C20B2F1005F86
:1044880000F0598200F2798342B1B2F1805F40F0C6
:1044980080830021201DFFF79FFD0546002D40F079
:1044A800C481B94AD4F88C10536D23F0E0430B4310
:1044B800536523685F061DD5D4F89820B2F5006FC0
:1044C80000F0498200F2688342B1B2F5806F40F093
:1044D8006F830021201DFFF77FFD0546002D40F06A
:1044E800B081A94AD4F89810936D23F4E0530B4394
:1044F8009365236818061DD5D4F89C20B2F5804F23
:1045080000F0FB8100F22A8342B1B2F5005F40F06F
:1045180031830021201DFFF75FFD0546002D40F087
:104528009381994AD4F89C10936D23F460430B430C
:104538009365236819070CD5D4F88020B2F5805FFD
:1045480000F0548290494B6D23F4405313434B655C
:104558002368DA060CD5D4F89420B2F5807F00F0F1
:10456800518289498B6D23F4407313438B6523680B
:104578001F030ED5D4F8A010B1F5803F00F01881C4
:10458800B1F5003F00F01A81002900F0C38201262E
:10459800354658030FD5D4F88420B2F5001F00F033
:1045A8001981B2F5401F00F01B81B2F5801F00F0A1
:1045B800B98201263546D90311D5E26C002A00F0EC
:1045C8005681B2F5803F40F045810221201DFFF75A
:1045D80003FD0546002D00F0528123682E469A00FF
:1045E80000F109819F032ED4301C18BF0120DD0281
:1045F80007D5654A216F136D23F000430B431365FC
:104608002368990207D5604AA16E136D23F0807361
:104618000B43136523685A000AD55B4B1A6922F4C9
:1046280000421A611A69D4F8B8100A431A6123685B
:10463800002B06DA544A216DD36C23F040530B4308
:10464800D364BDE8F883E26FB2F5807F00F005819E
:1046580040F24281B2F5007F00F00481B2F5407F5C
:1046680000F000810120C2E7012104F12400FFF7D6
:104678002FFD0546002D40F0D580434AD4F8901010
:10468800936D23F007030B4393652368F2E601213A
:1046980004F12400FFF71CFD0546002D40F0BF8003
:1046A800394A616F536D23F007030B435365236841
:1046B800CDE60221201DFFF78FFC0546002D40F0B6
:1046C800AB80314A616CD36C23F003030B43D36492
:1046D800236859027FF57AAE2C4B1A681F4642F4BC
:1046E80080721A60FBF758FE804606E0FBF754FE1E
:1046F800A0EB0800642800F21E823B68DA05F5D5B5
:10470800002D40F0C682204BD4F8B020196F5140DC
:1047180011F4407F0DD01A6F196F22F4407241F4E2
:1047280080311967196F21F4803119671A67D4F835
:10473800B020B2F5807F00F08E8202F44073B3F5AA
:10474800407F00F09C82104A136923F47C53136164
:104758000D4AD4F8B030116FC3F30B030B43136742
:10476800236833E6012104F12400FFF7B1FC054674
:10477800002D4ED1044AA16F536D23F038030B432B
:104788005365236854E600BF0044025800480258A5
:104798000121201DFFF720FC0546002D4ED1B24A0D
:1047A800E16E136D23F040530B4313652368FDE559
:1047B800022104F12400FFF78BFC0546002D46D1A9
:1047C800A94AD4F8A010936D23F440330B439365A2
:1047D8002368DEE6012104F12400FFF779FC054691
:1047E800A5B9A14AD4F88410536D23F440130B43A0
:1047F80053652368DFE6022104F12400FFF768FC13
:10480800236800283FF4EEAE0126EBE623682E4627
:10481800D1E623682E460BE623682E46D3E52368A7
:104828002E4614E623682E4624E623682E4641E6E3
:1048380023682E46AAE523682E4687E523682E4678
:10484800B4E523682E4655E623682E4672E62368AB
:104858002E469EE601263546C1E6834AD36A43F4CE
:104868000033D362002D3CD023680120BFE67E4A86
:10487800D36A43F40033D362002D7FF4AEAE7A4A94
:10488800E16CD36C23F480330B43D3642368A6E62E
:10489800754AD36A43F40033D362002D3FF411AF55
:1048A800BAE70121201DFFF797FB0546002D3FF4CD
:1048B800E4AEB7E70121201DFFF78EFB0546002D6A
:1048C8003FF4EEAEABE70121201DFFF785FB05465F
:1048D800002D3FF44FAF9CE7002A7FF4C3AE002DB4
:1048E800C2D1614A301CE16F536D18BF012023F417
:1048F80040730B435365236879E6022104F12400D1
:10490800FFF7E6FB0546002D3FF40BAE9CE70121BF
:1049180004F12400FFF7DCFB0546002D3FF42DAD24
:1049280086E7514AD36A43F40033D362002D36D068
:1049380023682E46D2E4022104F12400FFF7C8FBC5
:104948000546002D3FF4ADAD6FE73546002D37D055
:1049580023682E4664E4022104F12400FFF7B8FB23
:104968000546002D3FF4BDAD6BE7012104F124009D
:10497800FFF7AEFB0546002D3FF4E0AC5BE73A4A93
:10498800D36A43F40033D362002D3FF408AF55E7F0
:104998000221201DFFF720FB0546002DC8D1324A11
:1049A800A16CD36C23F030030B43D364236895E4E4
:1049B800002104F12400FFF78BFB0546002DC7D129
:1049C800294A616D136D23F007030B4313652368B0
:1049D80026E4254A3546D36A43F40033D362B5E763
:1049E8000021201DFFF7F8FA0546AFE7022104F180
:1049F8002400FFF76DFBD4F8802000283FF4A2AD17
:104A080001269FE5022104F12400FFF761FBD4F899
:104A1800942000283FF4A5AD0126A2E5002104F169
:104A28002400FFF755FB0546002D7FF445AC0E4AE0
:104A3800D4F8A810936D23F0E0630B4393652368C3
:104A48003CE4002104F12400FFF742FB0546002D59
:104A58007FF45CAC044AE16D136D23F4E0430B432F
:104A68001365236854E400BF00440258022104304F
:104A7800FFF7B2FA0646002E7FF4C3AB626EFFF76B
:104A8800B9BB002104F12400FFF722FB0546002DE5
:104A98007FF4F7AB814AD4F8A410936D23F4600334
:104AA8000B4393652368FFF7EEBB002104F1240054
:104AB800FFF70EFB0546002D7FF4C8AB774AA16DC2
:104AC800136D23F4E0730B4313652368FFF7C0BB32
:104AD800724AD36A43F40033D362FFF7B4BB6F4A18
:104AE800D36A43F40033D362FFF7E3BB02212430D7
:104AF800FFF7EEFA0646BEE7684AD36A43F4003386
:104B0800D362FFF7BBBB654AD36A43F40033D36271
:104B1800FFF7F9BB201DFFF75FFA0546002D3FF4AC
:104B28004FAE94E65D4AD36A43F40033D362002D56
:104B38003FF457AE6AE603262368354646E4B2F1E9
:104B4800804F3FF417ACB2F1A04F3FF413ACB2F171
:104B5800405F3FF40FAC0126354617E4B2F5004F2D
:104B68003FF4DCACB2F5204F3FF4D8ACB2F5C04FFF
:104B78003FF4D4AC01263546DCE4B2F1804F3FF473
:104B88008DACB2F1A04F3FF489ACB2F1405F3FF475
:104B980085AC012635468DE4B2F5805F3FF49EACC6
:104BA800B2F5A05F3FF49AACB2F5406F3FF496AC13
:104BB800012635469EE4B2F5802F3FF4BCABB2F532
:104BC800A02F3FF4B8ABB2F5403F3FF4B4AB012699
:104BD8003546FFF7BBBBC02A3FF435ABB2F5807F43
:104BE8003FF431AB01263546FFF732BBB2F5405FE3
:104BF8003FF489ABB2F5804F3FF485AB01263546CB
:104C0800FFF786BB22BB254AD36A43F40033D3623D
:104C1800426EFFF7EFBAB2F1407F3FF44AABB2F110
:104C2800806F3FF446AB01263546FFF747BBB2F528
:104C3800C00F3FF423ABB2F5000F3FF41FAB0126C2
:104C48003546FFF720BB002A3FF470AEFFF744BBA0
:104C58000126FFF7D7BAFBF79FFB104F814641F2B9
:104C6800883806E0FBF798FBA0EB090040453FF6C3
:104C780062AF3B6F9B07F5D5D4F8B0205DE50748D8
:104C8800074B016903EA121321F47C5213430361B1
:104C98005EE523682E46FFF799BB00BF0044025823
:104CA800CFFFFF00464A30B4946A936AD16AC3F3CF
:104CB8000533D56B002B59D0C5F3CC05C1F30011D2
:104CC80004F0030407EE903A01FB05F1012CF8EE1D
:104CD800E77A06EE901AFAEEE96A02D04ED3022C71
:104CE80049D09FED387A87EE276A936BC3F30803A0
:104CF80007EE103AF7EE005AB8EEC77A37EE257A83
:104D080077EE267A67EE867A2D4AB7EE006A936BBD
:104D1800C3F3462306EE903AF8EEE66A30BC76EE28
:104D2800866A87EEA67ABCEEC77A80ED007A936B26
:104D3800C3F3064306EE903AF8EEE66A76EE866A24
:104D480087EEA67ABCEEC77A80ED017A936BC3F33F
:104D5800066307EE103AB8EEC77A37EE067AC7EE62
:104D6800876AFCEEE66AC0ED026A7047C0E9003364
:104D7800836030BC70479FED147AB4E713689B06D4
:104D88001AD51468B7EE005A1049C4F3C104936BDE
:104D9800E140C3F3080307EE101AF8EEC75A07EE0E
:104DA800103AB8EEC76A85EEA77A76EE057A77EEFE
:104DB800A67A67EE277AA7E79FED057A93E700BF03
:104DC800004402580024744A20BCBE4B0090D00313
:104DD8000024744C464A30B4946A936AD16AC3F387
:104DE8000553556C002B59D0C5F3CC05C1F30021F0
:104DF80004F0030407EE903A01FB05F1012CF8EEEC
:104E0800E77A06EE901AFAEEE96A02D04ED3022C3F
:104E180049D09FED387A87EE276A136CC3F30803ED
:104E280007EE103AF7EE005AB8EEC77A37EE257A51
:104E380077EE267A67EE867A2D4AB7EE006A136C0B
:104E4800C3F3462306EE903AF8EEE66A30BC76EEF7
:104E5800866A87EEA67ABCEEC77A80ED007A136C74
:104E6800C3F3064306EE903AF8EEE66A76EE866AF3
:104E780087EEA67ABCEEC77A80ED017A136CC3F38D
:104E8800066307EE103AB8EEC77A37EE067AC7EE31
:104E9800876AFCEEE66AC0ED026A7047C0E9003333
:104EA800836030BC70479FED147AB4E713689B06A3
:104EB8001AD51468B7EE005A1049C4F3C104136C2C
:104EC800E140C3F3080307EE101AF8EEC75A07EEDD
:104ED800103AB8EEC76A85EEA77A76EE057A77EECD
:104EE800A67A67EE277AA7E79FED057A93E700BFD2
:104EF800004402580024744A20BCBE4B0090D003E2
:104F08000024744C464A30B4946A936AD16AC3F355
:104F18000513556B002B59D0C5F3CC0501F00101E1
:104F280004F0030407EE903A01FB05F1012CF8EEBA
:104F3800E77A06EE901AFAEEE96A02D04ED3022C0E
:104F480049D09FED387A87EE276A136BC3F30803BD
:104F580007EE103AF7EE005AB8EEC77A37EE257A20
:104F680077EE267A67EE867A2D4AB7EE006A136BDB
:104F7800C3F3462306EE903AF8EEE66A30BC76EEC6
:104F8800866A87EEA67ABCEEC77A80ED007A136B44
:104F9800C3F3064306EE903AF8EEE66A76EE866AC2
:104FA80087EEA67ABCEEC77A80ED017A136BC3F35D
:104FB800066307EE103AB8EEC77A37EE067AC7EE00
:104FC800876AFCEEE66AC0ED026A7047C0E9003302
:104FD800836030BC70479FED147AB4E713689B0672
:104FE8001AD51468B7EE005A1049C4F3C104136BFC
:104FF800E140C3F3080307EE101AF8EEC75A07EEAC
:10500800103AB8EEC76A85EEA77A76EE057A77EE9B
:10501800A67A67EE277AA7E79FED057A93E700BFA0
:10502800004402580024744A20BCBE4B0090D003B0
:105038000024744CB0F5807F00B585B02DD0B0F554
:10504800007F18D0B0F5806F4ED0B0F5006F37D024
:10505800B0F5805F00F08B80B0F5002F00F0AC80D9
:10506800B0F5803F00F0B680B0F5804F62D00020E8
:1050780005B05DF804FB704A136D03F4E073802BF0
:1050880043D06AD8002B39D0402BF0D101A8FFF7C4
:1050980009FE019805B05DF804FB674B1B6D03F032
:1050A8000703042BE3D801A252F823F005510008A6
:1050B8009550000813510008E950000821510008D4
:1050C8005D4A936D03F0E063B3F1007F1DD05CD8B7
:1050D800A3B1B3F1807FD9D0C9E7B3F5C00F5BD1D5
:1050E800564805B05DF804FB534A936D03F460031A
:1050F800B3F5800F09D0F0D8002B51D101A8FFF7E4
:1051080001FF029805B05DF804FB01A8FFF762FEF5
:10511800019805B05DF804FB474BDB6C13F0405376
:1051280019D0B3F1805F62D0B3F1005F444818BF73
:1051380000209DE7404B9B6D03F0E043B3F1005F17
:1051480068D05BD9B3F1804F51D0B3F1A04F5FD095
:10515800B3F1405F8BD13B488AE7C02BC0D0B3F591
:10516800807F84D1D36C13F04053DAD1F3E7324A0D
:10517800136D03F4E043B3F5005FC6D015D8002BD8
:10518800BCD0B3F5805F81D071E7B3F1407FA7D081
:10519800B3F1806FE6D06AE7B3F5000FE2D066E7B7
:1051A800B3F5001F3FF472AF61E7B3F5405F97D0E6
:1051B800B3F5804FD6D05AE71F4A936D03F44033B6
:1051C800B3F5803F15D0B3F5003FCBD0002B7FF46B
:1051D8004EAF5BE7184BDB6C13F480338ED0002B9B
:1051E8003FF445AF01A8FFF75DFD039840E7164877
:1051F8003EE701A8FFF7EEFD039839E77BB1B3F16D
:10520800805F7FF434AF01A8FFF74CFD02982FE7C9
:105218000B482DE701A8FFF7DDFD029828E7FEF708
:1052280033FE054B094A1B6AC3F30213D35C03F030
:105238001F03D8401CE700BF004402580080BB0091
:1052480040787D010090D00300093D007CB900083A
:1052580090B338B5437A044603F0FF0243B3022300
:10526800D4E900216372136823F020030B43136011
:105278002268136843F00403136023685B685B06C5
:1052880003D504230120637238BDFBF785F8054672
:1052980004E0FBF781F8401B02280FD823685B68FD
:1052A80013F00403F5D1012218466272E36038BD99
:1052B800027204F097F8D2E7012070470422022313
:1052C80001206272E36038BDF8B5037A012B0BD078
:1052D800044601200E46637A2072834206D00423D6
:1052E800E36000232372F8BD0220F8BD0223637235
:1052F800FBF752F8074604E0FBF74EF8C01B0228FC
:105308000BD82268556815F00105F5D0936801227D
:105318000020236133606272E3E7012002232572D3
:105328006072E360F8BD00BFF8B5042913D8DFE860
:1053380001F03535351414008B4A934205D002F13B
:10534800C052A2F58232934205D16268012A02D185
:10535800626C002A53D00120F8BD456800244FF440
:105368000036036735F002054FF4802544640CBF0E
:105378000127274604294FF6FF71076514BF0D273B
:105388000127C464C465876584664167C0E91865F8
:10539800032AE0D8DFE802F097919E2545680024AB
:1053A800036735F002054464C4644FF4803508BFD0
:1053B800264684664FF6FF7418BF0126C565446704
:1053C80013F001040665C6D1002900F08A804FF465
:1053D8000035C0E91854032ABDD8DFE802F0B0A0B0
:1053E8008FBA5B01E021802243658164C26604466E
:1053F800FAF7EAFF94F83830012B23689CD05A4A10
:10540800934279D02032934276D002F57872934253
:1054180000F095812032934200F0918102F5787274
:10542800934200F0BD812032934200F0B9814F4A87
:10543800934202D0203293428DD14D4D94F8912061
:1054480002F0FF01002A00F073814A4A4A481268B4
:105458001968A0FB020221F48031120B1960930035
:10546800002A00F05D812168013B0A68D70306D550
:10547800002B00F055810A68013BD203F8D4E36899
:105488000222012B84F8912000F08581934215BFF8
:1054980010462321032122200BBF2126012620228A
:1054A8000022A368013B042B00F23881DFE813F0E7
:1054B8002F01690032016800800180225B0182644B
:1054C8004365C26693E71B018021402243658164DE
:1054D800C2668CE75B01C021802243658164C26695
:1054E80085E74FF48024C0E91814032A3FF633AF48
:1054F800DFE802F02515042F204D9FE75B08C02543
:10550800802402294FEA831285644FEA4313C46654
:10551800C0E915237FF46BAF0823836667E75B0850
:10552800802202294FEA831482644FEA4313C26639
:10553800C0E915437FF45BAF1023836657E75B0828
:10554800802440215A0184641B01C166C0E91523E7
:105558004DE75B08E02480219A0184645B01C16601
:10556800C0E9152343E700BF04580140045400581C
:1055780000540058180000201BECCB95005801403F
:1055880002464FF400662A60236A002B45D0236840
:10559800984A934200F01C819748181AB0FA80F094
:1055A8004009002840F01481944A934200F00A818F
:1055B8002032934200F00681914A934200F0FC8029
:1055C8002032934200F0F8808E4A934200F00B811B
:1055D8008D4A934200F00281A26900EB8000236AA1
:1055E800B2F5002F4FEA400000F0DC80A26A1B02EF
:1055F800B2F1806F14BF0122022202FB03F3B0FB59
:10560800F3F3824AA2FB0312D20802EB8201A3EB56
:105618004103092B08BF013262626368226D33F0CF
:10562800020740F0B280012A18BF4FF40077FAF75A
:10563800CBFEB0F5005F2268C0F096801168744B0D
:105648000B4013606368E06CD4E911120B43E16A04
:10565800134362690343A0690B43A16A1343226998
:10566800034320680B4301681343626A0B434FF2FC
:10567800200143EA025333433B4303602668654BEA
:105688007268654813405B4A7360E369D4E90C7635
:105698003B43276833437E6833437B6023689E68B7
:1056A80030409860636E2768D4E917603343666DAD
:1056B8000343B868013E0343A06D3343013843EA0E
:1056C8000023BB602068C3680B40C3602068D4E92E
:1056D8001A36C1683343666F0B43216F43EA0643AA
:1056E800013943EA0123C3602368934229D002F1B8
:1056F800C052A2F58232934223D000230122C4F87B
:105708009430184684F8903084F89120F8BD4FF40E
:10571800806638E732464FF4006634E7002632E701
:10572800D4F89430012043F04003C4F89430F8BD15
:1057380084F89010204603F0B1FE236885E6374DC3
:105748007CE66B6C23F001036B6494F83830012B12
:10575800D3D1D4E90F23013A43EA02136B646B6C8B
:1057680043F001036B64C8E711682D4B0B401360CD
:105778006368E16CD4E911201343E26A034360696A
:105788000B43A1691343A26A6AE7012A14BF0027E1
:105798004FF400774BE7132112201126102280E6E0
:1057A800204D4BE6626D02FB03F3B0FBF3F328E7F1
:1057B8000A464FF40066E6E64FF40070FFF73AFC3D
:1057C800236801E74FF40070FFF734FC2368F3E621
:1057D8004FF48070FFF72EFC2368E5E64FF4006075
:1057E800FFF728FCF8E64FF48060FFF723FC2368F6
:1057F800EEE600BF0458014024580140045C014013
:10580800046001400454005824540058CDCCCCCC3A
:1058180010C005F0F01FFFFF0080F8FF005C01409A
:1058280010C005F80060014070B590F89030012B69
:1058380047D001260368044680F890601D6815F477
:1058480000350DD01A6822F400321A6090F89130B1
:10585800122B4FD0002594F89130222B34D0236896
:1058680000204FF0FF312E4A1861236812689961B1
:105878002C482168A0FB02020B68120B23F480332A
:105888000B6093002168A2B10A68013BD00304D5DC
:105898007BB10A68013BD203FAD44B68012000228D
:1058A80043F008034B6084F89100284684F8902060
:1058B80070BDD4F89430012543F04003C4F8943007
:1058C800EBE70225284670BDD4F884000028C6D02E
:1058D800FCF7DEF90028C2D0D4F884305B6D802B49
:1058E800BDD0D4F894200125236842F08002C4F882
:1058F8009420B5E7D0F880000028ABD0FCF7C8F9B1
:105908000028A7D0D4F880305B6D802BA2D0D4F8C3
:105918009430354643F08003C4F894309BE700BFC9
:10592800180000201BECCB952DE9F8430F460446E0
:105938009046FAF731FD002F64D0B8FA88F56D0962
:10594800002D5FD194F89160F6B2012E56D194F8EB
:105958009030012B52D0D4F880301221374A81463A
:10596800A767C4F89450A4F87C8084F8911084F850
:105978009060A4F87E8032491A64D4F88030314AA5
:10598800D963D4F88030DA64D4F880301D65226891
:10599800B4F87C301C32A16FD4F88000FBF7AAFE63
:1059A8000746002832D1626C6368082A3CD005207B
:1059B80061222168023B012B88BF02460B69134311
:1059C8000B612268136843F40033136006E0FAF7AA
:1059D800E3FCA0EB0900B0F57A7F1BD82268556973
:1059E80015F4E025F3D01368DB0303D4136843F4FC
:1059F80080331360002384F8903000E00227384693
:105A0800BDE8F88301273846BDE8F88384F890504C
:105A18003746F4E7D4F89430032784F8905043F0DD
:105A28004003C4F89430EAE723F00202012A0BBFCE
:105A38001520052071226122BBE700BF9D5B00088D
:105A4800355B0008195C0008002957D0F8B5B2FA90
:105A580082F56D09002D4FD190F89160F6B2012EB4
:105A680048D190F89030012B44D00446D0F88430C7
:105A780022272A48A167A4F87C20C4F89450A4F8E7
:105A88007E2084F8906084F8917025491864D4F8D1
:105A98008430244AD963D4F88430DA64D4F8843062
:105AA8001D652168B4F87C301C31A26FD4F88400DD
:105AB800FBF720FE20BB626C6368082A24D005250A
:105AC80061222168023B012B88BF2A460B691343D8
