:020000040800F2
:1000000000000220E5EC0008EDCA0008EFCA000875
:10001000F1CA0008F3CA0008F5CA00080000000091
:10002000000000000000000000000000F7CA000807
:10003000F9CA000800000000FBCA0008FDCA000859
:1000400035ED000835ED000835ED000835ED000808
:1000500035ED000835ED000835ED000835ED0008F8
:1000600035ED000835ED000835ED000805CB00083A
:1000700015CB000825CB000835ED000835ED00084C
:1000800035ED000835ED000835ED000835ED0008C8
:1000900035ED000835ED000835ED000835ED0008B8
:1000A00035ED000835ED000835ED000835ED0008A8
:1000B00035ED000835ED000835ED000835ED000898
:1000C00035ED000835ED000835ED000835ED000888
:1000D00035ED000835ED000835ED000835ED000878
:1000E00035ED000835ED00080000000035ED000892
:1000F00035ED000835ED000835ED000835ED000858
:1001000035ED000835CB000835ED000835ED000869
:1001100035ED000835ED000835ED000835ED000837
:1001200035ED000835ED000835ED000835ED000827
:1001300035ED000835ED000835ED000835ED000817
:1001400000000000000000000000000000000000AF
:1001500035ED000835ED000835ED000835ED0008F7
:1001600035ED000835ED000835ED000835ED0008E7
:1001700035ED000835ED000835ED00080000000001
:1001800035ED000835ED000835ED000835ED0008C7
:1001900035ED000835ED000835ED000845CB0008C9
:1001A00035ED000835ED000835ED000835ED0008A7
:1001B00035ED000835ED000835ED000835ED000897
:1001C00035ED000835ED000835ED000835ED000887
:1001D00035ED000835ED000835ED000835ED000877
:1001E00035ED000835ED000835ED000835ED000867
:1001F00035ED000835ED000835ED000835ED000857
:1002000035ED000835ED000835ED000835ED000846
:1002100035ED000835ED000835ED000835ED000836
:1002200035ED000835ED000835ED00080000000050
:1002300035ED000835ED00080000000035ED000840
:1002400035ED000835ED000835ED000835ED000806
:1002500035ED000835ED000835ED000835ED0008F6
:1002600035ED000835ED000835ED000835ED0008E6
:1002700035ED000835ED000835ED00080000000000
:1002800035ED000835ED000835ED000800000000F0
:080290000000000035ED00083C
:1002980010B5054C237833B9044B13B10448AFF3B8
:1002A80000800123237010BDF00000200000000032
:1002B80088F9000808B5034B1BB103490348AFF39D
:1002C800008008BD00000000F400002088F9000844
:1002D80053B94AB9002908BF00281CBF4FF0FF31A5
:1002E8004FF0FF3000F088B9ADF1080C6DE904CE8D
:1002F80000F006F8DDF804E0DDE9022304B07047F9
:100308002DE9F047089D8E4604468846002B4AD1C1
:100318008A42174662D9B2FA82F64EB1C6F1200374
:1003280001FA06F820FA03F3B74043EA0808B44094
:100338004FEA174E1FFA87FCB8FBFEF1230C0EFBA1
:10034800118843EA084301FB0CF29A4209D9FB18C9
:1003580001F1FF3080F0EA809A4240F2E7800239EA
:100368003B449A1AA3B2B2FBFEF00EFB102243EAFA
:10037800024300FB0CFC9C4509D9FB1800F1FF3235
:1003880080F0D6809C4540F2D3803B44023840EA56
:100398000140A3EB0C0300211DB1F3400022C5E985
:1003A8000032BDE8F0878B4205D90DB1C5E90001DF
:1003B80000210846F5E7B3FA83F1002946D17345D1
:1003C80002D3824200F20581841A6EEB03020120F7
:1003D8009046002DE5D0C5E90048E2E7002A00F084
:1003E8009080B2FA82F6002E40F0A4808A1A030C9C
:1003F8004FEA174E80B2BCB20121B2FBFEFC0EFBE5
:100408001C2243EA024304FB0CF29A4207D9FB1868
:100418000CF1FF3802D29A4200F2E080C4469B1ADF
:10042800B3FBFEF20EFB123340EA034302FB04F473
:100438009C4207D9FB1802F1FF3002D29C4200F21D
:10044800CA8002461B1B42EA0C40A5E7C1F1200600
:100458008B4022FA06F71F430EFA01F420FA06F33E
:100468002EFA06FE4FEA1749234300FA01F81FFA4D
:1004780087FCBEFBF9F01C0C09FB10EE44EA0E44A5
:1004880000FB0CFEA64502FA01F209D93C1900F15D
:10049800FF3A80F09C80A64540F2998002383C449F
:1004A800A4EB0E041FFA83FEB4FBF9F309FB134413
:1004B8004EEA044403FB0CFCA44508D93C1903F19B
:1004C800FF3E80F08280A4457FD9023B3C4443EA4A
:1004D8000040A4EB0C04A0FB02EC64457346E14623
:1004E80062D35FD05DB1B8EB030264EB090404FA90
:1004F80006F622FA01F31E43CC40C5E90064002148
:100508004FE7B1FBF2FC010C41EA0E4180B240EA30
:1005180001423B4638463C46B846BE462026B1FB1B
:10052800F7F1A2EB080241EA0C4166E7014618E739
:1005380010462CE7C6F120022EFA02F3B740B1406C
:1005480020FA02F24FEA174E0A43B3FBFEF8BCB298
:100558000EFB1833110C41EA034108FB04F9B040C3
:1005680089454FEA104380B23ED9791808F1FF3C1B
:1005780001D289451FD8A1EB0901B1FBFEF909FB9E
:1005880004F80EFB191192B242EA0142424529D2FF
:10059800BA1809F1FF31C4D24245C2D2A9F1020109
:1005A8003A44BEE7F0459DD2BEEB02036CEB070C64
:1005B8000138E14696E7A7EB09094944A8F1020C7E
:1005C800B1FBFEF909FB04F8DBE773467FE7504609
:1005D80066E70846FDE63B44023A33E7ACF1020C15
:1005E8003B441CE749469CE7A1EB0901C446B1FB23
:1005F800FEF909FB04F8C4E7704700BF104B1B78ED
:100608000BB90120704710B504464FF47A70B0FB5F
:10061800F3F30C4A1068B0FBF3F000F003FF68B97D
:100628000F2C01D901200AE0002221464FF0FF30AB
:1006380000F0DAFE044B1C60002000E0012010BD31
:1006480000000020140000200400002010B5032042
:1006580000F0B8FE03F0B6FB0F498B69C3F3032320
:100668000E4AD35C03F01F03D8408B6903F00F03D5
:10067800D35C03F01F0320FA03F3094A1360094B04
:1006880018600020FFF7BAFF10B10124204610BD02
:1006980004460CF015FAF9E70044025834FE000845
:1006A8001000002014000020034B1B78034A116837
:1006B8000B441360704700BF000000200C010020AD
:1006C800014B1868704700BF0C01002038B504467C
:1006D800FFF7F6FF0546B4F1FF3F02D0044B1B7845
:1006E8001C44FFF7EDFF401BA042FAD338BD00BF02
:1006F80000000020014B1868000C70470010005CD7
:10070800034A136823F0407303431360704700BF24
:100718000040005210B430300B0A9B0003F00C0369
:10072800C45801F01F014FF01F0C0CFA01FC24EA19
:100738000C0CC2F384628A404CEA0202C2505DF893
:10074800044B704710B414304B0E9B0003F00403A5
:10075800C458C1F304514FF0070C0CFA01FC24EA09
:100768000C0C8A404CEA0202C2505DF8044B7047F8
:100778007047704708B5806BFFF7FBFF08BD7047EF
:1007880008B50346806B426D12F0500F30D1436DAF
:1007980043F40073436503681A6812F0080F14D015
:1007A800DA6812F4406F20D1DB6813F4005F1CD1C3
:1007B800436D23F480734365436D13F4805F14D154
:1007C800436D43F0010343650FE0DB6813F0030F4B
:1007D8000BD1436D23F480734365436D13F4805F3D
:1007E80003D1436D43F001034365FFF7C1FF08BD23
:1007F800426D12F0100F04D1C26CD26C18469047AB
:10080800F5E7FFF7BCFFF2E708B5806B436D43F0EF
:1008180040034365836D43F004038365FFF7AFFF2F
:1008280008BD000070B582B00023019390F85030E5
:10083800012B00F0108204460D46012380F8503049
:100848000268936813F0040F09D0436D43F0200346
:1008580043650120002384F8503002B070BD0B6856
:10086800C3F3130100293CD1C3F3846301219940E8
:10087800D3690B43D3612A6869682068FFF74AFF88
:100888002068836813F0040300D00123826812F003
:10089800080200D0012252EA03062BD0226893688E
:1008A80013F0010F40F0D3812B68E868D2F8C0102C
:1008B800C3F3130621EA060100F01806B348F04016
:1008C8000340C3F313030B43C2F8C030EA68B04BCC
:1008D8009A4200F09E802B68002BC0F234810020E1
:1008E800B8E793FAA3F3B3FA83F303F01F030121E4
:1008F8009940BDE7AA682968FFF724FFA54B1B6844
:1009080003F07043B3F1805F0BD02268D36813F013
:10091800100F3BD16B69D268C2F382025200934038
:1009280006E06B692268D268C2F3820252009340E3
:100938002969042938D02268286802F1600C5CF81B
:10094800212002F0004200F0F840034313434CF822
:100958002130236828696A7E012A1FD03146603316
:1009680053F8202022F000420A4343F8202021684F
:100978002A692B7E012B14D00B6923F4F04302F073
:100988001F0206FA02F213430B6187E76B69D2680C
:10099800920802F0040252009340C9E74FF0004168
:1009A800DDE74FF40066E7E72268136E03F0F843CB
:1009B8002968B3EB816F1DD02268536E03F0F843AA
:1009C8002968B3EB816F1AD02268936E03F0F8435D
:1009D8002968B3EB816F17D02268D36E03F0F84310
:1009E8002968B3EB816F7FF459AFD36E23F00043CE
:1009F800D36653E7136E23F000431366DCE7536EA8
:100A080023F000435366DFE7936E23F000439366B9
:100A1800E2E720682B68C3F313063EBB9A0E013247
:100A280002F01F02092A8CBF00220122002A49D0A5
:100A380046BB990E0131890601F0F8415EBB4FEAC9
:100A4800936C0CF1010C0CF01F0C012202FA0CF251
:100A5800114366BB9B0E013303F01F0303EB4303F3
:100A68001B051943AA68FFF76DFE34E793FAA3F252
:100A7800B2FA82F2013202F01F02092A8CBF002268
:100A88000122D3E793FAA3F1B1FA81F10131890682
:100A980001F0F841D2E793FAA3FCBCFA8CFC0CF104
:100AA800010C0CF01F0C012202FA0CF2D0E793FAA9
:100AB800A3F3B3FA83F3013303F01F0303EB4303F8
:100AC8001B05CEE7E6B9990E0131890601F0F84118
:100AD800FEB94FEA936C0CF1010C0CF01F0C0122CB
:100AE80002FA0CF2114306BB9B0E013303F01F03FD
:100AF80003EB43031E3B1B0543F000731943B1E7A7
:100B080093FAA3F1B1FA81F10131890601F0F841B4
:100B1800DEE793FAA3FCBCFA8CFC0CF1010C0CF098
:100B28001F0C012202FA0CF2DCE793FAA3F3B3FAE2
:100B380083F3013303F01F0303EB43031E3B1B0541
:100B480043F00073DAE7226813491448824218BF59
:100B58008A420CBF0121002124D1114EB56805F04D
:100B6800E07C09B30C49886810F0010000D001202E
:100B78000A49896811F0010100D00121014318D008
:100B8800636D43F020036365012063E6FFFF0F00F8
:100B98000000FF470010005C0020024000210240D6
:100BA800002302402D4ED9E72D49896811F0010F25
:100BB800E6D12C498B4207D02B498B4225D02B49B3
:100BC8008B4233D0002045E615F4000FF4D1244BB6
:100BD8009A4201D000203DE64CF40003B26822F0AE
:100BE800E0721343B360224B1B689B09214AA2FBA6
:100BF80003239B095B00019302E0019B013B0193E6
:100C0800019B002BF9D1002024E615F0807FD6D176
:100C1800134B9A4201D000201CE64CF08073B26856
:100C280022F0E0721343B360002013E615F4800F3E
:100C38000FD10B4B9A4201D000200BE64CF48003F5
:100C4800B26822F0E0721343B360002002E600208D
:100C580000E60020FEE50220FFE500BF0063025821
:100C680000600258000084CB000052C70000B8CFD3
:100C780014000020632D3E0538B503689A6812F009
:100C8800010F52D104469968294A114209D0436D8F
:100C980043F010034365836D43F00103836501202E
:100CA80044E09968234A0A4042F001029A60FFF73B
:100CB80007FD054623682049204A934218BF8B4206
:100CC8000DD102F50072926802F01F021B498B4297
:100CD80007D0194699420CD05AB1002026E0184A8C
:100CE800F1E7A1F58071F5E7FFF7EAFC401B022860
:100CF8000FD823681A6812F0010F14D19A6812F0FD
:100D0800010FF1D199680B4A0A4042F001029A603A
:100D1800EAE7636D43F010036365A36D43F00103D5
:100D2800A365012002E0002000E0002038BD00BFDC
:100D38003F000080C0FFFF7F0020024000210240EA
:100D480000630258F8B504460E46174600683E4A46
:100D58003E4B984218BF90421CD103F500739D6822
:100D680005F01F05806810F0040F69D194F8503021
:100D7800012B67D0012384F85030092D05D840F2A3
:100D88002123EB4013F0010F06D1002384F85030E3
:100D9800012056E02E4BE2E72046FFF76DFF0028C2
:100DA8004AD1626DA0F60273134043F48073636501
:100DB8002368264A934239D01A46934200D01DB977
:100DC800636D23F480136365636D13F4805F30D023
:100DD800A36D23F00603A365E36C1E4ADA63E36C94
:100DE8001D4A1A64E36C1D4ADA6423681C221A60DF
:100DF800002384F850302268536843F0100353608E
:100E08002168E36ACA6822F003021343CB602168B1
:100E18003B4632464031E06C00F048FF226891685A
:100E28000F4B0B4043F0040393600AE0A2F5807275
:100E3800C3E70023A365CFE7002384F8503000E020
:100E48000220F8BD0220FCE70020024000210240F9
:100E580000630258890700087D0700081108000888
:100E6800C0FFFF7F38B5044603684E494E4A934297
:100E780018BF8B4226D14D4B9B6813F4403F14BFDB
:100E88000123002343B303F0E3F905466368B3F590
:100E9800003F05D0B3F5403F1CD0B3F5803F02D1E9
:100EA8001B0CB5FBF3F5FFF725FC41F20303984251
:100EB80052D83F4B9D4249D92268936843F48073C6
:100EC800936038BD3B4B9B6813F4403F14BF01232C
:100ED8000023D7E78508E6E74FF4002004F0D0FAAE
:100EE80005466368B3F5101F2CD021D8B3F5E01F71
:100EF80026D004D9B3F5001FD5D14509D3E7B3F5FA
:100F0800801F10D009D8B3F5002F0CD0B3F5402FAF
:100F180009D0B3F5802F06D0C5E7B3F5A01F02D0DE
:100F2800B3F5C01FBFD19B0C5B00B5FBF3F5BAE767
:100F3800B3F5201F08D0B3F5301FB4D1050AB2E7C6
:100F48000509B0E78509AEE7C509ACE722689368EB
:100F580023F480739360B4E7174B9D4205D8226849
:100F6800936823F440739360ABE7144B9D4207D812
:100F78002268936823F4407343F480739360A0E776
:100F88000F4B9D4207D82268936823F4407343F4BB
:100F98000073936095E72268936843F44073936005
:100FA8008FE700BF002002400021024000230240DA
:100FB800002D31010063025821BCBE0041787D013B
:100FC80081F0FA0230B583B000230193002800F0C5
:100FD80009810446436DE3B123689A6812F0005F03
:100FE80003D09968804A0A409A6023689A6812F088
:100FF800805F1BD199687D4A0A4042F080529A600E
:101008007B4B1B689B097B4AA2FB03239B0901932B
:1010180009E009F011FF0023A36584F85030DBE7ED
:10102800019B013B0193019B002BF9D12268936836
:1010380013F0805F40F09980636D43F0100363659F
:10104800A36D43F00103A3650125936813F004031E
:1010580000D00123616D11F0100F40F0BB80002B10
:1010680040F0B880636D23F4817343F00203636535
:10107800936813F0010F1ED15F49604B9A4218BF65
:101088008A420CBF0122002271D1896811F0010146
:1010980000D00121594B9B6813F0010300D00123B4
:1010A8000B4308D1002A68D0554963688A6822F43E
:1010B8007C1213438B60FFF71DFB41F20303984238
:1010C80002D9A368102B5AD0627D236B43EA4233BE
:1010D800A2681343227F43EA0243227F012A59D0A0
:1010E800626A22B102F47872A16A0A431343216842
:1010F800C868444A02401A43CA6021688A6812F0E4
:10110800040200D001228B6813F0080300D00123E9
:1011180013431BD1227DE36A43EA8232C8683A4B03
:1011280003401343CB6094F83830012B37D0226842
:10113800136923F0010313612268136923F07043D4
:10114800616B0B4313612046FFF78CFEE368012BAC
:1011580037D02268136B23F00F031363636D23F0FA
:10116800030343F00103636539E000256DE7274B6E
:101178009B6813F0010F9ED194E7254995E7617D9F
:10118800226B42EA41321343227F43EA024343F08F
:101198000C03A2E7226A013A43EA4243A0E7206827
:1011A80002691C4B1340E26B511E226C42EA014259
:1011B800616C0A43A16C0A43134343F001030361C2
:1011C800BAE721680B6B23F00F03A269013A1343B6
:1011D8000B63C3E7636D43F010036365012528467D
:1011E80003B030BD0125FAE7C0FFFF5FC0FFFF6F06
:1011F80014000020632D3E0500200240002102401B
:101208000023024003C0F0FFFCBFFFFF006002584C
:10121800006302581EF800FC90F85020012A00F0E4
:10122800938030B49AB00346012280F850200068B9
:10123800464A904236D000220192019A002A35D0BF
:10124800926812F0040200D00122846814F0040F9E
:101258006BD1002A69D13D4C3D4A904218BFA0424B
:101268002DD102F500720868002839D0906820F462
:1012780040404C68204390601868344D344CA0427C
:1012880018BFA8421DD1AC6814F0010400D0012495
:101298002F48806810F0010000D00120204315D0AD
:1012A800002047E002F580720192C6E75A6D42F0CD
:1012B80020025A65002283F8502001203DE0254A8B
:1012C800D1E72548806810F0010F39D19468234888
:1012D80020400C688968214308439060002029E079
:1012E800916821F4404191601968184C184881426E
:1012F80018BFA1420ED1A06810F0010000D0012053
:101308001349896811F0010100D00121014306D079
:1013180000200FE01049896811F0010F12D1906880
:101328000E4901409160002004E05A6D42F020020D
:101338005A650120002283F850201AB030BC70474B
:101348000020F7E70020F5E7022070470020024060
:10135800002102400063025800600258E0F0FFFFDD
:10136800002804DB0901C9B2044B1954704700F086
:101378000F000901C9B2024B1954704700E400E09C
:1013880014ED00E000B500F00700C0F1070CBCF157
:10139800040F28BF4FF0040C031D062B0FD9C31EE2
:1013A8004FF0FF3E0EFA0CF021EA000199400EFAC8
:1013B80003FE22EA0E0241EA02005DF804FB002364
:1013C800EEE700000649CB6823F4E0631B041B0C1E
:1013D800000200F4E0600343024A1A43CA607047FF
:1013E80000ED00E00000FA0510B50446054BD8688A
:1013F800C0F30220FFF7C6FF01462046FFF7B0FF03
:1014080010BD00BF00ED00E0002807DB00F01F0260
:10141800400901239340024A42F82030704700BF38
:1014280000E100E00138B0F1807F0BD24FF0E023FB
:101438005861054AF02182F823100020986107229C
:101448001A6170470120704700ED00E0BFF35F8F1D
:10145800044B5A6A22F480325A620022C3F894205C
:10146800704700BF00ED00E040F00100054BC3F8F5
:1014780094005A6A42F480325A62BFF34F8FBFF326
:101488006F8F704700ED00E04278164BC3F8982044
:101498000378FBB14368134AC2F89C30017BC37AD6
:1014A8001B0643EA0173817A43EAC143417B43EA5D
:1014B8008143817B43EA4143C17B43EA0143417A4B
:1014C80043EA0123017A43EA410301780B43C2F856
:1014D800A0307047034B0022C3F89C20C3F8A0201B
:1014E800704700BF00ED00E0F0B4876D0468664EF9
:1014F800664DAC4218BFB44242D01835AC423FD01A
:101508001835AC423CD01835AC4239D01835AC420D
:1015180036D01835AC4233D01835AC4230D005F54A
:101528005675AC422CD01835AC4229D01835AC428F
:1015380026D01835AC4223D01835AC4220D0183507
:10154800AC421DD01835AC421AD01835AC4217D071
:101558004F4DAC4214D01435AC4211D01435AC42C6
:101568000ED01435AC420BD01435AC4208D014352B
:10157800AC4205D01435AC4202D01435AC4207D188
:10158800446E856E6560C46E14B1046F456F656006
:1015980004683D4E3D4DAC4218BFB44252D0183598
:1015A800AC424FD01835AC424CD01835AC4249D07B
:1015B8001835AC4246D01835AC4243D01835AC4249
:1015C80040D005F55675AC423CD01835AC4239D000
:1015D8001835AC4236D01835AC4233D01835AC4249
:1015E80030D01835AC422DD01835AC422AD0183539
:1015F800AC4227D0264E274DAC4218BFB44211D07A
:10160800254DAC420ED01435AC420BD01435AC424B
:1016180008D01435AC4205D01435AC4202D014358C
:10162800AC4224D1C46D04F01F050124AC407C6099
:10163800046863608368402B20D00368996003685E
:10164800DA6014E0C46D04F01F0C3F2404FA0CF4B3
:10165800BC6005682C6824F480242C6004686360EE
:101668008368402B05D0036899600368DA60F0BC92
:10167800704703689A600368D960F8E703689A605E
:101688000368D960F3E700BF100002402800024059
:10169800085402581C540258305402580368274909
:1016A800274A934218BF8B422FD0183293422CD02E
:1016B8001832934229D01832934226D018329342D6
:1016C80023D01832934220D0183293421DD002F50D
:1016D8005672934219D01832934216D01832934258
:1016E80013D01832934210D0183293420DD01832CA
:1016F80093420AD01832934207D01832934204D04A
:1017080023F0FF038365806D704710B4D9B2103998
:101718000C4AA2FB0142C2F302120B4CA25CC26546
:101728005F2907D96FF3090304338365806D5DF87A
:10173800044B70476FF309038365F7E71000024015
:1017480028000240ABAAAAAAA0F9000883699BB99D
:10175800836A012B0AD0022B02D00BB100207047FC
:10176800C36A13F0807F2AD100207047C36AB3F19F
:10177800C07F26D000207047B3F5005F0AD0836A87
:10178800022B26D9032B26D1C36A13F0807F24D1DC
:1017980000207047836A032B03D8DFE803F01404A2
:1017A800140A00207047C36A13F0807F0DD100200F
:1017B8007047C36AB3F1C07F09D000207047012089
:1017C80070470120704701207047012070470120B1
:1017D80070470120704700207047012070470000C3
:1017E80003682149214A934218BF8B4227D01432FB
:1017F800934224D01432934221D0143293421ED003
:10180800143293421BD01432934218D014329342AC
:1018180015D0DAB2103A1649A1FB0212120915497D
:101828001944A8291ED9144B13449B000366134B73
:10183800436602F01F020123934083667047DBB2C0
:10184800083B0F4AA2FB03230E4A02EB1312920035
:1018580002660D4A4266C3F30413012202FA03F337
:10186800836670470832DEE7085402581C54025851
:10187800ABAAAAAAF0FBFDBF0082001080080240B4
:10188800CDCCCCCC009600168058025801794A1E5F
:10189800072A2BD830B40368154D164CA34218BF3D
:1018A800AB4218D01434A34215D01434A34212D03A
:1018B8001434A3420FD01434A3420CD01434A342DE
:1018C80009D01434A34206D00B4B0B449B00C366CB
:1018D8000A4B036705E00A4B0B449B00C366094BA0
:1018E800036701239340436730BC7047704700BFCC
:1018F800085402581C5402583F8200104009024004
:101908003F9600164059025870B50446FEF7D8FEB7
:10191800002C00F0B981054623685349534A934285
:1019280018BF8B420CBF0121002150D018329342BE
:101938004DD0183293424AD01832934247D01832C9
:10194800934244D01832934241D0183293423ED049
:1019580002F5567293423AD01832934237D0183271
:10196800934234D01832934231D0183293422ED059
:10197800183293422BD01832934228D0183293420F
:1019880025D03B493B4A934218BF8B4200F0348133
:10199800394A934200F030811432934200F02C818E
:1019A8001432934200F028811432934200F02481CB
:1019B8001432934200F020811432934200F01C81CB
:1019C80040236365032384F8353001204AE0002270
:1019D80084F83420022284F8352079BB274A9342C0
:1019E8002CD01832934229D01832934226D018327C
:1019F800934223D01832934220D0183293421DD0FC
:101A080002F55672934219D01832934216D0183202
:101A1800934213D01832934210D0183293420DD00B
:101A2800183293420AD01832934207D018329342A0
:101A380004D01A6822F001021A6003E01A6822F042
:101A480001021A6023681A6812F0010F18D0FEF715
:101A580037FE431B052BF5D920236365032384F840
:101A68003530012070BD00BF100002402800024040
:101A7800085402581C54025830540258400002407E
:101A88001A6882491140A268E0680243206902434B
:101A980060690243A0690243E0690243206A024385
:101AA8000A43616A042900F09880794909686FF34C
:101AB8000F01B1F1005F10D361682E2940F29280C6
:101AC80052290AD83F2908D33F39724820FA01F130
:101AD80011F0010F01D042F480121A60266875696E
:101AE80025F00705636A1D43042B08D1A36A1D432B
:101AF800E36A23B12046FFF729FE002876D17561F5
:101B08002046FFF7CBFDE36D03F01F023F23934010
:101B1800836023686049614A934218BF8B4242D070
:101B2800183293423FD0183293423CD01832934235
:101B380039D01832934236D01832934233D0183203
:101B4800934230D002F5567293422CD01832934209
:101B580029D01832934226D01832934223D0183213
:101B6800934220D0183293421DD0183293421AD093
:101B78001832934217D04A4A934214D014329342EF
:101B880011D0143293420ED0143293420BD0143237
:101B9800934208D01432934205D01432934202D0B3
:101BA8001432934213D12046FFF71AFEA368802B04
:101BB8005DD0236E22791A60636EA26E5A606368E4
:101BC800013B072B56D90023E36623676367002090
:101BD8006065012384F8353044E7E16A206B0143EE
:101BE8000A4362E72929FFF478AF74E74023636565
:101BF800012084F8350035E7002284F834200222D9
:101C080084F8352019686FF31011A268402A2CD087
:101C1800802A27D00022E06842EAD002206942EAFE
:101C2800D002606942EAD002A06942EAD002E069C3
:101C380042EAD002206A42EA10120A431A60226875
:101C4800184B1344184AA2FB03231B099B00E365A6
:101C58002046FFF723FDE26D02F01F0101228A40B2
:101C6800426056E74FF48042D5E71022D3E70023BD
:101C780063609EE72046FFF709FEE36E00221A60C4
:101C8800236F626F5A60A2E70120EBE63F8010FEE7
:101C98000010005C0F030F001000024028000240F3
:101CA80008540258F8ABFDA7CDCCCCCC002800F0E6
:101CB8003E8170B5044690F83400012800F039815F
:101CC800012084F8340094F83500C0B2012807D008
:101CD800002384F834304FF400636365012070BD3D
:101CE800022084F83500002060652068924E934DEC
:101CF800A84218BFB0422FD01835A8422CD01835AA
:101D0800A84229D01835A84226D01835A84223D091
:101D18001835A84220D01835A8421DD005F55675AB
:101D2800A84219D01835A84216D01835A84213D0A1
:101D38001835A84210D01835A8420DD01835A84239
:101D48000AD01835A84207D01835A84204D005682B
:101D580025F00105056003E0056825F0010505602B
:101D68002046FFF7C1FB23687349744A934218BFA2
:101D78008B4238D01832934235D01832934232D041
:101D8800183293422FD0183293422CD018329342F3
:101D980029D01832934226D002F55672934222D0A7
:101DA800183293421FD0183293421CD018329342F3
:101DB80019D01832934216D01832934213D01832E1
:101DC800934210D0183293420DD01A6822F00E02B6
:101DD80042F00A021A60236C93B12268136843F038
:101DE800040313600CE01A6822F01E0242F0160287
:101DF8001A60236C23B12268136843F00803136048
:101E080023684D494D4A934218BF8B4242D018323D
:101E180093423FD0183293423CD01832934239D083
:101E28001832934236D01832934233D01832934244
:101E380030D002F5567293422CD01832934229D0F2
:101E48001832934226D01832934223D01832934244
:101E580020D0183293421DD0183293421AD018322B
:101E6800934217D0364A934214D01432934211D079
:101E7800143293420ED0143293420BD01432934250
:101E880008D01432934205D01432934202D014324F
:101E980093420ED1236E1A6812F4803F03D01A6859
:101EA80042F480721A60E36E1BB11A6842F48072C1
:101EB8001A6023682049214A934218BF8B4230D0C8
:101EC800183293422DD0183293422AD018329342B6
:101ED80027D01832934224D01832934221D0183296
:101EE80093421ED002F5567293421AD0183293428A
:101EF80017D01832934214D01832934211D01832A6
:101F080093420ED0183293420BD01832934208D025
:101F18001832934205D01A6842F001021A60002074
:101F2800DDE61A6842F001021A600020D7E60120B7
:101F380070470220D3E600BF10000240280002408C
:101F48000854025870B50446FEF7BAFB002C00F09E
:101F58009181054694F83530DBB2022B06D08023F8
:101F68006365002384F83430012070BD23688C49F0
:101F78008C4A934218BF8B4230D0183293422DD0EE
:101F8800183293422AD01832934227D018329342FB
:101F980024D01832934221D0183293421ED002F531
:101FA800567293421AD01832934217D0183293427D
:101FB80014D01832934211D0183293420ED01832EE
:101FC80093420BD01832934208D01832934205D06E
:101FD8001A6822F00E021A60266809E01A6822F0D0
:101FE8001E021A602268536923F080035361266831
:101FF80023686B496B4A934218BF8B4242D0183210
:1020080093423FD0183293423CD01832934239D091
:102018001832934236D01832934233D01832934252
:1020280030D002F5567293422CD01832934229D000
:102038001832934226D01832934223D01832934252
:1020480020D0183293421DD0183293421AD0183239
:10205800934217D0544A934214D01432934211D069
:10206800143293420ED0143293420BD0143293425E
:1020780008D01432934205D01432934202D014325D
:10208800934204D1226E136823F48073136023688B
:102098004349444A934218BF8B422FD01832934287
:1020A8002CD01832934229D01832934226D01832B5
:1020B800934223D01832934220D0183293421DD035
:1020C80002F55672934219D01832934216D018323C
:1020D800934213D01832934210D0183293420DD045
:1020E800183293420AD01832934207D018329342DA
:1020F80004D01A6822F001021A6003E01A6822F07C
:1021080001021A60336813F0010F0ED0FEF7D8FAF7
:10211800431B052BF6D920236365002384F834304C
:10212800032384F8353001201FE723681C491D4A22
:10213800934218BF8B4239D01832934236D01832A6
:10214800934233D01832934230D0183293422DD074
:10215800183293422AD01832934227D002F5567289
:10216800934223D01832934220D0183293421DD084
:10217800183293421AD01832934217D01832934229
:1021880014D01832934211D0183293420ED0A16D58
:10219800E36D03F01F02012393404B600DE000BF85
:1021A800100002402800024008540258A16DE36D57
:1021B80003F01F023F2393408B6023682E492F4A68
:1021C800934218BF8B4242D0183293423FD0183204
:1021D80093423CD01832934239D01832934236D0C9
:1021E8001832934233D01832934230D002F55672E7
:1021F80093422CD01832934229D01832934226D0D9
:102208001832934223D01832934220D01832934286
:102218001DD0183293421AD01832934217D0184A58
:10222800934214D01432934211D0143293420ED0F8
:10223800143293420BD01432934208D01432934292
:1022480005D01432934202D0143293420BD1636EFC
:10225800A26E5A60E36E33B11A6822F480721A6073
:10226800236F626F5A60002084F83400012384F8D9
:1022780035307AE6012078E6100002402800024056
:1022880008540258002800F0288108B5024690F842
:102298003530DBB2022B03D080234365012008BD13
:1022A8000368904890498B4218BF83420CBF0120B5
:1022B800002065D018318B4262D018318B425FD034
:1022C80018318B425CD018318B4259D018318B426F
:1022D80056D018318B4253D001F556718B424FD0EE
:1022E80018318B424CD018318B4249D018318B426F
:1022F80046D018318B4243D018318B4240D0183128
:102308008B423DD018318B423AD0196821F00E012A
:1023180019601368734874498B4218BF83426AD0A6
:1023280072498B4267D018318B4264D018318B4286
:1023380061D018318B425ED018318B425BD0183196
:102348008B4258D001F556718B4254D018318B42CC
:1023580051D018318B424ED018318B424BD01831A6
:102368008B4248D018318B4245D018318B4242D02D
:1023780018318B423FD0196821F0010119603EE005
:10238800042182F8351080BB584A93422DD0183268
:1023980093422AD01832934227D01832934224D03D
:1023A8001832934221D0183293421ED002F5567249
:1023B80093421AD01832934217D01832934214D04D
:1023C8001832934211D0183293420ED018329342E9
:1023D8000BD01832934208D01832934205D01A68AD
:1023E80022F001021A60002059E71A6822F001025F
:1023F8001A60002053E7196821F001011960136879
:10240800384839498B4218BF834242D018318B4231
:102418003FD018318B423CD018318B4239D018311B
:102428008B4236D018318B4233D018318B4230D0A2
:1024380001F556718B422CD018318B4229D01831B6
:102448008B4226D018318B4223D018318B4220D0B2
:1024580018318B421DD018318B421AD018318B425B
:1024680017D023498B4214D014318B4211D0143128
:102478008B420ED014318B420BD014318B4208D0D2
:1024880014318B4205D014318B4202D014318B4267
:1024980017D1116E0B6823F480730B60906DD36DA8
:1024A80003F01F0101238B404360536E916E596006
:1024B800D36E33B1196821F480711960136F516FAD
:1024C8005960002382F83430012382F83530136DC7
:1024D8002BB1104698470020E1E601207047002004
:1024E800DDE600BF10000240280002404000024024
:1024F80008540258F0B583B00446002301937D4B7D
:102508001D687D4BA3FB0535AD0A876D3E68D7F87E
:1025180000C0036879497A48834218BF8B420CBFD0
:102528000120002061D0774A93425ED0183293424E
:102538005BD01832934258D01832934255D0183293
:10254800934252D0183293424FD002F556729342BA
:102558004BD01832934248D01832934245D01832A3
:10256800934242D0183293423FD0183293423CD023
:102578001832934239D01832934236D06249634AAE
:10258800934218BF8B4212D0614A93420FD0143243
:1025980093420CD01432934209D01432934206D09D
:1025A8001432934203D01432934240F061821A6885
:1025B800E16D01F01F010420884010EA0C0F00F0C3
:1025C800A78212F0040F00F0A382786012F4004F83
:1025D80000F05A8212F4803F40F05082A36C002B26
:1025E80000F046822046984742E2E26D02F01F0161
:1025F80008228A40324241D070BB424A93422BD0D3
:102608001832934228D01832934225D01832934278
:1026180022D0183293421FD0183293421CD002F5B0
:102628005672934218D01832934215D018329342FA
:1026380012D0183293420FD0183293420CD018326D
:10264800934209D01832934206D01832934203D0ED
:102658001A68C2F3C00202E01A68C2F380026AB1C3
:102668001A6822F004021A60E36D03F01F020823BF
:102678009340BB60636D43F001036365E26D02F054
:102688001F0226FA02F313F0010F47D023681B48F4
:102698001B498B4218BF83423CD018318B4239D03A
:1026A80018318B4236D018318B4233D018318B42D7
:1026B80030D018318B422DD018318B422AD001F5F9
:1026C80056718B4226D018318B4223D018318B4259
:1026D80020D018318B421DD018318B421AD01831B6
:1026E8008B4217D018318B4214D018318B4211D03D
:1026F8001B6813E014000020B5814E1B1000024037
:102708002800024040000240085402581C54025855
:10271800305402585B6913F0800F3BD1E36D03F02E
:102728001F03042202FA03F333423FD0226896487B
:1027380096498A4218BF824234D018318A4231D031
:1027480018318A422ED018318A422BD018318A4249
:1027580028D018318A4225D018318A4222D001F572
:1027680056718A421ED018318A421BD018318A42CB
:1027780018D018318A4215D018318A4212D018312F
:102788008A420FD018318A420CD018318A4209D0B7
:1027980013680BE001239340BB60636D43F00203B1
:1027A8006365BBE7126812F0020F3DD1E36D03F0D9
:1027B8001F03102202FA03F333425FD022687248E3
:1027C80072498A4218BF824234D018318A4231D0C5
:1027D80018318A422ED018318A422BD018318A42B9
:1027E80028D018318A4225D018318A4222D001F5E2
:1027F80056718A421ED018318A421BD018318A423B
:1028080018D018318A4215D018318A4212D018319E
:102818008A420FD018318A420CD018318A4209D026
:102828001268C2F3800208E0BB60636D43F00403E2
:102838006365BBE71268C2F3C002FAB1BB602368E4
:102848001A6812F4802F0DD01B6813F4002F04D1DE
:10285800236C9BB12046984710E0A36C73B12046C7
:1028680098470BE01A6812F4807F03D11A6822F0A7
:1028780008021A60236C0BB120469847E36D03F0F9
:102888001F03202202FA03F3334200F093802268E8
:102898003D483E498A4218BF82422ED018318A42AA
:1028A8002BD018318A4228D018318A4225D01831C5
:1028B8008A4222D018318A421FD018318A421CD04D
:1028C80001F556718A4218D018318A4215D018314C
:1028D8008A4212D018318A420FD018318A420CD05D
:1028E80018318A4209D018318A4206D018318A42F2
:1028F80003D01268C2F3400202E01268C2F3001269
:10290800002A57D0BB6094F83530DBB2042B0ED0C8
:1029180023681A6812F4802F3AD01B6813F4002F2A
:102928002DD1636C002B45D02046984742E02268A1
:10293800136823F0160313602268536923F0800399
:102948005361236CBBB12268136823F0080313603A
:10295800E36D03F01F023F239340BB60002384F81C
:102968003430012384F83530236D002B00F080804B
:10297800204698477CE0A36C002BE4D1E8E7E36BA2
:10298800C3B12046984715E01000024028000240D5
:102998001A6812F4807F09D11A6822F010021A60AE
:1029A800002384F83430012384F83530E36B0BB10D
:1029B80020469847636D002B5AD0636D13F0010FC2
:1029C80052D0042384F8353023689649964A9342B6
:1029D80018BF8B422FD0183293422CD01832934212
:1029E80029D01832934226D01832934223D0183275
:1029F800934220D0183293421DD002F5567293426A
:102A080019D01832934216D01832934213D0183284
:102A1800934210D0183293420DD0183293420AD004
:102A28001832934207D01832934204D01A6822F021
:102A380001021A6003E01A6822F001021A60019B81
:102A480001330193AB4204D823681B6813F0010FCC
:102A5800F5D1002384F8343023681B6813F0010F84
:102A680008D0032384F83530E36C0BB1204698472F
:102A780003B0F0BD012384F83530F5E7236C002B53
:102A8800F6D020469847F3E712F0200F3AD1236892
:102A98006449654A934218BF8B422FD0183293423B
:102AA8002CD01832934229D01832934226D01832AB
:102AB800934223D01832934220D0183293421DD02B
:102AC80002F55672934219D01832934216D0183232
:102AD800934213D01832934210D0183293420DD03B
:102AE800183293420AD01832934207D018329342D0
:102AF80004D01A6822F004021A6003E01A6822F06F
:102B080008021A60236C002BB2D020469847AFE722
:102B18000220884010EA0C0F60D012F0020F5DD03E
:102B2800786012F4004F0ED012F4803F05D1636C28
:102B3800002B9DD0204698479AE7E36B002B97D04F
:102B48002046984794E712F0200F40D12368354972
:102B5800354A934218BF8B422FD0183293422CD05B
:102B68001832934229D01832934226D01832934211
:102B780023D01832934220D0183293421DD002F548
:102B88005672934219D01832934216D01832934293
:102B980013D01832934210D0183293420DD0183205
:102BA80093420AD01832934207D01832934204D085
:102BB8001A6822F00A021A6003E01A6822F0140266
:102BC8001A60002384F83430012384F83530E36B2D
:102BD800002B3FF44DAF2046984749E7082000FAFC
:102BE80001F111EA0C0F3FF443AF12F0080F3FF464
:102BF8003FAF1A6822F00E021A60E36D03F01F035C
:102C0800012202FA03F37B606265002384F8343002
:102C180084F83520E36C002B3FF42AAF2046984710
:102C280026E700BF1000024028000240406D7047B0
:102C3800F0B583B0002340E0092400E0002404FA42
:102C48000CF434430235764E46F825404FF0B04434
:102C5800D4F88050D44325EA02064F6817F4803F21
:102C680001D042EA05064FF0B045C5F88060D5F8B6
:102C7800845004EA05064F6817F4003F01D042EA81
:102C880005064FF0B045C5F884602D6804EA0506CE
:102C98004F6817F4801F01D042EA05064FF0B0458F
:102CA8002E606D682C404E6816F4001F01D042EA71
:102CB80005044FF0B042546001330A6832FA03F455
:102CC80000F0AB804FF0010C0CFA03FC1CEA020286
:102CD800F2D04C68651E112C18BF012D01D9122C99
:102CE80012D185685E000324B44025EA0405CC6847
:102CF800B4402C438460456825EA0C054C68C4F34D
:102D080000149C402C434460C5684FEA430E0324DA
:102D180004FA0EF46FEA040C25EA04058C6804FA38
:102D28000EF42C43C4604C68122C18BF022C0FD12F
:102D3800DD08083550F8257003F00706B6000F24A3
:102D4800B44027EA04070C69B4403C4340F82540E6
:102D580004680CEA040C4C6804F0030404FA0EF44A
:102D680044EA0C0404604C6814F0805FA4D02D4C35
:102D7800D4F8F45045F00205C4F8F450D4F8F440FF
:102D880004F002040194019C9D08AE1C244C54F8E4
:102D9800266003F0030C4FEA8C0C0F2404FA0CF4A1
:102DA80026EA0406204CA0423FF448AF04F58064AC
:102DB800A04222D004F58064A04220D004F58064AB
:102DC800A0421ED004F58064A0421CD004F58064A3
:102DD800A0421AD004F58064A04218D004F580649B
:102DE800A04216D004F58064A04214D004F5806493
:102DF800A0423FF421AF0A2421E701241FE702245F
:102E08001DE703241BE7042419E7052417E7062414
:102E180015E7072413E7082411E703B0F0BD00BF46
:102E2800000400580044025800000258036919427F
:102E380001D001207047002070470AB181617047B6
:102E480009048161704710B40468226822F00702FF
:102E58008B68134323F01803CA681A432260036877
:102E68000A685A6103684A689A615DF8044B7047BA
:102E780030B5046801F1010C4FEACC1C54F80C3051
:102E880023F0070E936843EA0E0323F01803D5686E
:102E98002B4344F80C300368146803EBC113C3F8E0
:102EA80094400368526803EBC113C3F8982030BDFF
:102EB800F0B4046804EBC115D5F8E460D5F8B8504F
:102EC800202A13D8022A0DD3023A4FF0010C0CFA2B
:102ED80002F22F4F3A4216D144F204073A4221D166
:102EE80000222BE0012A1DD0002227E0B2F5807FC6
:102EF80018D005D8402A15D0802A04D000221DE019
:102F0800B2F5007F0CD15A6804EBC114C4F8C42090
:102F180002689C6802EBC112C2F8C84010220DE09A
:102F280000220BE05A6804EBC114C4F8BC20026804
:102F38009C6802EBC112C2F8C0400022FE249440F3
:102F480026EA04061C68944044EA060CDC689440AF
:102F580044EA0C041E6906FA02FC4CEA040C5C699B
:102F6800944044EA0C0C9C69944044EA0C04082EF2
:102F780006D0036803EBC113C3F8E440F0BC704704
:102F880015F0022FF5D1DB6993401C43F1E700BF30
:102F980041000040002864D010B582B004460223E6
:102FA80080F8C1300023C0F8C430C0F8C830C0F879
:102FB800CC30C0F8D030C0F8D430C0F8D8308368EE
:102FC80013F0010F12D00268274B9A4225D02168CE
:102FD8000A6822F44042236903F44043134323F46C
:102FE8004053626902F440521A430A60204608F0CE
:102FF80083FEA36813F0020F08D021680A6822F440
:103008004072E36803F4407313430B60012384F8B0
:10301800C130002384F8C0301EE0144BD3F8F020F0
:1030280042F00052C3F8F020D3F8F03003F0005318
:103038000193019BCBE7C3EBC30204EB820200219F
:103048009161D161116251629162C3EBC30204EBD9
:10305800820211630133DBB2052BECD9002002B0E8
:1030680010BD0120704700BF0074014000440258A1
:1030780010B5044690F8C100C0B202280BD0022354
:1030880084F8C130052907D02046FFF7F1FE012357
:1030980084F8C130002010BD11462046FFF7D3FE4A
:1030A800F5E7000070B588B0044690F8C100C0B2DA
:1030B800022851D00E4694F8C010012963D001218E
:1030C80084F8C010022184F8C110202A46D88A4208
:1030D80012D3901E012181402D4801424AD144F269
:1030E800040001420AD1002101910291072084F8CD
:1030F800C10084F8C01009E0012AF4D121681868D9
:1031080001EBC611C1F89C000821019194F8C11087
:10311800C9B2072939D0596801F0020100919B68AA
:1031280003F0080304930025059503950695079574
:10313800042302936B4631462046FFF7B9FE226806
:103148000136F601935943F000639351012384F843
:10315800C13084F8C050284608B070BDB2F5807FF1
:10316800CCD004D8402AC9D0802A03D0BBE7B2F516
:10317800007FB8D12168186801EBC611C1F8A40016
:1031880010210191C2E70220E6E70120E4E700BF31
:103198004100004003689A6912F0020F01D0002232
:1031A8009A6203689A6912F0010F03D19A6942F092
:1031B80001029A61704730B4029D046860684FEA62
:1031C800555C0CF4806C4CF07F7C4CF4583C4CF40F
:1031D8007F7C4CF0030C20EA0C00C1F3090141EAA2
:1031E8000241194329430843606030BC7047F8B571
:1031F80005460E46174603689B6913F0100F01D168
:103208000020F8BD2B689C6914F0200F17D1B6F187
:10321800FF3FF7D0FDF754FAC01BB04201D8002E8B
:10322800F0D16B6C43F020036B64202385F84130A8
:10323800002385F8423085F840300120E1E710226C
:10324800DA612B682024DC612846FFF7A3FF2A688F
:10325800536823F0FF7323F48B3323F4FF7323F0B5
:10326800010353606B6C43F004036B6485F84140C1
:10327800002385F8423085F840300120C1E770B559
:1032880004460D46164623689B6913F0020F1DD1AC
:10329800324629462046FFF7AAFFC8B9B5F1FF3FD5
:1032A800F1D0FDF70DFA801BA84201D8002DEAD114
:1032B800636C43F020036364202384F841300023C7
:1032C80084F8423084F84030012000E0002070BDCE
:1032D8000120FCE72DE9F0410646884617461D46C1
:1032E8003468A46938EA04040CBF01240024BC42F1
:1032F80018D1B5F1FF3FF3D0FDF7E2F9069BC01AEC
:10330800A84201D8002DEBD1736C43F020037364FD
:10331800202386F84130002386F8423086F8403072
:10332800012000E00020BDE8F08170B505460C469C
:1033380016462B689B6913F0200F1AD13246214696
:103348002846FFF754FFB0B9FDF7BAF9801BA04231
:1033580001D8002CEDD16B6C43F020036B64202363
:1033680085F84130002385F8423085F84030012047
:1033780070BD0020FCE70120FAE70000002857D0C4
:1033880010B5044690F84130002B41D0242384F82E
:1033980041302268136823F00103136063682268D0
:1033A80023F0706313612268936823F400439360E9
:1033B800E368012B31D0A368226843F40443936087
:1033C800E368022B2FD0226851681A4B0B435360D5
:1033D8002268D36823F40043D360236962691343E6
:1033E800A169226843EA0123D360E369216A22685C
:1033F8000B4313602268136843F001031360002035
:103408006064202384F84130206384F8420010BDB2
:1034180080F8403008F092FDB8E7A368226843F4CA
:1034280000439360CCE723684FF400625A60CAE710
:1034380001207047008000022DE9F04782B00F4656
:103448000A9E90F84110C9B2202940F0A380044692
:103458009046994690F84030012B00F09F804FF03D
:10346800010A80F840A0FDF72BF9054600901923C2
:1034780052464FF400412046FFF72CFF002840F049
:103488008F80212384F84130102384F842300023B0
:103498006364C4F82480A4F82A906363638D9BB2A4
:1034A800FF2B0AD9FF222285414B00934FF08073EE
:1034B80039462046FFF77FFE18E0628D92B22285DA
:1034C8003B4B00934FF00073D2B239462046FFF7CA
:1034D80072FE0BE0628D92B22285002300934FF0BA
:1034E8000073D2B239462046FFF765FE638D9BB262
:1034F800002B33D02A4631462046FFF7C0FE00286D
:1035080050D1626A236812789A62636A01336362EF
:10351800638D9BB2013B9BB26385238D013B9BB2BC
:103528002385628D92B2002AE0D0002BDED100956F
:103538003346002280212046FFF7CCFEA0BB638DD6
:103548009BB2FF2BC6D9FF222285002300934FF0A0
:10355800807339462046FFF72EFEC7E72A463146D4
:103568002046FFF7E2FE08BB23682022DA612168C3
:103578004B6823F0FF7323F48B3323F4FF7323F09A
:1035880001034B6084F84120002384F8423084F81A
:10359800403000E0022002B0BDE8F0870220FAE7E0
:1035A8000120F8E70120F6E70120F4E70120F2E71F
:1035B80000200080034690F84120D2B2202A23D16F
:1035C80090F84020012A21D0012280F840202422AE
:1035D80080F841200068026822F001020260186841
:1035E800026822F480520260186802681143016080
:1035F80019680A6842F001020A60202283F8412013
:10360800002083F84000704702207047022070476E
:10361800034690F84120D2B2202A21D190F84020C8
:10362800012A1FD0012280F84020242280F841205E
:103638000068026822F0010202601868026822F439
:10364800706242EA0122026019680A6842F00102C7
:103658000A60202283F84120002083F84000704748
:103668000220704702207047C368016902680B4353
:10367800D360436982691343C2691343026A1343DF
:10368800426A1343C26A1343026B1343826A013AC4
:1036980043EA8243816802680B4313614368B3F1CC
:1036A800804F1BD0036800225A61436B93421BDB97
:1036B80002689BB21362836B002B20DB01680A6AE5
:1036C80042EA03430B624368B3F1804F24D0026897
:1036D800DBB29362036800225A627047026813697A
:1036E80043F040431361DDE70268536943F48023E4
:1036F8005361436B5B4202689BB21362DBE702686B
:10370800536943F400235361836B5A4201680B6A7F
:1037180043EA02430B62D6E7036800229A62D9E7BC
:1037280038B50446FCF7CCFF44B30546002384F8BB
:103738003C30022384F83D302268D36823F001032B
:10374800D3602368DB6813F0010F0BD0FCF7B8FFD8
:10375800431B052BF5D94023A366032384F83D308A
:1037680001200AE02046FFF77FFF0020E065206681
:103778006066A066012384F83D3038BD0120FCE76F
:10378800134BDB6813F0040F07D1114BDB6803F010
:10379800070383421AD00120704710B50C4AD3683A
:1037A80023F007030343D360FCF78AFF0446084B62
:1037B8005B6813F4005F07D1FCF782FF001BB0F5CC
:1037C8007A7FF4D9012000E0002010BD0020704766
:1037D80000480258002800F0D88238B5044603682B
:1037E80013F0010F25D09D4A136903F03803926A3C
:1037F800102B15D0182B0FD06368B3F5803F3ED03F
:10380800002B52D1954B1A6822F480321A601A683C
:1038180022F480221A6037E002F00302022AEBD178
:103828008E4B1B6813F4003F03D06368002B00F035
:10383800AE82236813F0020F77D0884A1369926A20
:1038480013F038035AD0182B55D0E368002B00F03A
:10385800B28082490A6822F0190213430B60FCF710
:103868002FFF05467D4B1B6813F0040F40F08B803B
:10387800FCF726FF401B0228F4D903208EE2774A82
:10388800136843F48033136063682BB3FCF718FFA5
:103898000546724B1B6813F4003FCAD1FCF710FFB2
:1038A800401B6428F5D9032078E2B3F5A02F09D08E
:1038B8006A4B1A6822F480321A601A6822F480224D
:1038C8001A60E1E7654B1A6842F480221A601A68A8
:1038D80042F480321A60D7E7FCF7F2FE05465F4BE8
:1038E8001B6813F4003FA4D0FCF7EAFE401B6428D1
:1038F800F5D9032052E212F0030FA6D1574B1B68EB
:1039080013F0040F03D0E368002B00F04282FCF7A9
:10391800F1FE41F2030398422CD8504A536823F42D
:103928007C33216943EA01335360236813F0100F95
:1039380070D04A4A136903F03803926A082B52D0B0
:10394800182B4CD0E369002B00F0A280434A13687F
:1039580043F080031360FCF7B3FE05463F4B1B683A
:1039680013F4807F7CD1FCF7ABFE401B0228F5D90D
:10397800032013E2394A536823F0FE43216943EADE
:1039880001635360D1E7FCF7B5FE41F203039842A7
:1039980008D8324A536823F47C33216943EA013357
:1039A8005360C2E72D4A536823F0FE43216943EA76
:1039B80001635360B9E7294A136823F001031360D0
:1039C800FCF77EFE0546254B1B6813F0040FACD0B0
:1039D800FCF776FE401B0228F5D90320DEE102F051
:1039E8000302012AAED11D4B1B6813F4807F03D05C
:1039F800E369802B40F0CF81FCF77CFE41F20303A2
:103A0800984222D8154A536823F0F843216A43EABA
:103A180081635360236813F0080F61D06369002B3A
:103A28004AD00E4A536F43F001035367FCF748FE30
:103A380005460A4B5B6F13F0020F51D1FCF740FEAD
:103A4800401B0228F5D90320A8E1044AD36823F0D3
:103A58007C53216A43EA0163D360DBE700440258E0
:103A6800FCF748FE41F20303984208D8814A53689C
:103A780023F0F843216A43EA81635360CAE77D4A29
:103A8800D36823F07C53216A43EA0163D360C1E71A
:103A9800784A136823F080031360FCF711FE05468B
:103AA800744B1B6813F4807FB4D0FCF709FE401BED
:103AB8000228F5D9032071E16E4A536F23F0010300
:103AC8005367FCF7FDFD05466A4B5B6F13F0020F69
:103AD80006D0FCF7F5FD401B0228F5D903205DE16F
:103AE800236813F0200F29D0A3699BB1614A13689A
:103AF80043F480531360FCF7E3FD05465D4B1B68F8
:103B080013F4005F1AD1FCF7DBFD401B0228F5D93E
:103B1800032043E1574A136823F480531360FCF7EA
:103B2800CFFD0546534B1B6813F4005F06D0FCF726
:103B3800C7FD401B0228F5D903202FE1236813F0A5
:103B4800040F21D1636A002B00F02781494A1269CA
:103B580002F03802182A00F0EF80022B75D0454A8F
:103B6800136823F080731360FCF7AAFD0446414BE9
:103B78001B6813F0007F00F0DD80FCF7A1FD001B3F
:103B88000228F4D9032009E13B4A136843F48073FF
:103B98001360FCF795FD0546374B1B6813F4807FCF
:103BA80006D1FCF78DFD401B6428F5D90320F5E00C
:103BB800A368012B0AD00BBB2E4B1A6F22F001020F
:103BC8001A671A6F22F004021A6704E0294A136F71
:103BD80043F001031367A36833B3FCF771FD05468F
:103BE800244B1B6F13F0020FACD1FCF769FD401B8F
:103BF80041F288339842F3D90320CFE0052B09D04E
:103C08001C4B1A6F22F001021A671A6F22F0040285
:103C18001A67E0E7174B1A6F42F004021A671A6F27
:103C280042F001021A67D6E7FCF74AFD0546114B38
:103C38001B6F13F0020F85D0FCF742FD401B41F2C9
:103C480088339842F3D90320A8E00A4A136823F07E
:103C580080731360FCF734FD0546064B1B6813F0B0
:103C6800007F0BD0FCF72CFD401B0228F5D9032060
:103C780094E000BF00440258004802584F4B996A2C
:103C88004F4A0A40A16AE06A41EA00110A439A626F
:103C9800226B013AC2F30802616B0139490289B209
:103CA8000A43A16B0139090401F4FE010A43E16BDF
:103CB8000139090601F0FE410A431A63DA6A22F063
:103CC8000102DA625A6B6FF3CF02A16C42EAC102B9
:103CD8005A63DA6A22F00C02216C0A43DA62DA6A61
:103CE80022F00202616C0A43DA62DA6A42F4803234
:103CF800DA62DA6A42F40032DA62DA6A42F480227C
:103D0800DA62DA6A42F00102DA621A6842F0807214
:103D18001A60FCF7D5FC0446284B1B6813F0007F9B
:103D280006D1FCF7CDFC001B0228F5D9032035E0AD
:103D3800002033E0002031E0204A916A106B012B0B
:103D48002DD001F00303A26A93422AD1C1F30511D1
:103D5800E36A994227D1C0F30802236B013B9A42D8
:103D680023D1C0F34622636B013B9A421FD1C0F3B3
:103D78000642A36B013B9A421BD1C0F30660E36B7A
:103D8800013B984217D1002008E00120704701202C
:103D980004E0012002E0012000E0002038BD0120FD
:103DA800FCE70120FAE70120F8E70120F6E7012007
:103DB800F4E70120F2E70120F0E700BF00440258D1
:103DC8000CFCFFFF754B1B6903F03803102B00F048
:103DD800DE80182B0FD0002B40F0DB806F4B1B6868
:103DE80013F0200F00F0D7806C4B1B68C3F3C1039E
:103DF8006B48D840704710B4684B9A6A02F00302C7
:103E08009C6AC4F30510D96A01F001015B6BC3F326
:103E1800CC0301FB03F307EE903AF8EE677A14F44B
:103E28007C7F77D0012A4AD0022A76D0002A40F037
:103E380091805A4B1B6813F0200F23D057490A680A
:103E4800C2F3C102564BD34007EE103AF8EE476A68
:103E580007EE100AB8EE476A86EE867A0B6BC3F354
:103E6800080306EE903AF8EE666A9FED4E6A67EE32
:103E7800867A76EEA77AF7EE006A77EEA67A27EECC
:103E8800277A38E007EE100AF8EE476A9FED466A8F
:103E980086EE267A414B1B6BC3F3080306EE903A75
:103EA800F8EE666A9FED3F6A67EE867A76EEA77A45
:103EB800F7EE006A77EEA67A27EE277A1BE007EE80
:103EC800100AF8EE476A9FED396A86EE267A334B78
:103ED8001B6BC3F3080306EE903AF8EE666A9FED93
:103EE800316A67EE867A76EEA77AF7EE006A77EEA1
:103EF800A67A27EE277A294B1B6BC3F34623013397
:103F080007EE903AF8EE677AC7EE276AFCEEE67A93
:103F180017EE900A5DF8044B704707EE100AF8EEAA
:103F2800476A9FED236A86EE267A1C4B1B6BC3F308
:103F3800080306EE903AF8EE666A9FED1A6A67EE95
:103F4800867A76EEA77AF7EE006A77EEA67A27EEFB
:103F5800277AD0E707EE100AF8EE476A9FED136A52
:103F680086EE267A0D4B1B6BC3F3080306EE903AD8
:103F7800F8EE666A9FED0B6A67EE867A76EEA77AA8
:103F8800F7EE006A77EEA67A27EE277AB3E70948B4
:103F98007047094870470248704700BF00440258FC
:103FA8000090D003000000390024744C0024744AA7
:103FB80020BCBE4B40787D0100093D00002800F080
:103FC800328170B50D4604469B4B1B6803F00F0306
:103FD8008B420BD2984A136823F00F030B431360EC
:103FE800136803F00F038B4240F01F81236813F01E
:103FF800040F0CD02269914B9B6903F070039A421D
:1040080005D98E498B6923F070031A438A612368A6
:1040180013F0080F0CD06269884BDB6903F070035A
:104028009A4205D98549CB6923F070031A43CA61BE
:10403800236813F0100F0CD0A269804BDB6903F4DE
:10404800E0639A4205D97D49CB6923F4E0631A43BA
:10405800CA61236813F0200F0CD0E269774B1B6A02
:1040680003F070039A4205D974490B6A23F0700370
:104078001A430A62236813F0020F0CD0E2686F4BF0
:104088009B6903F00F039A4205D96C498B6923F0A9
:104098000F031A438A61236813F0010F41D0674A5E
:1040A800936923F47063A1680B4393616368022BDF
:1040B8000AD0032B27D0012B2CD0604A126812F0AB
:1040C800040F06D10120ADE0126812F4003F00F0A1
:1040D800AE805A490A6922F0070213430B61FCF7C4
:1040E800EFFA0646554B1B6903F038036268B3EBD9
:1040F800C20F16D0FCF7E4FA801B41F288339842CD
:10410800F0D903208EE04D4A126812F0007FE0D10A
:10411800012087E0494A126812F4807FD9D1012032
:1041280080E0236813F0020F0CD0E268434B9B69D0
:1041380003F00F039A4205D240498B6923F00F031D
:104148001A438A613C4B1B6803F00F03AB420AD940
:10415800394A136823F00F032B431360136803F0E5
:104168000F03AB4265D1236813F0040F0CD022690A
:10417800324B9B6903F070039A4205D22F498B6931
:1041880023F070031A438A61236813F0080F0CD0D8
:1041980062692A4BDB6903F070039A4205D227490A
:1041A800CB6923F070031A43CA61236813F0100F18
:1041B8000CD0A269214BDB6903F4E0639A4205D273
:1041C8001E49CB6923F4E0631A43CA61236813F0DC
:1041D800200F0CD0E269194B1B6A03F070039A4256
:1041E80005D216490B6A23F070031A430A62FFF7D7
:1041F800E9FD12498B69C3F30323114AD35C03F029
:104208001F03D8408B6903F00F03D35C03F01F032F
:1042180020FA03F30B4A13600B4B18600B4B18681A
:10422800FCF7ECF970BD012070470120FAE7012086
:10423800F8E70120F6E700BF0020005200440258CA
:1042480034FE0008100000201400002004000020A4
:1042580008B5FFF7B7FD0B4A9369C3F303230A496F
:10426800CB5C03F01F0320FA03F3926902F00F02FC
:10427800885C00F01F0023FA00F0044A1060044A2A
:10428800136008BD0044025834FE000810000020E6
:1042980014000020404B9B6A03F00303032B79D0E2
:1042A80070B505460E463C4A136823F080631360D8
:1042B800FCF706FA0446384B1B6813F0006F06D06B
:1042C800FCF7FEF9031B022BF5D9032070BD324B16
:1042D8009A6A22F47C32296842EA01329A626A6850
:1042E800013AC2F30802A9680139490289B20A43AE
:1042F800E9680139090401F4FE010A432969013911
:10430800090601F0FE410A439A63DA6A22F0C00204
:1043180069690A43DA62DA6A22F02002A9690A4363
:10432800DA62DA6A22F01002DA62DA6B6FF3CF022D
:10433800E96942EAC102DA63DA6A42F01002DA6233
:10434800C6B91A46DB6A43F40023D362124A1368DB
:1043580043F080631360FCF7B3F904460E4B1B6807
:1043680013F0006F14D1FCF7ABF9001B0228F5D944
:104378000320ABE7012E05D0074AD36A43F40013A4
:10438800D362E3E7044AD36A43F48013D362DDE7D8
:1043980000209BE70120704700440258404B9B6A6D
:1043A80003F00303032B79D070B505460E463C4A4B
:1043B800136823F080531360FCF782F90446384BE6
:1043C8001B6813F0005F06D0FCF77AF9031B022B79
:1043D800F5D9032070BD324B9A6A22F07C722968A5
:1043E80042EA01529A626A68013AC2F30802A9686D
:1043F8000139490289B20A43E9680139090401F41B
:10440800FE010A4329690139090601F0FE410A4300
:104418001A64DA6A22F4406269690A43DA62DA6A7B
:1044280022F40072A9690A43DA62DA6A22F4807215
:10443800DA625A6C6FF3CF02E96942EAC1025A6440
:10444800DA6A42F48072DA62C6B91A46DB6A43F461
:104458008003D362124A136843F080531360FCF759
:104468002FF904460E4B1B6813F0005F14D1FCF7BC
:1044780027F9001B0228F5D90320ABE7012E05D048
:10448800074AD36A43F08073D362E3E7044AD36AE6
:1044980043F40003D362DDE700209BE70120704767
:1044A80000440258F8B50446036813F0006F30D092
:1044B800436EB3F5001F26D00ED8ABB1B3F5801FFD
:1044C80007D102210430FFF7E5FE054695B12E46D7
:1044D80021E0012635461EE0B3F5401F01D1002535
:1044E80008E00126354616E0954AD36A43F40033BE
:1044F800D3620025924A136D23F44013616E0B4377
:104508001365002607E002212430FFF747FF054620
:10451800DCE700263546236813F4807F14D0636DEA
:10452800042B2FD8DFE803F0032127080800844A6A
:10453800D36A43F40033D3623DBB814A136D23F041
:104548000703616D0B431365236813F4007F36D0AE
:10455800A36D802B47D01DD823B3402B17D1002142
:10456800201DFFF797FE054621E00021201DFFF7DB
:1045780091FE0546E0E7002104F12400FFF70EFF55
:104588000546D9E701263546DEE72E46DCE7012653
:10459800354614E0C02B0AD0B3F5807F07D001263A
:1045A80035460CE0664AD36A43F40033D3620DBB48
:1045B800634A136D23F4E073A16D0B4313652368FD
:1045C80013F4806F3BD0D4F8A430B3F5800F2ED00D
:1045D80015D8EBB1B3F5001F0ED10021201DFFF750
:1045E80059FE054619E0002104F12400FFF7D6FE24
:1045F8000546DCE72E46E2E7012635461FE0B3F51F
:10460800C00F0AD0B3F5000F07D00126354616E0D3
:104618004B4AD36A43F40033D3627DB9484A936D59
:1046280023F46003D4F8A4100B43936507E000213A
:1046380004F12400FFF7B2FE0546EEE72E46236894
:1046480013F4006F2AD0D4F8A830B3F1007F51D00A
:104658000CD8A3B1B3F1807F05D10021201DFFF74D
:1046680019FE054610E00126354617E0B3F1407FF4
:104678000AD0B3F1806F07D0012635460EE0304AE4
:10468800D36A43F40033D362002D3AD12C4A936D98
:1046980023F0E063D4F8A8100B439365236813F064
:1046A800007F13D0A36C202B35D02FD833B1102B1B
:1046B80029D1234AD36A43F40033D3628DBB204AFD
:1046C800D36C23F03003A16C0B43D364236813F439
:1046D800805F45D0E36DB3F5005F00F0898025D891
:1046E80083B3B3F5805F1ED10021201DFFF7D2FDF3
:1046F80005462CE0002104F12400FFF74FFE054693
:10470800C2E72E46CAE701263546DFE7302BD5D06B
:1047180001263546DAE70221201DFFF7BBFD0546D5
:10472800CCE72E46D2E70126354619E0B3F5405FBF
:104738000DD0B3F5804F0AD00126354610E000BFF2
:1047480000440258754AD36A43F40033D362002DFB
:1047580055D1724A136D23F4E043E16D0B431365A1
:10476800236813F4005F16D0236EB3F5003F57D0CB
:104778004AD83BB1B3F5803F43D10121201DFFF753
:1047880089FD0546002D52D1644A136D23F4E023B8
:10479800216E0B431365236813F4804F18D0D4F8A7
:1047A800AC30B3F1005F53D046D83BB1B3F1805F72
:1047B8003FD10121201DFFF76DFD0546002D4ED18B
:1047C800564A936D23F0E043D4F8AC100B4393653D
:1047D800236813F4004F51D0E36EB3F1805F40D0EB
:1047E800B3F1005F55D0002B40D00126354645E097
:1047F800002104F12400FFF7D1FD0546A7E72E4666
:10480800AEE701263546C6E7B3F5802FBAD0B3F533
:10481800A02FB7D0B3F5403FB4D001263546BAE74C
:10482800012104F12400FFF7B9FD0546AAE72E4649
:10483800B1E701263546CBE7B3F1804FBED0B3F1DF
:10484800A04FBBD0B3F1405FB8D001263546BFE7D3
:10485800012104F12400FFF7A1FD0546AEE72E462D
:10486800B6E72E4AD36A43F40033D362BDB92B4A64
:10487800136D23F04053E16E0B431365236813F067
:10488800807F1BD0636C032B42D8DFE803F00F0A4C
:104898003B0F0121201DFFF7FDFC0546E6E72E46EC
:1048A800ECE71E4AD36A43F40033D3629DBB1B4A2C
:1048B800D36C23F00303616C0B43D364236813F4B4
:1048C800800F2DD1236813F0010F00F0A480A36F8F
:1048D800282B00F29E80DFE803F08C9C9C9C9C9C1B
:1048E8009C9C879C9C9C9C9C9C9C959C9C9C9C9C1C
:1048F8009C9C8C9C9C9C9C9C9C9C8C9C9C9C9C9C10
:104908009C9C8C000221201DFFF7C4FC0546CDE7C6
:1049180001263546D2E72E46D0E700BF00440258AC
:10492800574A136843F480731360FBF7C9FE0746C0
:10493800534B1B6813F4807F05D1FBF7C1FEC01BE6
:104948006428F5D90325002D4AD14E4B1B6FD4F8A6
:10495800B020534013F4407F0CD04A4B1A6F22F416
:104968004072196F41F480311967196F21F4803151
:1049780019671A67D4F8B030B3F5807F15D08DBBAE
:10498800D4F8B03003F44072B2F5407F1ED03D4AEF
:10499800136923F47C5313613A490B6FD4F8B020A0
:1049A800C2F30B0213430B678CE7FBF789FE07463C
:1049B800344B1B6F13F0020FE1D1FBF781FEC01BD4
:1049C80041F288339842F3D90325D8E72D48026984
:1049D80022F47C522C4901EA131313430361DBE7E9
:1049E8002E466FE72E466DE70121201DFFF752FC8A
:1049F8000546E5B9234A536D23F03803A16F0B43ED
:104A0800536508E0012104F12400FFF7C7FC0546BF
:104A1800EFE701263546236813F0020F16D0636FBF
:104A2800052B28D8DFE803F00A05200A0A0A2E46D3
:104A3800F1E70121201DFFF72DFC0546F5B9114AC4
:104A4800536D23F00703616F0B435365236813F01D
:104A5800040F2BD0D4F89030052B00F2D780DFE874
:104A680003F01A15CE1A1A1A012104F12400FFF7CF
:104A780095FC0546E2E701263546E7E72E46E5E7D9
:104A88000048025800440258CFFFFF000121201DB2
:104A9800FFF700FC0546002D40F0BB80B74A936D38
:104AA80023F00703D4F890100B439365236813F0A1
:104AB800200F1CD0D4F88C30B3F1005F00F0BD801B
:104AC80000F2AC8043B1B3F1805F40F0A4800021D4
:104AD800201DFFF7DFFB0546002D40F0B580A74AF3
:104AE800536D23F0E043D4F88C100B4353652368CF
:104AF80013F0400F1CD0D4F89830B3F5006F00F0D5
:104B0800B78000F2A68043B1B3F5806F40F09E8075
:104B18000021201DFFF7BEFB0546002D40F0AF80A9
:104B2800964A936D23F4E053D4F898100B43936599
:104B3800236813F0800F1CD0D4F89C30B3F5804F55
:104B480000F0B18000F2A08043B1B3F5005F40F0FF
:104B580098800021201DFFF79DFB0546002D40F0A1
:104B6800A980864A936D23F46043D4F89C100B43C4
:104B78009365236813F0080F0DD0D4F88030B3F58F
:104B8800805F00F099807D4A536D23F44053D4F838
:104B980080100B435365236813F0100F0DD0D4F821
:104BA8009430B3F5807F00F09180744A936D23F4BC
:104BB8004073D4F894100B439365236813F4002FC3
:104BC80000F09980D4F8A030B3F5803F00F08880D9
:104BD800B3F5003F07D0002B40F089800021201D4D
:104BE800FFF758FB0546002D40F08480634A936D1B
:104BF80023F44033D4F8A0100B4393657BE00121E4
:104C080004F12400FFF7CAFB054644E701263546B0
:104C18004CE72E464AE70126354668E7B3F1804F50
:104C28003FF45AAFB3F1A04F3FF456AFB3F1405F32
:104C38003FF452AF0126354659E7022104F124001A
:104C4800FFF7ACFB054647E72E4650E701263546F9
:104C58006EE7B3F5805F3FF460AFB3F5A05F3FF454
:104C68005CAFB3F5406F3FF458AF012635465FE7B8
:104C7800022104F12400FFF791FB05464DE72E467B
:104C880056E70126354674E7B3F5004F3FF466AFA3
:104C9800B3F5204F3FF462AFB3F5C04F3FF45EAFBA
:104CA8000126354665E7022104F12400FFF776FB6B
:104CB800054653E72E465CE7022104F12400FFF77E
:104CC8006DFB00283FF45FAF01265CE7022104F189
:104CD8002400FFF763FB00283FF467AF012664E771
:104CE800022104F12400FFF759FB05467BE7012662
:104CF800354600E02E46236813F4802F18D0D4F8E8
:104D08008430B3F5001F1FD0B3F5401F07D0B3F5AB
:104D1800801F20D1194AD36A43F40033D362EDB916
:104D2800164A536D23F44013D4F884100B4353658B
:104D3800236813F4803F2AD0E36C8BB1B3F5803F2E
:104D48001ED00126354622E0012104F12400FFF798
:104D580025FB0546E3E701263546E9E72E46E7E762
:104D6800064AD36A43F40033D3627DB9034AD36C4D
:104D780023F48033E16C0B43D36408E00044025809
:104D88000221201DFFF786FA0546EEE72E46236826
:104D980013F0005F10D1236813F4003F26D0E36FAF
:104DA800B3F5807F14D010D9B3F5007F15D0B3F5D3
:104DB800407F12D0012619E0022104F12400FFF7F8
:104DC800EDFA0028E7D00126E5E733B101260DE02A
:104DD800214AD36A43F40033D362002D31D11E4AED
:104DE800536D23F44073E16F0B435365236813F449
:104DF800801F06D0184A136D23F00043216F0B4320
:104E08001365236813F4001F06D0134A136D23F0AB
:104E18008073A16E0B431365236813F0804F09D08C
:104E28000D4B1A6922F400421A611A69D4F8B810B5
:104E38000A431A612368002B05DB06B101263046B8
:104E4800F8BD2E46D2E7044AD36C23F04053216DB7
:104E58000B43D364F1E700BF0044025808B5FFF7DD
:104E6800F7F9054B1B6AC3F30213044AD35C03F03A
:104E78001F03D84008BD00BF0044025834FE000894
:104E880010B4794B9A6A9C6AC4F3053CD96AC1F399
:104E98000011DB6BC3F3CC0301FB03F314F47C3F79
:104EA80000F0DD8002F0030207EE903AF8EE677A30
:104EB800012A4BD0022A00F09880002A40F0B280E4
:104EC800694B1B6813F0200F23D067490A68C2F3A7
:104ED800C102664BD34007EE103AF8EE476A07EE78
:104EE80010CAB8EE476A86EE867A8B6BC3F308035E
:104EF80006EE903AF8EE666A9FED5D6A67EE867A8E
:104F080076EEA77AF7EE006A77EEA67A27EE277A8A
:104F180038E007EE10CAF8EE476A9FED566A86EE4B
:104F2800267A514B9B6BC3F3080306EE903AF8EED2
:104F3800666A9FED4F6A67EE867A76EEA77AF7EE95
:104F4800006A77EEA67A27EE277A1BE007EE10CAEA
:104F5800F8EE476A9FED486A86EE267A424B9B6BCD
:104F6800C3F3080306EE903AF8EE666A9FED406ACE
:104F780067EE867A76EEA77AF7EE006A77EEA67A7B
:104F880027EE277A384A936BC3F3462307EE903A05
:104F9800F8EE677AF7EE006A77EEA67A87EE276A68
:104FA800BCEEC66A80ED006A936BC3F3064307EE56
:104FB800903AF8EE677A77EEA67A87EE276ABCEE23
:104FC800C66A80ED016A936BC3F3066307EE903AF5
:104FD800F8EE677A77EEA67AC7EE276AFCEEE66AFD
:104FE800C0ED026A5DF8044B704707EE10CAF8EE90
:104FF800476A9FED226A86EE267A1B4B9B6BC3F3AA
:10500800080306EE903AF8EE666A9FED196A67EEB5
:10501800867A76EEA77AF7EE006A77EEA67A27EE1A
:10502800277AAFE707EE10CAF8EE476A9FED126AD3
:1050380086EE267A0C4B9B6BC3F3080306EE903A78
:10504800F8EE666A9FED0A6A67EE867A76EEA77AC8
:10505800F7EE006A77EEA67A27EE277A92E7002322
:10506800036043608360BDE7004402580090D003AA
:10507800000000390024744C0024744A20BCBE4B44
:1050880010B4794B9A6A9C6AC4F3055CD96AC1F377
:1050980000215B6CC3F3CC0301FB03F314F07C7FAA
:1050A80000F0DD8002F0030207EE903AF8EE677A2E
:1050B800012A4BD0022A00F09880002A40F0B280E2
:1050C800694B1B6813F0200F23D067490A68C2F3A5
:1050D800C102664BD34007EE103AF8EE476A07EE76
:1050E80010CAB8EE476A86EE867A0B6CC3F30803DB
:1050F80006EE903AF8EE666A9FED5D6A67EE867A8C
:1051080076EEA77AF7EE006A77EEA67A27EE277A88
:1051180038E007EE10CAF8EE476A9FED566A86EE49
:10512800267A514B1B6CC3F3080306EE903AF8EE4F
:10513800666A9FED4F6A67EE867A76EEA77AF7EE93
:10514800006A77EEA67A27EE277A1BE007EE10CAE8
:10515800F8EE476A9FED486A86EE267A424B1B6C4A
:10516800C3F3080306EE903AF8EE666A9FED406ACC
:1051780067EE867A76EEA77AF7EE006A77EEA67A79
:1051880027EE277A384A136CC3F3462307EE903A82
:10519800F8EE677AF7EE006A77EEA67A87EE276A66
:1051A800BCEEC66A80ED006A136CC3F3064307EED3
:1051B800903AF8EE677A77EEA67A87EE276ABCEE21
:1051C800C66A80ED016A136CC3F3066307EE903A72
:1051D800F8EE677A77EEA67AC7EE276AFCEEE66AFB
:1051E800C0ED026A5DF8044B704707EE10CAF8EE8E
:1051F800476A9FED226A86EE267A1B4B1B6CC3F327
:10520800080306EE903AF8EE666A9FED196A67EEB3
:10521800867A76EEA77AF7EE006A77EEA67A27EE18
:10522800277AAFE707EE10CAF8EE476A9FED126AD1
:1052380086EE267A0C4B1B6CC3F3080306EE903AF5
:10524800F8EE666A9FED0A6A67EE867A76EEA77AC6
:10525800F7EE006A77EEA67A27EE277A92E7002320
:10526800036043608360BDE7004402580090D003A8
:10527800000000390024744C0024744A20BCBE4B42
:1052880010B4794B9A6A9C6AC4F3051CD96A01F078
:1052980001015B6BC3F3CC0301FB03F314F47C7FC4
:1052A80000F0DD8002F0030207EE903AF8EE677A2C
:1052B800012A4BD0022A00F09880002A40F0B280E0
:1052C800694B1B6813F0200F23D067490A68C2F3A3
:1052D800C102664BD34007EE103AF8EE476A07EE74
:1052E80010CAB8EE476A86EE867A0B6BC3F30803DA
:1052F80006EE903AF8EE666A9FED5D6A67EE867A8A
:1053080076EEA77AF7EE006A77EEA67A27EE277A86
:1053180038E007EE10CAF8EE476A9FED566A86EE47
:10532800267A514B1B6BC3F3080306EE903AF8EE4E
:10533800666A9FED4F6A67EE867A76EEA77AF7EE91
:10534800006A77EEA67A27EE277A1BE007EE10CAE6
:10535800F8EE476A9FED486A86EE267A424B1B6B49
:10536800C3F3080306EE903AF8EE666A9FED406ACA
:1053780067EE867A76EEA77AF7EE006A77EEA67A77
:1053880027EE277A384A136BC3F3462307EE903A81
:10539800F8EE677AF7EE006A77EEA67A87EE276A64
:1053A800BCEEC66A80ED006A136BC3F3064307EED2
:1053B800903AF8EE677A77EEA67A87EE276ABCEE1F
:1053C800C66A80ED016A136BC3F3066307EE903A71
:1053D800F8EE677A77EEA67AC7EE276AFCEEE66AF9
:1053E800C0ED026A5DF8044B704707EE10CAF8EE8C
:1053F800476A9FED226A86EE267A1B4B1B6BC3F326
:10540800080306EE903AF8EE666A9FED196A67EEB1
:10541800867A76EEA77AF7EE006A77EEA67A27EE16
:10542800277AAFE707EE10CAF8EE476A9FED126ACF
:1054380086EE267A0C4B1B6BC3F3080306EE903AF4
:10544800F8EE666A9FED0A6A67EE867A76EEA77AC4
:10545800F7EE006A77EEA67A27EE277A92E700231E
:10546800036043608360BDE7004402580090D003A6
:10547800000000390024744C0024744A20BCBE4B40
:1054880000B58BB0B0F5807F1BD0B0F5007F48D059
:10549800B0F5806F79D0B0F5006F00F0AD80B0F551
:1054A800805F00F0E080B0F5002F00F01381B0F5C8
:1054B800803F00F03B81B0F5804F00F0498100202B
:1054C8000CE0974B1B6D03F00703042B00F2668179
:1054D800DFE803F0070C1103160092480BB05DF8E3
:1054E80004FB07A8FFF7CCFE0898F7E704A8FFF726
:1054F800C7FC0498F2E701A8FFF7C2FD0198EDE7A1
:10550800874BDB6C13F0405300F04A81B3F1805FA6
:1055180000F04881B3F1005F01D00020DEE7824847
:10552800DCE77F4B1B6D03F4E073802B26D014D986
:10553800C02B00F03981B3F5807F18D1784BDB6C34
:1055480013F0405300F03281B3F1805F00F03081F6
:10555800B3F1005F17D00020C0E753B1402B04D14E
:1055680004A8FFF78DFC0498B8E70020B6E70020F0
:10557800B4E707A8FFF784FE0898AFE701A8FFF78C
:105588007FFD0198AAE76848A8E7654B9B6D03F47F
:105598006003B3F5800F28D015D9B3F5C00F00F01C
:1055A8000981B3F5000F19D15D4BDB6C13F0405343
:1055B80000F00281B3F1805F00F00081B3F1005F79
:1055C80018D000208AE75BB1B3F5001F04D104A806
:1055D800FFF756FC049881E700207FE700207DE76D
:1055E80007A8FFF74DFE089878E701A8FFF748FDE0
:1055F800019873E74C4871E7494B9B6D03F0E063F2
:10560800B3F1007F28D015D9B3F1407F00F0D880DE
:10561800B3F1806F19D1424BDB6C13F0405300F0AB
:10562800D180B3F1805F00F0CF80B3F1005F18D074
:10563800002053E75BB1B3F1807F04D104A8FFF7E2
:105648001FFC04984AE7002048E7002046E707A81F
:10565800FFF716FE089841E701A8FFF711FD01982A
:105668003CE731483AE72E4B1B6D03F4E043B3F5B2
:10567800005F28D015D9B3F5405F00F0A780B3F5D7
:10568800804F19D1264BDB6C13F0405300F0A080FB
:10569800B3F1805F00F09E80B3F1005F18D0002066
:1056A8001CE75BB1B3F5805F04D104A8FFF7E8FB02
:1056B800049813E7002011E700200FE707A8FFF779
:1056C800DFFD08980AE701A8FFF7DAFC019805E76B
:1056D800154803E7124B9B6D03F44033B3F5803F45
:1056E80009D0B3F5003F0BD0002B75D104A8FFF704
:1056F800C7FB0498F2E601A8FFF7C2FC0398EDE6A1
:10570800074BDB6C13F0405368D0B3F1805F67D070
:10571800B3F1005F01D00020E0E60348DEE600BFF9
:10572800004402580080BB0040787D01304BDB6CA0
:1057380013F4803302D033B90020CFE607A8FFF76F
:105748009FFD0898CAE604A8FFF79AFB0698C5E6E5
:10575800274B9B6D03F0E043B3F1405F42D00BD879
:10576800B3F1805F10D0B3F1005F12D013B9FFF727
:1057780075FBB3E60020B1E6B3F1804F34D0B3F146
:10578800A04F33D11B48A9E604A8FFF779FB059879
:10579800A4E601A8FFF774FC02989FE600209DE6A6
:1057A80015489BE6154899E6154897E6124895E688
:1057B800124893E6124891E60F488FE60F488DE6A7
:1057C8000F488BE60C4889E60C4887E60C4885E6C6
:1057D800094883E6094881E600207FE606487DE619
:1057E80006487BE6044879E6044877E6002075E633
:1057F8000044025840787D010090D00300093D0024
:105808000080BB00002836D038B50446437AB3B1CF
:10581800022363722268136823F0200361680B4334
:1058280013602268136843F00403136023685B68FD
:1058380013F0400F07D004236372012038BD0372B0
:1058480006F030FFE4E7FAF73BFF054623685B689C
:1058580013F0040F0AD0FAF733FF401B0228F5D9DA
:10586800042363720223E3600120E7E701236372E4
:105878000020E060E2E701207047F8B5037A012BC9
:105888002BD004460E4601230372457AEDB29D42A1
:1058980006D00423C3600125002323722846F8BDDF
:1058A80002234372FAF70CFF074623685A6812F07E
:1058B800010F0BD1FAF704FFC01B0228F5D9012309
:1058C80063720223E36000232372E7E79B68236186
:1058D8003360012363720025DEE70225DEE7844694
:1058E8000020CCF84400CCF84C00DCF80400022876
:1058F80018BF00281FD10020CCF850004FF480308A
:10590800CCF85C004FF6FF70CCF874000020CCF89F
:105918006800CCF8703013F0010F68D179B9CCF871
:1059280060004FF48020CCF86400032A3ED8DFE8FA
:1059380002F00E3F1F2E0120CCF85000DEE74FF496
:105948000030CCF860000020CCF86400EDE780203F
:10595800CCF848005B085801CCF854001B01CCF87F
:1059680058304023CCF86C300020022941D07047D1
:10597800C020CCF848005B089801CCF854005B01C3
:10598800CCF858308023CCF86C300020EDE7E020CC
:10599800CCF848005B089801CCF854005B01CCF8BF
:1059A80058308023CCF86C300020DEE70120DCE79B
:1059B80010B48020CCF848005B089C01CCF8544017
:1059C8005B01CCF85830CCF86C000020022902D0DA
:1059D8005DF8044B7047012A05D0022AF8D1082344
:1059E800CCF86830F4E71023CCF86830F0E70120F1
:1059F8007047012A05D0022AB9D10823CCF86830AB
:105A080070471023CCF86830704730B400244464E1
:105A1800C4644468022C18BF002C18D10124046502
:105A28000024C4654FF4003505664FF480254566AB
:105A3800846603674FF6FF74446704290AD00D2172
:105A48008165032A29D8DFE802F00811182000240C
:105A58000465E5E701218165F3E7802282641B0183
:105A680043654023C366002030BC704780228264AF
:105A78005B014365C2660020F6E7C02282645B01D1
:105A880043658023C3660020EEE7E02282645B0161
:105A980043658023C3660020E6E70120E4E7012987
:105AA8000AD00123426C082A08D04268023A012A27
:105AB8000CD943F0040070470923F3E74268012A30
:105AC80018BF032AF1D143F01003EEE743F060005A
