:020000040800F2
:1000000000000220696200087D5E00087F5E000833
:10001000815E0008835E0008855E00080000000025
:10002000000000000000000000000000875E0008E3
:10003000895E0008000000008B5E00088D5E0008ED
:10004000B9620008B9620008B9620008B962000824
:10005000B9620008B9620008B9620008B962000814
:10006000B9620008B9620008B9620008B962000804
:10007000955E0008A55E0008B55E0008C55E000834
:10008000B9620008B9620008B9620008B9620008E4
:10009000B9620008B9620008B9620008B9620008D4
:1000A000B9620008B9620008B9620008B9620008C4
:1000B000B9620008B9620008B9620008B9620008B4
:1000C000B9620008B9620008B9620008B9620008A4
:1000D000D55E0008B9620008B9620008B96200087C
:1000E000B9620008B962000800000000B9620008A7
:1000F000B9620008B9620008B9620008B962000874
:10010000B9620008B9620008B9620008B962000863
:10011000B9620008B9620008B9620008B962000853
:10012000B9620008B9620008B9620008B962000843
:10013000B9620008B9620008B9620008B962000833
:1001400000000000000000000000000000000000AF
:10015000B9620008B9620008B9620008B962000813
:10016000B9620008B9620008B9620008B962000803
:10017000B9620008B9620008B96200080000000016
:10018000B9620008B9620008B9620008B9620008E3
:10019000B9620008B9620008B9620008B9620008D3
:1001A000B9620008B9620008B9620008B9620008C3
:1001B000B9620008B9620008B9620008B9620008B3
:1001C000B9620008B9620008B9620008B9620008A3
:1001D000B9620008B9620008B9620008B962000893
:1001E000B9620008B9620008B9620008B962000883
:1001F000B9620008B9620008B9620008B962000873
:10020000B9620008B9620008B9620008B962000862
:10021000B9620008B9620008B9620008B962000852
:10022000B9620008B9620008B96200080000000065
:10023000B9620008B962000800000000B962000855
:10024000B9620008B9620008B9620008B962000822
:10025000B9620008B9620008B9620008B962000812
:10026000B9620008B9620008B9620008B962000802
:10027000B9620008B9620008B96200080000000015
:10028000B9620008B9620008B96200080000000005
:0802900000000000B962000843
:1002980010B5054C237833B9044B13B10448AFF3B8
:1002A80000800123237010BDD4000020000000004E
:1002B8001463000808B5034B1BB103490348AFF3A7
:1002C800008008BD00000000D8000020146300086A
:1002D800104B1B780BB90120704710B504464FF43A
:1002E8007A70B0FBF3F30C4A1068B0FBF3F000F03F
:1002F800C1F868B90F2C01D901200AE00022214673
:100308004FF0FF3000F076F8024B5C60002000E010
:10031800012010BD00000020CC00002010B50320F3
:1003280000F056F802F098F90F498B69C3F30323DC
:100338000E4AD35C03F01F03D8408B6903F00F0308
:10034800D35C03F01F0320FA03F3094A1360094B37
:1003580018600020FFF7BCFF10B10124204610BD33
:10036800044605F075FDF9E70044025834630008B7
:10037800D0000020CC000020034B1B78034A1168F2
:100388000B441360704700BF0000002020010020CC
:10039800014B1868704700BF2001002038B504469B
:1003A800FFF7F6FF0546B4F1FF3F02D0044B1B7878
:1003B8001C44FFF7EDFF401BA042FAD338BD00BF35
:1003C80000000020014B1868000C70470010005C0A
:1003D8000649CB6823F4E0631B041B0C000200F4FD
:1003E800E0600343024A1A43CA60704700ED00E028
:1003F8000000FA0530B4154BDB68C3F30223C3F1E0
:100408000704042C28BF04241D1D062D14D9033B02
:100418004FF0FF3505FA04F421EA0401994005FA82
:1004280003F322EA03031943002807DB0901C9B2D1
:10043800074B195430BC70470023E9E700F00F0060
:100448000901C9B2034B1954F4E700BF00ED00E0FD
:1004580000E400E014ED00E0002807DB00F01F02D4
:10046800400901239340024A42F82030704700BFF8
:1004780000E100E00138B0F1807F0AD2064B5860F5
:10048800064AF02182F823100020986007221A609B
:1004980070470120704700BF10E000E000ED00E069
:1004A800BFF35F8F044A536A23F480335362034BCC
:1004B80000225A60704700BF00ED00E090ED00E0B8
:1004C80040F00100054B5860054A536A43F48033F5
:1004D8005362BFF34F8FBFF36F8F704790ED00E00B
:1004E80000ED00E04278134B9A60037823B9114B72
:1004F8000022DA601A61704743680E4AD360017BB4
:10050800C37A1B0643EA0173817A43EAC143417BFC
:1005180043EA8143817B43EA4143C17B43EA014388
:10052800417A43EA0123017A43EA410301780B4304
:100538001361704790ED00E0F0B4876D0468654E74
:10054800654DAC4218BFB44242D01835AC423FD0DA
:100558001835AC423CD01835AC4239D01835AC42CD
:1005680036D01835AC4233D01835AC4230D005F50A
:100578005675AC422CD01835AC4229D01835AC424F
:1005880026D01835AC4223D01835AC4220D01835C7
:10059800AC421DD01835AC421AD01835AC4217D031
:1005A8004E4DAC4214D01435AC4211D01435AC4287
:1005B8000ED01435AC420BD01435AC4208D01435EB
:1005C800AC4205D01435AC4202D01435AC4207D148
:1005D800446E856E6560C46E14B1046F456F6560C6
:1005E80004683C4E3C4DAC4218BFB44252D018355A
:1005F800AC424FD01835AC424CD01835AC4249D03B
:100608001835AC4246D01835AC4243D01835AC4208
:1006180040D005F55675AC423CD01835AC4239D0BF
:100628001835AC4236D01835AC4233D01835AC4208
:1006380030D01835AC422DD01835AC422AD01835F8
:10064800AC4227D0254E264DAC4218BFB44211D03B
:10065800244DAC420ED01435AC420BD01435AC420C
:1006680008D01435AC4205D01435AC4202D014354C
:10067800AC4223D1C46D04F01F050124AC407C605A
:10068800046863608368402B1FD00368996003681F
:10069800DA6013E0C46D04F01F053F24AC40BC6071
:1006A80005682C6824F480242C60046863608368DF
:1006B800402B05D0036899600368DA60F0BC704786
:1006C80003689A600368D960F8E703689A6003686A
:1006D800D960F3E71000024028000240085402588D
:1006E8001C5402583054025802682849284B9A4230
:1006F80018BF8A422FD018339A422CD018339A4206
:1007080029D018339A4226D018339A4223D0183366
:100718009A4220D018339A421DD003F556739A4254
:1007280019D018339A4216D018339A4213D0183376
:100738009A4210D018339A420DD018339A420AD0F0
:1007480018339A4207D018339A4204D022F0FF0295
:100758008265806D704710B4D3B2103B0D49A1FB80
:1007680003131B0903F007010B4C615CC165032BE4
:1007780006D80A4B13408365806D5DF8044B7047BB
:10078800064B134004338365F6E700BF10000240B0
:1007980028000240ABAAAAAA2C63000800FCFFFFAD
:1007A80083699BB9836A012B0AD01BB1022B01D044
:1007B80000207047C36A13F0807F2ED10020704755
:1007C800C36AB3F1C07F2AD000207047B3F5005F39
:1007D80006D0836A022B2AD9032B16D00020704733
:1007E800836A032B03D8DFE803F01C041C0A0020EB
:1007F8007047C36A13F0807F15D100207047C36A21
:10080800B3F1C07F11D000207047C36A13F0807F16
:1008180001D0012070470020704701207047012057
:100828007047012070470120704701207047012060
:100838007047000003682249224A934218BF8B423E
:1008480028D01432934225D01432934222D0143245
:1008580093421FD0143293421CD01432934219D0C1
:100868001432934216D0DAB2103A1749A1FB021299
:10087800120916491944A8291FD9154B13449B007E
:100888000366144B436602F01F02012303FA02F2C7
:1008980082667047DBB2083B0F4AA2FB03231B09A1
:1008A8000E4A1A44920002660D4A426603F01F037C
:1008B800012202FA03F3836670470832DDE700BFBE
:1008C800085402581C540258ABAAAAAAF0FBFDBF50
:1008D8000082001080080240CDCCCCCC00960016D7
:1008E8008058025801794A1E072A2CD830B4036868
:1008F800154D164CA34218BFAB4218D01434A3426E
:1009080015D01434A34212D01434A3420FD0143497
:10091800A3420CD01434A34209D01434A34206D005
:100928000B4B0B449B00C3660A4B036705E00A4B5D
:100938000B449B00C366094B0367012303FA02F2C9
:10094800426730BC70477047085402581C5402581C
:100958003F820010400902403F9600164059025855
:1009680070B50446FFF714FD002C00F0BD81054664
:100978002368B749B74A934218BF8B420CBF01227C
:10098800002250D030318B424DD018318B424AD0A2
:1009980018318B4247D018318B4244D018318B42E2
:1009A80041D018318B423ED001F556718B423AD076
:1009B80018318B4237D018318B4234D018318B42E2
:1009C80031D018318B422ED018318B422BD01831B0
:1009D8008B4228D018318B4225D09F499F4A934299
:1009E80018BF8B4200F024819D4A934200F0208179
:1009F8001432934200F01C811432934200F01881A3
:100A08001432934200F014811432934200F01081A2
:100A18001432934200F00C8140236365032384F869
:100A2800353001204AE0002184F83410022184F88E
:100A380035107ABB8B4A93422CD01832934229D076
:100A48001832934226D01832934223D01832934258
:100A580020D0183293421DD002F55672934219D015
:100A68001832934216D01832934213D01832934258
:100A780010D0183293420DD0183293420AD018324F
:100A8800934207D01832934204D01A6822F0010228
:100A98001A6003E01A6822F001021A6023681A68D3
:100AA80012F0010F0BD0FFF773FC401B0528F5D996
:100AB80020236365032384F83530012070BD1A684C
:100AC80069481040A168E2680A4321690A436169DC
:100AD8000A43A1690A43E1690A43216A0A430243B6
:100AE800616A042900F099806049086860490140FA
:100AF800B1F1005F11D36168A1F12905A1F13F00AF
:100B0800032888BF052D06D9A1F14700012802D97D
:100B18004F39032901D842F480121A602668756992
:100B280025F00705636A1D43042B08D1A36A1D43FA
:100B3800E36A23B12046FFF733FE002872D17561BE
:100B48002046FFF7D1FDE36D03F01F023F239340DA
:100B5800836023683E493F4A934218BF8B4242D084
:100B6800183293423FD0183293423CD01832934205
:100B780039D01832934236D01832934233D01832D3
:100B8800934230D002F5567293422CD018329342D9
:100B980029D01832934226D01832934223D01832E3
:100BA800934220D0183293421DD0183293421AD063
:100BB8001832934217D0284A934214D014329342E1
:100BC80011D0143293420ED0143293420BD0143207
:100BD800934208D01432934205D01432934202D083
:100BE8001432934213D12046FFF724FEA368802BCA
:100BF8006DD0236E22791A60636EA26E5A606368A4
:100C0800013B072B66D90023E3662367636700204F
:100C18006065012384F8353050E7E16A206B0143B1
:100C28000A4361E740236365012084F8350045E7FE
:100C3800002284F83420022284F835201A680D49ED
:100C48001140A268402A1AD0802A15D0002217E045
:100C58001000024028000240085402581C54025850
:100C680030540258400002403F8010FE0010005CE3
:100C78000000FFFF0F00FEFF4FF4804200E010224B
:100C8800E06842EAD002206942EAD002606942EA9A
:100C9800D002A06942EAD002E06942EAD002206AA2
:100CA80042EA10120A431A602268104B1344104A91
:100CB800A2FB03231B099B00E3652046FFF714FDF5
:100CC800E36D03F01F0201239340436041E70023D3
:100CD80063608EE72046FFF705FEE36E00221A6088
:100CE800236F626F5A6092E70120E7E6F8ABFDA731
:100CF800CDCCCCCC002800F03E8170B5044690F8ED
:100D08003400012800F03981012084F8340094F877
:100D18003500C0B2012807D0002384F834304FF4DE
:100D280000636365012070BD022084F8350000204F
:100D380060652068924E934DA84218BFB0422FD0EC
:100D48001835A8422CD01835A84229D01835A84201
:100D580026D01835A84223D01835A84220D01835F7
:100D6800A8421DD005F55675A84219D01835A842D5
:100D780016D01835A84213D01835A84210D0183507
:100D8800A8420DD01835A8420AD01835A84207D075
:100D98001835A84204D0056825F00105056003E070
:100DA800056825F0010505602046FFF7C5FB2368A7
:100DB8007349744A934218BF8B4238D01832934211
:100DC80035D01832934232D0183293422FD018328D
:100DD80093422CD01832934229D01832934226D00D
:100DE80002F55672934222D0183293421FD018321D
:100DF80093421CD01832934219D01832934216D01D
:100E08001832934213D01832934210D018329342BA
:100E18000DD01A6822F00E0242F00A021A60236C02
:100E280093B12268136843F0040313600CE01A6856
:100E380022F01E0242F016021A60236C23B12268C7
:100E4800136843F00803136023684D494D4A9342E1
:100E580018BF8B4242D0183293423FD01832934287
:100E68003CD01832934239D01832934236D01832D7
:100E7800934233D01832934230D002F556729342DF
:100E88002CD01832934229D01832934226D01832E7
:100E9800934223D01832934220D0183293421DD067
:100EA800183293421AD01832934217D0364A9342D6
:100EB80014D01432934211D0143293420ED014320B
:100EC80093420BD01432934208D01432934205D087
:100ED8001432934202D0143293420ED1236E1A6810
:100EE80012F4803F03D01A6842F480721A60E36EED
:100EF8001BB11A6842F480721A6023682049214A9B
:100F0800934218BF8B4230D0183293422DD01832FA
:100F180093422AD01832934227D01832934224D0D1
:100F28001832934221D0183293421ED002F55672DD
:100F380093421AD01832934217D01832934214D0E1
:100F48001832934211D0183293420ED0183293427D
:100F58000BD01832934208D01832934205D01A6841
:100F680042F001021A600020DDE61A6842F0010230
:100F78001A600020D7E6012070470220D3E600BFA0
:100F8800100002402800024008540258002800F0CF
:100F98003A8108B5024690F83530DBB2022B03D00F
:100FA80080234365012008BD0368994899498B420D
:100FB80018BF83420CBF0121002100F0E4803030CB
:100FC800834200F0E0801830834200F0DC80183063
:100FD800834200F0D8801830834200F0D480183063
:100FE800834200F0D0801830834200F0CC8000F5B6
:100FF8005670834200F0C7801830834200F0C380E7
:101008001830834200F0BF801830834200F0BB8064
:101018001830834200F0B7801830834200F0B38064
:101028001830834200F0AF801830834200F0AB8064
:10103800196821F00E0119601368A0F595607549CB
:101048008B4218BF83422BD073498B4228D018316A
:101058008B4225D018318B4222D018318B421FD0B9
:1010680018318B421CD018318B4219D001F55671BA
:101078008B4215D018318B4212D018318B420FD0C9
:1010880018318B420CD018318B4209D018318B4261
:1010980006D018318B4203D018318B4240F0AE8015
:1010A800196821F0010119601368594859498B42A0
:1010B80018BF834242D018318B423FD018318B423F
:1010C8003CD018318B4239D018318B4236D0183188
:1010D8008B4233D018318B4230D001F556718B4298
:1010E8002CD018318B4229D018318B4226D0183198
:1010F8008B4223D018318B4220D018318B421DD01F
:1011080018318B421AD018318B4217D043498B4281
:1011180014D014318B4211D014318B420ED01431BB
:101128008B420BD014318B4208D014318B4205D03E
:1011380014318B4202D014318B4217D1116E0B68D7
:1011480023F480730B60906DD36D03F01F010123AE
:101158008B404360536E916E5960D36E33B11968FA
:1011680021F480711960136F516F5960002382F860
:101178003430012382F83530136D002B45D01046EA
:10118800984700200FE7042082F8350081BB224AE7
:1011980093422DD0183293422AD01832934227D046
:1011A8001832934224D01832934221D018329342F5
:1011B8001ED002F5567293421AD01832934217D0B5
:1011C8001832934214D01832934211D018329342F5
:1011D8000ED0183293420BD01832934208D01832EE
:1011E800934205D01A6822F001021A600020DAE65C
:1011F8001A6822F001021A600020D4E6196821F06A
:101208000101196050E7012070470020CBE600BFBC
:1012180010000240280002404000024008540258D2
:10122800F0B583B0044600230193A24B1D68A24B7E
:10123800A3FB0535AD0A876D3E68D7F800C0036883
:101248009E499F48834218BF8B420CBF0120002053
:1012580061D09C4A93425ED0183293425BD01832D8
:10126800934258D01832934255D01832934252D0F4
:10127800183293424FD002F5567293424BD018322F
:10128800934248D01832934245D01832934242D004
:10129800183293423FD0183293423CD018329342CE
:1012A80039D01832934236D08749884A934218BFBA
:1012B8008B4212D0864A93420FD0143293420CD0FC
:1012C8001432934209D01432934206D01432934216
:1012D80003D01432934240F062821A68E16D01F043
:1012E8001F010420884010EA0C0F00F0A88212F0B9
:1012F800040F00F0A482786012F4004F00F05B82C3
:1013080012F4803F40F05182A36C002B00F047821A
:101318002046984743E2E26D02F01F0108228A4006
:10132800324241D070BB674A93422BD01832934265
:1013380028D01832934225D01832934222D018323E
:1013480093421FD0183293421CD002F55672934232
:1013580018D01832934215D01832934212D018324E
:1013680093420FD0183293420CD01832934209D0CE
:101378001832934206D01832934203D01A68C2F347
:10138800C00202E01A68C2F380026AB11A6822F049
:1013980004021A60E36D03F01F0208239340BB6048
:1013A800636D43F001036365E26D02F01F0226FAE4
:1013B80002F313F0010F37D02368404840498B42AD
:1013C80018BF83422CD018318B4229D018318B4258
:1013D80026D018318B4223D018318B4220D01831B7
:1013E8008B421DD018318B421AD001F556718B42B1
:1013F80016D018318B4213D018318B4210D01831C7
:101408008B420DD018318B420AD018318B4207D04D
:1014180018318B4204D018318B4201D01B6803E08D
:101428005B6913F0800F3BD1E36D03F01F030422C7
:1014380002FA03F3334251D02268204820498A42F5
:1014480018BF824246D018318A4243D018318A42A6
:1014580040D018318A423DD018318A423AD01831EA
:101468008A4237D018318A4234D001F556718A42FF
:1014780030D018318A422DD018318A422AD01831FA
:101488008A4227D018318A4224D018318A4221D082
:1014980018318A421ED018318A421BD013681DE0C9
:1014A800012303FA02F2BA60636D43F00203636535
:1014B800BAE700BFCC000020B5814E1B10000240E7
:1014C8002800024040000240085402581C540258A8
:1014D80030540258126812F0020F3DD1E36D03F048
:1014E8001F03102202FA03F333425FD022689B489D
:1014F8009B498A4218BF824234D018318A4231D07F
:1015080018318A422ED018318A422BD018318A429B
:1015180028D018318A4225D018318A4222D001F5C4
:1015280056718A421ED018318A421BD018318A421D
:1015380018D018318A4215D018318A4212D0183181
:101548008A420FD018318A420CD018318A4209D009
:101558001268C2F3800208E0BB60636D43F00403C5
:101568006365BBE71268C2F3C002FAB1BB602368C7
:101578001A6812F4802F0DD01B6813F4002F04D1C1
:10158800236C9BB12046984710E0A36C73B12046AA
:1015980098470BE01A6812F4807F03D11A6822F08A
:1015A80008021A60236C0BB120469847E36D03F0DC
:1015B8001F03202202FA03F3334200F08E802268D0
:1015C800664867498A4218BF82422ED018318A423B
:1015D8002BD018318A4228D018318A4225D01831A8
:1015E8008A4222D018318A421FD018318A421CD030
:1015F80001F556718A4218D018318A4215D018312F
:101608008A4212D018318A420FD018318A420CD03F
:1016180018318A4209D018318A4206D018318A42D4
:1016280003D01268C2F3400202E01268C2F300124B
:10163800002A52D0BB6094F83530DBB2042B0ED0B0
:1016480023681A6812F4802F35D01B6813F4002F12
:101658002CD1636C002B40D0204698473DE022688F
:10166800136823F0160313602268536923F080037C
:101678005361236CB3B12268136823F00803136025
:10168800E36D03F01F023F239340BB60002384F8FF
:101698003430012384F83530236D002B7FD0204669
:1016A80098477CE0A36C002BE5D1E9E7E36BA3B195
:1016B8002046984711E01A6812F4807F09D11A6809
:1016C80022F010021A60002384F83430012384F8D1
:1016D8003530E36B0BB120469847636D002B5ED025
:1016E800636D13F0010F56D0042384F83530236856
:1016F8001A491B4A934218BF8B4233D0183293427F
:1017080030D0183293422DD0183293422AD0183252
:10171800934227D01832934224D01832934221D0D2
:1017280002F5567293421DD0183293421AD01832DD
:10173800934217D01832934214D01832934211D0E2
:10174800183293420ED0183293420BD0183293427B
:1017580008D01A6822F001021A6007E0100002405F
:10176800280002401A6822F001021A60019B013326
:101778000193AB4204D823681B6813F0010FF5D11D
:10178800002384F8343023681B6813F0010F08D055
:10179800032384F83530E36C0BB12046984703B037
:1017A800F0BD012384F83530F5E7236C002BF6D023
:1017B80020469847F3E712F0200F35D12368644993
:1017C800644A934218BF8B422AD01832934227D0DA
:1017D8001832934224D01832934221D018329342BF
:1017E8001ED0183293421BD01832934218D002F5FB
:1017F8005672934214D01832934211D01832934241
:101808000ED0183293420BD01832934208D01832B7
:10181800934205D01832934202D01832934209D12C
:101828001A6822F008021A60236C002BB7D02046F1
:101838009847B4E71A6822F004021A60F4E7022015
:10184800884010EA0C0F60D012F0020F5DD078606B
:1018580012F4004F0ED012F4803F05D1636C002BB8
:101868009DD0204698479AE7E36B002B97D02046F7
:10187800984794E712F0200F3BD123683449354A42
:10188800934218BF8B422AD01832934227D018327D
:10189800934224D01832934221D0183293421ED05A
:1018A800183293421BD01832934218D002F5567260
:1018B800934214D01832934211D0183293420ED06A
:1018C800183293420BD01832934208D01832934200
:1018D80005D01832934202D01832934210D11A68B8
:1018E80022F014021A60002384F83430012384F8AB
:1018F8003530E36B002B3FF452AF204698474EE754
:101908001A6822F00A021A60EDE7082000FA01F1CD
:1019180011EA0C0F3FF443AF12F0080F3FF43FAF4A
:101928001A6822F00E021A60E36D03F01F03012209
:1019380002FA03F37B606265002384F8343084F88C
:101948003520E36C002B3FF42AAF2046984726E762
:101958001000024028000240406D7047F0B583B087
:1019680000233AE0092400E00024B4403C43023557
:101978006E4E46F825406E4C2568D44304EA0506A9
:101988004F6817F4803F01D042EA0506684D2E6083
:101998006E6804EA06054F6817F4003F01D042EA72
:1019A8000605634E75604FF0B0452D6804EA0506DC
:1019B8004F6817F4801F01D042EA05064FF0B04582
:1019C8002E606D682C404E6816F4001F01D042EA64
:1019D80005044FF0B042546001330A6832FA03F448
:1019E80000F0A28001249C402240F5D04D686E1E74
:1019F800112D18BF012E01D9122D12D186685F0052
:101A08000325BD4026EA0506CD68BD4035438560FF
:101A1800466826EA04064D68C5F300149C40344322
:101A28004460C6685F000325BD40EC4326408D68CE
:101A3800BD403543C5604D68122D18BF022D13D126
:101A4800DE08083650F826E003F007054FEA850C53
:101A58000F2505FA0CF52EEA050E0D6905FA0CF5A9
:101A680045EA0E0540F82650056825404C6804F004
:101A78000304BC402C4304604C6814F0805FABD076
:101A88002C4CD4F8F45045F00205C4F8F450D4F8BE
:101A9800F44004F002040194019C9D08AE1C234C00
:101AA80054F8267003F00304A6000F24B44027EA74
:101AB8000407214CA0423FF457AF04F58064A042CC
:101AC80022D004F58064A04220D004F58064A042AE
:101AD8001ED004F58064A0421CD004F58064A042A6
:101AE8001AD004F58064A04218D004F58064A0429E
:101AF80016D004F58064A04214D004F58064A04296
:101B08003FF430AF0A2430E701242EE702242CE703
:101B180003242AE7042428E7052426E7062424E7E3
:101B2800072422E7082420E703B0F0BD000400588A
:101B380080000058004402580000025812B90904F5
:101B4800816170478161704703689A6912F0020FDA
:101B580001D000229A6203689A6912F0010F03D13A
:101B68009A6942F001029A61704770B4039E056851
:101B78006868740D04F4806444F07F7444F4583445
:101B880044F47F7444F0030420EA0400C1F309011B
:101B980041EA0241194331430143696070BC70470F
:101BA80070B504460D46164603689B6913F0100F7E
:101BB8001CD023689A6912F0200F19D1B5F1FF3FA4
:101BC800F7D0FEF7E5FB801BA84201D8002DF0D125
:101BD800636C43F020036364202384F841300023BE
:101BE80084F8423084F84030012020E000201EE0D4
:101BF8001022DA6123682025DD612046FFF7A4FF63
:101C08002268536823F0FF7323F48B3323F4FF73A4
:101C180023F001035360636C43F00403636484F8A6
:101C28004150002384F8423084F84030012070BDD0
:101C380070B504460D46164623689B6913F0020FDB
:101C48001DD1324629462046FFF7AAFFC8B9B5F18B
:101C5800FF3FF1D0FEF79CFB801BA84201D8002D66
:101C6800EAD1636C43F020036364202384F8413095
:101C7800002384F8423084F84030012000E000203E
:101C880070BD0120FCE7F8B505460F4616461C4610
:101C98002B689B6937EA03030CBF01230023B34277
:101CA80018D1B4F1FF3FF3D0FEF772FB069BC01AC0
:101CB800A04201D8002CEBD16B6C43F020036B647D
:101CC800202385F84130002385F8423085F84030DC
:101CD800012000E00020F8BD70B505460C46164608
:101CE8002B689B6913F0200F1AD1324621462846EB
:101CF800FFF756FFB0B9FEF74BFB801BA04201D897
:101D0800002CEDD16B6C43F020036B64202385F825
:101D18004130002385F8423085F84030012070BDFD
:101D28000020FCE70120FAE7002857D010B5044648
:101D380090F84130002B41D0242384F841302268A8
:101D4800136823F0010313606368226823F070634B
:101D580013612268936823F400439360E368012BBE
:101D680031D0A368226843F404439360E368022BEC
:101D78002FD0226851681A4B0B4353602268D368EE
:101D880023F40043D360236962691343A16922687D
:101D980043EA0123D360E369216A22680B43136095
:101DA8002268136843F00103136000206064202355
:101DB80084F84130206384F8420010BD80F8403038
:101DC80003F0C4FCB8E7A368226843F400439360B7
:101DD800CCE723684FF400625A60CAE701207047D5
:101DE800008000022DE9F04383B090F84150EDB235
:101DF800202D40F0A48090F84040012C00F0A480F1
:101E0800984617460E4604464FF0010980F8409060
:101E1800FEF7BEFA0546009019234A464FF40041E2
:101E28002046FFF730FF002840F09080212384F8F7
:101E38004130102384F84230002363646762A4F8B9
:101E48002A806363638D9BB2FF2B0AD9FF22228508
:101E5800424B00934FF0807331462046FFF785FED2
:101E680018E0628D92B222853C4B00934FF00073CC
:101E7800D2B231462046FFF778FE0BE0628D92B26F
:101E88002285002300934FF00073D2B231462046DA
:101E9800FFF76BFE638D9BB2002B33D02A460A995D
:101EA8002046FFF7C5FE002852D1626A23681278DF
:101EB8009A62636A01336362638D013B9BB26385F7
:101EC800238D013B9BB22385628D92B2002AE1D01B
:101ED800002BDFD100950A9B002280212046FFF7C6
:101EE800D2FE002836D1638D9BB2FF2BC6D9FF22C4
:101EF8002285002300934FF0807331462046FFF778
:101F080034FEC7E72A460A992046FFF7E5FE03464E
:101F180010BB22682021D1612068426822F0FF723C
:101F280022F48B3222F4FF7222F00102426084F81C
:101F38004110002284F8422084F8402000E0022367
:101F4800184603B0BDE8F0830223F9E70123F7E759
:101F58000123F5E70123F3E70123F1E700200080DF
:101F680090F84130DBB2202B24D190F84030012B7F
:101F780022D0012380F84030242380F841300268C1
:101F8800136823F0010313600268136823F4805375
:101F9800136002681368194311600268136843F0FC
:101FA80001031360202380F84130002380F840307B
:101FB80018467047022070470220704790F8413059
:101FC800DBB2202B22D190F84030012B20D0012306
:101FD80080F84030242380F841300268136823F0E9
:101FE800010313600268136823F4706343EA012154
:101FF80011600268136843F001031360202380F81E
:102008004130002380F8403018467047022070475E
:1020180002207047134BDB6813F0040F07D1114BF4
:10202800DB6803F0070383421AD00120704710B51C
:102038000C4AD36823F007031843D060FEF7A8F9C9
:102048000446084B5B6813F4005F07D1FEF7A0F95C
:10205800001BB0F57A7FF4D9012000E0002010BD04
:102068000020704700480258002800F0E68238B582
:102078000446036813F0010F25D0AA4A136903F038
:102088003803926A102B15D0182B0FD06368B3F55C
:10209800803F3ED0002B52D1A24B1A6822F48032E6
:1020A8001A601A6822F480221A6037E002F00302EC
:1020B800022AEBD19B4B1B6813F4003F03D06368E3
:1020C800002B00F0BC82236813F0020F77D0954AEA
:1020D8001369926A13F038035AD0182B55D0E36865
:1020E800002B00F0B2808F490A6822F019021343CE
:1020F8000B60FEF74DF905468A4B1B6813F0040F79
:1021080040F08B80FEF744F9401B0228F4D90320E5
:102118009AE2844A136843F48033136063682BB3EC
:10212800FEF736F905467F4B1B6813F4003FCAD10A
:10213800FEF72EF9401B6428F5D9032084E2B3F595
:10214800A02F09D0774B1A6822F480321A601A68D7
:1021580022F480221A60E1E7724B1A6842F4802266
:102168001A601A6842F480321A60D7E7FEF710F94D
:1021780005466C4B1B6813F4003FA4D0FEF708F922
:10218800401B6428F5D903205EE212F0030FA6D1A4
:10219800644B1B6813F0040F03D0E368002B00F0B6
:1021A8005082FEF70FF941F2030398422CD85D4A9A
:1021B800536823F47C33216943EA0133536023686D
:1021C80013F0100F71D0574A136903F03803926A5D
:1021D800082B52D0182B4CD0E369002B00F0A480B8
:1021E800504A136843F080031360FEF7D1F80546A0
:1021F8004C4B1B6813F4807F7BD1FEF7C9F8401B5A
:102208000228F5D903201FE2464A536823F0FE430B
:10221800216943EA01635360D1E7FEF7D3F841F23D
:102228000303984208D83F4A536823F47C33216952
:1022380043EA01335360C2E73A4A536823F0FE4346
:10224800216943EA01635360B9E7364A136823F00A
:1022580001031360FEF79CF80546324B1B6813F028
:10226800040FACD0FEF794F8401B0228F5D90320E0
:10227800EAE102F00302012AAED12A4B1B6813F4EB
:10228800807F04D0E369802B01D00120DCE1FEF7D8
:1022980099F841F20303984222D8224A536823F05E
:1022A800F843216A43EA81635360236813F0080FF7
:1022B80062D06369002B4BD01A4A536F43F0010375
:1022C8005367FEF765F80546164B5B6F13F0020F70
:1022D80052D1FEF75DF8401B0228F5D90320B3E17F
:1022E800104AD36823F07C53216A43EA0163D36020
:1022F800DBE7FEF767F841F20303984208D8094A7A
:10230800536823F0F843216A43EA81635360CCE7BA
:10231800044AD36823F07C53216A43EA0163D360FB
:10232800C3E700BF00440258AD4A136823F0800396
:102338001360FEF72DF80546A94B1B6813F4807F40
:10234800B3D0FEF725F8401B0228F5D903207BE11E
:10235800A34A536F23F001035367FEF719F80546A4
:102368009F4B5B6F13F0020F06D0FEF711F8401B6E
:102378000228F5D9032067E1236813F0200F29D03C
:10238800A3699BB1964A136843F480531360FDF721
:10239800FFFF0546924B1B6813F4005F1AD1FDF747
:1023A800F7FF401B0228F5D903204DE18C4A13683A
:1023B80023F480531360FDF7EBFF0546884B1B6839
:1023C80013F4005F06D0FDF7E3FF401B0228F5D9A0
:1023D800032039E1236813F0040F21D1636A002B2D
:1023E80000F031817E4A126902F03802182A00F0A2
:1023F800EA80022B75D07A4A136823F08073136041
:10240800FDF7C6FF0446764B1B6813F0007F00F00B
:10241800D880FDF7BDFF001B0228F4D9032013E183
:10242800704A136843F480731360FDF7B1FF0546E3
:102438006C4B1B6813F4807F06D1FDF7A9FF401B86
:102448006428F5D90320FFE0A368012B0AD00BBB51
:10245800634B1A6F22F001021A671A6F22F0040206
:102468001A6704E05E4A136F43F001031367A36819
:1024780033B3FDF78DFF0546594B1B6F13F0020F61
:10248800ACD1FDF785FF401B41F288339842F3D960
:102498000320D9E0052B09D0514B1A6F22F0010215
:1024A8001A671A6F22F004021A67E0E74C4B1A6F9A
:1024B80042F004021A671A6F42F001021A67D6E75F
:1024C800FDF766FF0546464B1B6F13F0020F85D0DC
:1024D800FDF75EFF401B41F288339842F3D9032091
:1024E800B2E03F4A136823F080731360FDF750FF92
:1024F80005463B4B1B6813F0007F06D0FDF748FFED
:10250800401B0228F5D903209EE0354B996A364ACC
:102518000A40A16AE06A41EA00110A439A62226B02
:10252800013AC2F30802616B0139490289B20A43D0
:10253800A16B0139090401F4FE010A43E16B013979
:10254800090601F0FE410A431A63DA6A22F0010221
:10255800DA62596B254A0A40A16C42EAC1025A6301
:10256800DA6A22F00C02216C0A43DA62DA6A22F093
:102578000202616C0A43DA62DA6A42F48032DA6291
:10258800DA6A42F40032DA62DA6A42F48022DA6203
:10259800DA6A42F00102DA621A6842F080721A605E
:1025A800FDF7F6FE04460E4B1B6813F0007F06D1BC
:1025B800FDF7EEFE001B0228F5D9032044E00020B9
:1025C80042E0002040E0064A916A106B012B3CD0A3
:1025D80001F00303A26A93420AD0012034E000BF4D
:1025E80000440258004802580CFCFFFF0700FFFF98
:1025F800C1F30511E36A994201D0012024E0C0F338
:102608000802236B013B9A4201D001201CE0C0F371
:102618004622636B013B9A4201D0012014E0C0F3CB
:102628000642A36B013B9A4211D1C0F30660E36BEB
:10263800013B98420DD0012006E00120704701209F
:1026480002E0012000E0002038BD0120FCE7012065
:10265800FAE70020F8E700BF724B1B6903F0380364
:10266800102B00F0DB80182B10D00BB16E48704790
:102678006C4B1B6813F0200F00F0D280694B186870
:10268800C0F3C100694B23FA00F07047654A916AAC
:1026980001F00301906AC0F30510D36A03F0010347
:1026A800526BC2F3CC0203FB02F307EE903AF8EE4A
:1026B800677A002800F0B580012966D0F9B10229AF
:1026C80000F08F8007EE100AF8EE476A9FED586A0F
:1026D80086EE267A534B1B6BC3F3080306EE903A3B
:1026E800F8EE666A9FED536A67EE867A76EEA77A09
:1026F800F7EE006A77EEA67A27EE277A61E0494B73
:102708001B6813F0200F23D046490A68C2F3C102A0
:10271800464BD34007EE103AF8EE476A07EE100A28
:10272800B8EE476A86EE867A0B6BC3F3080306EEAB
:10273800903AF8EE666A9FED3F6A67EE867A76EE23
:10274800A77AF7EE006A77EEA67A27EE277A38E0BE
:1027580007EE100AF8EE476A9FED376A86EE267A8A
:10276800304B1B6BC3F3080306EE903AF8EE666A2B
:102778009FED306A67EE867A76EEA77AF7EE006A02
:1027880077EEA67A27EE277A1BE007EE100AF8EE16
:10279800476A9FED276A86EE267A224B1B6BC3F3A6
:1027A800080306EE903AF8EE666A9FED226A67EE35
:1027B800867A76EEA77AF7EE006A77EEA67A27EEA3
:1027C800277A184B1B6BC3F34623013307EE903A65
:1027D800F8EE677AC7EE276AFCEEE67A17EE900AFB
:1027E800704707EE100AF8EE476A9FED146A86EE06
:1027F800267A0C4B1B6BC3F3080306EE903AF8EEEF
:10280800666A9FED0C6A67EE867A76EEA77AF7EE2F
:10281800006A77EEA67A27EE277AD2E7084870474B
:10282800024870470044025800093D000090D00358
:102838000024744A000000390024744C20BCBE4BAC
:1028480040787D01002800F0368103469C4A1268D2
:1028580002F00F028A420CD29948026822F00F0255
:102868000A430260026802F00F028A4201D0012086
:10287800704770B51A6812F0040F0CD01869914AA5
:10288800926902F07002904205D98E4CA26922F03A
:1028980070021043A0611A6812F0080F0CD0586932
:1028A800884AD26902F07002904205D9854CE269E3
:1028B80022F070021043E0611A6812F0100F0CD079
:1028C8009869804AD26902F4E062904205D97D4C49
:1028D800E26922F4E0621043E0611A6812F0200F06
:1028E8000CD0D869774A126A02F07002904205D972
:1028F800744C226A22F07002104320621A6812F0A7
:10290800020F0CD0D8686F4A926902F00F02904209
:1029180005D96C4CA26922F00F021043A0611C4635
:102928000D461B6813F0010F41D0664A936923F4E2
:102938007063A1680B4393616368022B0AD0032B71
:1029480027D0012B2CD05F4A126812F0040F06D151
:102958000120AFE0126812F4003F00F0AE80594940
:102968000A6922F0070213430B61FDF711FD0646C1
:10297800544B1B6903F038036268B3EBC20F16D0DF
:10298800FDF706FD801B41F288339842F0D90320F9
:1029980090E04C4A126812F0007FE0D1012089E0F3
:1029A800484A126812F4807FD9D1012082E0236856
:1029B80013F0020F0CD0E268424B9B6903F00F033F
:1029C8009A4205D23F498B6923F00F031A438A6163
:1029D8003B4B1B6803F00F03AB420CD9384A136812
:1029E80023F00F032B431360136803F00F03AB426C
:1029F80001D001205EE0236813F0040F0CD0226997
:102A0800304B9B6903F070039A4205D22D498B69BC
:102A180023F070031A438A61236813F0080F0CD05F
:102A28006269284BDB6903F070039A4205D2254995
:102A3800CB6923F070031A43CA61236813F0100F9F
:102A48000CD0A2691F4BDB6903F4E0639A4205D2FC
:102A58001C49CB6923F4E0631A43CA61236813F065
:102A6800200F0CD0E269174B1B6A03F070039A42DF
:102A780005D214490B6A23F070031A430A62FFF760
:102A8800EBFD10498B69C3F303230F4AD35C03F0B2
:102A98001F03D8408B6903F00F03D35C03F01F03B7
:102AA80020FA03F3094A1360094B1860094B1868A8
:102AB800FDF70EFC70BD012070470120FAE700BF4A
:102AC800002000520044025834630008D00000205F
:102AD800CC0000200400002008B5FFF7BDFD0B4A1C
:102AE8009369C3F303230A49CB5C03F01F0320FA5D
:102AF80003F3926902F00F02885C00F01F0023FACA
:102B080000F0044A1060044A136008BD00440258EB
:102B180034630008D0000020CC000020404B9B6AA2
:102B280003F00303032B79D070B50E4604463C4AE4
:102B3800136823F080631360FDF72AFC0546384BC1
:102B48001B6813F0006F06D0FDF722FC401B02281B
:102B5800F5D9032070BD324B9A6A22F47C32216881
:102B680042EA01329A626268013AC2F30802A16835
:102B78000139490289B20A43E1680139090401F4BB
:102B8800FE010A4321690139090601F0FE410A43A1
:102B98009A63DA6A22F0C00261690A43DA62DA6A81
:102BA80022F02002A1690A43DA62DA6A22F01002EE
:102BB800DA62D96B1B4A0A40E16942EAC102DA6368
:102BC800DA6A42F01002DA62C6B91A46DB6A43F4DE
:102BD8000023D362124A136843F080631360FDF741
:102BE800D7FB04460E4B1B6813F0006F14D1FDF79A
:102BF800CFFB001B0228F5D90320ABE7012E05D037
:102C0800074AD36A43F40013D362E3E7044AD36A5A
:102C180043F48013D362DDE700209BE7012070476F
:102C2800004402580700FFFF404B9B6A03F0030370
:102C3800032B79D070B50E4604463C4A136823F03E
:102C480080531360FDF7A4FB0546384B1B6813F04F
:102C5800005F06D0FDF79CFB401B0228F5D9032036
:102C680070BD324B9A6A22F07C72216842EA0152A6
:102C78009A626268013AC2F30802A16801394902FE
:102C880089B20A43E1680139090401F4FE010A43E3
:102C980021690139090601F0FE410A431A64DA6A1A
:102CA80022F4406261690A43DA62DA6A22F4007245
:102CB800A1690A43DA62DA6A22F48072DA62596C2C
:102CC8001B4A0A40E16942EAC1025A64DA6A42F4DC
:102CD8008072DA62C6B91A46DB6A43F48003D362AB
:102CE800124A136843F080531360FDF751FB044602
:102CF8000E4B1B6813F0005F14D1FDF749FB001B56
:102D08000228F5D90320ABE7012E05D0074AD36A7C
:102D180043F08073D362E3E7044AD36A43F40003C1
:102D2800D362DDE700209BE701207047004402588A
:102D38000700FFFFF8B50446036813F0006F2BD0B7
:102D4800436EB3F5801F18D007D9B3F5001F1DD007
:102D5800B3F5401F2ED1002506E05BBB934AD36A2A
:102D680043F40033D3620025904A136D23F44013D3
:102D7800616E0B431365002610E002210430FFF753
:102D8800CDFE0546002DEFD02E4607E00221243067
:102D9800FFF74AFF0546F5E700263546236813F492
:102DA800807F17D0636D042B32D8DFE803F0062448
:102DB8002A0B0B0001263546F0E77C4AD36A43F418
:102DC8000033D3623DBB794A136D23F00703616D6D
:102DD8000B431365236813F4007F33D0A36D802B56
:102DE80044D01AD80BB3402B1CD10021201DFFF76B
:102DF80095FE05461EE00021201DFFF78FFE0546C3
:102E0800E0E7002104F12400FFF70EFF0546D9E7AB
:102E180001263546DEE72E46DCE7C02B0AD0B3F59F
:102E2800807F07D0012635460CE0604AD36A43F418
:102E38000033D3620DBB5D4A136D23F4E073A16DBB
:102E48000B431365236813F4806F2FD0D4F8A43094
:102E5800B3F5800F3ED012D8D3B1B3F5001F14D10B
:102E68000021201DFFF75AFE054616E0002104F157
:102E78002400FFF7D9FE0546DCE72E46E2E7B3F566
:102E8800C00F0AD0B3F5000F07D0012635460DE074
:102E9800464AD36A43F40033D36215BB434A936D61
:102EA80023F46003D4F8A4100B439365236813F448
:102EB800006F2FD0D4F8A830B3F1007F37D012D8E4
:102EC800D3B1B3F1807F14D10021201DFFF726FE76
:102ED800054616E0002104F12400FFF7A5FE05468B
:102EE800DBE72E46E2E7B3F1407F0AD0B3F1806F0B
:102EF80007D0012635460DE02C4AD36A43F4003347
:102F0800D362DDB9294A936D23F0E063D4F8A810A1
:102F18000B439365236813F0007F2AD0A36C102B12
:102F280012D00DD9202B1DD0302B12D009E0002152
:102F380004F12400FFF778FE0546E2E72E46E9E7AC
:102F48003BB10126354614E0184AD36A43F40033EE
:102F5800D3626DB9154AD36C23F03003A16C0B43CF
:102F6800D36406E00221201DFFF7D8FD0546F0E7EF
:102F78002E46236813F4805F27D0E36DB3F5005F16
:102F88003ED009D8A3B1B3F5805F0BD10021201D35
:102F9800FFF7C4FD054610E0B3F5405F0DD0B3F56B
:102FA800804F0AD0012635460FE000BF0044025882
:102FB800934AD36A43F40033D36245BB904A136DF6
:102FC80023F4E043E16D0B431365236813F4005FBA
:102FD80033D0236EB3F5003F27D01AD83BB1B3F5F1
:102FE800803F1FD10121201DFFF798FD05461DBB1D
:102FF800834A136D23F4E023216E0B4313651CE011
:10300800002104F12400FFF70FFE0546D5E72E4600
:10301800DBE7B3F5802FEAD0B3F5A02FE7D0B3F5FF
:10302800403FE4D00126354607E0012104F12400A1
:10303800FFF7FAFD0546DAE72E46236813F4804FBA
:103048002CD0D4F8AC30B3F1005F1FD012D83BB10C
:10305800B3F1805F17D10121201DFFF75FFD054601
:10306800DDB9674A936D23F0E043D4F8AC100B4305
:10307800936513E0B3F1804FF2D0B3F1A04FEFD0D6
:10308800B3F1405FECD00126354607E0012104F199
:103098002400FFF7C9FD0546E2E72E46236813F42E
:1030A800004F1FD0E36EB3F1805F06D0B3F1005F2D
:1030B80011D03BB10126354614E0514AD36A43F496
:1030C8000033D3626DB94E4A136D23F04053E16E5D
:1030D8000B43136506E00121201DFFF71FFD054680
:1030E800F0E72E46236813F0807F1ED0636C032B15
:1030F80017D8DFE803F007021007414AD36A43F400
:103108000033D36285B93E4AD36C23F00303616C64
:103118000B43D36409E00221201DFFF7FFFC05469D
:10312800F0E70126354600E02E46236813F4800FA9
:103138001FD1236813F0010F00F09E80A36F282B86
:1031480000F29680DFE803F0849494949494949425
:103158007F949494949494948D9494949494949443
:103168008494949494949494849494949494949437
:103178008400244A136843F480731360FDF708F948
:103188000746204B1B6813F4807F05D1FDF700F933
:10319800C01B6428F5D90325002D50D1184B1B6F8F
:1031A800D4F8B020534013F4407F0CD0144B1A6F5E
:1031B80022F44072196F41F480311967196F21F4B4
:1031C800803119671A67D4F8B030B3F5807F1BD007
:1031D800002D36D1D4F8B03003F44072B2F5407FF8
:1031E80023D0074A136923F47C53136104490B6FF6
:1031F800D4F8B020C2F30B0213430B6799E700BF62
:103208000044025800480258FDF7C2F80746AC4B84
:103218001B6F13F0020FDBD1FDF7BAF8C01B41F2A8
:1032280088339842F3D90325D2E7A548026922F4E6
:103238007C52A44901EA131313430361D6E72E46CF
:1032480077E72E4675E70121201DFFF767FC054645
:103258008DB99B4A536D23F03803A16F0B43536517
:103268000AE0012104F12400FFF7DEFC0546EFE740
:103278000126354600E02E46236813F0020F20D0C1
:10328800636F052B19D8DFE803F008031108080855
:103298000121201DFFF742FC05468DB9884A536D70
:1032A80023F00703616F0B4353650AE0012104F122
:1032B8002400FFF7B9FC0546EFE70126354600E094
:1032C8002E46236813F0040F22D0D4F89030052B33
:1032D8001AD8DFE803F00803120808080121201DA6
:1032E800FFF71CFC054695B9754A936D23F0070353
:1032F800D4F890100B4393650AE0012104F12400EF
:10330800FFF792FC0546EEE70126354600E02E461B
:10331800236813F0200F2CD0D4F88C30B3F1005F61
:103328001FD012D83BB1B3F1805F17D10021201D07
:10333800FFF7F4FB0546DDB9614A536D23F0E0431E
:10334800D4F88C100B43536513E0B3F1804FF2D0DF
:10335800B3F1A04FEFD0B3F1405FECD00126354672
:1033680007E0022104F12400FFF75EFC0546E2E7CE
:103378002E46236813F0400F2CD0D4F89830B3F5BC
:10338800006F1FD012D83BB1B3F5806F17D1002161
:10339800201DFFF7C3FB0546DDB9494A936D23F4A9
:1033A800E053D4F898100B43936513E0B3F5805FAE
:1033B800F2D0B3F5A05FEFD0B3F5406FECD00126A3
:1033C800354607E0022104F12400FFF72DFC0546ED
:1033D800E2E72E46236813F0800F2CD0D4F89C30F7
:1033E800B3F5804F1FD012D83BB1B3F5005F17D1AA
:1033F8000021201DFFF792FB0546DDB9304A936D89
:1034080023F46043D4F89C100B43936513E0B3F5A1
:10341800004FF2D0B3F5204FEFD0B3F5C04FECD04A
:103428000126354607E0022104F12400FFF7FCFBE2
:103438000546E2E72E46236813F0080F0CD0D4F8AF
:103448008030B3F5805F28D01D4A536D23F4405374
:10345800D4F880100B435365236813F0100F0CD079
:10346800D4F89430B3F5807F20D0154A936D23F4B7
:103478004073D4F894100B439365236813F4002F1A
:1034880039D0D4F8A030B3F5803F2CD0B3F5003F45
:103498001FD0CBB1012635462DE0022104F12400CE
:1034A800FFF7C2FB0028CFD00126CDE7022104F1A7
:1034B8002400FFF7B9FB0028D7D00126D5E700BFC5
:1034C80000440258CFFFFF000021201DFFF726FB14
:1034D80005467DB95E4A936D23F44033D4F8A010B5
:1034E8000B43936507E0022104F12400FFF79CFBDE
:1034F8000546EEE72E46236813F4802F24D0D4F82F
:103508008430B3F5001F17D0B3F5401F0AD0B3F5C8
:10351800801F02D00126354616E04D4AD36A43F48F
:103528000033D3627DB94A4A536D23F44013D4F86B
:1035380084100B43536507E0012104F12400FFF7D1
:1035480073FB0546EEE72E46236813F4803F14D03C
:10355800E36C2BB1B3F5803F23D0012635460CE050
:103568003B4AD36A43F40033D36205BB384AD36C71
:1035780023F48033E16C0B43D364236813F0005FBA
:1035880017D1236813F4003F2DD0E36FB3F5807F84
:103598001BD017D9B3F5007F1CD0B3F5407F12D1EB
:1035A80018E00221201DFFF7B9FA0546DDE72E468F
:1035B800E3E7022104F12400FFF736FB0028E0D0FE
:1035C8000126DEE733B101260DE0214AD36A43F430
:1035D8000033D362002D31D11D4A536D23F440735B
:1035E800E16F0B435365236813F4801F06D0184A14
:1035F800136D23F00043216F0B431365236813F405
:10360800001F06D0124A136D23F08073A16E0B437E
:103618001365236813F0804F09D00D4B1A6922F403
:1036280000421A611A69D4F8B8100A431A6123686B
:10363800002B05DB06B101263046F8BD2E46D2E741
:10364800034AD36C23F04053216D0B43D364F1E755
:103658000044025808B5FFF73FFA054B1B6AC3F34D
:103668000213044AD35C03F01F03D84008BD00BF0F
:10367800004402583463000810B478498C6A8A6A96
:10368800C2F30532CB6AC3F30013C96BC1F3CC0193
:1036980003FB01F3002A00F0DB8004F0030407EECB
:1036A800903AF8EE677A012C66D0FCB1022C00F053
:1036B800B28007EE102AB8EE477A9FED696AC6EE27
:1036C800076A664B9B6BC3F3080307EE103AB8EE24
:1036D800477A9FED646A67EE867A77EE277AB7EEC7
:1036E800007A77EE877A66EEA76A61E05B4B1B6823
:1036F80013F0200F23D0594C2168C1F3C1015A4B54
:10370800CB4007EE103AB8EE477A06EE902AB8EEAC
:10371800666AC7EE066AA36BC3F3080307EE103A9E
:10372800B8EE477A9FED4F6A67EE867A77EE277A8A
:10373800B7EE007A77EE877A66EEA76A38E007EE8A
:10374800102AB8EE477A9FED496AC6EE076A434BDE
:103758009B6BC3F3080307EE103AB8EE477A9FED68
:10376800416A67EE867A77EE277AB7EE007A77EEC7
:10377800877A66EEA76A1BE007EE102AB8EE477A4A
:103788009FED376AC6EE076A344B9B6BC3F3080399
:1037980007EE103AB8EE477A9FED326A67EE867AFE
:1037A80077EE277AB7EE007A77EE877A66EEA76A21
:1037B8002A4A936BC3F3462307EE103AB8EE477ACA
:1037C800B7EE006A37EE067AC6EE877AFCEEE77A3D
:1037D800C0ED007A936BC3F3064307EE103AB8EED8
:1037E800477A37EE067AC6EE877AFCEEE77AC0EDBE
:1037F800017A936BC3F3066307EE903AF8EE677AA3
:1038080077EE867A86EEA77ABCEEC77A80ED027AE2
:103818005DF8044B704707EE102AB8EE477A9FED23
:10382800146AC6EE076A0D4B9B6BC3F3080307EED9
:10383800103AB8EE477A9FED0B6A67EE867A77EE14
:10384800277AB7EE007A77EE877A66EEA76AAFE74F
:103858000023036043608360DAE700BF0044025836
:103868000024744A000000390090D0030024744CEE
:1038780020BCBE4B10B478498C6A8A6AC2F30552E0
:10388800CB6AC3F30023496CC1F3CC0103FB01F3FA
:10389800002A00F0DB8004F0030407EE903AF8EE0B
:1038A800677A012C66D0FCB1022C00F0B28007EEDA
:1038B800102AB8EE477A9FED696AC6EE076A664B2A
:1038C8001B6CC3F3080307EE103AB8EE477A9FED76
:1038D800646A67EE867A77EE277AB7EE007A77EE33
:1038E800877A66EEA76A61E05B4B1B6813F0200FCE
:1038F80023D0594C2168C1F3C1015A4BCB4007EE84
:10390800103AB8EE477A06EE902AB8EE666AC7EE25
:10391800066A236CC3F3080307EE103AB8EE477A39
:103928009FED4F6A67EE867A77EE277AB7EE007AD0
:1039380077EE877A66EEA76A38E007EE102AB8EEC7
:10394800477A9FED496AC6EE076A434B1B6CC3F37F
:10395800080307EE103AB8EE477A9FED416A67EE22
:10396800867A77EE277AB7EE007A77EE877A66EE70
:10397800A76A1BE007EE102AB8EE477A9FED376A70
:10398800C6EE076A344B1B6CC3F3080307EE103A04
:10399800B8EE477A9FED326A67EE867A77EE277A35
:1039A800B7EE007A77EE877A66EEA76A2A4A136C32
:1039B800C3F3462307EE103AB8EE477AB7EE006A2B
:1039C80037EE067AC6EE877AFCEEE77AC0ED007A23
:1039D800136CC3F3064307EE103AB8EE477A37EE96
:1039E800067AC6EE877AFCEEE77AC0ED017A136CA8
:1039F800C3F3066307EE903AF8EE677A77EE867AB5
:103A080086EEA77ABCEEC77A80ED027A5DF8044BA1
:103A1800704707EE102AB8EE477A9FED146AC6EE93
:103A2800076A0D4B1B6CC3F3080307EE103AB8EE98
:103A3800477A9FED0B6A67EE867A77EE277AB7EEBC
:103A4800007A77EE877A66EEA76AAFE7002303600D
:103A580043608360DAE700BF004402580024744AD8
:103A6800000000390090D0030024744C20BCBE4BE9
:103A780010B478498C6A8A6AC2F30512CB6A03F0DB
:103A88000103496BC1F3CC0103FB01F3002A00F0E9
:103A9800DB8004F0030407EE903AF8EE677A012C15
:103AA80066D0FCB1022C00F0B28007EE102AB8EE06
:103AB800477A9FED696AC6EE076A664B1B6BC3F3CC
:103AC800080307EE103AB8EE477A9FED646A67EE8E
:103AD800867A77EE277AB7EE007A77EE877A66EEFF
:103AE800A76A61E05B4B1B6813F0200F23D0594C89
:103AF8002168C1F3C1015A4BCB4007EE103AB8EE2A
:103B0800477A06EE902AB8EE666AC7EE066A236B15
:103B1800C3F3080307EE103AB8EE477A9FED4F6AF1
:103B280067EE867A77EE277AB7EE007A77EE877AAD
:103B380066EEA76A38E007EE102AB8EE477A9FEDDE
:103B4800496AC6EE076A434B1B6BC3F3080307EECB
:103B5800103AB8EE477A9FED416A67EE867A77EEBB
:103B6800277AB7EE007A77EE877A66EEA76A1BE0C7
:103B780007EE102AB8EE477A9FED376AC6EE076A55
:103B8800344B1B6BC3F3080307EE103AB8EE477AC1
:103B98009FED326A67EE867A77EE277AB7EE007A7B
:103BA80077EE877A66EEA76A2A4A136BC3F3462331
:103BB80007EE103AB8EE477AB7EE006A37EE067AA3
:103BC800C6EE877AFCEEE77AC0ED007A136BC3F392
:103BD800064307EE103AB8EE477A37EE067AC6EE95
:103BE800877AFCEEE77AC0ED017A136BC3F30663BC
:103BF80007EE903AF8EE677A77EE867A86EEA77A3D
:103C0800BCEEC77A80ED027A5DF8044B704707EE88
:103C1800102AB8EE477A9FED146AC6EE076A0D4B74
:103C28001B6BC3F3080307EE103AB8EE477A9FED13
:103C38000B6A67EE867A77EE277AB7EE007A77EE28
:103C4800877A66EEA76AAFE7002303604360836064
:103C5800DAE700BF004402580024744A0000003923
:103C68000090D0030024744C20BCBE4B00B58BB030
:103C7800B0F5807F1BD0B0F5007F48D0B0F5806FDD
:103C880078D0B0F5006F00F0AB80B0F5805F00F041
:103C9800DD80B0F5002F00F00F81B0F5803F00F017
:103CA8003181B0F5804F00F0458100200CE09E4B3B
:103CB8001B6D03F00703042B00F26481DFE803F0B7
:103CC800070C1103160099480BB05DF804FB07A810
:103CD800FFF7CEFE0898F7E704A8FFF7CDFC049895
:103CE800F2E701A8FFF7C6FD0198EDE78E4BDB6C04
:103CF80013F0405300F04881B3F1805F00F0468133
:103D0800B3F1005F01D00020DEE78948DCE7864B8D
:103D18001B6D03F4E073802B25D008D8F3B1402B3A
:103D280040F0368104A8FFF7A7FC0498CCE7C02B25
:103D380012D0B3F5807F40F02B817B4BDB6C13F006
:103D4800405300F02781B3F1805F00F02581B3F183
:103D5800005F0DD00020B7E77448B5E707A8FFF764
:103D680087FE0898B0E701A8FFF784FD0198ABE744
:103D78006F48A9E76C4B9B6D03F46003B3F5800FA4
:103D880027D009D803B3B3F5001F40F0078104A872
:103D9800FFF772FC049897E7B3F5C00F12D0B3F59C
:103DA800000F40F0FB80604BDB6C13F0405300F0D9
:103DB800F780B3F1805F00F0F580B3F1005F0DD0BC
:103DC800002081E759487FE707A8FFF751FE0898C8
:103DD8007AE701A8FFF74EFD019875E7544873E7A5
:103DE800514B9B6D03F0E063B3F1007F27D009D8F6
:103DF80003B3B3F1807F40F0D78004A8FFF73CFC01
:103E0800049861E7B3F1407F12D0B3F1806F40F0BE
:103E1800CB80454BDB6C13F0405300F0C780B3F107
:103E2800805F00F0C580B3F1005F0DD000204BE744
:103E38003E4849E707A8FFF71BFE089844E701A892
:103E4800FFF718FD01983FE739483DE7364B1B6DF2
:103E580003F4E043B3F5005F27D009D803B3B3F503
:103E6800805F40F0A78004A8FFF706FC04982BE7C2
:103E7800B3F5405F12D0B3F5804F40F09B802A4BDA
:103E8800DB6C13F0405300F09780B3F1805F00F0D3
:103E98009580B3F1005F0DD0002015E7234813E7A4
:103EA80007A8FFF7E5FD08980EE701A8FFF7E2FC71
:103EB800019809E71E4807E71B4B9B6D03F4403345
:103EC800B3F5803F0AD0B3F5003F0CD00BB100200A
:103ED800FAE604A8FFF7D0FB0498F5E601A8FFF777
:103EE800C9FC0398F0E6104BDB6C13F0405367D025
:103EF800B3F1805F66D0B3F1005F01D00020E3E644
:103F08000B48E1E6084BDB6C13F4803302D033B97D
:103F18000020D9E607A8FFF7ABFD0898D4E604A867
:103F2800FFF7AAFB0698CFE6004402580080BB00C2
:103F380040787D01254B9B6D03F0E043B3F1005FB2
:103F480019D00AD9B3F1804F3ED0B3F1A04F17D0A2
:103F5800B3F1405F0AD00020B6E64BB1B3F1805F01
:103F6800F9D104A8FFF788FB0598ADE61848ABE639
:103F7800FFF770FBA8E601A8FFF77CFC0298A3E610
:103F88001448A1E600209FE611489DE612489BE6EA
:103F9800002099E60E4897E60F4895E6002093E63C
:103FA8000B4891E60C488FE600208DE608488BE622
:103FB800094889E6002087E6054885E6064883E63D
:103FC800034881E604487FE603487DE6004402583A
:103FD8000090D00340787D0100093D00002836D0CC
:103FE80038B50446437AB3B1022363722268136872
:103FF80023F0200361680B4313602268136843F0C1
:104008000403136023685B6813F0400F07D0042390
:104018006372012038BD037201F05EFDE4E7FCF72E
:10402800B7F9054623685B6813F0040F0AD0FCF75C
:10403800AFF9401B0228F5D9042363720223E36019
:104048000120E7E7012363720020E060E2E7012036
:104058007047037A012B2BD070B50D460446012317
:104068000372437ADBB2012B05D00423C36001201D
:104078000023237270BD02234372FCF789F90646B8
:1040880023685A6812F0010F0BD1FCF781F9801BE5
:104098000228F5D9012060720223E360002323720D
:1040A800E8E79B6823612B60012363720020DFE748
:1040B8000220704730B400244464C4644568022D6B
:1040C80014BF00240124002D08BF0124C4B100241A
:1040D80004654FF48034C4654FF6FF7444670024C8
:1040E8008466036713F0010F4BD161B904664FF47E
:1040F80080244466032A3FD8DFE802F00B1E2833E9
:1041080001240465E5E74FF400340466002444669E
:10411800F0E7802484645B085C0144651B018365C7
:104128004023C366002302292CD1012A26D0022A63
:1041380028D10822826625E0802484645B089D01DA
:1041480045655B018365C4660023ECE7C02484648D
:104158005B089C0144655B0183658023C36600237B
:10416800E1E7E02484645B089C0144655B018365A6
:104178008023C3660023D6E70123D4E71021816694
:10418800D5E70123184630BC704730B40024446496
:10419800C4644568022D14BF00240124002D08BF03
:1041A8000124C4B1012404650024C4654FF400351A
:1041B80005664FF480254566846603674FF6FF74ED
:1041C800446704290AD00D218165032A29D8DFE82C
:1041D80002F00811182000240465E5E70121816533
:1041E800F3E7802282641B0143654023C3660020F5
:1041F80030BC7047802282645B014365C266002040
:10420800F6E7C02282645B0143658023C366002011
:10421800EEE7E02282645B0143658023C3660020E9
:10422800E6E70120E4E701290AD00123426C082AC5
:1042380008D04268023A012A0CD943F004007047BA
:104248000923F3E74268012A18BF032AF1D143F092
:104258001003EEE743F06000704700000E4B1B6848
:104268000E4AA2FB03231B0B9B0001680A6822F479
:1042780080320A603BB1013B0268126812F4803F49
:10428800F8D100207047D0F8943043F04003C0F8CC
:1042980094300320704700BFCC0000201BECCB9566
:1042A8002DE9F041002800F0CD810446FCF78AF89A
:1042B80094F83830012B25D02368B149B14A93428C
:1042C80018BF8B4230D001F5806102F580629342BD
:1042D80018BF8B4245D001F5806102F58062934298
:1042E80018BF8B423FD001F1C051A1F5863102F1D0
:1042F800C052A2F58632934218BF8B4240F0A88183
:10430800A14E12E023689E49A04A8B4218BF9342EF
:1043180040F09C816368012B01D0012593E1636C17
:10432800002BC9D001258EE1994E94F89130E3B164
:104338002046FFF793FF0546002840F08B810223B3
:1043480084F89130E368012B17D0022B13D0002298
:10435800A368013B042B12D8DFE803F02513161BD2
:1043680020008C4EE1E78C4EDFE784F89030204641
:1043780001F006FCDCE72022EAE71022E8E7002744
:1043880013E04FF4006710E042F001024FF40067B9
:104398000BE042F002024FF4006706E042F003022D
:1043A8004FF4006701E04FF480673260236A002B06
:1043B80043D023687249734A934218BF8B4200F076
:1043C800C580002023687549754A934218BF8B42FF
:1043D80000F0C18023687349734A934218BF8B4227
:1043E80000F0BE802268694B9A4200F0BE802268C5
:1043F8006E4B9A4200F0BE80A369B3F5002F00F01F
:10440800DF80A36AB3F1806F00F0E480012300EB42
:1044180080004100226A03FB02F31B02B1FBF3F1A7
:10442800634BA3FB0123DB08636203EB83004200B9
:104438008A1A082A01D9013363626268022A14BF02
:1044480000230123002A08BF0123002B00F0C780A6
:10445800236D012B00F0C0804FF40078FBF7B2FF0A
:10446800B0F5005FC0F0C48022681168514B0B4062
:10447800136021680A686368606C0343A06C034397
:10448800E06C034343EA08033B43E06A0343606983
:104498000343A0690343606A43EA0053A06A0343E5
:1044A8002069034313430B6022685168424B0B4059
:1044B800536021684A68E369206B0343606B0343D8
:1044C80013434B60226891683C4B0B409360206813
:1044D8008268636D013B616E0B43E16D0B43216E96
:1044E8000B43A16D013943EA01231343836022681A
:1044F800D36823F47D6323F00F031B041B0CD360E4
:104508002068C268A36EE16E0B43616F43EA014302
:10451800216F013943EA01231343C3602368184913
:104528001A4A934218BF8B4207D1736C23F00103D8
:10453800736494F83830012B79D00023C4F8943090
:10454800012284F8912084F890307CE04FF4807048
:10455800FFF78CFB36E74FF40070FFF787FB39E76E
:104568004FF40070FFF782FB3CE74FF48060FFF7E1
:104578007DFB3CE74FF40060FFF778FB3CE700BFAA
:10458800045801402458014000540058045400586D
:1045980000580140005C014000600140045C01409B
:1045A800245C014004600140246001402454005808
:1045B800CDCCCCCC10C005F0F01FFFFF0080F8FF79
:1045C80000EB80004100226A636D03FB02F3B1FB3C
:1045D800F3F125E702231AE74FF000083EE7236DC1
:1045E800012B02D04FF0000838E74FF4007835E788
:1045F80022681168184B0B40136021680A686368C9
:10460800606C0343A06C0343E06C034343EA080374
:104618003B43E76A3B4367693B43A0690343606ADE
:1046280043EA0053A06A034313430B603CE7236C3F
:10463800E26B013A43EA02137364736C43F00103BB
:1046480073647AE701252846BDE8F0810125FAE779
:104658000125F8E70125F6E710C005F810B504466E
:10466800042911D8DFE801F00303030808002046F5
:10467800FFF720FD20B110BD2046FFF786FDF9E7C2
:104688002046FFF70DFEF6E70120F4E7F8B50446EB
:104698000E461546FBF77CFEB5FA85F35B09002E3E
:1046A80008BF0123002B65D1074694F89130DBB28F
:1046B800012B62D194F89030012B60D0012384F84B
:1046C8009030A667A4F87C50A4F87E500023C4F864
:1046D8009430122284F89120D4F88020294911645A
:1046E800D4F880202849D163D4F880202749D164A0
:1046F800D4F8802013652268B4F87C301C32A16F8E
:10470800D4F88000FCF7F6FA054610BB00212046D5
:10471800FFF789FD2268136918431061226813683E
:1047280043F40033136023685A6912F4E02F15D15B
:10473800FBF72EFEC01BB0F57A7FF4D9D4F894307D
:1047480043F04003C4F89430002384F890300325E4
:1047580011E0002384F8903001250CE01A6812F467
:10476800803F03D11A6842F480321A60002384F82B
:10477800903000E001252846F8BD0225FBE7022518
:10478800F9E700BFA74800086D480008F548000889
:1047980038B51446B2FA82F25209002908BF01223C
:1047A800002A51D190F89130DBB2012B4FD190F80B
:1047B8009030012B4DD023460446012280F89020EA
:1047C800A167A0F87C30A0F87E300023C0F89430B0
:1047D800222280F89120D0F884201F491164D0F853
:1047E80084201E49D163D0F884201D49D164D0F8B3
:1047F800842013650168B0F87C30826F1C31D0F8D2
:104808008400FCF777FA0546C8B900212046FFF76F
:104818000AFD22681369184310612268136843F47B
:104828000033136023681A6812F4803F03D11A68B2
:1048380042F480321A60002384F8903005E00023A7
:1048480084F89030012500E00125284638BD02256E
:10485800FBE70225F9E700BFEB480008B14800086C
:10486800F548000810B5846BC369B3F5807F12D092
:104878000021A4F87E102268136823F40033136023
:104888002046FFF7D0FC2268136923EA0000106174
:10489800012384F89130204600F08FFD10BD08B543
:1048A800806B00F08BFD08BD10B5846BC369B3F550
:1048B800807F12D02268136823F40033136000212C
:1048C800A4F87E102046FFF7AEFC2268136923EA9D
:1048D80000001061012384F89130204600F06FFD3C
:1048E80010BD08B5806B00F06FFD08BD10B5846B76
:1048F800FDF732F8022816D0D4F8943043F080033C
:10490800C4F894302268136823F4003313602046F7
:10491800FFF7A4FC012384F891300023A4F87E302B
:10492800204600F049FD10BD10B402685369916932
:1049380041F00801916101688A6942F010028A61B8
:1049480001680A6822F001020A6001680C69294AB4
:1049580022400A6101688A6822F440428A6090F81D
:104968008120D2B2042A0DD013F0200F0AD0D0F83B
:10497800842042F08002C0F8842001688A6942F0ED
:1049880020028A6190F88120D2B2032A0DD013F058
:10499800400F0AD0D0F8842042F00402C0F88420E6
:1049A80001688A6942F040028A6113F4007F0AD0E4
:1049B800D0F8842042F00102C0F8842001688A6996
:1049C80042F400728A6113F4807F0AD0D0F88430F0
:1049D80043F00803C0F884300268936943F4807395
:1049E80093610023A0F86230A0F86A305DF8044BA8
:1049F800704700BF90FCFFFFC36B5B09C0680830BD
:104A0800C00803FB00007047002800F0978070B5CD
:104A180004460023836205684C4B4D4E9D4218BFE7
:104A2800B54214BF0126002607D0A3F574439D4262
:104A380003D0C3680F2B00F283802046FFF7DCFF0A
:104A480026B1444B9D4201D008287BD83F4A404BB1
:104A58009D4218BF954203D003F580639D4201D162
:104A6800102871D894F88130002B54D0022384F890
:104A780081302268136823F001031360A369B3F13E
:104A8800806F4ED0E369A26A1343E26B1343E16877
:104A980022680B439360636B626A1343A26B1343F0
:104AA800A26913432269134362691343226A1343B9
:104AB80062681343E26C1343A2681343A26C134366
:104AC800A16D22680B43D36063686BB92268936851
:104AD80023F4C05343F4006393602268936823F47B
:104AE800C06343F4806393602268136D23F001036D
:104AF8001365636813F4800F06D02268D36823F027
:104B08000043616D0B43D3600020C4F88400012387
:104B180084F8813070BD84F88030204601F006F9B1
:104B2800A4E76368B3F5800FACD1A36B002BA9D1C0
:104B38002268136843F480531360A3E70120704789
:104B48000120E7E70120E5E70120E3E70030014025
:104B580000380040003C004038B590F88040012CF7
:104B680000F02281012480F8804090F88140E4B26E
:104B78004568B5F5800F34D0012C38D1B2FA82F4EB
:104B88006409002908BF0124002C36D1002B34D039
:104B980090F88140E4B2042C02D0052480F88140CA
:104BA8000024C0F88440C165A0F86030A0F86230E5
:104BB8004266A0F86830A0F86A3004674467016864
:104BC8008A6822F440428A60C2680F2A1AD9C16FE3
:104BD8008969B1F5804F15D0002380F88030012213
:104BE80009E08568002DC7D1042CC5D1C6E700238C
:104BF80080F880300222104638BD002380F88030CB
:104C08000122F8E7072A07D9C16F8969B1F5005F62
:104C180018BFB1F5804FDFD1072A54D8826F916948
:104C2800B1F5005F33D09269B2F5804F36D0C26FCC
:104C38009169B1F5005F38D09269B2F5804F3BD0E9
:104C480090F88120D2B2042A57D0C26F5749116414
:104C5800C26F5749D1631D460446C36F554ADA648B
:104C6800C36F00221A650168B0F86A30426E3031AD
:104C7800C06FFCF73FF8002846D0D4F8843043F0E2
:104C88001003C4F88430012284F88120B3E7B0F817
:104C9800621001314908A0F86210C4E7B0F8622038
:104CA80003329208A0F86220C1E7B0F86A10013117
:104CB8004908A0F86A10BFE7B0F86A2003329208E2
:104CC800A0F86A20BCE70F2ABAD8826F9269B2F5B9
:104CD800804F0BD0C26F9269B2F5804FB0D1B0F857
:104CE8006A2001325208A0F86A20A9E7B0F86220C9
:104CF80001325208A0F86220ECE7C26F2E49116415
:104D0800C26F2E49D163A6E72268936843F48043B3
:104D18009360A26F00231364A26FD363A26FD3645E
:104D2800A26F13652268B4F862302032E16DA06F7B
:104D3800FBF7E0FF024608BBA36FDB69B3F5807F92
:104D480026D0216848681E4B03402B434B602168DE
:104D58008B6843F400438B6021680B6943F45873F4
:104D68000B6121680B6843F001030B606368B3F5BE
:104D7800800F13D0002384F880303CE7D4F88430C7
:104D880043F01003C4F88430012284F8812032E70C
:104D9800216848680A4B03404B60D8E721680B68D4
:104DA80043F400730B60E5E7022224E7354E000860
:104DB800FD4D0008414E0008294E0008D14D00085D
:104DC8000000FFFF7047704708B5806B90F881308E
:104DD800DBB2072B09D0C36FDB69B3F5807F05D041
:104DE8000268136943F00803136108BDFFF7EBFF7E
:104DF800FBE7704708B5806B90F88130DBB2072B72
:104E080009D0836FDB69B3F5807F05D00268136929
:104E180043F00803136108BDFFF7EBFFFBE770479A
:104E280008B5806BFFF7FBFF08BD704708B5806BBE
:104E3800FFF7FBFF08BD704710B5846BFCF78CFDCE
:104E480002280ED02046FFF76FFDD4F8843043F0D7
:104E58001003C4F88430012384F881302046FFF71A
:104E6800EAFF10BD2DE9F04704460668D6F8109011
:104E7800D6F8148009EA0805D6F808A090F88170D9
:104E8800FFB205F06403042B16D1436F9847236FD4
:104E980020469847012305F04502012A03D1236FD4
:104EA80020469847012305F02602022A06D1636F9F
:104EB80020469847BDE8F0870023ECE7002BF9D19E
:104EC80015F0080F6CD02268936943F008039361CA
:104ED8002268936943F0100393612268936943F44D
:104EE800006393612268136923F0080313611AF4BD
:104EF800404F09D0042F02D0A36FDB6923B1032FE1
:104F080011D0E36FDB6973B923689B6813F4404FD2
:104F180021D02046FFF708FD012384F88130D4F81A
:104F28008430002B30D1052F32D0042F34D0032FFA
:104F3800C0D12046FFF746FFBCE7072B1BD9636E9D
:104F4800328E1A80636E02336366B4F86A30013BAE
:104F58009BB2A4F86A30B4F86A309BB2002BD8D060
:104F6800E3680F2BE9D92268636E126B1A60636ECF
:104F780004336366E9E72268636E92F830201A709A
:104F8800636E01336366E0E72046FFF754FF91E75D
:104F98002046FFF72EFF8DE72046FFF714FF89E72D
:104FA80018F4006F02D019F0080F74D115F4587F67
:104FB80080D015F0400F0AD0D4F8843043F00403B1
:104FC800C4F884302268936943F04003936115F470
:104FD800007F0AD0D4F8843043F00103C4F8843049
:104FE8002268936943F40073936115F4807F0AD0B3
:104FF800D4F8843043F00803C4F8843022689369F5
:1050080043F48073936115F0200F0AD0D4F88430EC
:1050180043F08003C4F884302268936943F0200386
:105028009361D4F88430002B3FF444AF22681368AE
:1050380023F001031360226811691D4B0B401361B3
:105048000AF4404ABAF5404F2BD12268936823F4FA
:1050580040439360E36F5BB1164A1A65E06FFBF754
:1050680095FF28B1D4F8843043F04003C4F8843065
:10507800A36F002B3FF41EAF0E4A1A65A06FFBF713
:1050880085FF00283FF416AFD4F8843043F040037E
:10509800C4F884300EE72268936943F4006393618F
:1050A80008E7012384F881302046FFF7C4FE01E7B2
:1050B80094FCFFFFC150000808B5806B0023A0F8DE
:1050C8006A30A0F86230012380F88130FFF7B3FE20
:1050D80008BD00002DE9F0412DED028B06468846FB
:1050E80017462D4A13685B0013602C4B2C4A2D4938
:1050F80020209FED2D0A01F08DF841F288322B49CE
:105108002B4801F021F80A20FBF748F9002304E0B6
:10511800284A002142F8231001337F2BF8DD0024B0
:105128001DE0A5002448284401F06CF89FED238A6F
:10513800DFED230AB0EE480A2248284400F00CFFAD
:105148009FED210A2148284400F04AFFF0EE480A62
:105158009FED1F0A1F48284400F014FF0134012C5A
:10516800DFDD0120FBF71AF9124C80222146404668
:10517800FFF78CFA184B1870802204F50071384636
:10518800FFF706FB154B1870304600F023F9BDEC0D
:10519800028BBDE8F08100BFF0000020CD57000869
:1051A80020A107000000002400803B47E8020020FF
:1051B8008816002000000030701600200AD7233C13
:1051C80072F97F3FFC01002000007A437816002026
:1051D8000000A042D4020020F8010020DC020020D8
:1051E800384B186807EE900AF8EEE77A364B93EDDD
:1051F800017AF4EE477AF1EE10FA0BD1324BC3ED97
:10520800017A00230BE0314A42F823300133312B75
:10521800F9DDF3E70023FAE72A4A9360013398425D
:105228000BDD2A4A52F82320264949689142F3D0D7
:105238000132264941F82320F0E7224B9B68BBB195
:10524800591E234A02EB8102D2ED007AF4EEC07AAD
:10525800F1EE10FA0CDD1E4A02EB8302C2ED007A71
:105268001A4A52F8210042F82300164B9960E4E7E5
:10527800144A93685268934217D0591C144A02EB97
:105288008102D2ED007AB4EEE70AF1EE10FA0CDDF5
:105298000F4A02EB8302C2ED007A0C4A52F8210051
:1052A80042F82300074B9960E2E7094A02EB8301C1
:1052B80081ED000A0549002041F8230092ED050A16
:1052C800704700BF08000020F000002024010020E3
:1052D8000402002010B50E4C84ED020AE2680D4964
:1052E80081FB0231D317C3EBE10303EB830399007E
:1052F800531A094A02EB830393ED030AFFF770FF81
:1053080084ED040AE3680133E36094ED020A10BDFA
:10531800F00000206766666608000020014B83EDF8
:10532800020A7047F0000020F8B52DED028B1E4BE5
:105338001B7DB3B30746002631E0BC191B4D05EBB6
:105348008403D3F800321B0200EE103AB8EEC00A0C
:10535800DFED178A20EE280AFFF7E0FF9FED158A98
:1053680020EE080ABDEEC00A10EE103A45F82430C7
:10537800013405EB8403D3F800321B0200EE103A27
:10538800B8EEC00A20EE280AFFF7A4FF20EE080AAC
:10539800BDEEC00A10EE103A45F8243002363F2E12
:1053A800CBDDBDEC028BF8BDF00000200000003022
:1053B800F6FFFF2F0000004B70477047704708B595
:1053C8004020FFF7B1FF08BD08B50020FFF7ACFF8C
:1053D80008BD00002DE9F04F83B0064601224FF4C6
:1053E80080413F48FCF7AAFB0220FAF7D7FF3D4C63
:1053F8004FF0070A84F800A04FF0030B84F801B0BF
:10540800394D2B886A680092224620213046FCF7E5
:10541800E9FC364F38704FF0010884F800804123CA
:1054280063702B886A680092224620213046FCF778
:10543800D9FC38704FF0020984F80090002363709B
:105448002B886A680092224620213046FCF7CAFC65
:10545800387084F800B0792363702B886A680092EA
:10546800224620213046FCF7BDFC38700423237007
:1054780084F801802B886A680092224620213046F1
:10548800FCF7B0FC38700523237084F801802B8862
:105498006A680092224620213046FCF7A3FC387047
:1054A80006232370102363702B886A6800922246B3
:1054B80020213046FCF796FC387084F800A084F868
:1054C80001902B886A680092224620213046FCF71A
:1054D80089FC074B83F8008003B0BDE8F08F00BF5C
:1054E8000008025814010020C4000020941600206F
:1054F8000401002000B583B0174BD3F8D82042F040
:105508000102C3F8D820D3F8D83003F0010301937F
:10551800019B002211460C20FAF76CFF0C20FAF7C9
:105528009BFF002211460D20FAF764FF0D20FAF7C1
:1055380093FF002211460E20FAF75CFF0E20FAF7BF
:105548008BFF002211460F20FAF754FF0F20FAF7BD
:1055580083FF03B05DF804FB0044025870B58EB0B9
:10556800002409940A940B940C940D945A4BD3F884
:10557800E02042F01002C3F8E020D3F8E02002F067
:1055880010020192019AD3F8E02042F00402C3F815
:10559800E020D3F8E02002F004020292029AD3F845
:1055A800E02042F02002C3F8E020D3F8E02002F027
:1055B80020020392039AD3F8E02042F08002C3F855
:1055C800E020D3F8E02002F080020492049AD3F895
:1055D800E02042F00102C3F8E020D3F8E02002F016
:1055E80001020592059AD3F8E02042F00202C3F8BE
:1055F800E020D3F8E02002F002020692069AD3F8DF
:10560800E02042F04002C3F8E020D3F8E02002F0A6
:1056180040020792079AD3F8E02042F00802C3F844
:10562800E020D3F8E03003F008030893089B2B4EE2
:1056380022464FF480413046FCF780FA4FF400537D
:1056480009930A940B9409A93046FCF787F94FF49B
:105658008043099301230A9302230B930C9409A90D
:105668003046FCF77BF948F2E603099303250A95CF
:105678000B9409A93046FCF771F94FF4F8630993C4
:105688000A950B9409A91648FCF768F949F6FF73BF
:1056980009930A950B9409A91248FCF75FF940F29F
:1056A800F73309930A950B9409A90F48FCF756F9A3
:1056B80043F6F80309930A950B9409A90B48FCF7DC
:1056C8004DF947F6C86309930A950B9409A9084848
:1056D800FCF744F90EB070BD0044025800080258A7
:1056E800001402580000025800040258000C025826
:1056F8000018025808B51248124B0360124B436059
:10570800002383600122C260036143618361C36136
:105718000362FCF709FB50B900210948FCF720FC9B
:1057280040B900210648FCF749FC30B908BD00F033
:10573800A1F8F1E700F09EF8F3E700F09BF8F5E731
:105748009816002000580040DB3FB00010B588B024
:105758000023039304930593069307930268164B5B
:105768009A4201D008B010BD144CD4F8E03043F090
:105778000203C4F8E030D4F8E03003F002030193E8
:10578800019B4FF44063039312230493032306936E
:105798000423079303A90A48FCF7E0F8D4F8E83093
:1057A80043F48003C4F8E830D4F8E83003F4800305
:1057B8000293029BD6E700BF0058004000440258FD
:1057C8000004025800B583B001A90748FEF741FC60
:1057D800DDED017AF8EE677A9FED040A27EE800A7C
:1057E80003B05DF804FB00BFE81600200D00802F11
:1057F80070B584B0FAF754FE01248DF800404FF0DC
:105808004053019311238DF8083003268DF80B605F
:105818008DF80A4000258DF80E508DF80F508DF840
:105828000D508DF801508DF809508DF80C406846E0
:10583800FAF758FE8DF800404FF0605301930F239C
:105848008DF808308DF80B608DF80A408DF80E4001
:105858008DF80F408DF80D408DF801408DF80950F6
:105868008DF80C506846FAF73DFE0420FAF728FE3A
:1058780004B070BDFEE7000000B5CDB04C22002199
:1058880039A800F03BFD2022002131A800F036FDA8
:10589800BC22002102A800F031FD0220FCF7BAFB6F
:1058A80000230193394B9A6942F440429A619B69FB
:1058B80003F440430193364BDA6A42F00102DA629C
:1058C800DB6A03F001030193019B304B9B6913F4DE
:1058D800005FFAD02F4A936A23F0030343F00203D0
:1058E8009362212339934FF480333A9301233F93F2
:1058F80002234293439305224492C0224592469341
:10590800479348930823499300234A934B9339A814
:10591800FCF7AAFB002833D13F23319303233293AA
:1059280000233393082334934023359336934FF45D
:10593800806237923893042131A8FCF783FF08BBB3
:10594800154B0293192303934FF4AC730493072365
:1059580005930223069307930023089309930A9358
:1059680013934FF4803215920122179219932193C1
:10597800229302A8FDF7DEF930B94DB05DF804FBBB
:10598800FFF778FFFFF776FFFFF774FF004802582C
:1059980000040058004402580811030110B5FFF72D
:1059A80027FFBFF34F8FBFF36F8F3A4B0021C3F828
:1059B8005012BFF34F8FBFF36F8F5A6942F4003212
:1059C8005A61BFF34F8FBFF36F8FC3F88410BFF3D3
:1059D8004F8FD3F88040C4F34E310FE01A4643F698
:1059E800E07303EA411343EA82732A48C0F860323D
:1059F800531E002AF2D14B1E19B11946C4F3C9022D
:105A0800EDE7BFF34F8F436943F480334361BFF33E
:105A18004F8FBFF36F8FFAF781FCFFF72DFFFFF76A
:105A28009DFDFFF767FD00F071F800F043F800F006
:105A380057F9FFF75FFE00224FF480411648FCF744
:105A48007DF8F1EE103A43F08073E1EE103A00234E
:105A580006E012490A78501C08701149CA540133EB
:105A68000F2BF6DD0E49102301F120020D48FFF738
:105A780073F8012240210848FCF760F80A20FAF779
:105A88008DFC6420FAF78AFC074A08490848FFF7A2
:105A980021FBFEE700ED00E000080258E4160020B4
:105AA800000400301C190020FC1600208418002077
:105AB8009816002008B50648064B0360002343608B
:105AC800FEF78CFA00B908BDFFF7D4FEFBE700BF6C
