:020000040800F2
:100000000000022061DD0008F9CC0008FBCC0008EC
:10001000FDCC0008FFCC000801CD00080000000066
:1000200000000000000000000000000003CD0008F8
:1000300005CD00080000000007CD000809CD00082C
:10004000B1DD0008B1DD0008B1DD0008B1DD000858
:10005000B1DD0008B1DD0008B1DD0008B1DD000848
:10006000B1DD0008B1DD0008B1DD000811CD0008E8
:1000700021CD000831CD0008B1DD0008B1DD000858
:10008000B1DD0008B1DD000841CD0008B1DD000898
:10009000B1DD0008B1DD0008B1DD0008B1DD000808
:1000A000B1DD0008B1DD0008B1DD0008B1DD0008F8
:1000B000B1DD0008B1DD0008B1DD0008B1DD0008E8
:1000C000B1DD0008B1DD0008B1DD0008B1DD0008D8
:1000D000B1DD0008B1DD0008B1DD0008B1DD0008C8
:1000E000B1DD0008B1DD000800000000B1DD00084E
:1000F000B1DD0008B1DD0008B1DD0008B1DD0008A8
:10010000B1DD0008B1DD0008B1DD0008B1DD000897
:10011000B1DD0008B1DD0008B1DD0008B1DD000887
:10012000B1DD0008B1DD0008B1DD0008B1DD000877
:10013000B1DD0008B1DD0008B1DD0008B1DD000867
:1001400000000000000000000000000000000000AF
:10015000B1DD0008B1DD0008B1DD0008B1DD000847
:10016000B1DD0008B1DD0008B1DD0008B1DD000837
:10017000B1DD0008B1DD0008B1DD000800000000BD
:10018000B1DD0008B1DD0008B1DD0008B1DD000817
:10019000B1DD0008B1DD0008B1DD0008B1DD000807
:1001A000B1DD0008B1DD0008B1DD0008B1DD0008F7
:1001B000B1DD0008B1DD0008B1DD0008B1DD0008E7
:1001C000B1DD0008B1DD000851CD000861CD0008A7
:1001D000B1DD000871CD0008B1DD0008B1DD000817
:1001E000B1DD0008B1DD0008B1DD0008B1DD0008B7
:1001F000B1DD0008B1DD0008B1DD0008B1DD0008A7
:10020000B1DD0008B1DD0008B1DD0008B1DD000896
:10021000B1DD0008B1DD0008B1DD0008B1DD000886
:10022000B1DD0008B1DD0008B1DD0008000000000C
:10023000B1DD0008B1DD000800000000B1DD0008FC
:10024000B1DD0008B1DD0008B1DD0008B1DD000856
:10025000B1DD0008B1DD0008B1DD0008B1DD000846
:10026000B1DD0008B1DD0008B1DD0008B1DD000836
:10027000B1DD0008B1DD0008B1DD000800000000BC
:10028000B1DD0008B1DD0008B1DD000800000000AC
:0802900000000000B1DD0008D0
:1002980010B5054C237833B9044B13B10448AFF3B8
:1002A80000800123237010BD900000200000000092
:1002B8004CE0000808B5034B1BB103490348AFF3F2
:1002C800008008BD00000000940000204CE00008F9
:1002D80053B94AB9002908BF00281CBF4FF0FF31A5
:1002E8004FF0FF3000F088B9ADF1080C6DE904CE8D
:1002F80000F006F8DDF804E0DDE9022304B07047F9
:100308002DE9F047089D0F4604468C46002B48D13E
:100318008A42164661D9B2FA82F34BB1C3F1200280
:1003280001FA03FC20FA02F29E4042EA0C0C9C40BF
:100338004FEA164EB7B2BCFBFEF1220C0EFB11CCF5
:1003480042EA0C4201FB07F0904209D9B21801F1C8
:10035800FF3C80F0EE80904240F2EB80023932445C
:10036800121AA4B2B2FBFEF00EFB102244EA0244B9
:1003780000FB07F7A74209D9341900F1FF3280F0D2
:10038800DA80A74240F2D7803444023840EA01407C
:10039800E41B00211DB1DC400023C5E90043BDE892
:1003A800F0878B4206D90DB1C5E900010021084646
:1003B800BDE8F087B3FA83F1002948D1BB4202D3E4
:1003C800824200F20781841A67EB030201209446F7
:1003D800002DE4D0C5E9004CE1E7002A00F0928046
:1003E800B2FA82F3002B40F0A8808A1A4FEA164E20
:1003F8001FFA86FC0121200CB2FBFEF70EFB172228
:1004080040EA02420CFB07F0904207D9B21807F104
:10041800FF3802D2904200F2E2804746121AA4B294
:10042800B2FBFEF00EFB102244EA02440CFB00FC77
:10043800A44507D9341900F1FF3202D2A44500F2CD
:10044800CB801046A4EB0C0440EA0740A2E7C1F1B8
:1004580020068B4022FA06FC4CEA030C07FA01F44A
:1004680020FA06F3F7404FEA1C49234300FA01F843
:100478001FFA8CFEB7FBF9F01C0C09FB107744EA55
:10048800074400FB0EF7A74202FA01F20AD91CEB57
:10049800040400F1FF3A80F09B80A74240F2988064
:1004A80002386444E41B9FB2B4FBF9F309FB13441C
:1004B80047EA044403FB0EFEA64509D91CEB0404D5
:1004C80003F1FF3780F08280A6457FD9023B644460
:1004D80043EA0040A4EB0E04A0FB02E7BC427346CB
:1004E800B94663D360D05DB1B8EB030264EB09048D
:1004F80004FA06F622FA01F31E43CC40C5E900646B
:1005080000214CE76208480842EAC1710B0C43EA33
:1005180000438AB242EA0342B3FBF6F1E407B44669
:100528003746B6461F23B0FBF6F0D21B41EA00411E
:1005380061E7614614E7104628E7C3F1200120FA75
:1005480001F29E4027FA01F19F403A434FEA164EC6
:100558001FFA86FCB1FBFEF70EFB1710110C41EADF
:10056800004107FB0CF8884504FA03F43AD97118DE
:1005780007F1FF3001D288451FD8A1EB0801B1FB74
:10058800FEF808FB0CF70EFB181192B242EA014282
:10059800BA422FD2B21808F1FF31C6D2BA42C4D239
:1005A800A8F102013244C0E7F0459CD2BEEB020339
:1005B80067EB0C070138B94695E7A6EB08084144F4
:1005C800B81EB1FBFEF808FB0CF7DCE73B467FE7FB
:1005D800504667E70846FBE63444023832E7023FF4
:1005E80032441BE7A1EB08013846B1FBFEF808FBD3
:1005F8000CF7C8E7414698E7704700BF104B1B78D7
:100608000BB90120704710B504460E4A10684FF424
:100618007A72B2FBF3F3B0FBF3F001F06DF868B94E
:100628000F2C01D901200AE0002221464FF0FF30AB
:1006380001F044F8024B5C60002000E0012010BD8E
:10064800000000201800002010B5032001F024F855
:1006580003F0DCFD0F498B69C3F303230E4AD35C17
:1006680003F01F03D8408B6903F00F03D35C03F03A
:100678001F0320FA03F3094A1360094B186000208E
:10068800FFF7BCFF10B10124204610BD04460CF052
:100698001DFBF9E70044025888E000081C00002010
:1006A80018000020034B1B78034A11680B441360A1
:1006B800704700BF00000020AC000020014B186804
:1006C800704700BFAC00002038B50446FFF7F6FFBE
:1006D8000546B4F1FF3F02D0044B1B781C44FFF7DA
:1006E800EDFF401BA042FAD338BD00BF0000002038
:1006F800014B1868000C70470010005C034A13682F
:1007080023F0407303431360704700BF004000525A
:1007180010B430300B0A9B0003F00C03C45801F0EE
:100728001F014FF01F0C0CFA01FC24EA0C0CC2F359
:1007380084628A404CEA0202C2505DF8044B70475A
:1007480010B414304B0E9B0003F00403C458C1F3DB
:1007580004514FF0070C0CFA01FC24EA0C0C8A40F7
:100768004CEA0202C2505DF8044B7047704708B566
:10077800806BFFF7FBFF08BD70477047F8B504466C
:1007880003681D685E689C499C4A934218BF8B4267
:100798005BD19B4B9F6807F01F0715F0020F10D025
:1007A80016F0020F0DD0636D13F0100F03D1636DB7
:1007B80043F400636365204600F098FE2368022234
:1007C8001A6015F0040F02D016F0040F05D115F0C9
:1007D800080F4FD016F0080F4CD0636D13F0100FB0
:1007E80003D1636D43F4007363652368DA6812F418
:1007F800406F39D1814A934229D01A46934207D093
:10080800092F27D840F22121F94011F0010F21D0FA
:10081800DA6812F4005F27D11A6812F0080F23D0A3
:100828009A6812F0040F17D15A6822F00C025A6025
:10083800636D23F480736365636D13F4805F13D174
:10084800636D43F0010363650EE06E4BA2E7A2F50A
:100858008072D3E7D268DCE7636D43F01003636509
:10086800A36D43F00103A36520460BF0ADFD23689B
:100878000C221A6015F0200F02D016F0200F05D1B7
:1008880015F0400F63D016F0400F60D0636D13F081
:10089800100F03D1636D43F4005363652368DA6C6A
:1008A80012F4C07F19D10121DA6812F4406F16D111
:1008B8000120524A934214D01A46934214D0062F6C
:1008C80014BF4FF0000C4FF0010C6FB1BCF1000FDA
:1008D8000AD1072F08D0D26807E00021E4E70020FA
:1008E800E7E7A2F58072E8E7DA6831B912F0007F2D
:1008F80027D130B312F4005F23D1196811F0400FEB
:100908001FD012F4001F1CD19A6812F0080F10D1E2
:100918005A6822F060025A60636D23F4805363655D
:10092800636D13F4807F0CD1636D43F0010363653D
:1009380007E0636D43F010036365A36D43F00103A3
:10094800A365204600F0CEFD236860221A6015F0EA
:10095800800F02D016F0800F36D115F4807F02D0B8
:1009680016F4807F3BD115F4007F02D016F4007F87
:100978004AD115F0100F20D016F0100F1DD0236BA0
:100988006BB1002F4ED023681B491C4A934218BFF5
:100998008B4245D11A4B9B6813F4404F0AD0636DC4
:1009A80043F480636365A36D43F00203A3652046A7
:1009B800FFF7E3FE236810221A6015F4806F02D057
:1009C80016F4806F34D1F8BD636D43F480336365EA
:1009D8002046FFF7D1FE236880221A60BDE7636DC9
:1009E80043F400336365204600F07EFD23684FF42E
:1009F80080721A60B7E700BF002002400021024061
:100A08000023024000630258636D43F4802363654A
:100A1800204600F06AFD23684FF400721A60A8E7C8
:100A28000B4BB8E72368DB6813F0030FC2D0B6E7B7
:100A3800636D43F480436365A36D43F00803A365C6
:100A480023684FF480621A60204600F04CFDBAE734
:100A58000063025808B50346806B426D12F0500FD0
:100A680030D1436D43F40073436503681A6812F08C
:100A7800080F14D0DA6812F4406F20D1DB6813F441
:100A8800005F1CD1436D23F480734365436D13F4F9
:100A9800805F14D1436D43F0010343650FE0DB68C9
:100AA80013F0030F0BD1436D23F480734365436D3B
:100AB80013F4805F03D1436D43F0010343650BF0EA
:100AC80083FC08BD426D12F0100F04D1C26CD26CC9
:100AD80018469047F5E7FFF750FEF2E708B5806B38
:100AE800436D43F040034365836D43F0040383651E
:100AF800FFF743FE08BD000070B582B000230193E4
:100B080090F85030012B00F00E8204460D46012368
:100B180080F850300268936813F0040F09D0436DD1
:100B280043F0200343650120002384F8503002B0CD
:100B380070BD0B68C3F31301002939D1C3F3846373
:100B480001219940D3690B43D3612A6869682068F9
:100B5800FFF7DEFD2068866816F0040600D001263F
:100B6800836813F0080F00D15EB321688B6813F017
:100B7800010F40F0D4812B68E868D1F8C020C3F396
:100B8800130622EA060200F01806B448F0400340B3
:100B9800C3F313031343C1F8C030EA68B04B9A4259
:100BA80000F09E802B68002BC0F234810020BBE748
:100BB80093FAA3F3B3FA83F303F01F0301219940D7
:100BC800C0E7AA682968FFF7BBFDA64B1B6803F0BE
:100BD8007043B3F1805F0BD02268D36813F0100F15
:100BE8003BD16B69D268C2F382025200934006E09F
:100BF8006B692268D268C2F3820252009340296965
:100C0800042938D02268286802F1600C5CF8212099
:100C180002F0004200F0F840034313434CF821303F
:100C2800236828696A7E012A1FD03246603353F848
:100C3800201021F000410A4343F820202068296948
:100C48002B7E012B14D0026922F4F04201F01F031D
:100C580006FA03F31343036187E76B69D2689208C6
:100C680002F0040252009340C9E74FF00042DDE76A
:100C78004FF40066E7E72268136E03F0F84329682B
:100C8800B3EB816F1DD02268536E03F0F8432968D7
:100C9800B3EB816F1AD02268936E03F0F84329688A
:100CA800B3EB816F17D02268D36E03F0F84329683D
:100CB800B3EB816F7FF459AFD36E23F00043D36653
:100CC80053E7136E23F000431366DCE7536E23F0FB
:100CD80000435366DFE7936E23F000439366E2E731
:100CE80020682B68C3F313063EBB9A0E013202F04C
:100CF8001F02092A8CBF00220122002A49D046BBC4
:100D0800990E0131890601F0F8415EBB4FEA936CF8
:100D18000CF1010C0CF01F0C012202FA0CF2114329
:100D280066BB9B0E013303F01F0303EB43031B0554
:100D38001943AA68FFF704FD34E793FAA3F2B2FA5D
:100D480082F2013202F01F02092A8CBF002201221E
:100D5800D3E793FAA3F1B1FA81F10131890601F0E1
:100D6800F841D2E793FAA3FCBCFA8CFC0CF1010C15
:100D78000CF01F0C012202FA0CF2D0E793FAA3F34D
:100D8800B3FA83F3013303F01F0303EB43031B059B
:100D9800CEE7E6B9990E0131890601F0F841FEB9AE
:100DA8004FEA936C0CF1010C0CF01F0C012202FAB3
:100DB8000CF2114306BB9B0E013303F01F0303EB38
:100DC80043031E3B1B0543F000731943B1E793FA35
:100DD800A3F1B1FA81F10131890601F0F841DEE7AA
:100DE80093FAA3FCBCFA8CFC0CF1010C0CF01F0C60
:100DF800012202FA0CF2DCE793FAA3F3B3FA83F3C5
:100E0800013303F01F0303EB43031E3B1B0543F0B1
:100E18000073DAE7226814491448824218BF8A42EC
:100E28000CBF0121002125D1114EB56805F0E07CE9
:100E380011B30D49886810F0010000D001200B495A
:100E4800896811F0010100D00121014319D0636DB7
:100E580043F020036365012066E600BFFFFF0F0033
:100E68000000FF470010005C002002400021024003
:100E7800002302402D4ED8E72D49896811F0010F53
:100E8800E5D12C498B4207D02B498B4225D02B49E1
:100E98008B4233D0002047E615F4000FF4D1244BE1
:100EA8009A4201D000203FE64CF40003B26822F0D9
:100EB800E0721343B360224B1B689B09214AA2FBD3
:100EC80003239B095B00019302E0019B013B019313
:100ED800019B002BF9D1002026E615F0807FD6D1A2
:100EE800134B9A4201D000201EE64CF08073B26882
:100EF80022F0E0721343B360002015E615F4800F6A
:100F08000FD10B4B9A4201D000200DE64CF4800320
:100F1800B26822F0E0721343B360002004E60020B8
:100F280002E6002000E6022001E600BF0063025846
:100F380000600258000084CB000052C70000B8CF00
:100F480018000020632D3E0538B503689A6812F032
:100F5800010F52D104469968294A114209D0436DBC
:100F680043F010034365836D43F00103836501205B
:100F780044E09968234A0A4042F001029A60FFF768
:100F88009DFB054623682049204A934218BF8B429F
:100F98000DD102F50072926802F01F021B498B42C4
:100FA80007D0194699420CD05AB1002026E0184AB9
:100FB800F1E7A1F58071F5E7FFF780FB401B0228F8
:100FC8000FD823681A6812F0010F14D19A6812F02A
:100FD800010FF1D199680B4A0A4042F001029A6068
:100FE800EAE7636D43F010036365A36D43F0010303
:100FF800A365012002E0002000E0002038BD00BF0A
:101008003F000080C0FFFF7F002002400021024017
:1010180000630258F8B504460E46174600683E4A73
:101028003E4B984218BF90421CD103F500739D684F
:1010380005F01F05806810F0040F69D194F850304E
:10104800012B67D0012384F85030092D05D840F2D0
:101058002123EB4013F0010F06D1002384F8503010
:10106800012056E02E4BE2E72046FFF76DFF0028EF
:101078004AD1626DA0F60273134043F4807363652E
:101088002368264A934239D01A46934200D01DB9A4
:10109800636D23F480136365636D13F4805F30D050
:1010A800A36D23F00603A365E36C1E4ADA63E36CC1
:1010B8001D4A1A64E36C1D4ADA6423681C221A600C
:1010C800002384F850302268536843F010035360BB
:1010D8002168E36ACA6822F003021343CB602168DF
:1010E8003B4632464031E06C00F04AFF2268916886
:1010F8000F4B0B4043F0040393600AE0A2F58072A3
:10110800C3E70023A365CFE7002384F8503000E04D
:101118000220F8BD0220FCE7002002400021024026
:10112800006302585D0A000877070008E50A00080E
:10113800C0FFFF7F38B5044603684E494E4A9342C4
:1011480018BF8B4226D14D4B9B6803F44033003BBC
:1011580018BF012343B303F09FFA05466368B3F54C
:10116800003F05D0B3F5403F1CD0B3F5803F02D116
:101178001B0CB5FBF3F5FFF7BBFA41F203039842EA
:1011880052D83F4B9D4249D92268936843F48073F3
:10119800936038BD3B4B9B6803F44033003B18BF5A
:1011A8000123D7E78508E6E74FF4002004F0B8FBF1
:1011B80005466368B3F5101F2CD021D8B3F5E01F9E
:1011C80026D004D9B3F5001FD5D14509D3E7B3F527
:1011D800801F10D009D8B3F5002F0CD0B3F5402FDD
:1011E80009D0B3F5802F06D0C5E7B3F5A01F02D00C
:1011F800B3F5C01FBFD19B0C5B00B5FBF3F5BAE795
:10120800B3F5201F08D0B3F5301FB4D1050AB2E7F3
:101218000509B0E78509AEE7C509ACE72268936818
:1012280023F480739360B4E7174B9D4205D8226876
:10123800936823F440739360ABE7144B9D4207D83F
:101248002268936823F4407343F480739360A0E7A3
:101258000F4B9D4207D82268936823F4407343F4E8
:101268000073936095E72268936843F44073936032
:101278008FE700BF00200240002102400023024007
:10128800002D31010063025821BCBE0041787D0168
:1012980081F0FA0230B583B000230193002800F0F2
:1012A80007810446436DE3B123689A6812F0005F32
:1012B80003D099687F4A0A409A6023689A6812F0B6
:1012C800805F1BD199687C4A0A4042F080529A603C
:1012D8007A4B1B689B097A4AA2FB03239B0901935B
:1012E80009E00AF0F7F90023A36584F85030DBE73A
:1012F800019B013B0193019B002BF9D12268936864
:1013080013F0805F40F09780636D43F010036365CE
:10131800A36D43F00103A3650125936813F004034B
:1013280000D00123616D11F0100F40F0B980002B3F
:1013380040F0B680636D23F4817343F00203636564
:10134800936813F0010F1ED15E495F4B9A4218BF94
:101358008A420CBF012200226FD1896811F0010175
:1013680000D00121584B9B6813F0010300D00123E2
:101378000B4308D1002A66D0544963688A6822F46E
:101388007C1213438B60FFF7B3F941F203039842D1
:1013980002D9A368102B58D0627D236B43EA4233ED
:1013A800A2681343227F43EA0243227F012A57D0CF
:1013B800626A22B102F47872A16A0A43134321686F
:1013C800C868434A02401A43CA602268936813F007
:1013D800040300D00123916811F0080F1CD1DBB978
:1013E800217DE36A43EA8131D0683A4B03400B43DD
:1013F800D36094F83830012B37D02268136923F072
:10140800010313612268136923F07043616B0B4376
:1014180013612046FFF78EFEE368012B37D0226860
:10142800136B23F00F031363636D23F0030343F07F
:101438000103636539E000256FE7274B9B6813F0CC
:10144800010FA0D196E7254997E7617D226B42EA13
:1014580041321343227F43EA024343F00C03A4E7DB
:10146800226A013A43EA4243A2E7206802691C4B18
:101478001340E26B511E226C42EA0142616C0A433E
:10148800A16C0A43134343F001030361BAE72168DF
:101498000B6B23F00F03A269013A13430B63C3E7F5
:1014A800636D43F0100363650125284603B030BD22
:1014B8000125FAE7C0FFFF5FC0FFFF6F180000209B
:1014C800632D3E0500200240002102400023024017
:1014D80003C0F0FFFCBFFFFF006002580063025822
:1014E8001EF800FC7047704770477047704700004F
:1014F80090F85020012A00F0938030B49AB0034647
:10150800012280F850200068464A904236D00022D6
:101518000192019A002A35D0926812F0040200D094
:101528000122846814F0040F6BD1002A69D13D4C64
:101538003D4A904218BFA0422DD102F500720868BA
:10154800002839D0906820F440404C6820439060CF
:101558001868344D344CA04218BFA8421DD1AC685D
:1015680014F0010400D001242F48806810F0010015
:1015780000D00120204315D0002047E002F58072FA
:101588000192C6E75A6D42F020025A65002283F89C
:10159800502001203DE0254AD1E72548806810F019
:1015A800010F39D19468234820400C688968214389
:1015B80008439060002029E0916821F4404191603F
:1015C8001968184C1848814218BFA1420ED1A0686A
:1015D80010F0010000D001201349896811F00101C1
:1015E80000D00121014306D000200FE0104989688E
:1015F80011F0010F12D190680E490140916000204E
:1016080004E05A6D42F020025A650120002283F856
:1016180050201AB030BC70470020F7E70020F5E7EB
:101628000220704700200240002102400063025857
:1016380000600258E0F0FFFF002804DB0901C9B28E
:10164800044B1954704700F00F000901C9B2024B4E
:101658001954704700E400E014ED00E000B500F014
:101668000700C0F1070CBCF1040F28BF4FF0040CB1
:10167800031D062B0ED9C31E4FF0FF3E0EFA0CF0C9
:1016880021EA000199400EFA03FE22EA0E0241EA1D
:10169800020000BD0023EFE70649CB6823F4E063AE
:1016A8001B041B0C000200F4E0600343024A1A43C7
:1016B800CA60704700ED00E00000FA0510B5044666
:1016C800054BD868C0F30220FFF7C8FF0146204643
:1016D800FFF7B2FF10BD00BF00ED00E0002807DBF8
:1016E80000F01F02400901239340024A42F82030CB
:1016F800704700BF00E100E00138B0F1807F0BD2F5
:101708004FF0E0235861054AF02182F823100020A9
:10171800986107221A6170470120704700ED00E0C8
:10172800BFF35F8F044B5A6A22F480325A62002258
:10173800C3F89420704700BF00ED00E040F00100BE
:10174800054BC3F894005A6A42F480325A62BFF3D8
:101758004F8FBFF36F8F704700ED00E04278164B54
:10176800C3F898200378FBB14368134AC2F89C3049
:10177800017BC37A1B0643EA0173817A43EAC143BA
:10178800417B43EA8143817B43EA4143C17B43EA8E
:101798000143417A43EA0123017A43EA410301788C
:1017A8000B43C2F8A0307047034B0022C3F89C20BB
:1017B800C3F8A020704700BF00ED00E0F0B4876DCB
:1017C8000468664E664DAC4218BFB44242D0183524
:1017D800AC423FD01835AC423CD01835AC4239D079
:1017E8001835AC4236D01835AC4233D01835AC4237
:1017F80030D005F55675AC422CD01835AC4229D0FE
:101808001835AC4226D01835AC4223D01835AC4236
:1018180020D01835AC421DD01835AC421AD0183536
:10182800AC4217D04F4DAC4214D01435AC4211D055
:101838001435AC420ED01435AC420BD01435AC4242
:1018480008D01435AC4205D01435AC4202D014355A
:10185800AC4207D1446E856E6560C46E14B1046FE6
:10186800456F656004683D4E3D4DAC4218BFB442BB
:1018780052D01835AC424FD01835AC424CD0183540
:10188800AC4249D01835AC4246D01835AC4243D0AA
:101898001835AC4240D005F55675AC423CD01835E9
:1018A800AC4239D01835AC4236D01835AC4233D0BA
:1018B8001835AC4230D01835AC422DD01835AC4272
:1018C8002AD01835AC4227D0264E274DAC4218BF37
:1018D800B44211D0254DAC420ED01435AC420BD0D9
:1018E8001435AC4208D01435AC4205D01435AC429E
:1018F80002D01435AC4224D1C46D04F01F05012474
:10190800AC407C60046863608368402B20D0036827
:1019180099600368DA6014E0C46D04F01F0C3F247A
:1019280004FA0CF4BC6005682C6824F480242C604C
:10193800046863608368402B05D003689960036876
:10194800DA60F0BC704703689A600368D960F8E70A
:1019580003689A600368D960F3E700BF100002408B
:1019680028000240085402581C54025830540258A7
:1019780003682749274A934218BF8B422FD0183251
:1019880093422CD01832934229D01832934226D051
:101998001832934223D01832934220D018329342FF
:1019A8001DD002F55672934219D01832934216D0C0
:1019B8001832934213D01832934210D018329342FF
:1019C8000DD0183293420AD01832934207D01832F9
:1019D800934204D023F0FF038365806D704710B4F1
:1019E800D9B210390C4AA2FB0142C2F302120B4CC5
:1019F800A25CC2655F2907D96FF3090304338365C5
:101A0800806D5DF8044B70476FF309038365F7E752
:101A18001000024028000240ABAAAAAA64E000080D
:101A280083699BB9836A012B0AD0022B02D00BB1C0
:101A380000207047C36A13F0807F2AD100207047C6
:101A4800C36AB3F1C07F26D000207047B3F5005FAA
:101A58000AD0836A022B26D9032B26D1C36A13F036
:101A6800807F24D100207047836A032B03D8DFE8E6
:101A780003F01404140A00207047C36A13F0807F2F
:101A88000DD100207047C36AB3F1C07F09D0002090
:101A980070470120704701207047012070470120DE
:101AA80070470120704701207047002070470120CF
:101AB8007047000003682149214A934218BF8B42AE
:101AC80027D01432934224D01432934221D01432B6
:101AD80093421ED0143293421BD01432934218D032
:101AE8001432934215D0DAB2103A1649A1FB021209
:101AF800120915491944A8291ED9144B13449B00EF
:101B08000366134B436602F01F020123934083666A
:101B18007047DBB2083B0F4AA2FB03230E4A02EBD5
:101B28001312920002660D4A4266C3F3041301229F
:101B380002FA03F3836670470832DEE70854025856
:101B48001C540258ABAAAAAAF0FBFDBF00820010E1
:101B580080080240CDCCCCCC0096001680580258A4
:101B680001794A1E072A2BD830B40368154D164C44
:101B7800A34218BFAB4218D01434A34215D0143472
:101B8800A34212D01434A3420FD01434A3420CD071
:101B98001434A34209D01434A34206D00B4B0B448F
:101BA8009B00C3660A4B036705E00A4B0B449B0086
:101BB800C366094B036701239340436730BC7047F2
:101BC800704700BF085402581C5402583F82001046
:101BD800400902403F9600164059025870B5044625
:101BE800FEF76CFD002C00F0B981054623685349C7
:101BF800534A934218BF8B420CBF0121002150D099
:101C0800183293424DD0183293424AD01832934238
:101C180047D01832934244D01832934241D01832F8
:101C280093423ED002F5567293423AD0183293420C
:101C380037D01832934234D01832934231D0183208
:101C480093422ED0183293422BD01832934228D088
:101C58001832934225D03B493B4A934218BF8B42E6
:101C680000F03481394A934200F0308114329342B3
:101C780000F02C811432934200F0288114329342F0
:101C880000F024811432934200F0208114329342F0
:101C980000F01C8140236365032384F8353001205C
:101CA8004AE0002284F83420022284F8352079BBE7
:101CB800274A93422CD01832934229D018329342A3
:101CC80026D01832934223D01832934220D01832AB
:101CD80093421DD002F55672934219D0183293429E
:101CE80016D01832934213D01832934210D01832BB
:101CF80093420DD0183293420AD01832934207D03B
:101D08001832934204D01A6822F001021A6003E0E4
:101D18001A6822F001021A6023681A6812F0010F8B
:101D280018D0FEF7CBFC431B052BF5D920236365A0
:101D3800032384F83530012070BD00BF1000024035
:101D480028000240085402581C54025830540258C3
:101D5800400002401A6882491140A268E0680243C4
:101D68002069024360690243A0690243E0690243B3
:101D7800206A02430A43616A042900F0988079497D
:101D880009686FF30F01B1F1005F10D361682E2964
:101D980040F2928052290AD83F2908D33F39724825
:101DA80020FA01F111F0010F01D042F480121A60FB
:101DB8002668756925F00705636A1D43042B08D159
:101DC800A36A1D43E36A23B12046FFF729FE0028D2
:101DD80076D175612046FFF7CBFDE36D03F01F0256
:101DE8003F239340836023686049614A934218BF48
:101DF8008B4242D0183293423FD0183293423CD0A3
:101E08001832934239D01832934236D0183293425E
:101E180033D01832934230D002F5567293422CD008
:101E28001832934229D01832934226D0183293425E
:101E380023D01832934220D0183293421DD0183242
:101E480093421AD01832934217D04A4A934214D078
:101E58001432934211D0143293420ED0143293426A
:101E68000BD01432934208D01432934205D0143266
:101E7800934202D01432934213D12046FFF71AFE40
:101E8800A368802B5DD0236E22791A60636EA26EE0
:101E98005A606368013B072B56D90023E366236722
:101EA800636700206065012384F8353044E7E16A00
:101EB800206B01430A4362E72929FFF478AF74E7EE
:101EC80040236365012084F8350035E7002284F853
:101ED8003420022284F8352019686FF31011A268A3
:101EE800402A2CD0802A27D00022E06842EAD0027B
:101EF800206942EAD002606942EAD002A06942EA57
:101F0800D002E06942EAD002206A42EA10120A438B
:101F18001A602268184B1344184AA2FB03231B09B2
:101F28009B00E3652046FFF723FDE26D02F01F01E9
:101F380001228A40426056E74FF48042D5E71022DA
:101F4800D3E7002363609EE72046FFF709FEE36EB0
:101F580000221A60236F626F5A60A2E70120EBE645
:101F68003F8010FE0010005C0F030F0010000240BD
:101F78002800024008540258F8ABFDA7CDCCCCCCC1
:101F8800002800F03D8170B5044690F8340001281F
:101F980000F03881012084F8340094F835000128D5
:101FA80007D0002384F834304FF4006363650120C0
:101FB80070BD022084F83500002060652068924ECC
:101FC800924DA84218BFB0422FD01835A8422CD045
:101FD8001835A84229D01835A84226D01835A84265
:101FE80023D01835A84220D01835A8421DD005F5B1
:101FF8005675A84219D01835A84216D01835A842E7
:1020080013D01835A84210D01835A8420DD018356D
:10201800A8420AD01835A84207D01835A84204D0DB
:10202800056825F00105056003E0056825F0010550
:1020380005602046FFF7C2FB23687349734A934241
:1020480018BF8B4238D01832934235D01832934299
:1020580032D0183293422FD0183293422CD01832F3
:10206800934229D01832934226D002F556729342F1
:1020780022D0183293421FD0183293421CD0183203
:10208800934219D01832934216D01832934213D083
:102098001832934210D0183293420DD01A6822F0A9
:1020A8000E0242F00A021A60236C93B12268136888
:1020B80043F0040313600CE01A6822F01E0242F099
:1020C80016021A60236C23B12268136843F00803D0
:1020D800136023684C494D4A934218BF8B4242D043
:1020E800183293423FD0183293423CD01832934270
:1020F80039D01832934236D01832934233D018323E
:10210800934230D002F5567293422CD01832934243
:1021180029D01832934226D01832934223D018324D
:10212800934220D0183293421DD0183293421AD0CD
:102138001832934217D0364A934214D0143293423D
:1021480011D0143293420ED0143293420BD0143271
:10215800934208D01432934205D01432934202D0ED
:10216800143293420ED1236E1A6812F4803F03D0C2
:102178001A6842F480721A60E36E1BB11A6842F45E
:1021880080721A6023682049204A934218BF8B4204
:1021980030D0183293422DD0183293422AD01832B8
:1021A800934227D01832934224D01832934221D038
:1021B800183293421ED002F5567293421AD0183242
:1021C800934217D01832934214D01832934211D048
:1021D800183293420ED0183293420BD018329342E1
:1021E80008D01832934205D01A6842F001021A60EA
:1021F8000020DDE61A6842F001021A600020D7E6E6
:10220800012070470220D3E6100002402800024057
:1022180008540258F0B583B00446002301937D4B5F
:102228001D687D4BA3FB0535AD0A876D3E68D7F861
:1022380000C0036879497A48834218BF8B420CBFB3
:102248000120002061D0774A93425ED01832934231
:102258005BD01832934258D01832934255D0183276
:10226800934252D0183293424FD002F5567293429D
:102278004BD01832934248D01832934245D0183286
:10228800934242D0183293423FD0183293423CD006
:102298001832934239D01832934236D06249634A91
:1022A800934218BF8B4212D0614A93420FD0143226
:1022B80093420CD01432934209D01432934206D080
:1022C8001432934203D01432934240F05F821A686A
:1022D800E16D01F01F010420884010EA0C0F00F0A6
:1022E800A58212F0040F00F0A182786012F4004F6A
:1022F80000F0588212F4803F40F04E82A36C002B0D
:1023080000F044822046984740E2E26D02F01F0147
:1023180008228A40324241D070BB424A93422BD0B5
:102328001832934228D01832934225D0183293425B
:1023380022D0183293421FD0183293421CD002F593
:102348005672934218D01832934215D018329342DD
:1023580012D0183293420FD0183293420CD0183250
:10236800934209D01832934206D01832934203D0D0
:102378001A68C2F3C00202E01A68C2F380026AB1A6
:102388001A6822F004021A60E36D03F01F020823A2
:102398009340BB60636D43F001036365E26D02F037
:1023A8001F0226FA02F313F0010F47D023681B48D7
:1023B8001B498B4218BF83423CD018318B4239D01D
:1023C80018318B4236D018318B4233D018318B42BA
:1023D80030D018318B422DD018318B422AD001F5DC
:1023E80056718B4226D018318B4223D018318B423C
:1023F80020D018318B421DD018318B421AD0183199
:102408008B4217D018318B4214D018318B4211D01F
:102418001B6813E018000020B5814E1B1000024015
:102428002800024040000240085402581C54025838
:10243800305402585B6913F0800F3BD1E36D03F011
:102448001F03042202FA03F333423FD0226895485F
:1024580095498A4218BF824234D018318A4231D015
:1024680018318A422ED018318A422BD018318A422C
:1024780028D018318A4225D018318A4222D001F555
:1024880056718A421ED018318A421BD018318A42AE
:1024980018D018318A4215D018318A4212D0183112
:1024A8008A420FD018318A420CD018318A4209D09A
:1024B80013680BE001239340BB60636D43F0020394
:1024C8006365BBE7126812F0020F3DD1E36D03F0BC
:1024D8001F03102202FA03F333425FD022687148C7
:1024E80071498A4218BF824234D018318A4231D0A9
:1024F80018318A422ED018318A422BD018318A429C
:1025080028D018318A4225D018318A4222D001F5C4
:1025180056718A421ED018318A421BD018318A421D
:1025280018D018318A4215D018318A4212D0183181
:102538008A420FD018318A420CD018318A4209D009
:102548001268C2F3800208E0BB60636D43F00403C5
:102558006365BBE71268C2F3C002FAB1BB602368C7
:102568001A6812F4802F0DD01B6813F4002F04D1C1
:10257800236C9BB12046984710E0A36C73B12046AA
:1025880098470BE01A6812F4807F03D11A6822F08A
:1025980008021A60236C0BB120469847E36D03F0DC
:1025A8001F03202202FA03F3334200F091802268CD
:1025B8003C483D498A4218BF82422ED018318A428F
:1025C8002BD018318A4228D018318A4225D01831A8
:1025D8008A4222D018318A421FD018318A421CD030
:1025E80001F556718A4218D018318A4215D018312F
:1025F8008A4212D018318A420FD018318A420CD040
:1026080018318A4209D018318A4206D018318A42D4
:1026180003D01268C2F3400202E01268C2F300124B
:10262800002A55D0BB6094F83530042B0ED02368AF
:102638001A6812F4802F39D01B6813F4002F2CD19C
:10264800636C002B44D02046984741E02268136809
:1026580023F0160313602268536923F08003536143
:10266800236CB3B12268136823F008031360E36D89
:1026780003F01F023F239340BB60002384F83430EB
:10268800012384F83530236D002B7FD020469847EE
:102698007CE0A36C002BE5D1E9E7E36BC3B12046EE
:1026A800984715E010000240280002401A6812F40A
:1026B800807F09D11A6822F010021A60002384F87A
:1026C8003430012384F83530E36B0BB1204698474A
:1026D800636D002B5AD0636D13F0010F52D00423A1
:1026E80084F8353023689649964A934218BF8B423E
:1026F8002FD0183293422CD01832934229D0183256
:10270800934226D01832934223D01832934220D0D5
:10271800183293421DD002F55672934219D01832DE
:10272800934216D01832934213D01832934210D0E5
:10273800183293420DD0183293420AD0183293427D
:1027480007D01832934204D01A6822F001021A60A6
:1027580003E01A6822F001021A60019B0133019319
:10276800AB4204D823681B6813F0010FF5D100238E
:1027780084F8343023681B6813F0010F08D0032352
:1027880084F83530E36C0BB12046984703B0F0BDB0
:10279800012384F83530F5E7236C002BF6D020466A
:1027A8009847F3E712F0200F3AD123686449654A45
:1027B800934218BF8B422FD0183293422CD0183234
:1027C800934229D01832934226D01832934223D00C
:1027D8001832934220D0183293421DD002F5567217
:1027E800934219D01832934216D01832934213D01C
:1027F8001832934210D0183293420DD018329342B7
:102808000AD01832934207D01832934204D01A687B
:1028180022F004021A6003E01A6822F008021A6023
:10282800236C002BB2D020469847AFE7022088409F
:1028380010EA0C0F60D012F0020F5DD0786012F42D
:10284800004F0ED012F4803F05D1636C002B9DD051
:10285800204698479AE7E36B002B97D02046984785
:1028680094E712F0200F40D123683549354A934246
:1028780018BF8B422FD0183293422CD01832934273
:1028880029D01832934226D01832934223D01832D6
:10289800934220D0183293421DD002F556729342CB
:1028A80019D01832934216D01832934213D01832E6
:1028B800934210D0183293420DD0183293420AD066
:1028C8001832934207D01832934204D01A6822F083
:1028D8000A021A6003E01A6822F014021A60002340
:1028E80084F83430012384F83530E36B002B3FF44F
:1028F8004DAF2046984749E7082000FA01F111EA50
:102908000C0F3FF443AF12F0080F3FF43FAF1A68C3
:1029180022F00E021A60E36D03F01F03012202FA8F
:1029280003F37B606265002384F8343084F8352033
:10293800E36C002B3FF42AAF2046984726E700BFF8
:102948001000024028000240406D7047F0B583B087
:10295800002340E0092400E0002404FA0CF4344386
:102968000235764E46F825404FF0B044D4F88050F2
:10297800D44325EA02064F6817F4803F01D042EAA3
:1029880005064FF0B045C5F88060D5F8845004EAD4
:1029980005064F6817F4003F01D042EA05064FF0DC
:1029A800B045C5F884602D6804EA05064F6817F439
:1029B800801F01D042EA05064FF0B0452E606D68D1
:1029C8002C404E6816F4001F01D042EA05044FF06F
:1029D800B042546001330A6832FA03F400F0AB8065
:1029E8004FF0010C0CFA03FC1CEA0202F2D04C680E
:1029F800651E112C18BF012D01D9122C12D1856822
:102A08005E000324B44025EA0405CC68B4402C4396
:102A18008460456825EA0C054C68C4F300149C40A2
:102A28002C434460C5684FEA430E032404FA0EF4AD
:102A38006FEA040C25EA04058C6804FA0EF42C43AA
:102A4800C4604C68122C18BF022C0FD1DD08083561
:102A580050F8257003F00706B6000F24B44027EAA3
:102A680004070C69B4403C4340F8254004680CEA6C
:102A7800040C4C6804F0030404FA0EF444EA0C0451
:102A880004604C6814F0805FA4D02D4CD4F8F45046
:102A980045F00205C4F8F450D4F8F44004F00204F8
:102AA8000194019C9D08AE1C244C54F8266003F048
:102AB800030C4FEA8C0C0F2404FA0CF426EA0406E3
:102AC800204CA0423FF448AF04F58064A04222D0D5
:102AD80004F58064A04220D004F58064A0421ED092
:102AE80004F58064A0421CD004F58064A0421AD08A
:102AF80004F58064A04218D004F58064A04216D082
:102B080004F58064A04214D004F58064A0423FF428
:102B180021AF0A2421E701241FE702241DE703242B
:102B28001BE7042419E7052417E7062415E70724FB
:102B380013E7082411E703B0F0BD00BF00040058F4
:102B480000440258000002580369194201D00120CC
:102B58007047002070470AB181617047090481619C
:102B680070470000F8B50668346A04F00F07C4F32C
:102B78004343C4F30A14022B00D0F8BD0546002CC9
:102B8800FBD007EB870300EBC303596C0029F4D093
:102B98002246304607F03BFA07EB870305EBC303F1
:102BA8005A6C22445A64DA6C2244DA6406EB4716FB
:102BB800D6F810250D4B1340002BDED0D6F8003583
:102BC80023F0804343F00043C6F8003507EB870342
:102BD80005EBC30393F8503007EB870705EBC705F0
:102BE80083F0010385F85030C7E700BF0000F81FE5
:102BF800F0B585B004469DF828509DF82C60BDF8C6
:102C0800307090F8B80201283BD0012084F8B8024F
:102C180001EB810004EBC0004FF0000C80F83DC0D0
:102C280080F83830A0F8407080F8391080F83F609C
:102C380002F07F0C80F83AC012F0800F18D101EB37
:102C4800810004EBC0004FF0000C80F83BC001EBA2
:102C5800810004EBC00080F83C5002970196009573
:102C6800206807F0D7FA002384F8B83205B0F0BD21
:102C780001EB810004EBC0004FF0010C80F83BC071
:102C8800E5E70220F2E790F8B832012B0BD010B537
:102C98000446012380F8B832006807F044FB00209E
:102CA80084F8B80210BD0220704700284DD070B5D6
:102CB8008AB00446056890F8B932002B40D0032347
:102CC80084F8B932EB6B13F4807F01D100232361C0
:102CD800206807F041F9A4465CF8106BEE46BCE8A2
:102CE8000F00AEE80F00BCE80F00AEE80F009CE84C
:102CF80003008EE80300251D95E80E00304607F016
:102D0800DFF80121206807F02DF9A4465CF8106B64
:102D1800EE46BCE80F00AEE80F00BCE80F00AEE8D6
:102D28000F009CE803008EE8030095E80E0030468B
:102D380007F0E6F9012384F8B93200200AB070BD23
:102D480080F8B8320AF0F4FCB9E70120704738B5CA
:102D58009DF81040BDF8185001EB810C00EBCC0C2D
:102D68008CF83B208CF83F3094B901EB810C00EBD8
:102D7800CC0C4FF0030E8CF842E09DF81CE08CF868
:102D88003DE0032B00F29480DFE803F00B8B2F5D0E
:102D980001EB810C00EBCC0C4FF0020E8CF842E0FA
:102DA800EFE7012C08BF002A40F0828035B901EB1B
:102DB800810300EBC303012283F8512001EB810357
:102DC80000EBC30393F851303BB901EB810300EBEF
:102DD800C303002283F842206AE001EB810300EB81
:102DE800C303022283F8422062E0AAB901EB8103FF
:102DF80000EBC30393F8513033B901EB810300EBC7
:102E0800C30383F8422053E001EB810300EBC303C3
:102E1800022283F842204BE001EB810300EBC3035D
:102E280093F850303BB901EB810300EBC303002258
:102E380083F842203CE001EB810300EBC30302224C
:102E480083F8422034E0AAB901EB810300EBC30305
:102E580093F8513033B901EB810300EBC30383F8D6
:102E6800422025E001EB810300EBC303022283F833
:102E780042201DE001EB810300EBC30393F85030BF
:102E88003BB901EB810300EBC303002283F8422026
:102E98000EE001EB810300EBC303022283F842201A
:102EA80006E001EB810300EBC303002283F8422014
:102EB80001EB810300EBC303059A5A649D64002269
:102EC80083F85C20DA6483F8391083F85D2001EB1D
:102ED8008101C9003831027C0144006807F09CFA7E
:102EE80038BD30B583B004460568D5F84034019341
:102EF800D5F840340093009B23F02E030093019BE8
:102F080013F0020F07D0019B13F0010F25D1009B8E
:102F180043F002030093019B13F0080F10D0009BAD
:102F280043F008030093019B13F0040F2DD0A3690D
:102F3800022B15D0E368012B22D020460AF05FFC53
:102F4800019B13F0200F03D0009B43F02003009354
:102F5800009BC5F8403403B030BD0AF043FCD6E707
:102F6800019B03F4C023B3F5802F04D0012120680E
:102F780007F064F8E1E70221206807F05FF8DCE772
:102F88004EF66022C5F80424D7E720460AF03DFC37
:102F9800D6E7F8B506460C46076807EB411707F56C
:102FA800A065AB6813F0040F2CD00423AB60EB686A
:102FB80043F00203EB60AB6813F4007F58D1AB68B1
:102FC80013F0010F00F0978033694BB104EB8403D1
:102FD80006EBC3039A6C2969C1F31201521ADA6429
:102FE80004EB840306EBC303012283F85D20002170
:102FF8009965AA6093F83F30032B4FD8DFE803F0B8
:10300800446F445DAB6813F0200F02D02023AB60FF
:10301800D1E7AB6813F0080F17D1AB6813F4806FD2
:10302800C9D0EB6843F00203EB60006807F07BF956
:103038001023AB6004EB840306EBC303082283F878
:103048005D204FF48063AB60B5E7EB6843F00203A3
:10305800EB6001EB810300EBC303052283F85D20DD
:103068001023AB600823AB60006807F05CF9A2E7A7
:10307800EB6843F00203EB602146306807F053F930
:103088004FF40073AB6017E0EB6843F00203EB60AA
:103098002146306807F047F91023AB6004EB84033E
:1030A80006EBC30393F8503004EB840406EBC40426
:1030B80083F0010384F85030F8BDD7F8003543F0A9
:1030C8000053C7F8003504EB840306EBC303012261
:1030D80083F85C20214630460AF090FBDEE704EBDB
:1030E800840306EBC303012283F85C2021463046A3
:1030F8000AF084FBD2E7AB6813F0020F5ED0EB68EE
:1031080023F00203EB6004EB840306EBC30393F89C
:103118005D30013B072B2CD8DFE803F0042B402B54
:103128000C142B1404EB840306EBC303012283F86D
:103138005C201EE004EB840306EBC303052283F83E
:103148005C2016E004EB840206EBC202936D0133A7
:103158009365032B1AD9134600229A65042283F833
:103168005C20D7F8003523F0804343F00043C7F8CC
:1031780000350223AB6004EB840306EBC30393F82A
:103188005C20214630460AF039FB95E704EB8403BE
:1031980006EBC303022283F85C20E2E704EB840316
:1031A80006EBC303022283F85C20D7F8003523F02E
:1031B800804343F00043C7F80035DAE7AB6813F003
:1031C800800F1BD1AB6813F0100F3FF475AF04EB01
:1031D800840306EBC30393F83F30032B27D0022B5D
:1031E80018BF002B07D104EB840306EBC3030022AE
:1031F8009A65336953B31023AB605DE7EB6843F01E
:103208000203EB6004EB840306EBC3039A6D0132FF
:103218009A6504EB840306EBC303062283F85D205A
:103228002146306807F07FF88023AB6044E704EB61
:10323800840306EBC30300229A65EB6843F002039C
:10324800EB602146306807F06EF8D4E704EB84039E
:1032580006EBC303032283F85D20EB6843F0020307
:10326800EB602146306807F05EF8C4E7F8B50368FC
:1032780003EB411303F5A065AA6812F0040F06D00A
:103288000423AB60EB6843F00203EB60F8BD06462D
:103298000C46AA6812F0200F1ED02023AB6001EB69
:1032A800810300EBC30393F83D30012BEED101EB12
:1032B800810300EBC303002283F83D2001EB810367
:1032C80000EBC303022283F85C20EB681343EB6036
:1032D800006807F028F8D9E7AA6812F0400F34D13F
:1032E800AA6812F4007F4AD1AA6812F0010F51D1DE
:1032F800AA6812F0080F63D1AA6812F0100F70D0F4
:1033080001EB810300EBC30300229A65032283F8D3
:103318005D2093F83D306BB901EB810300EBC303EB
:1033280093F83C3033B901EB810300EBC30301226E
:1033380083F83D20EB6843F00203EB6021463068D8
:1033480006F0F1FF1023AB60A0E701EB810300EB6F
:10335800C303042283F85D20012283F83D2001EB9A
:10336800810300EBC30300229A65EB6843F0020374
:10337800EB60006806F0D7FF4023AB6086E7EB6898
:1033880043F00203EB60006806F0CDFF4FF40073D2
:10339800AB607BE78F0001EB810300EBC3030022E6
:1033A8009A65EB6843F00203EB60006806F0BBFF28
:1033B8000123AB60274406EBC70787F85D3065E754
:1033C8000823AB60EB6843F00203EB60006806F08B
:1033D800AAFF04EB840406EBC404052384F85D30DB
:1033E80054E7AA6812F0800F1BD1AA6812F4806F04
:1033F80028D1AA6812F0020F3FF448AFEA6822F019
:103408000202EA6001EB810200EBC20292F85D2041
:10341800013A072A6ED8DFE802F0296D3F464D547D
:103428006D54EB6843F00203EB60006806F07BFF25
:1034380004EB840406EBC403062283F85D20802392
:10344800AB6023E7EB6843F00203EB60006806F02B
:103458006AFF1023AB604FF48063AB6004EB840415
:1034680006EBC403082283F85D200FE7282303FB3B
:103478000403012283F85C2093F83F30023BDBB25F
:10348800934237D8282303FB040393F8512082F092
:10349800010283F851202DE0282303FB04030222B4
:1034A80083F85C2026E0282303FB0403022283F828
:1034B8005C201FE0282303FB0403052283F85C201B
:1034C80018E004EB840100EBC1018A6D01328A65C2
:1034D800032A1CD9282202FB040200219165042139
:1034E80082F85C10D3F8002522F0804242F00042B6
:1034F800C3F800250223AB6004EB840306EBC30387
:1035080093F85C20214630460AF078F9BEE6282276
:1035180002FB0402022182F85C10E3E7F8B50446D6
:103528000568284606F086FD012800D0F8BD206809
:1035380006F07CFD0028F9D0206806F077FD10F42D
:10354800001F03D023684FF400125A61206806F068
:103558006DFD10F4801F03D023684FF480125A6168
:10356800206806F063FD10F0806F03D023684FF0E9
:1035780080625A61206806F059FD10F0020F02D0EF
:10358800236802225A61206806F050FD10F0005F9F
:1035980008D023684FF000525A61D5F8403413F030
:1035A800010F25D0206806F041FD10F0807F27D15B
:1035B800206806F03BFD10F0080F25D1206806F0C2
:1035C80035FD10F0007F26D1206806F02FFD10F0A1
:1035D800100FABD02268936923F010039361204643
:1035E800FFF7C0FA2268936943F0100393619DE7DF
:1035F80020460AF0FDF80121206806F01FFDD1E7FA
:103608002046FFF76EFCD3E720460AF0E5F823686A
:1036180008225A61D2E7206806F080FE0746002695
:1036280004E0F1B22046FFF721FE0136A368B34259
:1036380012D906F00F0327FA03F313F0010FF4D0A1
:1036480005EB4613D3F8003513F4004FE9D0F1B277
:103658002046FFF79EFCE8E723684FF000725A61A6
:10366800B2E738B590F8B832012B0ED004460125E0
:1036780080F8B852006806F069FC2946206806F010
:103688001BFD002084F8B80238BD0220FCE790F842
:10369800B832012B0BD010B50446012380F8B8329C
:1036A800006806F06BFF002084F8B80210BD022005
:1036B800704708B5006806F0E0FC08BD01EB810121
:1036C80000EBC10090F85C00704701EB810100EB52
:1036D800C100C06C704708B5006806F096FD08BDCB
:1036E80008B5006806F086FD08BD03689A6912F0FF
:1036F800020F01D000229A6203689A6912F0010F42
:1037080003D19A6942F001029A61704730B4029D70
:10371800046860684FEA555C0CF4806C4CF07F7C60
:103728004CF4583C4CF47F7C4CF0030C20EA0C0021
:10373800C1F3090141EA0241194329430843606082
:1037480030BC7047F8B505460E46174603689B69B6
:1037580013F0100F01D10020F8BD2B689C6914F0FC
:10376800200F17D1B6F1FF3FF7D0FCF7A7FFC01B1A
:10377800B04201D8002EF0D16B6C43F020036B648B
:10378800202385F84130002385F8423085F8403001
:103798000120E1E71022DA612B682024DC61284649
:1037A800FFF7A3FF2A68536823F0FF7323F48B33D2
:1037B80023F4FF7323F0010353606B6C43F004039D
:1037C8006B6485F84140002385F8423085F8403025
:1037D8000120C1E770B504460D46164623689B696B
:1037E80013F0020F1DD1324629462046FFF7AAFFE3
:1037F800C8B9B5F1FF3FF1D0FCF760FF801BA842C4
:1038080001D8002DEAD1636C43F0200363642023C0
:1038180084F84130002384F8423084F84030012095
:1038280000E0002070BD0120FCE72DE9F0410646CC
:10383800884617461D463468A46938EA04040CBF54
:1038480001240024BC4218D1B5F1FF3FF3D0FCF7A6
:1038580035FF069BC01AA84201D8002DEBD1736C26
:1038680043F020037364202386F84130002386F850
:10387800423086F84030012000E00020BDE8F081A9
:1038880070B505460C4616462B689B6913F0200F49
:103898001AD1324621462846FFF754FFB0B9FCF743
:1038A8000DFF801BA04201D8002CEDD16B6C43F0BA
:1038B80020036B64202385F84130002385F84230CB
:1038C80085F84030012070BD0020FCE70120FAE7B0
:1038D800002857D010B5044690F84130002B41D04D
:1038E800242384F841302268136823F0010313600D
:1038F8006368226823F0706313612268936823F475
:1039080000439360E368012B31D0A368226843F435
:1039180004439360E368022B2FD0226851681A4B46
:103928000B4353602268D36823F40043D3602369B0
:1039380062691343A169226843EA0123D360E369FA
:10394800216A22680B4313602268136843F001035D
:10395800136000206064202384F84130206384F8D9
:10396800420010BD80F8403008F0AEFCB8E7A3680C
:10397800226843F400439360CCE723684FF4006265
:103988005A60CAE701207047008000022DE9F0471D
:1039980082B00F460A9E90F84110202940F0A3807B
:1039A80004469146984690F84030012B00F09F80DD
:1039B8004FF0010A80F840A0FCF780FE0546009011
:1039C800192352464FF400412046FFF72EFF0028E6
:1039D80040F08F80212384F84130102384F842304E
:1039E80000236364C4F82490A4F82A806363638D79
:1039F8009BB2FF2B0AD9FF222285424B00934FF03E
:103A0800807339462046FFF781FE18E0628D92B236
:103A180022853C4B00934FF00073D2B239462046C2
:103A2800FFF774FE0BE0628D92B2228500230093AB
:103A38004FF00073D2B239462046FFF767FE638D18
:103A48009BB2002B33D02A4631462046FFF7C2FEF0
:103A5800002850D1626A236812789A62636A013337
:103A68006362638D9BB2013B9BB26385238D013BEF
:103A78009BB22385628D92B2002AE0D0002BDED162
:103A880000953346002280212046FFF7CEFEA0BBDA
:103A9800638D9BB2FF2BC6D9FF222285002300939A
:103AA8004FF0807339462046FFF730FEC7E72A46B5
:103AB80031462046FFF7E4FE08BB23682022DA617E
:103AC80021684B6823F0FF7323F48B3323F4FF73CF
:103AD80023F001034B6084F84120002384F842302E
:103AE80084F8403000E0022002B0BDE8F0870220F0
:103AF800FAE70120F8E70120F6E70120F4E70120C2
:103B0800F2E700BF00200080034690F84120202AF9
:103B180023D190F84020012A21D0012280F84020AA
:103B2800242280F841200068026822F00102026025
:103B38001868026822F480520260186802680A4312
:103B4800026019680A6842F001020A60202283F8BC
:103B58004120002083F8400070470220704702206F
:103B68007047034690F84120202A21D190F8402040
:103B7800012A1FD0012280F84020242280F8412009
:103B88000068026822F0010202601868026822F4E4
:103B9800706242EA0122026019680A6842F0010272
:103BA8000A60202283F84120002083F840007047F3
:103BB8000220704702207047134BDB6813F0040F94
:103BC80007D1114BDB6803F0070383421AD00120A9
:103BD800704710B50C4AD36823F007030343D3603A
:103BE800FCF76CFD0446084B5B6813F4005F07D1D3
:103BF800FCF764FD001BB0F57A7FF4D9012000E0E2
:103C0800002010BD0020704700480258024AD368BF
:103C180043F08073D360704700480258002800F0D2
:103C2800D88238B50446036813F0010F25D09D4AA1
:103C3800136903F03803926A102B15D0182B0FD094
:103C48006368B3F5803F3ED0002B52D1954B1A687C
:103C580022F480321A601A6822F480221A6037E04F
:103C680002F00302022AEBD18E4B1B6813F4003FCB
:103C780003D06368002B00F0AE82236813F0020FB4
:103C880077D0884A1369926A13F038035AD0182BF0
:103C980055D0E368002B00F0B28082490A6822F010
:103CA800190213430B60FCF709FD05467D4B1B68A1
:103CB80013F0040F40F08B80FCF700FD401B022836
:103CC800F4D903208EE2774A136843F480331360F3
:103CD80063682BB3FCF7F2FC0546724B1B6813F4C0
:103CE800003FCAD1FCF7EAFC401B6428F5D9032041
:103CF80078E2B3F5A02F09D06A4B1A6822F4803213
:103D08001A601A6822F480221A60E1E7654B1A6883
:103D180042F480221A601A6842F480321A60D7E7A7
:103D2800FCF7CCFC05465F4B1B6813F4003FA4D09E
:103D3800FCF7C4FC401B6428F5D9032052E212F0BA
:103D4800030FA6D1574B1B6813F0040F03D0E36889
:103D5800002B00F04282FCF7CBFC41F203039842AF
:103D68002CD8504A536823F47C33216943EA013341
:103D78005360236813F0100F70D04A4A136903F098
:103D88003803926A082B52D0182B4CD0E369002BC9
:103D980000F0A280434A136843F080031360FCF7E5
:103DA8008DFC05463F4B1B6813F4807F7CD1FCF7E4
:103DB80085FC401B0228F5D9032013E2394A5368D1
:103DC80023F0FE43216943EA01635360D1E7FCF71E
:103DD8008FFC41F20303984208D8324A536823F40F
:103DE8007C33216943EA01335360C2E72D4A5368A3
:103DF80023F0FE43216943EA01635360B9E7294A86
:103E0800136823F001031360FCF758FC0546254BA3
:103E18001B6813F0040FACD0FCF750FC401B0228C1
:103E2800F5D90320DEE102F00302012AAED11D4BD1
:103E38001B6813F4807F03D0E369802B40F0CF81A7
:103E4800FCF756FC41F20303984222D8154A5368FE
:103E580023F0F843216A43EA81635360236813F02F
:103E6800080F61D06369002B4AD00E4A536F43F0A4
:103E780001035367FCF722FC05460A4B5B6F13F0FE
:103E8800020F51D1FCF71AFC401B0228F5D9032078
:103E9800A8E1044AD36823F07C53216A43EA01630A
:103EA800D360DBE700440258FCF722FC41F203032D
:103EB800984208D8814A536823F0F843216A43EAB4
:103EC80081635360CAE77D4AD36823F07C53216A33
:103ED80043EA0163D360C1E7784A136823F080039B
:103EE8001360FCF7EBFB0546744B1B6813F4807FEB
:103EF800B4D0FCF7E3FB401B0228F5D9032071E19D
:103F08006E4A536F23F001035367FCF7D7FB05464E
:103F18006A4B5B6F13F0020F06D0FCF7CFFB401B18
:103F28000228F5D903205DE1236813F0200F29D07A
:103F3800A3699BB1614A136843F480531360FCF78B
:103F4800BDFB05465D4B1B6813F4005F1AD1FCF7F7
:103F5800B5FB401B0228F5D9032043E1574A1368F3
:103F680023F480531360FCF7A9FB0546534B1B68E9
:103F780013F4005F06D0FCF7A1FB401B0228F5D91B
:103F880003202FE1236813F0040F21D1636A002B6B
:103F980000F02781494A126902F03802182A00F015
:103FA800EF80022B75D0454A136823F080731360A5
:103FB800FCF784FB0446414B1B6813F0007F00F0BC
:103FC800DD80FCF77BFB001B0228F4D9032009E104
:103FD8003B4A136843F480731360FCF76FFB054694
:103FE800374B1B6813F4807F06D1FCF767FB401B37
:103FF8006428F5D90320F5E0A368012B0AD00BBB90
:104008002E4B1A6F22F001021A671A6F22F004026F
:104018001A6704E0294A136F43F001031367A36882
:1040280033B3FCF74BFB0546244B1B6F13F0020F11
:10403800ACD1FCF743FB401B41F288339842F3D9DB
:104048000320CFE0052B09D01C4B1A6F22F0010288
:104058001A671A6F22F004021A67E0E7174B1A6F03
:1040680042F004021A671A6F42F001021A67D6E793
:10407800FCF724FB0546114B1B6F13F0020F85D08C
:10408800FCF71CFB401B41F288339842F3D903200C
:10409800A8E00A4A136823F080731360FCF70EFB4C
:1040A8000546064B1B6813F0007F0BD0FCF706FB98
:1040B800401B0228F5D9032094E000BF00440258B1
:1040C800004802584F4B996A4F4A0A40A16AE06A71
:1040D80041EA00110A439A62226B013AC2F30802CC
:1040E800616B0139490289B20A43A16B013909049C
:1040F80001F4FE010A43E16B0139090601F0FE41B2
:104108000A431A63DA6A22F00102DA625A6B6FF321
:10411800CF02A16C42EAC1025A63DA6A22F00C02A9
:10412800216C0A43DA62DA6A22F00202616C0A43FD
:10413800DA62DA6A42F48032DA62DA6A42F4003227
:10414800DA62DA6A42F48022DA62DA6A42F001025A
:10415800DA621A6842F080721A60FCF7AFFA044615
:10416800284B1B6813F0007F06D1FCF7A7FA001B49
:104178000228F5D9032035E0002033E0002031E0A3
:10418800204A916A106B012B2DD001F00303A26A1B
:1041980093422AD1C1F30511E36A994227D1C0F3AA
:1041A8000802236B013B9A4223D1C0F34622636B7A
:1041B800013B9A421FD1C0F30642A36B013B9A42CE
:1041C8001BD1C0F30660E36B013B984217D1002076
:1041D80008E001207047012004E0012002E00120EE
:1041E80000E0002038BD0120FCE70120FAE70120AB
:1041F800F8E70120F6E70120F4E70120F2E70120C3
:10420800F0E700BF004402580CFCFFFF754B1B6928
:1042180003F03803102B00F0DE80182B0FD0002B92
:1042280040F0DB806F4B1B6813F0200F00F0D78045
:104238006C4B1B68C3F3C1036B48D840704710B47C
:10424800684B9A6A02F003029C6AC4F30510D96AA3
:1042580001F001015B6BC3F3CC0301FB03F307EE31
:10426800903AF8EE677A14F47C7F77D0012A4AD026
:10427800022A76D0002A40F091805A4B1B6813F02E
:10428800200F23D057490A68C2F3C102564BD340C6
:1042980007EE103AF8EE476A07EE100AB8EE476ADA
:1042A80086EE867A0B6BC3F3080306EE903AF8EEB7
:1042B800666A9FED4E6A67EE867A76EEA77AF7EE23
:1042C800006A77EEA67A27EE277A38E007EE100A1A
:1042D800F8EE476A9FED466A86EE267A414B1B6BDD
:1042E800C3F3080306EE903AF8EE666A9FED3F6A5C
:1042F80067EE867A76EEA77AF7EE006A77EEA67A08
:1043080027EE277A1BE007EE100AF8EE476A9FEDC2
:10431800396A86EE267A334B1B6BC3F3080306EE25
:10432800903AF8EE666A9FED316A67EE867A76EE25
:10433800A77AF7EE006A77EEA67A27EE277A294B56
:104348001B6BC3F34623013307EE903AF8EE677A06
:10435800C7EE276AFCEEE67A17EE900A5DF8044B82
:10436800704707EE100AF8EE476A9FED236A86EE5B
:10437800267A1C4B1B6BC3F3080306EE903AF8EE43
:10438800666A9FED1A6A67EE867A76EEA77AF7EE86
:10439800006A77EEA67A27EE277AD0E707EE100AAA
:1043A800F8EE476A9FED136A86EE267A0D4B1B6B73
:1043B800C3F3080306EE903AF8EE666A9FED0B6ABF
:1043C80067EE867A76EEA77AF7EE006A77EEA67A37
:1043D80027EE277AB3E7094870470948704702482B
:1043E800704700BF004402580090D0030000003915
:1043F8000024744C0024744A20BCBE4B40787D01D4
:1044080000093D00002800F0328170B50D460446D1
:104418009B4B1B6803F00F038B420BD2984A13681F
:1044280023F00F030B431360136803F00F038B4251
:1044380040F01F81236813F0040F0CD02269914BC0
:104448009B6903F070039A4205D98E498B6923F062
:1044580070031A438A61236813F0080F0CD062694D
:10446800884BDB6903F070039A4205D98549CB690B
:1044780023F070031A43CA61236813F0100F0CD09D
:10448800A269804BDB6903F4E0639A4205D97D4950
:10449800CB6923F4E0631A43CA61236813F0200F41
:1044A8000CD0E269774B1B6A03F070039A4205D976
:1044B80074490B6A23F070031A430A62236813F0E5
:1044C800020F0CD0E2686F4B9B6903F00F039A420E
:1044D80005D96C498B6923F00F031A438A61236855
:1044E80013F0010F41D0674A936923F47063A16800
:1044F8000B4393616368022B0AD0032B27D0012B4F
:104508002CD0604A126812F0040F06D10120ADE0E9
:10451800126812F4003F00F0AE805A490A6922F08E
:10452800070213430B61FCF7C9F80646554B1B6994
:1045380003F038036268B3EBC20F16D0FCF7BEF87D
:10454800801B41F288339842F0D903208EE04D4A0F
:10455800126812F0007FE0D1012087E0494A126812
:1045680012F4807FD9D1012080E0236813F0020F74
:104578000CD0E268434B9B6903F00F039A4205D2C3
:1045880040498B6923F00F031A438A613C4B1B682F
:1045980003F00F03AB420AD9394A136823F00F031B
:1045A8002B431360136803F00F03AB4265D12368F4
:1045B80013F0040F0CD02269324B9B6903F070038F
:1045C8009A4205D22F498B6923F070031A438A61F6
:1045D800236813F0080F0CD062692A4BDB6903F0DB
:1045E80070039A4205D22749CB6923F070031A4316
:1045F800CA61236813F0100F0CD0A269214BDB6944
:1046080003F4E0639A4205D21E49CB6923F4E063C0
:104618001A43CA61236813F0200F0CD0E269194BC2
:104628001B6A03F070039A4205D216490B6A23F0FD
:1046380070031A430A62FFF7E9FD12498B69C3F355
:104648000323114AD35C03F01F03D8408B6903F09E
:104658000F03D35C03F01F0320FA03F30B4A136024
:104668000B4B18600B4B1868FBF7C8FF70BD012097
:1046780070470120FAE70120F8E70120F6E700BFBC
:10468800002000520044025888E000081C00002066
:10469800180000200400002008B5FFF7B7FD0B4AFA
:1046A8009369C3F303230A49CB5C03F01F0320FA81
:1046B80003F3926902F00F02885C00F01F0023FAEE
:1046C80000F0044A1060044A136008BD0044025810
:1046D80088E000081C0000201800002008B5FFF73B
:1046E800DBFF054BDB69C3F30213044AD35C03F019
:1046F8001F03D84008BD00BF0044025888E00008E6
:1047080008B5FFF7C9FF054BDB69C3F30223044A69
:10471800D35C03F01F03D84008BD00BF0044025813
:1047280088E00008404B9B6A03F00303032B79D011
:1047380070B505460E463C4A136823F08063136043
:10474800FBF7BCFF0446384B1B6813F0006F06D01C
:10475800FBF7B4FF031B022BF5D9032070BD324BC6
:104768009A6A22F47C32296842EA01329A626A68BB
:10477800013AC2F30802A9680139490289B20A4319
:10478800E9680139090401F4FE010A43296901397C
:10479800090601F0FE410A439A63DA6A22F0C00270
:1047A80069690A43DA62DA6A22F02002A9690A43CF
:1047B800DA62DA6A22F01002DA62DA6B6FF3CF0299
:1047C800E96942EAC102DA63DA6A42F01002DA629F
:1047D800C6B91A46DB6A43F40023D362124A136847
:1047E80043F080631360FBF769FF04460E4B1B68B8
:1047F80013F0006F14D1FBF761FF001B0228F5D9F5
:104808000320ABE7012E05D0074AD36A43F400130F
:10481800D362E3E7044AD36A43F48013D362DDE743
:1048280000209BE70120704700440258404B9B6AD8
:1048380003F00303032B79D070B505460E463C4AB6
:10484800136823F080531360FBF738FF0446384B96
:104858001B6813F0005F06D0FBF730FF031B022B29
:10486800F5D9032070BD324B9A6A22F07C72296810
:1048780042EA01529A626A68013AC2F30802A968D8
:104888000139490289B20A43E9680139090401F486
:10489800FE010A4329690139090601F0FE410A436C
:1048A8001A64DA6A22F4406269690A43DA62DA6AE7
:1048B80022F40072A9690A43DA62DA6A22F4807281
:1048C800DA625A6C6FF3CF02E96942EAC1025A64AC
:1048D800DA6A42F48072DA62C6B91A46DB6A43F4CD
:1048E8008003D362124A136843F080531360FBF7C6
:1048F800E5FE04460E4B1B6813F0005F14D1FBF76E
:10490800DDFE001B0228F5D90320ABE7012E05D0F8
:10491800074AD36A43F08073D362E3E7044AD36A51
:1049280043F40003D362DDE700209BE701207047D2
:1049380000440258F8B50446036813F0006F30D0FD
:10494800436EB3F5001F26D00ED8ABB1B3F5801F68
:1049580007D102210430FFF7E5FE054695B12E4642
:1049680021E0012635461EE0B3F5401F01D10025A0
:1049780008E00126354616E0974AD36A43F4003327
:10498800D3620025944A136D23F44013616E0B43E0
:104998001365002607E002212430FFF747FF05468C
:1049A800DCE700263546236813F4807F14D0636D56
:1049B800042B2FD8DFE803F0032127080800864AD4
:1049C800D36A43F40033D3623DBB834A136D23F0AB
:1049D8000703616D0B431365236813F4007F3DD013
:1049E800A36D802B2CD01DD823B3402B17D10021C9
:1049F800201DFFF797FE054628E00021201DFFF740
:104A080091FE0546E0E7002104F12400FFF70EFFC0
:104A18000546D9E701263546DEE72E46DCE70126BE
:104A280035461BE0C02B11D0B3F5807F0ED0012690
:104A3800354613E0684AD36A43F40033D36205E08D
:104A4800002104F12400FFF7F1FE0546D5B9624ABA
:104A5800136D23F4E073A16D0B431365236813F4FE
:104A6800806F32D0D4F8A430B3F5800F1ED00ED8A2
:104A7800B3B1B3F5001F07D10021201DFFF752FE87
:104A8800054619E02E46E9E7012635461DE0B3F54F
:104A9800C00F11D0B3F5000F0ED00126354614E033
:104AA8004D4AD36A43F40033D36205E0002104F190
:104AB8002400FFF7BBFE0546DDB9474A936D23F492
:104AC8006003D4F8A4100B439365236813F4006FB4
:104AD80033D0D4F8A830B3F1007F1ED00ED8B3B1CC
:104AE800B3F1807F07D10021201DFFF71BFE05468B
:104AF80019E02E46E9E7012635461EE0B3F1407F6E
:104B080011D0B3F1806F0ED00126354615E0324A38
:104B1800D36A43F40033D36205E0002104F1240092
:104B2800FFF784FE0546002D32D12B4A936D23F002
:104B3800E063D4F8A8100B439365236813F0007F53
:104B480013D0A36C202B2DD027D833B1102B21D113
:104B5800214AD36A43F40033D3624DBB1E4AD36C57
:104B680023F03003A16C0B43D364236813F4805FF4
:104B780044D0E36DB3F5005F30D01ED833B3B3F53E
:104B8800805F17D10021201DFFF7CCFD05462BE0E3
:104B98002E46D2E701263546E7E7302BDDD0012641
:104BA8003546E2E70221201DFFF7BCFD0546D4E7A4
:104BB8002E46DAE70126354620E0B3F5405F13D0EC
:104BC800B3F5804F10D00126354617E0024AD36A64
:104BD80043F40033D36207E000440258002104F193
:104BE8002400FFF723FE05463DB96E4A136D23F4F2
:104BF800E043E16D0B43136500E02E46236813F490
:104C0800005F16D0236EB3F5003F4DD040D83BB1BE
:104C1800B3F5803F39D10121201DFFF783FD0546FB
:104C2800002D48D15F4A136D23F4E023216E0B4316
:104C38001365236813F4804F18D0D4F8AC30B3F15F
:104C4800005F49D03CD83BB1B3F1805F35D1012139
:104C5800201DFFF767FD0546002D44D1514A936D8D
:104C680023F0E043D4F8AC100B439365236813F4A6
:104C7800004F47D0E36EB3F1805F36D0B3F1005FE9
:104C88004BD0BBB3012635463CE001263546D0E77C
:104C9800B3F5802FC4D0B3F5A02FC1D0B3F5403FF2
:104CA800BED001263546C4E7012104F12400FFF7F0
:104CB800BDFD0546B4E72E46BBE701263546D5E7D8
:104CC800B3F1804FC8D0B3F1A04FC5D0B3F1405F66
:104CD800C2D001263546C9E7012104F12400FFF7B7
:104CE800A5FD0546B8E72E46C0E72E4AD36A43F429
:104CF8000033D362BDB92B4A136D23F04053E16EE4
:104D08000B431365236813F0807F1BD0636C032B60
:104D180042D8DFE803F00F0A3B0F0121201DFFF7FF
:104D280001FD0546E6E72E46ECE71E4AD36A43F442
:104D38000033D3629DBB1B4AD36C23F00303616C21
:104D48000B43D364236813F4800F2DD1236813F029
:104D5800010F00F0A480A36F282B00F29E80DFE8EB
:104D680003F08C9C9C9C9C9C9C9C879C9C9C9C9CE5
:104D78009C9C959C9C9C9C9C9C9C8C9C9C9C9C9C82
:104D88009C9C8C9C9C9C9C9C9C9C8C000221201D27
:104D9800FFF7C8FC0546CDE701263546D2E72E4683
:104DA800D0E700BF00440258594A136843F480739F
:104DB8001360FBF783FC0746554B1B6813F4807F91
:104DC80005D1FBF77BFCC01B6428F5D90325002D12
:104DD8004AD1504B1B6FD4F8B020534013F4407F96
:104DE8000CD04C4B1A6F22F44072196F41F4803189
:104DF8001967196F21F4803119671A67D4F8B03030
:104E0800B3F5807F15D08DBBD4F8B03003F4407271
:104E1800B2F5407F1ED03F4A136923F47C531361D7
:104E28003C490B6FD4F8B020C2F30B0213430B6755
:104E38008CE7FBF743FC0746364B1B6F13F0020F5A
:104E4800E1D1FBF73BFCC01B41F288339842F3D910
:104E58000325D8E72F48026922F47C522E4901EA3B
:104E6800131313430361DBE72E466FE72E466DE706
:104E78000121201DFFF756FC0546E5B9254A536D6B
:104E880023F03803A16F0B43536508E0012104F1B7
:104E98002400FFF7CBFC0546EFE7012635462368DB
:104EA80013F0020F16D0636F052B2BD8DFE803F041
:104EB8000A05230A0A0A2E46F1E70121201DFFF7F9
:104EC80031FC05460DBB134A536D23F00703616F90
:104ED8000B435365236813F0040F2FD0D4F8903098
:104EE800052B00F20A81DFE813F01E00190001010A
:104EF8001E001E001E00012104F12400FFF796FC8D
:104F08000546DFE701263546E4E72E46E2E700BF1F
:104F18000048025800440258CFFFFF000121201D1D
:104F2800FFF700FC0546002D40F0EA80BB4A936D70
:104F380023F00703D4F890100B439365236813F00C
:104F4800200F1CD0D4F88C30B3F1005F00F0EC8057
:104F580000F2DB8043B1B3F1805F40F0D3800021E1
:104F6800201DFFF7DFFB0546002D40F0E480AB4A2B
:104F7800536D23F0E043D4F88C100B43536523683A
:104F880013F0400F1CD0D4F89830B3F5006F00F040
:104F9800E68000F2D58043B1B3F5806F40F0CD8054
:104FA8000021201DFFF7BEFB0546002D40F0DE80E6
:104FB8009A4A936D23F4E053D4F898100B43936501
:104FC800236813F0800F1CD0D4F89C30B3F5804FC1
:104FD80000F0E08000F2CF8043B1B3F5005F40F00D
:104FE800C7800021201DFFF79DFB0546002D40F0DE
:104FF800D8808A4A936D23F46043D4F89C100B43FD
:105008009365236813F0080F0DD0D4F88030B3F5FA
:10501800805F00F0C880814A536D23F44053D4F870
:1050280080100B435365236813F0100F0DD0D4F88C
:105038009430B3F5807F00F0C080784A936D23F4F4
:105048004073D4F894100B439365236813F4002F2E
:105058001BD0D4F8A030B3F5803F00F0B880B3F58A
:10506800003F07D0002B40F0B9800021201DFFF73A
:1050780059FB0546002D40F0B480684A936D23F42F
:105088004033D4F8A0100B439365236813F4802FA2
:105098001CD0D4F88430B3F5001F00F0A480B3F519
:1050A800401F08D0B3F5801F40F0A4805B4AD36A44
:1050B80043F40033D362002D40F09F80574A536D6C
:1050C80023F44013D4F884100B435365236813F476
:1050D800803F00F0AC80E36C002B00F09080B3F5CB
:1050E800803F00F09D8001263546A0E0012104F1B3
:1050F8002400FFF79BFB054615E7012635461DE70B
:105108002E461BE70126354639E7B3F1804F3FF4B9
:105118002BAFB3F1A04F3FF427AFB3F1405F3FF49B
:1051280023AF012635462AE7022104F12400FFF7C0
:105138007DFB054618E72E4621E7012635463FE761
:10514800B3F5805F3FF431AFB3F5A05F3FF42DAF07
:10515800B3F5406F3FF429AF0126354630E7022109
:1051680004F12400FFF762FB05461EE72E4627E7F9
:105178000126354645E7B3F5004F3FF437AFB3F5A1
:10518800204F3FF433AFB3F5C04F3FF42FAF0126A4
:10519800354636E7022104F12400FFF747FB0546B0
:1051A80024E72E462DE7022104F12400FFF73EFBF9
:1051B80000283FF430AF01262DE7022104F1240036
:1051C800FFF734FB00283FF438AF012635E702210A
:1051D80004F12400FFF72AFB05464BE70126354674
:1051E80053E72E4651E7012104F12400FFF71EFB87
:1051F800054660E70126354668E72E4666E7074A12
:10520800D36A43F40033D36285B9044AD36C23F4D8
:105218008033E16C0B43D36409E000BF00440258BB
:105228000221201DFFF77EFA0546EDE72E4623688A
:1052380013F0005F10D1236813F4003F26D0E36F0A
:10524800B3F5807F14D010D9B3F5007F15D0B3F52E
:10525800407F12D0012619E0022104F12400FFF753
:10526800E5FA0028E7D00126E5E733B101260DE08D
:10527800214AD36A43F40033D362002D31D11E4A48
:10528800536D23F44073E16F0B435365236813F4A4
:10529800801F06D0184A136D23F00043216F0B437B
:1052A8001365236813F4001F06D0134A136D23F007
:1052B8008073A16E0B431365236813F0804F09D0E8
:1052C8000D4B1A6922F400421A611A69D4F8B81011
:1052D8000A431A612368002B05DB06B10126304614
:1052E800F8BD2E46D2E7044AD36C23F04053216D13
:1052F8000B43D364F1E700BF0044025808B5FFF739
:10530800CBF9054B1B6AC3F30213044AD35C03F0C1
:105318001F03D84008BD00BF0044025888E00008B9
:1053280010B4794B9A6A9C6AC4F3053CD96AC1F3F4
:105338000011DB6BC3F3CC0301FB03F314F47C3FD4
:1053480000F0DD8002F0030207EE903AF8EE677A8B
:10535800012A4BD0022A00F09880002A40F0B2803F
:10536800694B1B6813F0200F23D067490A68C2F302
:10537800C102664BD34007EE103AF8EE476A07EED3
:1053880010CAB8EE476A86EE867A8B6BC3F30803B9
:1053980006EE903AF8EE666A9FED5D6A67EE867AE9
:1053A80076EEA77AF7EE006A77EEA67A27EE277AE6
:1053B80038E007EE10CAF8EE476A9FED566A86EEA7
:1053C800267A514B9B6BC3F3080306EE903AF8EE2E
:1053D800666A9FED4F6A67EE867A76EEA77AF7EEF1
:1053E800006A77EEA67A27EE277A1BE007EE10CA46
:1053F800F8EE476A9FED486A86EE267A424B9B6B29
:10540800C3F3080306EE903AF8EE666A9FED406A29
:1054180067EE867A76EEA77AF7EE006A77EEA67AD6
:1054280027EE277A384A936BC3F3462307EE903A60
:10543800F8EE677AF7EE006A77EEA67A87EE276AC3
:10544800BCEEC66A80ED006A936BC3F3064307EEB1
:10545800903AF8EE677A77EEA67A87EE276ABCEE7E
:10546800C66A80ED016A936BC3F3066307EE903A50
:10547800F8EE677A77EEA67AC7EE276AFCEEE66A58
:10548800C0ED026A5DF8044B704707EE10CAF8EEEB
:10549800476A9FED226A86EE267A1B4B9B6BC3F305
:1054A800080306EE903AF8EE666A9FED196A67EE11
:1054B800867A76EEA77AF7EE006A77EEA67A27EE76
:1054C800277AAFE707EE10CAF8EE476A9FED126A2F
:1054D80086EE267A0C4B9B6BC3F3080306EE903AD4
:1054E800F8EE666A9FED0A6A67EE867A76EEA77A24
:1054F800F7EE006A77EEA67A27EE277A92E700237E
:10550800036043608360BDE7004402580090D00305
:10551800000000390024744C0024744A20BCBE4B9F
:1055280010B4794B9A6A9C6AC4F3055CD96AC1F3D2
:1055380000215B6CC3F3CC0301FB03F314F07C7F05
:1055480000F0DD8002F0030207EE903AF8EE677A89
:10555800012A4BD0022A00F09880002A40F0B2803D
:10556800694B1B6813F0200F23D067490A68C2F300
:10557800C102664BD34007EE103AF8EE476A07EED1
:1055880010CAB8EE476A86EE867A0B6CC3F3080336
:1055980006EE903AF8EE666A9FED5D6A67EE867AE7
:1055A80076EEA77AF7EE006A77EEA67A27EE277AE4
:1055B80038E007EE10CAF8EE476A9FED566A86EEA5
:1055C800267A514B1B6CC3F3080306EE903AF8EEAB
:1055D800666A9FED4F6A67EE867A76EEA77AF7EEEF
:1055E800006A77EEA67A27EE277A1BE007EE10CA44
:1055F800F8EE476A9FED486A86EE267A424B1B6CA6
:10560800C3F3080306EE903AF8EE666A9FED406A27
:1056180067EE867A76EEA77AF7EE006A77EEA67AD4
:1056280027EE277A384A136CC3F3462307EE903ADD
:10563800F8EE677AF7EE006A77EEA67A87EE276AC1
:10564800BCEEC66A80ED006A136CC3F3064307EE2E
:10565800903AF8EE677A77EEA67A87EE276ABCEE7C
:10566800C66A80ED016A136CC3F3066307EE903ACD
:10567800F8EE677A77EEA67AC7EE276AFCEEE66A56
:10568800C0ED026A5DF8044B704707EE10CAF8EEE9
:10569800476A9FED226A86EE267A1B4B1B6CC3F382
:1056A800080306EE903AF8EE666A9FED196A67EE0F
:1056B800867A76EEA77AF7EE006A77EEA67A27EE74
:1056C800277AAFE707EE10CAF8EE476A9FED126A2D
:1056D80086EE267A0C4B1B6CC3F3080306EE903A51
:1056E800F8EE666A9FED0A6A67EE867A76EEA77A22
:1056F800F7EE006A77EEA67A27EE277A92E700237C
:10570800036043608360BDE7004402580090D00303
:10571800000000390024744C0024744A20BCBE4B9D
:1057280010B4794B9A6A9C6AC4F3051CD96A01F0D3
:1057380001015B6BC3F3CC0301FB03F314F47C7F1F
:1057480000F0DD8002F0030207EE903AF8EE677A87
:10575800012A4BD0022A00F09880002A40F0B2803B
:10576800694B1B6813F0200F23D067490A68C2F3FE
:10577800C102664BD34007EE103AF8EE476A07EECF
:1057880010CAB8EE476A86EE867A0B6BC3F3080335
:1057980006EE903AF8EE666A9FED5D6A67EE867AE5
:1057A80076EEA77AF7EE006A77EEA67A27EE277AE2
:1057B80038E007EE10CAF8EE476A9FED566A86EEA3
:1057C800267A514B1B6BC3F3080306EE903AF8EEAA
:1057D800666A9FED4F6A67EE867A76EEA77AF7EEED
:1057E800006A77EEA67A27EE277A1BE007EE10CA42
:1057F800F8EE476A9FED486A86EE267A424B1B6BA5
:10580800C3F3080306EE903AF8EE666A9FED406A25
:1058180067EE867A76EEA77AF7EE006A77EEA67AD2
:1058280027EE277A384A136BC3F3462307EE903ADC
:10583800F8EE677AF7EE006A77EEA67A87EE276ABF
:10584800BCEEC66A80ED006A136BC3F3064307EE2D
:10585800903AF8EE677A77EEA67A87EE276ABCEE7A
:10586800C66A80ED016A136BC3F3066307EE903ACC
:10587800F8EE677A77EEA67AC7EE276AFCEEE66A54
:10588800C0ED026A5DF8044B704707EE10CAF8EEE7
:10589800476A9FED226A86EE267A1B4B1B6BC3F381
:1058A800080306EE903AF8EE666A9FED196A67EE0D
:1058B800867A76EEA77AF7EE006A77EEA67A27EE72
:1058C800277AAFE707EE10CAF8EE476A9FED126A2B
:1058D80086EE267A0C4B1B6BC3F3080306EE903A50
:1058E800F8EE666A9FED0A6A67EE867A76EEA77A20
:1058F800F7EE006A77EEA67A27EE277A92E700237A
:10590800036043608360BDE7004402580090D00301
:10591800000000390024744C0024744A20BCBE4B9B
:1059280000B58BB0B0F5807F1BD0B0F5007F47D0B5
:10593800B0F5806F78D0B0F5006F00F0AC80B0F5AE
:10594800805F00F0DF80B0F5002F00F01281B0F525
:10595800803F00F03981B0F5804F00F0478100208A
:105968000CE0964B1B6D03F00703042B00F26481D7
:10597800DFE803F0060B1003150091480BB000BDDB
:1059880007A8FFF7CDFE0898F8E704A8FFF7C8FCBA
:105998000498F3E701A8FFF7C3FD0198EEE7874BEA
:1059A800DB6C13F0405300F04981B3F1805F00F0E5
:1059B8004781B3F1005F01D00020DFE78148DDE7D0
:1059C8007E4B1B6D03F4E073802B26D014D9C02BBB
:1059D80000F03881B3F5807F18D1784BDB6C13F079
:1059E800405300F03181B3F1805F00F02F81B3F1B3
:1059F800005F17D00020C1E753B1402B04D104A8A1
:105A0800FFF78EFC0498B9E70020B7E70020B5E758
:105A180007A8FFF785FE0898B0E701A8FFF780FD03
:105A28000198ABE76748A9E7644B9B6D03F46003F3
:105A3800B3F5800F28D015D9B3F5C00F00F0088151
:105A4800B3F5000F19D15D4BDB6C13F0405300F038
:105A58000181B3F1805F00F0FF80B3F1005F18D0DF
:105A680000208BE75BB1B3F5001F04D104A8FFF752
:105A780057FC049882E7002080E700207EE707A80B
:105A8800FFF74EFE089879E701A8FFF749FD01984E
:105A980074E74C4872E7494B9B6D03F0E063B3F140
:105AA800007F28D015D9B3F1407F00F0D780B3F13B
:105AB800806F19D1414BDB6C13F0405300F0D0805C
:105AC800B3F1805F00F0CE80B3F1005F18D0002002
