:020000040800F2
:1000000000000220A1CD000801C1000803C10008C2
:1000100005C1000807C1000809C100080000000070
:100020000000000000000000000000000BC10008FC
:100030000DC10008000000000FC1000811C1000838
:10004000F1CD0008F1CD0008F1CD0008F1CD000898
:10005000F1CD0008F1CD0008F1CD0008F1CD000888
:10006000F1CD0008F1CD0008F1CD000819C100085C
:1000700029C1000839C10008F1CD0008F1CD000800
:10008000F1CD0008F1CD000849C10008F1CD00080C
:10009000F1CD0008F1CD0008F1CD0008F1CD000848
:1000A000F1CD0008F1CD0008F1CD0008F1CD000838
:1000B000F1CD0008F1CD0008F1CD0008F1CD000828
:1000C000F1CD0008F1CD0008F1CD0008F1CD000818
:1000D000F1CD0008F1CD0008F1CD0008F1CD000808
:1000E000F1CD0008F1CD000800000000F1CD0008BE
:1000F000F1CD0008F1CD0008F1CD0008F1CD0008E8
:10010000F1CD0008F1CD0008F1CD0008F1CD0008D7
:10011000F1CD0008F1CD0008F1CD0008F1CD0008C7
:10012000F1CD0008F1CD0008F1CD0008F1CD0008B7
:10013000F1CD0008F1CD0008F1CD0008F1CD0008A7
:1001400000000000000000000000000000000000AF
:10015000F1CD0008F1CD0008F1CD0008F1CD000887
:10016000F1CD0008F1CD0008F1CD0008F1CD000877
:10017000F1CD0008F1CD0008F1CD0008000000002D
:10018000F1CD0008F1CD0008F1CD0008F1CD000857
:10019000F1CD0008F1CD0008F1CD0008F1CD000847
:1001A000F1CD0008F1CD0008F1CD0008F1CD000837
:1001B000F1CD0008F1CD0008F1CD0008F1CD000827
:1001C000F1CD0008F1CD0008F1CD0008F1CD000817
:1001D000F1CD0008F1CD0008F1CD0008F1CD000807
:1001E000F1CD0008F1CD0008F1CD0008F1CD0008F7
:1001F000F1CD0008F1CD0008F1CD0008F1CD0008E7
:10020000F1CD0008F1CD0008F1CD0008F1CD0008D6
:10021000F1CD0008F1CD0008F1CD0008F1CD0008C6
:10022000F1CD0008F1CD0008F1CD0008000000007C
:10023000F1CD0008F1CD00080000000059C1000810
:10024000F1CD000869C10008F1CD0008F1CD00082A
:10025000F1CD0008F1CD0008F1CD0008F1CD000886
:10026000F1CD0008F1CD0008F1CD0008F1CD000876
:10027000F1CD0008F1CD0008F1CD0008000000002C
:10028000F1CD0008F1CD0008F1CD0008000000001C
:0802900000000000F1CD0008A0
:1002980010B5054C237833B9044B13B10448AFF3B8
:1002A80000800123237010BD88000020000000009A
:1002B80088E4000808B5034B1BB103490348AFF3B2
:1002C800008008BD000000008C00002088E40008C1
:1002D80053B94AB9002908BF00281CBF4FF0FF31A5
:1002E8004FF0FF3000F072B9ADF1080C6DE904CEA3
:1002F80000F006F8DDF804E0DDE9022304B07047F9
:100308002DE9F047089E04468846002B4BD18A42C7
:10031800154667D9B2FA82F24AB1C2F1200701FA4A
:1003280002F320FA07F7954047EA030894404FEA9A
:10033800154E230CB8FBFEF71FFA85FC0EFB178839
:1003480043EA084307FB0CF1994209D9EB1807F176
:10035800FF3080F01B81994240F21881023F2B4404
:100368005B1AA4B2B3FBFEF00EFB103344EA03445D
:1003780000FB0CFCA44509D92C1900F1FF3380F0CF
:100388000781A44540F2048102382C4440EA074022
:10039800A4EB0C0400271EB1D4400023C6E9004397
:1003A8003946BDE8F0878B4209D9002E00F0EB8072
:1003B8000027C6E9000138463946BDE8F087B3FA98
:1003C80083F7002F47D18B4202D3824200F2FA8092
:1003D800841A61EB030301209846002EE0D0C6E999
:1003E8000048DDE702B9FFDEB2FA82F2002A40F0E7
:1003F8008F80491B4FEA154E1FFA85F80127B1FB7C
:10040800FEFC230C0EFB1C1143EA014308FB0CF114
:10041800994207D9EB180CF1FF3002D2994200F249
:10042800CD808446591AA3B2B1FBFEF00EFB10141E
:1004380043EA044408FB00F8A04507D92C1900F149
:10044800FF3302D2A04500F2B6801846A4EB080498
:1004580040EA0C409FE7C7F1200CBB4022FA0CFE93
:100468004EEA030E01FA07F420FA0CF521FA0CF310
:100478004FEA1E482543B3FBF8F92C0C08FB193347
:100488001FFA8EFA44EA034309FB0AF49C4202FA73
:1004980007F200FA07F10BD91EEB030309F1FF304D
:1004A80080F087809C4240F28480A9F1020973445D
:1004B8001B1BADB2B3FBF8F008FB103345EA03444D
:1004C80000FB0AFAA24508D91EEB040400F1FF3329
:1004D8006BD2A24569D90238744440EA0940A0FBAE
:1004E8000289A4EB0A044C45C2464B4654D351D06A
:1004F800002E69D0B1EB0A0564EB030404FA0CFC86
:10050800FD40FC404CEA0505C6E90054002747E7D2
:10051800C2F1200320FA03F7954001FA02F021FA0C
:1005280003F34FEA154E3843010CB3FBFEF71FFAED
:1005380085F80EFB173341EA034107FB08F38B42AA
:1005480004FA02F407D9691807F1FF3C2FD28B424D
:100558002DD9023F2944CB1A81B2B3FBFEF00EFB22
:10056800103341EA034100FB08F38B4207D96918AD
:1005780000F1FF3C17D28B4215D902382944C91A19
:1005880040EA07473BE73746304609E70746E7E6CC
:100598001846FBE64145ABD2B8EB020A69EB0E02FE
:1005A80001381346A4E76046E9E7184695E7674629
:1005B800D1E781467CE702382C4447E7ACF1020CCE
:1005C8002B442FE7384608E73746E9E6704700BF6F
:1005D800104B1B780BB90120704710B504464FF437
:1005E8007A70B0FBF3F30C4A1068B0FBF3F001F03B
:1005F80097F868B90F2C01D901200AE0002221469A
:100608004FF0FF3001F04CF8024B5C60002000E036
:10061800012010BD000000201400002010B50320A8
:1006280001F02CF803F052FE0F498B69C3F3032342
:100638000E4AD35C03F01F03D8408B6903F00F0305
:10064800D35C03F01F0320FA03F3094A1360094B34
:1006580018600020FFF7BCFF10B10124204610BD30
:1006680004460BF037FDF9E700440258CCE40008D3
:100678001800002014000020034B1B78034A11685F
:100688000B441360704700BF0000002038010020B1
:10069800014B1868704700BF3801002038B5044680
:1006A800FFF7F6FF0546B4F1FF3F02D0044B1B7875
:1006B8001C44FFF7EDFF401BA042FAD338BD00BF32
:1006C80000000020014B1868000C70470010005C07
:1006D800034A136823F0407318431060704700BF43
:1006E8000040005208B5806B0BF046F808BD704713
:1006F80070470000F8B5044603681D685E68A6499F
:10070800A64A934218BF8B4240D1A54B9F6807F079
:100718001F0715F0020F10D016F0020F0DD0636DF1
:1007280013F0100F03D1636D43F400636365204633
:1007380000F0E6FE236802221A6015F0040F02D0CA
:1007480016F0040F05D115F0080F4FD016F0080F5A
:100758004CD0636D13F0100F03D1636D43F4007335
:1007680063652368DA6812F4406F39D18B4A934283
:100778000ED01A4693420ED0052F14BF0021012136
:100788004FB141B9092F06D0D26805E0854BBDE7C6
:10079800A2F58072EEE7DA6812F4005F20D11A68D9
:1007A80012F0080F1CD09A6812F0040F10D15A6882
:1007B80022F00C025A60636D23F480736365636DE5
:1007C80013F4805F0CD1636D43F00103636507E0A8
:1007D800636D43F010036365A36D43F00103A365E4
:1007E80020460AF009FF23680C221A6015F0200F32
:1007F80002D016F0200F05D115F0400F63D016F087
:10080800400F60D0636D13F0100F03D1636D43F494
:10081800005363652368DA6C12F4C07F19D1012193
:10082800DA6812F4406F16D101205C4A934214D062
:100838001A46934214D0062F14BF4FF0000C4FF005
:10084800010C6FB1BCF1000F0AD1072F08D0D26894
:1008580007E00021E4E70020E7E7A2F58072E8E777
:10086800DA6831B912F0007F27D130B312F4005F93
:1008780023D1196811F0400F1FD012F4001F1CD1AA
:100888009A6812F0080F10D15A6822F060025A6074
:10089800636D23F480536365636D13F4807F0CD11B
:1008A800636D43F00103636507E0636D43F0100374
:1008B8006365A36D43F00103A365204600F01CFEA9
:1008C800236860221A6015F0800F02D016F0800F9E
:1008D80036D115F4807F02D016F4807F3BD115F411
:1008E800007F02D016F4007F41D115F0100F20D000
:1008F80016F0100F1DD0236B6BB1002F45D0236865
:100908002549264A934218BF8B423CD1244B9B6809
:1009180013F4404F0AD0636D43F480636365A36D9D
:1009280043F00203A3652046FFF7E2FE2368102286
:100938001A6015F4806F02D016F4806F34D1F8BDB8
:10094800636D43F4803363652046FFF7D0FE236868
:1009580080221A60BDE7636D43F400336365204667
:1009680000F0CCFD23684FF480721A60B7E7636D1E
:1009780043F480236365204600F0C1FD23684FF4EB
:1009880000721A60B1E7074BC1E72368DB6813F010
:10099800030FCBD0BFE700BF002002400021024078
:1009A8000023024000630258636D43F4804363658B
:1009B800A36D43F00803A36523684FF480621A60AF
:1009C800204600F09AFDBAE708B5836B5A6D12F01D
:1009D800500F31D15A6D42F400725A651A68116885
:1009E80011F0080F14D0D16811F4406F20D1D268EB
:1009F80012F4005F1CD15A6D22F480725A655A6D48
:100A080012F4805F14D15A6D42F001025A650FE06A
:100A1800D26812F0030F0BD15A6D22F480725A6516
:100A28005A6D12F4805F03D15A6D42F001025A6583
:100A380018460AF0E1FD08BD5A6D12F0100F03D1F7
:100A4800DB6CDB6C9847F6E71846FFF751FEF2E7D8
:100A580008B5806B436D43F040034365836D43F0F5
:100A680004038365FFF744FE08BD0000F0B482B0BC
:100A78000022019290F85020012A00F03B820346A0
:100A8800012280F850200468A26812F004020AD0FB
:100A9800426D42F0200242650120002283F8502076
:100AA80002B0F0BC70470868C0F31305002D50D1A0
:100AB800C0F3846001258540E0692843E0611F6830
:100AC8004E680D683037300A800000F00C003C5842
:100AD80006F01F064FF01F0C0CFA06FC24EA0C0463
:100AE800C5F38465B5402C433C501868846814F0FD
:100AF800040F37D00124856815F0080F34D001257C
:100B08002C4365D10F688C6800F11405780E8000BD
:100B180000F004002E58C7F304574FF0070C0CFAE6
:100B280007FC26EA0C06BC4034432C50A948006850
:100B380000F07040B0F1805F18D01C68E06810F0D9
:100B4800100F67D14869E468C4F382046400A040C8
:100B580013E090FAA0F0B0FA80F000F01F00012531
:100B68008540A9E70024C6E70025C9E748691C684D
:100B7800E468C4F382046400A0400D69042D57D0D2
:100B88001F680E68603757F8254004F0004406F0E7
:100B9800F8463043204347F8250018680E694C7E14
:100BA800012C3FD01546603050F8264024F0004410
:100BB8002C4340F826401D680C69087E012834D073
:100BC800286920F4F04004F01F04A24002432A617F
:100BD8001868826812F0010F40F088810A68CD68B1
:100BE800D0F8C040C2F3130624EA060405F018063C
:100BF800794DF5402A40C2F313022243C0F8C020C1
:100C0800C868764A904247D00A68002AC0F2E8804D
:100C1800002042E74869E468A40804F0040464007A
:100C2800A040AAE74FF00045BDE74FF40062C7E7D0
:100C38001868026E02F0F8420C68B2EB846F1CD0A0
:100C48001868426E02F0F8420C68B2EB846F19D053
:100C58001868826E02F0F8420C68B2EB846F16D006
:100C68001868C26E02F0F8420C68B2EB846FAFD11C
:100C7800C26E22F00042C266AAE7026E22F000426B
:100C88000266DDE7426E22F000424266E0E7826ECD
:100C980022F000428266E3E71D680A68C2F3130681
:100CA80096BB900E013000F01F0009288CBF002071
:100CB8000120002852D09EBB940E0134A40604F0F3
:100CC800F844B6BB900E013000F01F070120B84071
:100CD8000443C6BB920E013202F01F0202EB42022D
:100CE800120522438C681435500E800000F0040071
:100CF8002E58C2F304520727974026EA070604FA3B
:100D080002F232432A507FE792FAA2F0B0FA80F05A
:100D1800013000F01F0009288CBF00200120C8E71F
:100D280092FAA2F4B4FA84F40134A40604F0F84464
:100D3800C7E792FAA2F0B0FA80F0013000F01F077E
:100D48000120B840C4E792FAA2F2B2FA82F2013264
:100D580002F01F0202EB42021205C2E7CEB9940E5E
:100D68000134A40604F0F844E6B9900E013000F00E
:100D78001F070120B8400443F6B9900E013000F077
:100D88001F0000EB40021E3A120542F00072224397
:100D9800A8E792FAA2F4B4FA84F40134A40604F0A1
:100DA800F844E1E792FAA2F0B0FA80F0013000F0DE
:100DB8001F070120B840DEE792FAA2F0B0FA80F0EF
:100DC800013000F01F0000EB40021E3A120542F00D
:100DD8000072DCE70010005CFFFF0F000000FF4717
:100DE80019684548454CA14218BF81420CBF0120F3
:100DF800002021D1424DAC6804F0E07610B33E48A3
:100E0800806810F0010F19D001203C4FBF6817F01F
:100E1800010F15D0012738430CBF012000200028FE
:100E28005ED03848824218D03748824236D0374898
:100E3800824244D0002030E6354DDCE70020E4E76C
:100E48000027E8E73348806810F0010F03D001203D
:100E580080F00100E3E70020FAE714F4000FE3D183
:100E68002C4A914201D0002017E646F40002A968F6
:100E780021F0E0710A43AA60274A126892092749BB
:100E8800A1FB021292095200019202E0019A013A72
:100E98000192019A002AF9D10020FEE514F0807F22
:100EA800C5D11C4A914201D00020F6E546F0807277
:100EB800A96821F0E0710A43AA600020EDE514F466
:100EC800800F15D1134A914201D00020E5E546F480
:100ED8008002A96821F0E0710A43AA600020DCE5DD
:100EE8005A6D42F020025A650120D6E50020D4E56B
:100EF8000020D2E50220D3E5002002400021024074
:100F080000230240000084CB000052C70000B8CF85
:100F1800006302580060025814000020632D3E054B
:100F280038B503689A6812F0010F52D199682A4AB5
:100F3800114209D0436D43F010034365836D43F0BC
:100F480001038365012045E004469968234A0A4065
:100F580042F001029A60FFF79BFB0546236820498F
:100F6800204A934218BF8B420DD102F50072926855
:100F780002F01F021B498B4207D0194699420CD038
:100F88005AB1002026E0184AF1E7A1F58071F5E78B
:100F9800FFF77EFB401B02280FD823681A6812F05F
:100FA800010F14D19A6812F0010FF1D199680B4A18
:100FB8000A4042F001029A60EAE7636D43F01003C9
:100FC8006365A36D43F00103A365012002E00020DF
:100FD80000E0002038BD00BF3F000080C0FFFF7F59
:100FE800002002400021024000630258F8B504685E
:100FF800414E424DAC4218BFB4421ED105F50075B2
:10100800AD6805F01F05A46814F0040F6ED190F8C0
:101018005040012C6DD0012380F85030052D14BFAD
:1010280000240124002D08BF1C4644B9092D06D010
:10103800002380F85030012359E0314DE0E716468F
:101048000F460446FFF76CFF034600284AD1626D3D
:101058002C4B134043F4807363652368274A9342FB
:101068003AD01A46934200D01DB9636D23F4801319
:101078006365636D13F4805F31D0A36D23F00603BD
:10108800A365E36C204ADA63E36C204A1A64E36CD4
:101098001F4ADA6423681C221A60002384F850303F
:1010A8002268536843F0100353602168E36ACA68F2
:1010B80022F003021343CB60216833463A4640319D
:1010C800E06C00F06DFF034621688868114A024011
:1010D80042F004028A600AE0A2F58072C2E70023A7
:1010E800A365CEE7002284F8502000E002231846CA
:1010F800F8BD0223FBE700BF0020024000210240A8
:1011080000630258FEF0FFFFD1090008ED06000851
:10111800590A0008C0FFFF7F38B5054603684F49E4
:101128004F4A934218BF8B4223D14E4B9B6813F40E
:10113800403F14BF012300234BB303F007FB0446D1
:101148006B68B3F5003F1CD0B3F5403F1DD0B3F535
:10115800803F16D0FFF7B6FA41F20303984256D8FB
:10116800414B9C424DD92A68936843F4807393603D
:1011780038BD3E4B9B6813F4403F14BF0123002346
:10118800DAE71B0CB4FBF3F4E4E78408E2E74FF476
:10119800002004F0C9FB04466B68B3F5C01F16D0E5
:1011A8000BD9B3F5101F28D01DD8B3F5E01F22D0F6
:1011B800B3F5001FCED14409CCE7B3F5402F06D0D4
:1011C8000AD8B3F5802F02D0B3F5002FC2D19B0CFB
:1011D8005B00B4FBF3F4BDE7B3F5801FF7D0B3F5BC
:1011E800A01FB7D1F3E7B3F5201F08D0B3F5301F20
:1011F800B0D1040AAEE70409ACE78409AAE7C40938
:10120800A8E72A68936823F480739360B0E76408BA
:10121800174B9C420BD9174B9C420ED9164B9C423C
:1012280013D92A68936843F440739360A0E72A6847
:10123800936823F4407393609AE72A68936823F4C9
:10124800407343F48073936092E72A68936823F4A9
:10125800407343F4007393608AE700BF00200240A4
:101268000021024000230240002D31010063025892
:10127800105E5F0020BCBE0040787D0130B583B0B1
:1012880000230193002800F01C810446436DE3B15C
:1012980023689A6812F0005F03D099688A4A0A4066
:1012A8009A6023689A6812F0805F1BD19968874A10
:1012B8000A4042F080529A60854B1B689B09854A18
:1012C800A2FB03239B09019309E009F0A1F900237C
:1012D800A36584F85030DBE7019B013B0193019B38
:1012E800002BF9D123689A6812F0805F40F09D8046
:1012F800626D42F010026265A26D42F00102A265C1
:1013080001259A6812F0040F00F091800121626DA6
:1013180012F0100F40F0CD80002940F0CA80626DB5
:1013280022F4817242F0020262659A6812F0010F9B
:1013380021D16949694A934218BF8B420CBF0123E6
:1013480000237AD18A6812F0010F72D00122634912
:10135800896811F0010F6ED001210A430CBF0122E8
:10136800002242B1002B73D05D4963688A6822F479
:101378007C1213438B60FFF7A5F941F203039842EF
:1013880002D9A368102B65D0627D236B43EA4233F0
:10139800A2681343227F43EA0243227F012A64D0D2
:1013A800626A22B102F47872A16A0A43134321687F
:1013B800C8684C4A02401343CB6023689A6812F00D
:1013C800040F57D001219A6812F0080F54D0012257
:1013D8000A431BD1217DE26A42EA8131D868424A38
:1013E80002400A43DA6094F83830012B46D022686C
:1013F800136923F0010313612268136923F0704312
:10140800616B0B4313612046FFF786FEE368012BEF
:1014180046D02268136B23F00F031363636D23F028
:10142800030343F00103636548E0002569E70021F1
:101438006DE700228BE700218FE72C4A926812F0B3
:10144800010F03D0012282F001028AE70022FAE7A5
:1014580027498AE7617D226B42EA41321343227FA2
:1014680043EA024343F00C0397E7226A013A43EA4E
:10147800424395E70021A6E70022A9E72068026910
:101488001C4B1340E26B511E226C42EA0142616C14
:101498000A43A16C0A43134343F001030361ABE71A
:1014A80021680B6B23F00F03A269013A13430B6306
:1014B800B4E7636D43F0100363650125284603B064
:1014C80030BD0125FAE700BFC0FFFF5FC0FFFF6F17
:1014D80014000020632D3E05002002400021024038
:1014E8000023024003C0F0FFFCBFFFFF006002586A
:1014F800006302581EF800FC704770477047704739
:101508007047000090F85020012A00F0AA8030B4FB
:101518009AB00346012280F850200268524882425D
:1015280043D0002001900198002842D0806810F034
:10153800040F47D00124906810F0040F40F0828017
:10154800002C7FD1484C4948824218BFA2423BD167
:1015580000F500700A68002A47D0826822F44042E9
:101568004C68224382601A683F4D404CA24218BF23
:10157800AA422FD1AA6812F0010F27D001243B4AB2
:10158800926812F0010F23D0012222430CBF0122DE
:101598000022002A61D08468354A22400C68896894
:1015A80021430A438260002051E000F580700190D9
:1015B800B9E75A6D42F020025A65002283F850209C
:1015C800012047E00024B6E72A48C3E70024D6E70D
:1015D8000022DAE7284A926812F0010F03D00122AC
:1015E80082F00102D5E70022FAE7816821F4404140
:1015F800816019681C4D1D4CA14218BFA94217D122
:10160800A96811F0010F11D001241849896811F057
:10161800010F00D0012222430CBF01220022F2B1A7
:101628008168134A0A408260002010E01446ECE703
:101638001149896811F0010F00D00122B2FA82F233
:101648005209ECE75A6D42F020025A650120002247
:1016580083F850201AB030BC70470020F7E700200C
:10166800F5E70220704700BF002002400021024039
:10167800E0F0FFFF00630258006002580649CB689B
:1016880023F4E0631B041B0C000200F4E060034336
:10169800024A1A43CA60704700ED00E00000FA05EC
:1016A80030B4154BDB68C3F30223C3F10704042CE1
:1016B80028BF04241D1D062D14D9033B4FF0FF3508
:1016C80005FA04F421EA0401994005FA03F322EA31
:1016D80003031943002807DB0901C9B2074B195452
:1016E80030BC70470023E9E700F00F000901C9B2D8
:1016F800034B1954F4E700BF00ED00E000E400E0FC
:1017080014ED00E0002807DB00F01F024009012368
:101718009340024A42F82030704700BF00E100E0E1
:101728000138B0F1807F0AD2064B5860064AF02192
:1017380082F823100020986007221A607047012061
:10174800704700BF10E000E000ED00E0BFF35F8FDE
:10175800044A536A23F480335362034B00225A60CD
:10176800704700BF00ED00E090ED00E040F00100A0
:10177800054B5860054A536A43F480335362BFF3FC
:101788004F8FBFF36F8F704790ED00E000ED00E0E2
:101798004278134B9A60037823B9114B0022DA6020
:1017A8001A61704743680E4AD360017BC37A1B06EF
:1017B80043EA0173817A43EAC143417B43EA8143A7
:1017C800817B43EA4143C17B43EA0143417A43EACF
:1017D8000123017A43EA410301780B4313617047FF
:1017E80090ED00E0F0B4876D0468654E654DAC423D
:1017F80018BFB44242D01835AC423FD01835AC427D
:101808003CD01835AC4239D01835AC4236D01835F2
:10181800AC4233D01835AC4230D005F55675AC42E1
:101828002CD01835AC4229D01835AC4226D0183502
:10183800AC4223D01835AC4220D01835AC421DD06C
:101848001835AC421AD01835AC4217D04E4DAC42C0
:1018580014D01435AC4211D01435AC420ED0143526
:10186800AC420BD01435AC4208D01435AC4205D08C
:101878001435AC4202D01435AC4207D1446E856EA3
:101888006560C46E14B1046F456F656004683C4EB2
:101898003C4DAC4218BFB44252D01835AC424FD080
:1018A8001835AC424CD01835AC4249D01835AC424A
:1018B80046D01835AC4243D01835AC4240D005F577
:1018C8005675AC423CD01835AC4239D01835AC42CC
:1018D80036D01835AC4233D01835AC4230D0183534
:1018E800AC422DD01835AC422AD01835AC4227D09E
:1018F800254E264DAC4218BFB44211D0244DAC42FF
:101908000ED01435AC420BD01435AC4208D0143587
:10191800AC4205D01435AC4202D01435AC4223D1C8
:10192800C46D04F01F050124AC407C60046863604A
:101938008368402B1FD0036899600368DA6013E05E
:10194800C46D04F01F053F24AC40BC6005682C68DA
:1019580024F480242C60046863608368402B05D0DD
:10196800036899600368DA60F0BC704703689A609E
:101978000368D960F8E703689A600368D960F3E7F9
:101988001000024028000240085402581C54025813
:101998003054025802682849284B9A4218BF8A4294
:1019A8002FD018339A422CD018339A4229D01833A2
:1019B8009A4226D018339A4223D018339A4220D01C
:1019C80018339A421DD003F556739A4219D018332A
:1019D8009A4216D018339A4213D018339A4210D02C
:1019E80018339A420DD018339A420AD018339A42C3
:1019F80007D018339A4204D022F0FF028265806D26
:101A0800704710B4D3B2103B0D49A1FB03131B0957
:101A180003F007010B4C615CC165032B06D80A4B28
:101A280013408365806D5DF8044B7047064B134087
:101A380004338365F6E700BF100002402800024027
:101A4800ABAAAAAAA0E4000800FCFFFF83699BB91F
:101A5800836A012B0AD01BB1022B01D000207047EA
:101A6800C36A13F0807F2ED100207047C36AB3F198
:101A7800C07F2AD000207047B3F5005F06D0836A84
:101A8800022B2AD9032B16D000207047836A032B18
:101A980003D8DFE803F01C041C0A00207047C36A5F
:101AA80013F0807F15D100207047C36AB3F1C07F5F
:101AB80011D000207047C36A13F0807F01D0012045
:101AC80070470020704701207047012070470120AF
:101AD80070470120704701207047012070470000BF
:101AE80003682249224A934218BF8B4228D01432F5
:101AF800934225D01432934222D0143293421FD0FD
:101B0800143293421CD01432934219D014329342A7
:101B180016D0DAB2103A1749A1FB02121209164977
:101B28001944A8291FD9154B13449B000366144B6D
:101B3800436602F01F02012303FA02F2826670472D
:101B4800DBB2083B0F4AA2FB03231B090E4A1A44C7
:101B5800920002660D4A426603F01F03012202FA50
:101B680003F3836670470832DDE700BF0854025864
:101B78001C540258ABAAAAAAF0FBFDBF00820010B1
:101B880080080240CDCCCCCC009600168058025874
:101B980001794A1E072A2CD830B40368154D164C13
:101BA800A34218BFAB4218D01434A34215D0143442
:101BB800A34212D01434A3420FD01434A3420CD041
:101BC8001434A34209D01434A34206D00B4B0B445F
:101BD8009B00C3660A4B036705E00A4B0B449B0056
:101BE800C366094B0367012303FA02F2426730BC5C
:101BF80070477047085402581C5402583F8200101E
:101C0800400902403F9600164059025870B50446F4
:101C1800FEF73EFD002C00F0BD8105462368B7495C
:101C2800B74A934218BF8B420CBF0122002250D002
:101C380030318B424DD018318B424AD018318B420B
:101C480047D018318B4244D018318B4241D01831DB
:101C58008B423ED001F556718B423AD018318B42F7
:101C680037D018318B4234D018318B4231D01831EB
:101C78008B422ED018318B422BD018318B4228D072
:101C880018318B4225D09F499F4A934218BF8B42F7
:101C980000F024819D4A934200F02081143293423F
:101CA80000F01C811432934200F0188114329342E0
:101CB80000F014811432934200F0108114329342E0
:101CC80000F00C8140236365032384F8353001203C
:101CD8004AE0002184F83410022184F835107ABBD8
:101CE8008B4A93422CD01832934229D0183293420F
:101CF80026D01832934223D01832934220D018327B
:101D080093421DD002F55672934219D0183293426D
:101D180016D01832934213D01832934210D018328A
:101D280093420DD0183293420AD01832934207D00A
:101D38001832934204D01A6822F001021A6003E0B4
:101D48001A6822F001021A6023681A6812F0010F5B
:101D58000BD0FEF79DFC401B0528F5D920236365B1
:101D6800032384F83530012070BD1A686948104093
:101D7800A168E2680A4321690A4361690A43A169C3
:101D88000A43E1690A43216A0A430243616A042952
:101D980000F099806049086860490140B1F1005F2E
:101DA80011D36168A1F12905A1F13F00032888BF7B
:101DB800052D06D9A1F14700012802D94F39032979
:101DC80001D842F480121A602668756925F0070563
:101DD800636A1D43042B08D1A36A1D43E36A23B138
:101DE8002046FFF733FE002872D175612046FFF7C1
:101DF800D1FDE36D03F01F023F2393408360236806
:101E08003E493F4A934218BF8B4242D01832934210
:101E18003FD0183293423CD01832934239D018320E
:101E2800934236D01832934233D01832934230D08E
:101E380002F5567293422CD01832934229D01832A8
:101E4800934226D01832934223D01832934220D09E
:101E5800183293421DD0183293421AD01832934246
:101E680017D0284A934214D01432934211D0143216
:101E780093420ED0143293420BD01432934208D0BE
:101E88001432934205D01432934202D01432934252
:101E980013D12046FFF724FEA368802B6DD0236E54
:101EA80022791A60636EA26E5A606368013B072B41
:101EB80066D90023E3662367636700206065012312
:101EC80084F8353050E7E16A206B01430A4361E743
:101ED80040236365012084F8350045E7002284F833
:101EE8003420022284F835201A680D491140A2686E
:101EF800402A1AD0802A15D0002217E0100002408C
:101F080028000240085402581C5402583054025801
:101F1800400002403F8010FE0010005C0000FFFF00
:101F28000F00FEFF4FF4804200E01022E06842EA12
:101F3800D002206942EAD002606942EAD002A06970
:101F480042EAD002E06942EAD002206A42EA10126C
:101F58000A431A602268104B1344104AA2FB032359
:101F68001B099B00E3652046FFF714FDE36D03F0B2
:101F78001F0201239340436041E7002363608EE71B
:101F88002046FFF705FEE36E00221A60236F626F9A
:101F98005A6092E70120E7E6F8ABFDA7CDCCCCCCA0
:101FA800002800F03E8170B5044690F834000128FE
:101FB80000F03981012084F8340094F83500C0B26B
:101FC800012807D0002384F834304FF40063636598
:101FD800012070BD022084F835000020606520686B
:101FE800924E934DA84218BFB0422FD01835A84240
:101FF8002CD01835A84229D01835A84226D0183533
:10200800A84223D01835A84220D01835A8421DD0A0
:1020180005F55675A84219D01835A84216D01835B6
:10202800A84213D01835A84210D01835A8420DD0B0
:102038001835A8420AD01835A84207D01835A84242
:1020480004D0056825F00105056003E0056825F062
:10205800010505602046FFF7C5FB23687349744AEC
:10206800934218BF8B4238D01832934235D0183279
:10207800934232D0183293422FD0183293422CD048
:102088001832934229D01832934226D002F556725C
:10209800934222D0183293421FD0183293421CD058
:1020A8001832934219D01832934216D018329342FC
:1020B80013D01832934210D0183293420DD01A68B8
:1020C80022F00E0242F00A021A60236C93B12268D1
:1020D800136843F0040313600CE01A6822F01E0230
:1020E80042F016021A60236C23B12268136843F089
:1020F8000803136023684D494D4A934218BF8B4229
:1021080042D0183293423FD0183293423CD0183212
:10211800934239D01832934236D01832934233D092
:102128001832934230D002F5567293422CD01832AE
:10213800934229D01832934226D01832934223D0A2
:102148001832934220D0183293421DD0183293424D
:102158001AD01832934217D0364A934214D0143208
:10216800934211D0143293420ED0143293420BD0C2
:102178001432934208D01432934205D01432934259
:1021880002D0143293420ED1236E1A6812F4803FA3
:1021980003D01A6842F480721A60E36E1BB11A68A1
:1021A80042F480721A6023682049214A934218BF7A
:1021B8008B4230D0183293422DD0183293422AD015
:1021C8001832934227D01832934224D018329342BF
:1021D80021D0183293421ED002F5567293421AD07B
:1021E8001832934217D01832934214D018329342BF
:1021F80011D0183293420ED0183293420BD01832B5
:10220800934208D01832934205D01A6842F001026E
:102218001A600020DDE61A6842F001021A60002008
:10222800D7E6012070470220D3E600BF1000024025
:102238002800024008540258F0B583B00446002331
:102248000193A24B1D68A24BA3FB0535AD0A876D10
:102258003E68D7F800C003689E499F48834218BF6C
:102268008B420CBF0120002061D09C4A93425ED073
:10227800183293425BD01832934258D018329342A6
:1022880055D01832934252D0183293424FD002F5AB
:10229800567293424BD01832934248D01832934228
:1022A80045D01832934242D0183293423FD0183268
:1022B80093423CD01832934239D01832934236D0E8
:1022C8008749884A934218BF8B4212D0864A934264
:1022D8000FD0143293420CD01432934209D01432E6
:1022E800934206D01432934203D01432934240F002
:1022F80062821A68E16D01F01F010420884010EA2B
:102308000C0F00F0A88212F0040F00F0A48278608D
:1023180012F4004F00F05B8212F4803F40F05182CB
:10232800A36C002B00F047822046984743E2E26DF9
:1023380002F01F0108228A40324241D070BB674A2E
:1023480093422BD01832934228D01832934225D08A
:102358001832934222D0183293421FD01832934237
:102368001CD002F55672934218D01832934215D0F9
:102378001832934212D0183293420FD01832934237
:102388000CD01832934209D01832934206D0183232
:10239800934203D01A68C2F3C00202E01A68C2F37B
:1023A80080026AB11A6822F004021A60E36D03F031
:1023B8001F0208239340BB60636D43F0010363650C
:1023C800E26D02F01F0226FA02F313F0010F37D074
:1023D8002368404840498B4218BF83422CD01831AB
:1023E8008B4229D018318B4226D018318B4223D00A
:1023F80018318B4220D018318B421DD018318B42B6
:102408001AD001F556718B4216D018318B4213D071
:1024180018318B4210D018318B420DD018318B42B5
:102428000AD018318B4207D018318B4204D01831AA
:102438008B4201D01B6803E05B6913F0800F3BD12E
:10244800E36D03F01F03042202FA03F3334251D071
:102458002268204820498A4218BF824246D0183153
:102468008A4243D018318A4240D018318A423DD03E
:1024780018318A423AD018318A4237D018318A4204
:1024880034D001F556718A4230D018318A422DD0A5
:1024980018318A422AD018318A4227D018318A4204
:1024A80024D018318A4221D018318A421ED01831DE
:1024B8008A421BD013681DE0012303FA02F2BA60B6
:1024C800636D43F002036365BAE700BF14000020A0
:1024D800B5814E1B10000240280002404000024017
:1024E800085402581C54025830540258126812F00A
:1024F800020F3DD1E36D03F01F03102202FA03F32C
:1025080033425FD022689B489B498A4218BF824267
:1025180034D018318A4231D018318A422ED018313D
:102528008A422BD018318A4228D018318A4225D0C5
:1025380018318A4222D001F556718A421ED01831CC
:102548008A421BD018318A4218D018318A4215D0D5
:1025580018318A4212D018318A420FD018318A4273
:102568000CD018318A4209D01268C2F3800208E000
:10257800BB60636D43F004036365BBE71268C2F395
:10258800C002FAB1BB6023681A6812F4802F0DD01C
:102598001B6813F4002F04D1236C9BB12046984785
:1025A80010E0A36C73B1204698470BE01A6812F448
:1025B800807F03D11A6822F008021A60236C0BB1DD
:1025C80020469847E36D03F01F03202202FA03F325
:1025D800334200F08E802268664867498A4218BFF5
:1025E80082422ED018318A422BD018318A4228D004
:1025F80018318A4225D018318A4222D018318A42AD
:102608001FD018318A421CD001F556718A4218D061
:1026180018318A4215D018318A4212D018318A42AC
:102628000FD018318A420CD018318A4209D018319B
:102638008A4206D018318A4203D01268C2F3400297
:1026480002E01268C2F30012002A52D0BB6094F86C
:102658003530DBB2042B0ED023681A6812F4802FB1
:1026680035D01B6813F4002F2CD1636C002B40D09D
:10267800204698473DE02268136823F0160313604C
:102688002268536923F080035361236CB3B1226835
:10269800136823F008031360E36D03F01F023F2360
:1026A8009340BB60002384F83430012384F835302C
:1026B800236D002B7FD0204698477CE0A36C002B2D
:1026C800E5D1E9E7E36BA3B12046984711E01A6822
:1026D80012F4807F09D11A6822F010021A600023D0
:1026E80084F83430012384F83530E36B0BB120468D
:1026F8009847636D002B5ED0636D13F0010F56D0C1
:10270800042384F8353023681A491B4A934218BFBA
:102718008B4233D01832934230D0183293422DD0A6
:10272800183293422AD01832934227D01832934253
:1027380024D01832934221D002F5567293421DD00C
:10274800183293421AD01832934217D01832934253
:1027580014D01832934211D0183293420ED0183246
:1027680093420BD01832934208D01A6822F0010223
:102778001A6007E010000240280002401A6822F0A0
:1027880001021A60019B01330193AB4204D823680C
:102798001B6813F0010FF5D1002384F83430236847
:1027A8001B6813F0010F08D0032384F83530E36C5D
:1027B8000BB12046984703B0F0BD012384F83530AB
:1027C800F5E7236C002BF6D020469847F3E712F084
:1027D800200F35D123686449644A934218BF8B425D
:1027E8002AD01832934227D01832934224D0183274
:1027F800934221D0183293421ED0183293421BD0F4
:102808001832934218D002F55672934214D01832F7
:10281800934211D0183293420ED0183293420BD003
:102828001832934208D01832934205D01832934296
:1028380002D01832934209D11A6822F008021A60AD
:10284800236C002BB7D020469847B4E71A6822F0CB
:1028580004021A60F4E70220884010EA0C0F60D0E6
:1028680012F0020F5DD0786012F4004F0ED012F40F
:10287800803F05D1636C002B9DD0204698479AE78E
:10288800E36B002B97D02046984794E712F0200F6F
:102898003BD123683449354A934218BF8B422AD02A
:1028A8001832934227D01832934224D018329342D8
:1028B80021D0183293421ED0183293421BD01832BE
:1028C800934218D002F55672934214D018329342AC
:1028D80011D0183293420ED0183293420BD01832CE
:1028E800934208D01832934205D01832934202D04E
:1028F8001832934210D11A6822F014021A60002389
:1029080084F83430012384F83530E36B002B3FF42E
:1029180052AF204698474EE71A6822F00A021A601A
:10292800EDE7082000FA01F111EA0C0F3FF443AF7C
:1029380012F0080F3FF43FAF1A6822F00E021A6037
:10294800E36D03F01F03012202FA03F37B60626563
:10295800002384F8343084F83520E36C002B3FF4EE
:102968002AAF2046984726E7100002402800024078
:10297800406D7047F0B583B000233AE0092400E0C9
:102988000024B4403C4302356E4E46F825406E4C58
:102998002568D44304EA05064F6817F4803F01D040
:1029A80042EA0506684D2E606E6804EA06054F681F
:1029B80017F4003F01D042EA0605634E75604FF0F8
:1029C800B0452D6804EA05064F6817F4801F01D04A
:1029D80042EA05064FF0B0452E606D682C404E68FF
:1029E80016F4001F01D042EA05044FF0B0425460CB
:1029F80001330A6832FA03F400F0A28001249C40F3
:102A08002240F5D04D686E1E112D18BF012E01D938
:102A1800122D12D186685F000325BD4026EA0506FF
:102A2800CD68BD4035438560466826EA04064D6892
:102A3800C5F300149C4034434460C6685F00032516
:102A4800BD40EC4326408D68BD403543C5604D68A8
:102A5800122D18BF022D13D1DE08083650F826E0D3
:102A680003F007054FEA850C0F2505FA0CF52EEA49
:102A7800050E0D6905FA0CF545EA0E0540F82650D5
:102A8800056825404C6804F00304BC402C430460EE
:102A98004C6814F0805FABD02C4CD4F8F45045F05F
:102AA8000205C4F8F450D4F8F44004F00204019488
:102AB800019C9D08AE1C234C54F8267003F00304B7
:102AC800A6000F24B44027EA0407214CA0423FF493
:102AD80057AF04F58064A04222D004F58064A04278
:102AE80020D004F58064A0421ED004F58064A04282
:102AF8001CD004F58064A0421AD004F58064A0427A
:102B080018D004F58064A04216D004F58064A04271
:102B180014D004F58064A0423FF430AF0A2430E7B3
:102B280001242EE702242CE703242AE7042428E7BB
:102B3800052426E7062424E7072422E7082420E7BB
:102B480003B0F0BD0004005880000058004402584B
:102B5800000002580369194201D100207047012082
:102B6800704712B90904816170478161704710B4D8
:102B78000468226822F007028B68134323F01803C5
:102B8800CA681343236003680A685A6103684A687D
:102B98009A615DF8044B704770B406684C1CE401F8
:102BA800355925F0070593682B4323F01803D5689A
:102BB8002B43335103681468C9010B44C3F894408C
:102BC800036852681944C1F8982070BC704730B443
:102BD80004682268D4F8A05322F020024B691343FA
:102BE80023F400628B69134323F48062CB69134397
:102BF80023F0C0620B6A134323F000624B6A13434D
:102C080023F040438A6A43EA820323F000530A6BA5
:102C1800134325F48035CA6A154323600368C3F853
:102C2800A05330BC70472DE9F04105684B1CDB010F
:102C3800EC5824F07044EC500768FB5807EBC114BB
:102C4800D4F8E8C0D4F8E450D7F8A06323F02004FF
:102C58005369234323F400649369234323F4806472
:102C6800D369234323F0C064136A234323F0006429
:102C7800536A234323F07044936A234323F40033B5
:102C8800146BB4F1005F38D023F04003D2F834E07D
:102C98004EEA030323F48023146D234323F0FC73CB
:102CA800946C43EA04082CF01F0C946B04F01F0486
:102CB80044EA0C0424F00044D36B1C43BEF1000F1B
:102CC80003D125F48075136C1D43D2F844C0BCF5BC
:102CD800606F18BFBCF5F05F02D1BEF1400F03D1A1
:102CE80025F4F0554CEA0505D2F84CC004290CD857
:102CF800DFE801F00621272D330043F40033C3E752
:102D080026F40036D26A46EA42064A1CD20147F83F
:102D180002800368C9010B44C3F8E84003680B4408
:102D2800C3F8E45003681944C1F8D4C00368C3F871
:102D3800A063BDE8F08126F48026D26A46EA8206BE
:102D4800E3E726F40026D26A46EAC206DDE726F45F
:102D58008016D26A46EA0216D7E726F40016D26A27
:102D680046EA4216D1E770B40368D3F8B063D3F8E3
:102D7800B453D3F8B8430A2915D8DFE811F00B008B
:102D880016002F004A00660082009E00B800D50099
:102D9800F20010010022C3F8B0230368C3F8B4237B
:102DA8000368C3F8B82370BC704726F03F06116863
:102DB80001F0030141EA0604516801F004062643C4
:102DC800916801F018010E43C3F8B063136903F06A
:102DD80020031E430368C3F8B063E4E726F47C6667
:102DE80011688C01E4B2264351688C0104F48074A4
:102DF800344391688E0106F4C0662643C3F8B06375
:102E080013699B0103F400631E430368C3F8B063AE
:102E1800C9E726F47C3611680C0304F440542643B1
:102E280051680C0304F48044344391680E0306F49B
:102E3800C0362643C3F8B06313691B0303F4003399
:102E48001E430368C3F8B063ADE726F47C06116837
:102E58008C0404F44024264351688C0404F4801440
:102E6800344391688E0406F4C0062643C3F8B06361
:102E780013699B0403F400031E430368C3F8B0639B
:102E880091E726F07C5611680C0604F0407426433E
:102E980051680C0604F08064344391680E0606F00D
:102EA800C0562643C3F8B06313691B0603F00053EA
:102EB8001E430368C3F8B06375E725F01F05116862
:102EC80001F003010D43516801F004010D439168BD
:102ED80001F01801294324F00F04D26802F00F0210
:102EE8001443C3F8B4130368C3F8B8435BE725F485
:102EF800F86511688E01F6B22E435168890101F414
:102F080080752E4391688D0105F4C065354324F41E
:102F18007074D268920102F470721443C3F8B45307
:102F28000368C3F8B8433EE725F4F83511680E0383
:102F380006F440562E435168090301F480452E4398
:102F480091680D0305F4C035354324F47044D26804
:102F5800120392B21443C3F8B4530368C3F8B843D6
:102F680021E725F4F80511688E0406F440262E435F
:102F78005168890401F480152E4391688D0405F485
:102F8800C005354324F47014D268920402F4701218
:102F98001443C3F8B4530368C3F8B84303E725F0F0
:102FA800F85511680E0606F040762E43516809065A
:102FB80001F080652E4391680D0605F0C055354334
:102FC80024F07064D268120602F070621443C3F8E9
:102FD800B4530368C3F8B843E5E6052933D8DFE8F6
:102FE80001F00B131B232B030268D2F8843343F040
:102FF8000103C2F8843370470268D2F8843343F07F
:103008000203C2F8843370470268D2F8843343F06D
:103018000403C2F8843370470268D2F8843343F05B
:103028000803C2F8843370470268D2F8843343F047
:103038001003C2F8843370470268D2F8843343F02F
:103048002003C2F884337047002863D010B582B0DB
:103058000446022380F8C1300023C0F8C430C0F809
:10306800C830C0F8CC30C0F8D030C0F8D430C0F880
:10307800D830836813F0010F12D00268264B9A42A9
:1030880025D021680A6822F44042236903F44043AA
:10309800134323F44053626902F4405213430B6014
:1030A800204608F0DDF9A36813F0020F08D0216864
:1030B8000A6822F44072E36803F4407313430B6018
:1030C800012384F8C130002284F8C0201DE0134B8E
:1030D800D3F8F02042F00052C3F8F020D3F8F030D3
:1030E80003F000530193019BCBE7D000811A8B00BA
:1030F800234400219961D961196259629962831A3E
:103108009800204401630132D2B2052AEDD900208B
:1031180002B010BD012070470074014000440258FD
:1031280090F8C130DBB2022B11D010B5044602234F
:1031380080F8C130052906D0FFF72EFD012384F859
:10314800C130002010BD1146FFF711FDF6E702203F
:10315800704790F8C130DBB2022B39D090F8C030FC
:10316800012B37D030B4012480F8C040022380F806
:10317800C1300568D5F8A03323F002030A6802F0CD
:103188000202134323F03C024B6803F03C03134351
:1031980023F470738A681A4322F48063CA6802F4BD
:1031A80080621A430B69C5F8A43303684D69C3F8F4
:1031B800A85303688969C3F8AC130368C3F8A0234C
:1031C80080F8C140002380F8C030184630BC7047F2
:1031D800022070470220704738B590F8C130DBB242
:1031E800022B12D090F8C030012B10D004460125D4
:1031F80080F8C050022380F8C130FFF7B4FD84F88E
:10320800C150002084F8C00038BD0220FCE702202D
:10321800FAE790F8C130DBB2022B1DD090F8C0302D
:10322800012B1BD010B4012280F8C020022380F8A3
:10323800C1300468D4F8B83323F0404301F040416A
:103248001943C4F8B81380F8C120002380F8C030AF
:1032580018465DF8044B70470220704702207047FB
:1032680090F8C130DBB2022B00F0BC8090F8C0307F
:10327800012B00F0B98070B4012380F8C03002231C
:1032880080F8C1300568D5F8D033D5F8D443013972
:103298000F2900F2A080DFE801F008469E5D9E9E9F
:1032A8009E749E9E9E9E9E9E9E8B23F0FE0351685A
:1032B80001F002010B43116801F0040119439368FE
:1032C80003F078030B43D26802F08002134390F8AE
:1032D800C120D2B2072A00F0898003F07F32C5F8F6
:1032E800D0230168424A2240C1F8D4230168D1F8AA
:1032F800D02303F080331343C1F8D0330268D2F8E7
:10330800D43324F4FE4424F07F042404240C1C4306
:10331800C2F8D443012380F8C130002380F8C030BC
:10332800184670BC704723F47E435168090201F4C3
:10333800007119431668330203F480630B439168E4
:10334800090201F4F0411943D3681B0203F4004356
:103358000B43BCE723F47E035168090401F40031F0
:1033680019431668330403F480230B439168090456
:1033780001F4F0011943D3681B0403F400030B4361
:10338800A5E723F07E435168090601F0007119434F
:103398001668330603F080630B439168090601F051
:1033A800F0411943D3681B0603F000430B438EE733
:1033B80024F0FE04516801F002010C43116801F089
:1033C80004010C43916801F078012143D46804F0AA
:1033D80080040C437BE7072280F8C120002280F894
:1033E800C02074E70220704702207047012098E748
:1033F8007F7FFFFF90F8C130DBB2022B1DD090F821
:10340800C030012B1BD010B4012280F8C020022349
:1034180080F8C1300468D4F8D43323F0407301F045
:1034280040711943C4F8D41380F8C120002380F8F0
:10343800C03018465DF8044B7047022070470220E0
:10344800704730B411F0010F09D00468D4F8D033B4
:1034580023F0010302F001052B43C4F8D03311F027
:10346800020F0AD00568D5F8D03323F4807314020C
:1034780004F480742343C5F8D03311F0040F0AD044
:103488000568D5F8D03323F48033140404F4803469
:103498002343C5F8D03311F0080F0AD00568D5F8D2
:1034A800D03323F08073140604F080742343C5F8E6
:1034B800D03311F0100F09D00168D1F8D43323F0BC
:1034C800010302F001021A43C1F8D42330BC70474B
:1034D80090F8C130DBB2022B59D090F8C030012BE4
:1034E80057D010B4012380F8C030022380F8C130CF
:1034F8000468D4F880330139072941D8DFE801F09E
:10350800041F402A4040403523F4E023116801F4A9
:10351800E0210B435268C4F8BC2390F8C120D2B212
:10352800072A38D00268C2F88033012380F8C130F6
:10353800002380F8C03018465DF8044B704723F428
:1035480060131168C90001F460110B435268C4F894
:10355800C023E2E723F0E0731168890101F0E0710C
:103568000B435268C4F8C423D7E723F0606311689B
:10357800490201F060610B435268C4F8C823CCE7E4
:10358800072280F8C120002280F8C020C5E7022069
:103598007047022070470120CEE790F8C130DBB2B7
:1035A800022B2ED090F8C030012B2CD070B51646C7
:1035B8000D460446012380F8C030022380F8C1304C
:1035C80005291AD0FFF72FFB3168EA00521B930038
:1035D8002344196272685A62B2689A62F268DA62BF
:1035E80032691A6329462046FFF7F7FC012384F85D
:1035F800C130002084F8C00070BD1146FFF7E7FA1B
:10360800E2E7022070470220704710B490F8C140EA
:10361800E4B2022C00F0CB8090F8C040012C00F0FE
:10362800C880012480F8C040022480F8C1400A2ADA
:1036380000F2B680DFE802F006202E3D4C5B6A7887
:103648008796A5000268C9010A440024C2F8CC4044
:1036580003680B44C3F8D04090F8C130DBB2072BA5
:1036680000F0A980012380F8C130002380F8C03021
:1036780018465DF8044B7047026802EBC111D1F897
:10368800CC2022F01F021C685B6823431343C1F857
:10369800CC30E1E7026802EBC111D1F8CC2022F46A
:1036A800F8621C685B68234342EA8313C1F8CC3094
:1036B800D2E7026802EBC111D1F8CC2022F4F8322B
:1036C8001C685B68234342EA0333C1F8CC30C3E784
:1036D800026802EBC111D1F8CC2022F4F8021C6870
:1036E8005B68234342EA8343C1F8CC30B4E70268FD
:1036F80002EBC111D1F8CC2022F0F8521C685B68AB
:10370800234342EA0363C1F8CC30A5E7026802EB21
:10371800C111D1F8D02022F01F021C685B68234336
:103728001343C1F8D03097E7026802EBC111D1F812
:10373800D02022F4F8621C685B68234342EA8313B2
:10374800C1F8D03088E7026802EBC111D1F8D02067
:1037580022F4F8321C685B68234342EA0333C1F859
:10376800D03079E7026802EBC111D1F8D02022F4F9
:10377800F8021C685B68234342EA8343C1F8D030EF
:103788006AE7026802EBC111D1F8D02022F0F852A2
:103798001C685B68234342EA0363C1F8D0305BE7E7
:1037A800072380F8C130002380F8C03054E7022096
:1037B8005FE702205DE701205BE703689A6912F082
:1037C800020F01D000229A6203689A6912F0010F71
:1037D80003D19A6942F001029A61704770B4039E5E
:1037E80005686868740D04F4806444F07F7444F4D8
:1037F800583444F47F7444F0030420EA0400C1F30D
:10380800090141EA0241194331430143696070BC2F
:10381800704770B504460D46164603689B6913F059
:10382800100F1CD023689A6912F0200F19D1B5F136
:10383800FF3FF7D0FCF72CFF801BA84201D8002DD2
:10384800F0D1636C43F020036364202384F8413093
:10385800002384F8423084F84030012020E0002022
:103868001EE01022DA6123682025DD612046FFF77B
:10387800A4FF2268536823F0FF7323F48B3323F4E7
:10388800FF7323F001035360636C43F00403636424
:1038980084F84150002384F8423084F840300120F5
:1038A80070BD70B504460D46164623689B6913F033
:1038B800020F1DD1324629462046FFF7AAFFC8B994
:1038C800B5F1FF3FF1D0FCF7E3FE801BA84201D819
:1038D800002DEAD1636C43F020036364202384F84D
:1038E8004130002384F8423084F84030012000E061
:1038F800002070BD0120FCE7F8B505460F461646C6
:103908001C462B689B6937EA03030CBF012300237D
:10391800B34218D1B4F1FF3FF3D0FCF7B9FE069BD0
:10392800C01AA04201D8002CEBD16B6C43F02003E5
:103938006B64202385F84130002385F8423085F8F0
:103948004030012000E00020F8BD70B505460C4667
:1039580016462B689B6913F0200F1AD13246214670
:103968002846FFF756FFB0B9FCF792FE801BA0422D
:1039780001D8002CEDD16B6C43F020036B6420233D
:1039880085F84130002385F8423085F84030012021
:1039980070BD0020FCE70120FAE70000002857D09E
:1039A80010B5044690F84130002B41D0242384F808
:1039B80041302268136823F00103136063682268AA
:1039C80023F0706313612268936823F400439360C3
:1039D800E368012B31D0A368226843F40443936061
:1039E800E368022B2FD0226851681A4B0B435360AF
:1039F8002268D36823F40043D360236962691343C0
:103A0800A169226843EA0123D360E369216A226835
:103A18000B4313602268136843F00103136000200E
:103A28006064202384F84130206384F8420010BD8C
:103A380080F8403007F078FDB8E7A368226843F4BF
:103A480000439360CCE723684FF400625A60CAE7EA
:103A580001207047008000022DE9F04383B090F800
:103A68004150EDB2202D40F0A48090F84040012C48
:103A780000F0A480984617460E4604464FF0010908
:103A880080F84090FCF704FE0546009019234A464A
:103A98004FF400412046FFF72FFF002840F09080A8
:103AA800212384F84130102384F8423000236364D2
:103AB8006762A4F82A806363638D9BB2FF2B0AD9DF
:103AC800FF222285424B00934FF0807331462046F7
:103AD800FFF784FE18E0628D92B222853C4B00937A
:103AE8004FF00073D2B231462046FFF777FE0BE065
:103AF800628D92B22285002300934FF00073D2B2F8
:103B080031462046FFF76AFE638D9BB2002B33D007
:103B18002A460A992046FFF7C4FE002852D1626A55
:103B2800236812789A62636A01336362638D013B8A
:103B38009BB26385238D013B9BB22385628D92B234
:103B4800002AE1D0002BDFD100950A9B00228021BA
:103B58002046FFF7D1FE002836D1638D9BB2FF2B9C
:103B6800C6D9FF222285002300934FF08073314687
:103B78002046FFF733FEC7E72A460A992046FFF793
:103B8800E4FE034610BB22682021D1612068426808
:103B980022F0FF7222F48B3222F4FF7222F001022B
:103BA800426084F84110002284F8422084F84020C2
:103BB80000E00223184603B0BDE8F0830223F9E7CA
:103BC8000123F7E70123F5E70123F3E70123F1E7F1
:103BD8000020008090F84130DBB2202B24D190F8EF
:103BE8004030012B22D0012380F84030242380F874
:103BF80041300268136823F00103136002681368F8
:103C080023F4805313600268136819431160026833
:103C1800136843F001031360202380F84130002328
:103C280080F84030184670470220704702207047DD
:103C380090F84130DBB2202B22D190F84030012B94
:103C480020D0012380F84030242380F841300268D6
:103C5800136823F0010313600268136823F4706388
:103C680043EA012111600268136843F001031360FD
:103C7800202380F84130002380F8403018467047F0
:103C88000220704702207047134BDB6813F0040FC3
:103C980007D1114BDB6803F0070383421AD00120D8
:103CA800704710B50C4AD36823F007031843D06057
:103CB800FCF7EEFC0446084B5B6813F4005F07D181
:103CC800FCF7E6FC001BB0F57A7FF4D9012000E090
:103CD800002010BD0020704700480258002800F05E
:103CE800E68238B50446036813F0010F25D0AA4AC6
:103CF800136903F03803926A102B15D0182B0FD0D4
:103D08006368B3F5803F3ED0002B52D1A24B1A68AE
:103D180022F480321A601A6822F480221A6037E08E
:103D280002F00302022AEBD19B4B1B6813F4003FFD
:103D380003D06368002B00F0BC82236813F0020FE5
:103D480077D0954A1369926A13F038035AD0182B22
:103D580055D0E368002B00F0B2808F490A6822F042
:103D6800190213430B60FCF793FC05468A4B1B684A
:103D780013F0040F40F08B80FCF78AFC401B0228EC
:103D8800F4D903209AE2844A136843F48033136019
:103D980063682BB3FCF77CFC05467F4B1B6813F468
:103DA800003FCAD1FCF774FC401B6428F5D90320F6
:103DB80084E2B3F5A02F09D0774B1A6822F4803239
:103DC8001A601A6822F480221A60E1E7724B1A68B6
:103DD80042F480221A601A6842F480321A60D7E7E7
:103DE800FCF756FC05466C4B1B6813F4003FA4D047
:103DF800FCF74EFC401B6428F5D903205EE212F064
:103E0800030FA6D1644B1B6813F0040F03D0E368BB
:103E1800002B00F05082FCF755FC41F20303984256
:103E28002CD85D4A536823F47C33216943EA013373
:103E38005360236813F0100F71D0574A136903F0C9
:103E48003803926A082B52D0182B4CD0E369002B08
:103E580000F0A480504A136843F080031360FCF715
:103E680017FC05464C4B1B6813F4807F7BD1FCF78D
:103E78000FFC401B0228F5D903201FE2464A53686D
:103E880023F0FE43216943EA01635360D1E7FCF75D
:103E980019FC41F20303984208D83F4A536823F4B7
:103EA8007C33216943EA01335360C2E73A4A5368D5
:103EB80023F0FE43216943EA01635360B9E7364AB8
:103EC800136823F001031360FCF7E2FB0546324B4D
:103ED8001B6813F0040FACD0FCF7DAFB401B022878
:103EE800F5D90320EAE102F00302012AAED12A4BF8
:103EF8001B6813F4807F04D0E369802B01D0012074
:103F0800DCE1FCF7DFFB41F20303984222D8224AA6
:103F1800536823F0F843216A43EA816353602368B6
:103F280013F0080F62D06369002B4BD01A4A536F05
:103F380043F001035367FCF7ABFB0546164B5B6F79
:103F480013F0020F52D1FCF7A3FB401B0228F5D94E
:103F58000320B3E1104AD36823F07C53216A43EA73
:103F68000163D360DBE7FCF7ADFB41F20303984242
:103F780008D8094A536823F0F843216A43EA816361
:103F88005360CCE7044AD36823F07C53216A43EAA0
:103F98000163D360C3E700BF00440258AD4A136809
:103FA80023F080031360FCF773FB0546A94B1B68DD
:103FB80013F4807FB3D0FCF76BFB401B0228F5D9C4
:103FC80003207BE1A34A536F23F001035367FCF7F7
:103FD8005FFB05469F4B5B6F13F0020F06D0FCF7A3
:103FE80057FB401B0228F5D9032067E1236813F02B
:103FF800200F29D0A3699BB1964A136843F48053D4
:104008001360FCF745FB0546924B1B6813F4005FF1
:104018001AD1FCF73DFB401B0228F5D903204DE1DE
:104028008C4A136823F480531360FCF731FB054670
:10403800884B1B6813F4005F06D0FCF729FB401B74
:104048000228F5D9032039E1236813F0040F21D1A0
:10405800636A002B00F031817E4A126902F038024F
:10406800182A00F0EA80022B75D07A4A136823F0E8
:1040780080731360FCF70CFB0446764B1B6813F047
:10408800007F00F0D880FCF703FB001B0228F4D95E
:10409800032013E1704A136843F480731360FCF73C
:1040A800F7FA05466C4B1B6813F4807F06D1FCF7C2
:1040B800EFFA401B6428F5D90320FFE0A368012B21
:1040C8000AD00BBB634B1A6F22F001021A671A6FF2
:1040D80022F004021A6704E05E4A136F43F00103FA
:1040E8001367A36833B3FCF7D3FA0546594B1B6F24
:1040F80013F0020FACD1FCF7CBFA401B41F2883326
:104108009842F3D90320D9E0052B09D0514B1A6FF7
:1041180022F001021A671A6F22F004021A67E0E718
:104128004C4B1A6F42F004021A671A6F42F00102F0
:104138001A67D6E7FCF7ACFA0546464B1B6F13F037
:10414800020F85D0FCF7A4FA401B41F2883398424D
:10415800F3D90320B2E03F4A136823F08073136059
:10416800FCF796FA05463B4B1B6813F0007F06D018
:10417800FCF78EFA401B0228F5D903209EE0354B48
:10418800996A364A0A40A16AE06A41EA00110A437C
:104198009A62226B013AC2F30802616B0139490243
:1041A80089B20A43A16B0139090401F4FE010A43EB
:1041B800E16B0139090601F0FE410A431A63DA6A24
:1041C80022F00102DA62596B254A0A40A16C42EAE0
:1041D800C1025A63DA6A22F00C02216C0A43DA62DD
:1041E800DA6A22F00202616C0A43DA62DA6A42F49D
:1041F8008032DA62DA6A42F40032DA62DA6A42F467
:104208008022DA62DA6A42F00102DA621A6842F05F
:1042180080721A60FCF73CFA04460E4B1B6813F0D8
:10422800007F06D1FCF734FA001B0228F5D90320D9
:1042380044E0002042E0002040E0064A916A106B0A
:10424800012B3CD001F00303A26A93420AD001205B
:1042580034E000BF00440258004802580CFCFFFF3D
:104268000700FFFFC1F30511E36A994201D001205D
:1042780024E0C0F30802236B013B9A4201D00120DD
:104288001CE0C0F34622636B013B9A4201D0012037
:1042980014E0C0F30642A36B013B9A4211D1C0F36C
:1042A8000660E36B013B98420DD0012006E0012037
:1042B8007047012002E0012000E0002038BD012005
:1042C800FCE70120FAE70020F8E700BF724B1B6902
:1042D80003F03803102B00F0DB80182B10D00BB143
:1042E8006E4870476C4B1B6813F0200F00F0D280AB
:1042F800694B1868C0F3C100694B23FA00F0704796
:10430800654A916A01F00301906AC0F30510D36A07
:1043180003F00103526BC2F3CC0203FB02F307EE76
:10432800903AF8EE677A002800F0B580012966D047
:10433800F9B1022900F08F8007EE100AF8EE476AFB
:104348009FED586A86EE267A534B1B6BC3F308031E
:1043580006EE903AF8EE666A9FED536A67EE867A43
:1043680076EEA77AF7EE006A77EEA67A27EE277A36
:1043780061E0494B1B6813F0200F23D046490A68B7
:10438800C2F3C102464BD34007EE103AF8EE476A33
:1043980007EE100AB8EE476A86EE867A0B6BC3F30F
:1043A800080306EE903AF8EE666A9FED3F6A67EEFC
:1043B800867A76EEA77AF7EE006A77EEA67A27EE87
:1043C800277A38E007EE100AF8EE476A9FED376A59
:1043D80086EE267A304B1B6BC3F3080306EE903A41
:1043E800F8EE666A9FED306A67EE867A76EEA77A0F
:1043F800F7EE006A77EEA67A27EE277A1BE007EE3B
:10440800100AF8EE476A9FED276A86EE267A224B55
:104418001B6BC3F3080306EE903AF8EE666A9FED4D
:10442800226A67EE867A76EEA77AF7EE006A77EE6A
:10443800A67A27EE277A184B1B6BC3F34623013362
:1044480007EE903AF8EE677AC7EE276AFCEEE67A4E
:1044580017EE900A704707EE100AF8EE476A9FEDCC
:10446800146A86EE267A0C4B1B6BC3F3080306EE20
:10447800903AF8EE666A9FED0C6A67EE867A76EEF9
:10448800A77AF7EE006A77EEA67A27EE277AD2E7C0
:1044980008487047024870470044025800093D0028
:1044A8000090D0030024744A000000390024744CA2
:1044B80020BCBE4B40787D01002800F036810346C1
:1044C8009C4A126802F00F028A420CD2994802688C
:1044D80022F00F020A430260026802F00F028A42C9
:1044E80001D00120704770B51A6812F0040F0CD083
:1044F8001869914A926902F07002904205D98E4C6F
:10450800A26922F070021043A0611A6812F0080F25
:104518000CD05869884AD26902F07002904205D9D5
:10452800854CE26922F070021043E0611A6812F0CB
:10453800100F0CD09869804AD26902F4E062904268
:1045480005D97D4CE26922F4E0621043E0611A6803
:1045580012F0200F0CD0D869774A126A02F0700264
:10456800904205D9744C226A22F0700210432062EE
:104578001A6812F0020F0CD0D8686F4A926902F0DC
:104588000F02904205D96C4CA26922F00F02104329
:10459800A0611C460D461B6813F0010F41D0664A06
:1045A800936923F47063A1680B4393616368022BDA
:1045B8000AD0032B27D0012B2CD05F4A126812F0A7
:1045C800040F06D10120AFE0126812F4003F00F09A
:1045D800AE8059490A6922F0070213430B61FCF7C0
:1045E80057F80646544B1B6903F038036268B3EB6F
:1045F800C20F16D0FCF74CF8801B41F28833984262
:10460800F0D9032090E04C4A126812F0007FE0D104
:10461800012089E0484A126812F4807FD9D101202C
:1046280082E0236813F0020F0CD0E268424B9B69CA
:1046380003F00F039A4205D23F498B6923F00F0319
:104648001A438A613B4B1B6803F00F03AB420CD93A
:10465800384A136823F00F032B431360136803F0E1
:104668000F03AB4201D001205EE0236813F0040F72
:104678000CD02269304B9B6903F070039A4205D233
:104688002D498B6923F070031A438A61236813F05C
:10469800080F0CD06269284BDB6903F070039A425B
:1046A80005D22549CB6923F070031A43CA612368F0
:1046B80013F0100F0CD0A2691F4BDB6903F4E06301
:1046C8009A4205D21C49CB6923F4E0631A43CA61B4
:1046D800236813F0200F0CD0E269174B1B6A03F014
:1046E80070039A4205D214490B6A23F070031A43E7
:1046F8000A62FFF7EBFD10498B69C3F303230F4AE6
:10470800D35C03F01F03D8408B6903F00F03D35C1D
:1047180003F01F0320FA03F3094A1360094B1860DA
:10472800094B1868FBF754FF70BD01207047012042
:10473800FAE700BF0020005200440258CCE4000809
:1047480018000020140000200400002008B5FFF71E
:10475800BDFD0B4A9369C3F303230A49CB5C03F0FD
:104768001F0320FA03F3926902F00F02885C00F03D
:104778001F0023FA00F0044A1060044A136008BDC1
:1047880000440258CCE4000818000020140000205F
:1047980008B5FFF7DBFF054BDB69C3F30213044AD7
:1047A800D35C03F01F03D84008BD00BF0044025883
:1047B800CCE4000808B5FFF7C9FF054BDB69C3F374
:1047C8000223044AD35C03F01F03D84008BD00BF8E
:1047D80000440258CCE40008404B9B6A03F00303F2
:1047E800032B79D070B50E4604463C4A136823F073
:1047F80080631360FBF74CFF0546384B1B6813F0CA
:10480800006F06D0FBF744FF401B0228F5D90320B0
:1048180070BD324B9A6A22F47C32216842EA013236
:104828009A626268013AC2F30802A1680139490232
:1048380089B20A43E1680139090401F4FE010A4317
:1048480021690139090601F0FE410A439A63DA6ACF
:1048580022F0C00261690A43DA62DA6A22F02002B1
:10486800A1690A43DA62DA6A22F01002DA62D96BC5
:104878001B4A0A40E16942EAC102DA63DA6A42F095
:104888001002DA62C6B91A46DB6A43F40023D3621F
:10489800124A136843F080631360FBF7F9FE04467D
:1048A8000E4B1B6813F0006F14D1FBF7F1FE001BD1
:1048B8000228F5D90320ABE7012E05D0074AD36AB1
:1048C80043F40013D362E3E7044AD36A43F4801342
:1048D800D362DDE700209BE70120704700440258BF
:1048E8000700FFFF404B9B6A03F00303032B79D0BB
:1048F80070B50E4604463C4A136823F08053136093
:10490800FBF7C6FE0546384B1B6813F0005F06D060
:10491800FBF7BEFE401B0228F5D9032070BD324BC1
:104928009A6A22F07C72216842EA01529A626268AD
:10493800013AC2F30802A1680139490289B20A435F
:10494800E1680139090401F4FE010A4321690139CA
:10495800090601F0FE410A431A64DA6A22F4406249
:1049680061690A43DA62DA6A22F40072A1690A43C9
:10497800DA62DA6A22F48072DA62596C1B4A0A40F7
:10498800E16942EAC1025A64DA6A42F48072DA6280
:10499800C6B91A46DB6A43F48003D362124A136825
:1049A80043F080531360FBF773FE04460E4B1B68FD
:1049B80013F0005F14D1FBF76BFE001B0228F5D93A
:1049C8000320ABE7012E05D0074AD36A43F0807372
:1049D800D362E3E7044AD36A43F40003D362DDE712
:1049E80000209BE701207047004402580700FFFFA2
:1049F800F8B50446036813F0006F2BD0436EB3F587
:104A0800801F18D007D9B3F5001F1DD0B3F5401F7C
:104A18002ED1002506E05BBB934AD36A43F40033EA
:104A2800D3620025904A136D23F44013616E0B4343
:104A38001365002610E002210430FFF7CDFE05467D
:104A4800002DEFD02E4607E002212430FFF74AFF61
:104A58000546F5E700263546236813F4807F17D00E
:104A6800636D042B32D8DFE803F006242A0B0B0011
:104A780001263546F0E77C4AD36A43F40033D36213
:104A88003DBB794A136D23F00703616D0B43136532
:104A9800236813F4007F33D0A36D802B44D01AD839
:104AA8000BB3402B1CD10021201DFFF795FE0546B6
:104AB8001EE00021201DFFF78FFE0546E0E70021DC
:104AC80004F12400FFF70EFF0546D9E70126354615
:104AD800DEE72E46DCE7C02B0AD0B3F5807F07D08F
:104AE800012635460CE0604AD36A43F40033D362AA
:104AF8000DBB5D4A136D23F4E073A16D0B43136581
:104B0800236813F4806F2FD0D4F8A430B3F5800F46
:104B18003ED012D8D3B1B3F5001F14D10021201D07
:104B2800FFF75AFE054616E0002104F12400FFF7BE
:104B3800D9FE0546DCE72E46E2E7B3F5C00F0AD0FA
:104B4800B3F5000F07D0012635460DE0464AD36A73
:104B580043F40033D36215BB434A936D23F46003D7
:104B6800D4F8A4100B439365236813F4006F2FD077
:104B7800D4F8A830B3F1007F37D012D8D3B1B3F14D
:104B8800807F14D10021201DFFF726FE054616E080
:104B9800002104F12400FFF7A5FE0546DBE72E46B9
:104BA800E2E7B3F1407F0AD0B3F1806F07D0012666
:104BB80035460DE02C4AD36A43F40033D362DDB99D
:104BC800294A936D23F0E063D4F8A8100B4393654A
:104BD800236813F0007F2AD0A36C102B12D00DD9B4
:104BE800202B1DD0302B12D009E0002104F1240025
:104BF800FFF778FE0546E2E72E46E9E73BB10126D6
:104C0800354614E0184AD36A43F40033D3626DB9C9
:104C1800154AD36C23F03003A16C0B43D36406E030
:104C28000221201DFFF7D8FD0546F0E72E46236830
:104C380013F4805F27D0E36DB3F5005F3ED009D849
:104C4800A3B1B3F5805F0BD10021201DFFF7C4FD90
:104C5800054610E0B3F5405F0DD0B3F5804F0AD09C
:104C6800012635460FE000BF00440258934AD36A34
:104C780043F40033D36245BB904A136D23F4E043F9
:104C8800E16D0B431365236813F4005F33D0236E83
:104C9800B3F5003F27D01AD83BB1B3F5803F1FD1F9
:104CA8000121201DFFF798FD05461DBB834A136DA2
:104CB80023F4E023216E0B4313651CE0002104F16B
:104CC8002400FFF70FFE0546D5E72E46DBE7B3F5D0
:104CD800802FEAD0B3F5A02FE7D0B3F5403FE4D05A
:104CE8000126354607E0012104F12400FFF7FAFD0B
:104CF8000546DAE72E46236813F4804F2CD0D4F803
:104D0800AC30B3F1005F1FD012D83BB1B3F1805F74
:104D180017D10121201DFFF75FFD0546DDB9674A60
:104D2800936D23F0E043D4F8AC100B43936513E084
:104D3800B3F1804FF2D0B3F1A04FEFD0B3F1405FA1
:104D4800ECD00126354607E0012104F12400FFF7E5
:104D5800C9FD0546E2E72E46236813F4004F1FD02D
:104D6800E36EB3F1805F06D0B3F1005F11D03BB1C1
:104D78000126354614E0514AD36A43F40033D3621E
:104D88006DB94E4A136D23F04053E16E0B43136522
:104D980006E00121201DFFF71FFD0546F0E72E461E
:104DA800236813F0807F1ED0636C032B17D8DFE8CD
:104DB80003F007021007414AD36A43F40033D36271
:104DC80085B93E4AD36C23F00303616C0B43D3646B
:104DD80009E00221201DFFF7FFFC0546F0E7012648
:104DE800354600E02E46236813F4800F1FD1236850
:104DF80013F0010F00F09E80A36F282B00F296801D
:104E0800DFE803F084949494949494947F94949415
:104E1800949494948D949494949494948494949461
:104E28009494949484949494949494948400244AA8
:104E3800136843F480731360FBF72AFC0746204B82
:104E48001B6813F4807F05D1FBF722FCC01B642884
:104E5800F5D90325002D50D1184B1B6FD4F8B0207D
:104E6800534013F4407F0CD0144B1A6F22F4407255
:104E7800196F41F480311967196F21F4803119676E
:104E88001A67D4F8B030B3F5807F1BD0002D36D127
:104E9800D4F8B03003F44072B2F5407F23D0074A0B
:104EA800136923F47C53136104490B6FD4F8B020C1
:104EB800C2F30B0213430B6799E700BF0044025883
:104EC80000480258FBF7E4FB0746AC4B1B6F13F096
:104ED800020FDBD1FBF7DCFBC01B41F288339842A1
:104EE800F3D90325D2E7A548026922F47C52A449E4
:104EF80001EA131313430361D6E72E4677E72E46DC
:104F080075E70121201DFFF767FC05468DB99B4A0F
:104F1800536D23F03803A16F0B4353650AE0012159
:104F280004F12400FFF7DEFC0546EFE701263546CD
:104F380000E02E46236813F0020F20D0636F052B84
:104F480019D8DFE803F00803110808080121201D1B
:104F5800FFF742FC05468DB9884A536D23F00703D5
:104F6800616F0B4353650AE0012104F12400FFF748
:104F7800B9FC0546EFE70126354600E02E462368D2
:104F880013F0040F22D0D4F89030052B1AD8DFE89C
:104F980003F00803120808080121201DFFF71CFC74
:104FA800054695B9754A936D23F00703D4F8901018
:104FB8000B4393650AE0012104F12400FFF792FCFA
:104FC8000546EEE70126354600E02E46236813F035
:104FD800200F2CD0D4F88C30B3F1005F1FD012D83A
:104FE8003BB1B3F1805F17D10021201DFFF7F4FB1F
:104FF8000546DDB9614A536D23F0E043D4F88C10BF
:105008000B43536513E0B3F1804FF2D0B3F1A04FD7
:10501800EFD0B3F1405FECD00126354607E002211E
:1050280004F12400FFF75EFC0546E2E72E462368FC
:1050380013F0400F2CD0D4F89830B3F5006F1FD080
:1050480012D83BB1B3F5806F17D10021201DFFF7AF
:10505800C3FB0546DDB9494A936D23F4E053D4F800
:1050680098100B43936513E0B3F5805FF2D0B3F566
:10507800A05FEFD0B3F5406FECD00126354607E0CE
:10508800022104F12400FFF72DFC0546E2E72E4635
:10509800236813F0800F2CD0D4F89C30B3F5804FE0
:1050A8001FD012D83BB1B3F5005F17D10021201DE6
:1050B800FFF792FB0546DDB9304A936D23F4604350
:1050C800D4F89C100B43936513E0B3F5004FF2D06E
:1050D800B3F5204FEFD0B3F5C04FECD001263546DD
:1050E80007E0022104F12400FFF7FCFB0546E2E794
:1050F8002E46236813F0080F0CD0D4F88030B3F58F
:10510800805F28D01D4A536D23F44053D4F8801093
:105118000B435365236813F0100F0CD0D4F8943068
:10512800B3F5807F20D0154A936D23F44073D4F8EB
:1051380094100B439365236813F4002F39D0D4F8E7
:10514800A030B3F5803F2CD0B3F5003F1FD0CBB1D2
:10515800012635462DE0022104F12400FFF7C2FBA9
:105168000028CFD00126CDE7022104F12400FFF763
:10517800B9FB0028D7D00126D5E700BF0044025864
:10518800CFFFFF000021201DFFF726FB05467DB954
:105198005E4A936D23F44033D4F8A0100B43936513
:1051A80007E0022104F12400FFF79CFB0546EEE727
:1051B8002E46236813F4802F24D0D4F88430B3F516
:1051C800001F17D0B3F5401F0AD0B3F5801F02D0D7
:1051D8000126354616E04D4AD36A43F40033D362BC
:1051E8007DB94A4A536D23F44013D4F884100B4315
:1051F800536507E0012104F12400FFF773FB05461E
:10520800EEE72E46236813F4803F14D0E36C2BB1ED
:10521800B3F5803F23D0012635460CE03B4AD36ADC
:1052280043F40033D36205BB384AD36C23F480338C
:10523800E16C0B43D364236813F0005F17D1236834
:1052480013F4003F2DD0E36FB3F5807F1BD017D93F
:10525800B3F5007F1CD0B3F5407F12D118E00221CE
:10526800201DFFF7B9FA0546DDE72E46E3E70221E0
:1052780004F12400FFF736FB0028E0D00126DEE722
:1052880033B101260DE0214AD36A43F40033D362D7
:10529800002D31D11D4A536D23F44073E16F0B4348
:1052A8005365236813F4801F06D0184A136D23F042
:1052B8000043216F0B431365236813F4001F06D0C6
:1052C800124A136D23F08073A16E0B431365236894
:1052D80013F0804F09D00D4B1A6922F400421A616D
:1052E8001A69D4F8B8100A431A612368002B05DB41
:1052F80006B101263046F8BD2E46D2E7034AD36CE4
:1053080023F04053216D0B43D364F1E70044025866
:1053180008B5FFF71BFA054B1B6AC3F30213044ACF
:10532800D35C03F01F03D84008BD00BF00440258F7
:10533800CCE4000810B478498C6A8A6AC2F3053252
:10534800CB6AC3F30013C96BC1F3CC0103FB01F3B0
:10535800002A00F0DB8004F0030407EE903AF8EE30
:10536800677A012C66D0FCB1022C00F0B28007EEFF
:10537800102AB8EE477A9FED696AC6EE076A664B4F
:105388009B6BC3F3080307EE103AB8EE477A9FED1C
:10539800646A67EE867A77EE277AB7EE007A77EE58
:1053A800877A66EEA76A61E05B4B1B6813F0200FF3
:1053B80023D0594C2168C1F3C1015A4BCB4007EEA9
:1053C800103AB8EE477A06EE902AB8EE666AC7EE4B
:1053D800066AA36BC3F3080307EE103AB8EE477AE0
:1053E8009FED4F6A67EE867A77EE277AB7EE007AF6
:1053F80077EE877A66EEA76A38E007EE102AB8EEED
:10540800477A9FED496AC6EE076A434B9B6BC3F325
:10541800080307EE103AB8EE477A9FED416A67EE47
:10542800867A77EE277AB7EE007A77EE877A66EE95
:10543800A76A1BE007EE102AB8EE477A9FED376A95
:10544800C6EE076A344B9B6BC3F3080307EE103AAA
:10545800B8EE477A9FED326A67EE867A77EE277A5A
:10546800B7EE007A77EE877A66EEA76A2A4A936BD8
:10547800C3F3462307EE103AB8EE477AB7EE006A50
:1054880037EE067AC6EE877AFCEEE77AC0ED007A48
:10549800936BC3F3064307EE103AB8EE477A37EE3C
:1054A800067AC6EE877AFCEEE77AC0ED017A936B4E
:1054B800C3F3066307EE903AF8EE677A77EE867ADA
:1054C80086EEA77ABCEEC77A80ED027A5DF8044BC7
:1054D800704707EE102AB8EE477A9FED146AC6EEB9
:1054E800076A0D4B9B6BC3F3080307EE103AB8EE3F
:1054F800477A9FED0B6A67EE867A77EE277AB7EEE2
:10550800007A77EE877A66EEA76AAFE70023036032
:1055180043608360DAE700BF004402580024744AFD
:10552800000000390090D0030024744C20BCBE4B0E
:1055380010B478498C6A8A6AC2F30552CB6AC3F3FD
:105548000023496CC1F3CC0103FB01F3002A00F0EE
:10555800DB8004F0030407EE903AF8EE677A012C3A
:1055680066D0FCB1022C00F0B28007EE102AB8EE2B
:10557800477A9FED696AC6EE076A664B1B6CC3F3F0
:10558800080307EE103AB8EE477A9FED646A67EEB3
:10559800867A77EE277AB7EE007A77EE877A66EE24
:1055A800A76A61E05B4B1B6813F0200F23D0594CAE
:1055B8002168C1F3C1015A4BCB4007EE103AB8EE4F
:1055C800477A06EE902AB8EE666AC7EE066A236C3A
:1055D800C3F3080307EE103AB8EE477A9FED4F6A17
:1055E80067EE867A77EE277AB7EE007A77EE877AD3
:1055F80066EEA76A38E007EE102AB8EE477A9FED04
:10560800496AC6EE076A434B1B6CC3F3080307EEEF
:10561800103AB8EE477A9FED416A67EE867A77EEE0
:10562800277AB7EE007A77EE877A66EEA76A1BE0EC
:1056380007EE102AB8EE477A9FED376AC6EE076A7A
:10564800344B1B6CC3F3080307EE103AB8EE477AE5
:105658009FED326A67EE867A77EE277AB7EE007AA0
:1056680077EE877A66EEA76A2A4A136CC3F3462355
:1056780007EE103AB8EE477AB7EE006A37EE067AC8
:10568800C6EE877AFCEEE77AC0ED007A136CC3F3B6
:10569800064307EE103AB8EE477A37EE067AC6EEBA
:1056A800877AFCEEE77AC0ED017A136CC3F30663E0
:1056B80007EE903AF8EE677A77EE867A86EEA77A62
:1056C800BCEEC77A80ED027A5DF8044B704707EEAE
:1056D800102AB8EE477A9FED146AC6EE076A0D4B9A
:1056E8001B6CC3F3080307EE103AB8EE477A9FED38
:1056F8000B6A67EE867A77EE277AB7EE007A77EE4E
:10570800877A66EEA76AAFE7002303604360836089
:10571800DAE700BF004402580024744A0000003948
:105728000090D0030024744C20BCBE4B10B47849C0
:105738008C6A8A6AC2F30512CB6A03F00103496BCB
:10574800C1F3CC0103FB01F3002A00F0DB8004F075
:10575800030407EE903AF8EE677A012C66D0FCB1A4
:10576800022C00F0B28007EE102AB8EE477A9FEDBF
:10577800696AC6EE076A664B1B6BC3F3080307EE3C
:10578800103AB8EE477A9FED646A67EE867A77EE4C
:10579800277AB7EE007A77EE877A66EEA76A61E035
:1057A8005B4B1B6813F0200F23D0594C2168C1F3C1
:1057B800C1015A4BCB4007EE103AB8EE477A06EED5
:1057C800902AB8EE666AC7EE066A236BC3F308032D
:1057D80007EE103AB8EE477A9FED4F6A67EE867A81
:1057E80077EE277AB7EE007A77EE877A66EEA76AC1
:1057F80038E007EE102AB8EE477A9FED496AC6EE00
:10580800076A434B1B6BC3F3080307EE103AB8EE65
:10581800477A9FED416A67EE867A77EE277AB7EE88
:10582800007A77EE877A66EEA76A1BE007EE102A01
:10583800B8EE477A9FED376AC6EE076A344B1B6BA2
:10584800C3F3080307EE103AB8EE477A9FED326AC1
:1058580067EE867A77EE277AB7EE007A77EE877A60
:1058680066EEA76A2A4A136BC3F3462307EE103A7B
:10587800B8EE477AB7EE006A37EE067AC6EE877A50
:10588800FCEEE77AC0ED007A136BC3F3064307EE2C
:10589800103AB8EE477A37EE067AC6EE877AFCEE0B
:1058A800E77AC0ED017A136BC3F3066307EE903A0B
:1058B800F8EE677A77EE867A86EEA77ABCEEC77A34
:1058C80080ED027A5DF8044B704707EE102AB8EEB7
:1058D800477A9FED146AC6EE076A0D4B1B6BC3F33C
:1058E800080307EE103AB8EE477A9FED0B6A67EEA9
:1058F800867A77EE277AB7EE007A77EE877A66EEC1
:10590800A76AAFE70023036043608360DAE700BF5C
:10591800004402580024744A000000390090D00363
:105928000024744C20BCBE4B00B58BB0B0F5807F12
:105938001BD0B0F5007F48D0B0F5806F78D0B0F5B7
:10594800006F00F0AB80B0F5805F00F0DD80B0F54F
:10595800002F00F00F81B0F5803F00F03181B0F5E5
:10596800804F00F0458100200CE09E4B1B6D03F03A
:105978000703042B00F26481DFE803F0070C11032E
:10598800160099480BB05DF804FB07A8FFF7CEFE98
:105998000898F7E704A8FFF7CDFC0498F2E701A8F8
:1059A800FFF7C6FD0198EDE78E4BDB6C13F0405313
:1059B80000F04881B3F1805F00F04681B3F1005FE9
:1059C80001D00020DEE78948DCE7864B1B6D03F435
:1059D800E073802B25D008D8F3B1402B40F03681F6
:1059E80004A8FFF7A7FC0498CCE7C02B12D0B3F5A6
:1059F800807F40F02B817B4BDB6C13F0405300F031
:105A08002781B3F1805F00F02581B3F1005F0DD0ED
:105A18000020B7E77448B5E707A8FFF787FE08989E
:105A2800B0E701A8FFF784FD0198ABE76F48A9E745
:105A38006C4B9B6D03F46003B3F5800F27D009D836
:105A480003B3B3F5001F40F0078104A8FFF772FC09
:105A5800049897E7B3F5C00F12D0B3F5000F40F0E4
:105A6800FB80604BDB6C13F0405300F0F780B3F120
:105A7800805F00F0F580B3F1005F0DD0002081E772
:105A880059487FE707A8FFF751FE08987AE701A869
:105A9800FFF74EFD019875E7544873E7514B9B6D2E
:105AA80003F0E063B3F1007F27D009D803B3B3F163
:105AB800807F40F0D78004A8FFF73CFC049861E79A
:105AC800B3F1407F12D0B3F1806F40F0CB80454BEB
